{
	"Backend/RecyclingRewards.sol": {
		"RecyclingRewards": {
			"abi": [
				{
					"inputs": [
						{
							"internalType": "address",
							"name": "_rewardToken",
							"type": "address"
						},
						{
							"internalType": "uint256",
							"name": "_rewardPerRecycling",
							"type": "uint256"
						},
						{
							"internalType": "address",
							"name": "initialOwner",
							"type": "address"
						}
					],
					"stateMutability": "nonpayable",
					"type": "constructor"
				},
				{
					"inputs": [
						{
							"internalType": "address",
							"name": "owner",
							"type": "address"
						}
					],
					"name": "OwnableInvalidOwner",
					"type": "error"
				},
				{
					"inputs": [
						{
							"internalType": "address",
							"name": "account",
							"type": "address"
						}
					],
					"name": "OwnableUnauthorizedAccount",
					"type": "error"
				},
				{
					"anonymous": false,
					"inputs": [
						{
							"indexed": true,
							"internalType": "address",
							"name": "previousOwner",
							"type": "address"
						},
						{
							"indexed": true,
							"internalType": "address",
							"name": "newOwner",
							"type": "address"
						}
					],
					"name": "OwnershipTransferred",
					"type": "event"
				},
				{
					"anonymous": false,
					"inputs": [
						{
							"indexed": true,
							"internalType": "address",
							"name": "user",
							"type": "address"
						},
						{
							"indexed": true,
							"internalType": "uint256",
							"name": "tokenId",
							"type": "uint256"
						},
						{
							"indexed": false,
							"internalType": "uint256",
							"name": "rewardAmount",
							"type": "uint256"
						}
					],
					"name": "ProductRecycled",
					"type": "event"
				},
				{
					"inputs": [],
					"name": "getRewardRate",
					"outputs": [
						{
							"internalType": "uint256",
							"name": "",
							"type": "uint256"
						}
					],
					"stateMutability": "view",
					"type": "function"
				},
				{
					"inputs": [
						{
							"internalType": "address",
							"name": "user",
							"type": "address"
						}
					],
					"name": "getUserRewards",
					"outputs": [
						{
							"internalType": "uint256",
							"name": "",
							"type": "uint256"
						}
					],
					"stateMutability": "view",
					"type": "function"
				},
				{
					"inputs": [],
					"name": "owner",
					"outputs": [
						{
							"internalType": "address",
							"name": "",
							"type": "address"
						}
					],
					"stateMutability": "view",
					"type": "function"
				},
				{
					"inputs": [
						{
							"internalType": "uint256",
							"name": "tokenId",
							"type": "uint256"
						},
						{
							"internalType": "address",
							"name": "nftContract",
							"type": "address"
						}
					],
					"name": "recycleProduct",
					"outputs": [],
					"stateMutability": "nonpayable",
					"type": "function"
				},
				{
					"inputs": [
						{
							"internalType": "uint256",
							"name": "",
							"type": "uint256"
						}
					],
					"name": "recycledProducts",
					"outputs": [
						{
							"internalType": "bool",
							"name": "",
							"type": "bool"
						}
					],
					"stateMutability": "view",
					"type": "function"
				},
				{
					"inputs": [],
					"name": "renounceOwnership",
					"outputs": [],
					"stateMutability": "nonpayable",
					"type": "function"
				},
				{
					"inputs": [],
					"name": "rewardPerRecycling",
					"outputs": [
						{
							"internalType": "uint256",
							"name": "",
							"type": "uint256"
						}
					],
					"stateMutability": "view",
					"type": "function"
				},
				{
					"inputs": [],
					"name": "rewardToken",
					"outputs": [
						{
							"internalType": "contract IERC20",
							"name": "",
							"type": "address"
						}
					],
					"stateMutability": "view",
					"type": "function"
				},
				{
					"inputs": [
						{
							"internalType": "address",
							"name": "newOwner",
							"type": "address"
						}
					],
					"name": "transferOwnership",
					"outputs": [],
					"stateMutability": "nonpayable",
					"type": "function"
				},
				{
					"inputs": [
						{
							"internalType": "uint256",
							"name": "newRewardRate",
							"type": "uint256"
						}
					],
					"name": "updateRewardRate",
					"outputs": [],
					"stateMutability": "nonpayable",
					"type": "function"
				},
				{
					"inputs": [
						{
							"internalType": "address",
							"name": "",
							"type": "address"
						}
					],
					"name": "userRewards",
					"outputs": [
						{
							"internalType": "uint256",
							"name": "",
							"type": "uint256"
						}
					],
					"stateMutability": "view",
					"type": "function"
				},
				{
					"inputs": [],
					"name": "withdrawRewards",
					"outputs": [],
					"stateMutability": "nonpayable",
					"type": "function"
				}
			],
			"devdoc": {
				"errors": {
					"OwnableInvalidOwner(address)": [
						{
							"details": "The owner is not a valid owner account. (eg. `address(0)`)"
						}
					],
					"OwnableUnauthorizedAccount(address)": [
						{
							"details": "The caller account is not authorized to perform an operation."
						}
					]
				},
				"kind": "dev",
				"methods": {
					"constructor": {
						"params": {
							"_rewardPerRecycling": "The amount of reward given per recycled product",
							"_rewardToken": "Address of the ERC20 reward token contract",
							"initialOwner": "The address of the initial owner (msg.sender)"
						}
					},
					"getRewardRate()": {
						"returns": {
							"_0": "The reward rate per recycled product"
						}
					},
					"getUserRewards(address)": {
						"params": {
							"user": "The address of the user"
						},
						"returns": {
							"_0": "The total accumulated rewards for the user"
						}
					},
					"owner()": {
						"details": "Returns the address of the current owner."
					},
					"recycleProduct(uint256,address)": {
						"params": {
							"nftContract": "The address of the NFT contract representing the product",
							"tokenId": "The ID of the product NFT that is being recycled"
						}
					},
					"renounceOwnership()": {
						"details": "Leaves the contract without owner. It will not be possible to call `onlyOwner` functions. Can only be called by the current owner. NOTE: Renouncing ownership will leave the contract without an owner, thereby disabling any functionality that is only available to the owner."
					},
					"transferOwnership(address)": {
						"details": "Transfers ownership of the contract to a new account (`newOwner`). Can only be called by the current owner."
					},
					"updateRewardRate(uint256)": {
						"params": {
							"newRewardRate": "The new amount of reward given per recycled product"
						}
					}
				},
				"version": 1
			},
			"evm": {
				"assembly": "    /* \"Backend/RecyclingRewards.sol\":286:3555  contract RecyclingRewards is Ownable {... */\n  mstore(0x40, 0x80)\n    /* \"Backend/RecyclingRewards.sol\":1197:1405  constructor(address _rewardToken, uint256 _rewardPerRecycling, address initialOwner) Ownable(initialOwner) {... */\n  callvalue\n  dup1\n  iszero\n  tag_1\n  jumpi\n  0x00\n  dup1\n  revert\ntag_1:\n  pop\n  mload(0x40)\n  sub(codesize, bytecodeSize)\n  dup1\n  bytecodeSize\n  dup4\n  codecopy\n  dup2\n  dup2\n  add\n  0x40\n  mstore\n  dup2\n  add\n  swap1\n  tag_2\n  swap2\n  swap1\n  tag_3\n  jump\t// in\ntag_2:\n    /* \"Backend/RecyclingRewards.sol\":1290:1302  initialOwner */\n  dup1\n    /* \"@openzeppelin/contracts/access/Ownable.sol\":1297:1298  0 */\n  0x00\n    /* \"@openzeppelin/contracts/access/Ownable.sol\":1273:1299  initialOwner == address(0) */\n  0xffffffffffffffffffffffffffffffffffffffff\n  and\n    /* \"@openzeppelin/contracts/access/Ownable.sol\":1273:1285  initialOwner */\n  dup2\n    /* \"@openzeppelin/contracts/access/Ownable.sol\":1273:1299  initialOwner == address(0) */\n  0xffffffffffffffffffffffffffffffffffffffff\n  and\n  sub\n    /* \"@openzeppelin/contracts/access/Ownable.sol\":1269:1364  if (initialOwner == address(0)) {... */\n  tag_7\n  jumpi\n    /* \"@openzeppelin/contracts/access/Ownable.sol\":1350:1351  0 */\n  0x00\n    /* \"@openzeppelin/contracts/access/Ownable.sol\":1322:1353  OwnableInvalidOwner(address(0)) */\n  mload(0x40)\n  0x1e4fbdf700000000000000000000000000000000000000000000000000000000\n  dup2\n  mstore\n  0x04\n  add\n  tag_8\n  swap2\n  swap1\n  tag_9\n  jump\t// in\ntag_8:\n  mload(0x40)\n  dup1\n  swap2\n  sub\n  swap1\n  revert\n    /* \"@openzeppelin/contracts/access/Ownable.sol\":1269:1364  if (initialOwner == address(0)) {... */\ntag_7:\n    /* \"@openzeppelin/contracts/access/Ownable.sol\":1373:1405  _transferOwnership(initialOwner) */\n  tag_10\n    /* \"@openzeppelin/contracts/access/Ownable.sol\":1392:1404  initialOwner */\n  dup2\n    /* \"@openzeppelin/contracts/access/Ownable.sol\":1373:1391  _transferOwnership */\n  shl(0x20, tag_11)\n    /* \"@openzeppelin/contracts/access/Ownable.sol\":1373:1405  _transferOwnership(initialOwner) */\n  0x20\n  shr\n  jump\t// in\ntag_10:\n    /* \"@openzeppelin/contracts/access/Ownable.sol\":1225:1412  constructor(address initialOwner) {... */\n  pop\n    /* \"Backend/RecyclingRewards.sol\":1335:1347  _rewardToken */\n  dup3\n    /* \"Backend/RecyclingRewards.sol\":1314:1325  rewardToken */\n  0x01\n  0x00\n    /* \"Backend/RecyclingRewards.sol\":1314:1348  rewardToken = IERC20(_rewardToken) */\n  0x0100\n  exp\n  dup2\n  sload\n  dup2\n  0xffffffffffffffffffffffffffffffffffffffff\n  mul\n  not\n  and\n  swap1\n  dup4\n  0xffffffffffffffffffffffffffffffffffffffff\n  and\n  mul\n  or\n  swap1\n  sstore\n  pop\n    /* \"Backend/RecyclingRewards.sol\":1379:1398  _rewardPerRecycling */\n  dup2\n    /* \"Backend/RecyclingRewards.sol\":1358:1376  rewardPerRecycling */\n  0x04\n    /* \"Backend/RecyclingRewards.sol\":1358:1398  rewardPerRecycling = _rewardPerRecycling */\n  dup2\n  swap1\n  sstore\n  pop\n    /* \"Backend/RecyclingRewards.sol\":1197:1405  constructor(address _rewardToken, uint256 _rewardPerRecycling, address initialOwner) Ownable(initialOwner) {... */\n  pop\n  pop\n  pop\n    /* \"Backend/RecyclingRewards.sol\":286:3555  contract RecyclingRewards is Ownable {... */\n  jump(tag_13)\n    /* \"@openzeppelin/contracts/access/Ownable.sol\":2912:3099  function _transferOwnership(address newOwner) internal virtual {... */\ntag_11:\n    /* \"@openzeppelin/contracts/access/Ownable.sol\":2985:3001  address oldOwner */\n  0x00\n    /* \"@openzeppelin/contracts/access/Ownable.sol\":3004:3010  _owner */\n  dup1\n  0x00\n  swap1\n  sload\n  swap1\n  0x0100\n  exp\n  swap1\n  div\n  0xffffffffffffffffffffffffffffffffffffffff\n  and\n    /* \"@openzeppelin/contracts/access/Ownable.sol\":2985:3010  address oldOwner = _owner */\n  swap1\n  pop\n    /* \"@openzeppelin/contracts/access/Ownable.sol\":3029:3037  newOwner */\n  dup2\n    /* \"@openzeppelin/contracts/access/Ownable.sol\":3020:3026  _owner */\n  0x00\n  dup1\n    /* \"@openzeppelin/contracts/access/Ownable.sol\":3020:3037  _owner = newOwner */\n  0x0100\n  exp\n  dup2\n  sload\n  dup2\n  0xffffffffffffffffffffffffffffffffffffffff\n  mul\n  not\n  and\n  swap1\n  dup4\n  0xffffffffffffffffffffffffffffffffffffffff\n  and\n  mul\n  or\n  swap1\n  sstore\n  pop\n    /* \"@openzeppelin/contracts/access/Ownable.sol\":3083:3091  newOwner */\n  dup2\n    /* \"@openzeppelin/contracts/access/Ownable.sol\":3052:3092  OwnershipTransferred(oldOwner, newOwner) */\n  0xffffffffffffffffffffffffffffffffffffffff\n  and\n    /* \"@openzeppelin/contracts/access/Ownable.sol\":3073:3081  oldOwner */\n  dup2\n    /* \"@openzeppelin/contracts/access/Ownable.sol\":3052:3092  OwnershipTransferred(oldOwner, newOwner) */\n  0xffffffffffffffffffffffffffffffffffffffff\n  and\n  0x8be0079c531659141344cd1fd0a4f28419497f9722a3daafe3b4186f6b6457e0\n  mload(0x40)\n  mload(0x40)\n  dup1\n  swap2\n  sub\n  swap1\n  log3\n    /* \"@openzeppelin/contracts/access/Ownable.sol\":2975:3099  {... */\n  pop\n    /* \"@openzeppelin/contracts/access/Ownable.sol\":2912:3099  function _transferOwnership(address newOwner) internal virtual {... */\n  pop\n  jump\t// out\n    /* \"#utility.yul\":88:205   */\ntag_16:\n    /* \"#utility.yul\":197:198   */\n  0x00\n    /* \"#utility.yul\":194:195   */\n  dup1\n    /* \"#utility.yul\":187:199   */\n  revert\n    /* \"#utility.yul\":334:460   */\ntag_18:\n    /* \"#utility.yul\":371:378   */\n  0x00\n    /* \"#utility.yul\":411:453   */\n  0xffffffffffffffffffffffffffffffffffffffff\n    /* \"#utility.yul\":404:409   */\n  dup3\n    /* \"#utility.yul\":400:454   */\n  and\n    /* \"#utility.yul\":389:454   */\n  swap1\n  pop\n    /* \"#utility.yul\":334:460   */\n  swap2\n  swap1\n  pop\n  jump\t// out\n    /* \"#utility.yul\":466:562   */\ntag_19:\n    /* \"#utility.yul\":503:510   */\n  0x00\n    /* \"#utility.yul\":532:556   */\n  tag_32\n    /* \"#utility.yul\":550:555   */\n  dup3\n    /* \"#utility.yul\":532:556   */\n  tag_18\n  jump\t// in\ntag_32:\n    /* \"#utility.yul\":521:556   */\n  swap1\n  pop\n    /* \"#utility.yul\":466:562   */\n  swap2\n  swap1\n  pop\n  jump\t// out\n    /* \"#utility.yul\":568:690   */\ntag_20:\n    /* \"#utility.yul\":641:665   */\n  tag_34\n    /* \"#utility.yul\":659:664   */\n  dup2\n    /* \"#utility.yul\":641:665   */\n  tag_19\n  jump\t// in\ntag_34:\n    /* \"#utility.yul\":634:639   */\n  dup2\n    /* \"#utility.yul\":631:666   */\n  eq\n    /* \"#utility.yul\":621:684   */\n  tag_35\n  jumpi\n    /* \"#utility.yul\":680:681   */\n  0x00\n    /* \"#utility.yul\":677:678   */\n  dup1\n    /* \"#utility.yul\":670:682   */\n  revert\n    /* \"#utility.yul\":621:684   */\ntag_35:\n    /* \"#utility.yul\":568:690   */\n  pop\n  jump\t// out\n    /* \"#utility.yul\":696:839   */\ntag_21:\n    /* \"#utility.yul\":753:758   */\n  0x00\n    /* \"#utility.yul\":784:790   */\n  dup2\n    /* \"#utility.yul\":778:791   */\n  mload\n    /* \"#utility.yul\":769:791   */\n  swap1\n  pop\n    /* \"#utility.yul\":800:833   */\n  tag_37\n    /* \"#utility.yul\":827:832   */\n  dup2\n    /* \"#utility.yul\":800:833   */\n  tag_20\n  jump\t// in\ntag_37:\n    /* \"#utility.yul\":696:839   */\n  swap3\n  swap2\n  pop\n  pop\n  jump\t// out\n    /* \"#utility.yul\":845:922   */\ntag_22:\n    /* \"#utility.yul\":882:889   */\n  0x00\n    /* \"#utility.yul\":911:916   */\n  dup2\n    /* \"#utility.yul\":900:916   */\n  swap1\n  pop\n    /* \"#utility.yul\":845:922   */\n  swap2\n  swap1\n  pop\n  jump\t// out\n    /* \"#utility.yul\":928:1050   */\ntag_23:\n    /* \"#utility.yul\":1001:1025   */\n  tag_40\n    /* \"#utility.yul\":1019:1024   */\n  dup2\n    /* \"#utility.yul\":1001:1025   */\n  tag_22\n  jump\t// in\ntag_40:\n    /* \"#utility.yul\":994:999   */\n  dup2\n    /* \"#utility.yul\":991:1026   */\n  eq\n    /* \"#utility.yul\":981:1044   */\n  tag_41\n  jumpi\n    /* \"#utility.yul\":1040:1041   */\n  0x00\n    /* \"#utility.yul\":1037:1038   */\n  dup1\n    /* \"#utility.yul\":1030:1042   */\n  revert\n    /* \"#utility.yul\":981:1044   */\ntag_41:\n    /* \"#utility.yul\":928:1050   */\n  pop\n  jump\t// out\n    /* \"#utility.yul\":1056:1199   */\ntag_24:\n    /* \"#utility.yul\":1113:1118   */\n  0x00\n    /* \"#utility.yul\":1144:1150   */\n  dup2\n    /* \"#utility.yul\":1138:1151   */\n  mload\n    /* \"#utility.yul\":1129:1151   */\n  swap1\n  pop\n    /* \"#utility.yul\":1160:1193   */\n  tag_43\n    /* \"#utility.yul\":1187:1192   */\n  dup2\n    /* \"#utility.yul\":1160:1193   */\n  tag_23\n  jump\t// in\ntag_43:\n    /* \"#utility.yul\":1056:1199   */\n  swap3\n  swap2\n  pop\n  pop\n  jump\t// out\n    /* \"#utility.yul\":1205:1868   */\ntag_3:\n    /* \"#utility.yul\":1293:1299   */\n  0x00\n    /* \"#utility.yul\":1301:1307   */\n  dup1\n    /* \"#utility.yul\":1309:1315   */\n  0x00\n    /* \"#utility.yul\":1358:1360   */\n  0x60\n    /* \"#utility.yul\":1346:1355   */\n  dup5\n    /* \"#utility.yul\":1337:1344   */\n  dup7\n    /* \"#utility.yul\":1333:1356   */\n  sub\n    /* \"#utility.yul\":1329:1361   */\n  slt\n    /* \"#utility.yul\":1326:1445   */\n  iszero\n  tag_45\n  jumpi\n    /* \"#utility.yul\":1364:1443   */\n  tag_46\n  tag_16\n  jump\t// in\ntag_46:\n    /* \"#utility.yul\":1326:1445   */\ntag_45:\n    /* \"#utility.yul\":1484:1485   */\n  0x00\n    /* \"#utility.yul\":1509:1573   */\n  tag_47\n    /* \"#utility.yul\":1565:1572   */\n  dup7\n    /* \"#utility.yul\":1556:1562   */\n  dup3\n    /* \"#utility.yul\":1545:1554   */\n  dup8\n    /* \"#utility.yul\":1541:1563   */\n  add\n    /* \"#utility.yul\":1509:1573   */\n  tag_21\n  jump\t// in\ntag_47:\n    /* \"#utility.yul\":1499:1573   */\n  swap4\n  pop\n    /* \"#utility.yul\":1455:1583   */\n  pop\n    /* \"#utility.yul\":1622:1624   */\n  0x20\n    /* \"#utility.yul\":1648:1712   */\n  tag_48\n    /* \"#utility.yul\":1704:1711   */\n  dup7\n    /* \"#utility.yul\":1695:1701   */\n  dup3\n    /* \"#utility.yul\":1684:1693   */\n  dup8\n    /* \"#utility.yul\":1680:1702   */\n  add\n    /* \"#utility.yul\":1648:1712   */\n  tag_24\n  jump\t// in\ntag_48:\n    /* \"#utility.yul\":1638:1712   */\n  swap3\n  pop\n    /* \"#utility.yul\":1593:1722   */\n  pop\n    /* \"#utility.yul\":1761:1763   */\n  0x40\n    /* \"#utility.yul\":1787:1851   */\n  tag_49\n    /* \"#utility.yul\":1843:1850   */\n  dup7\n    /* \"#utility.yul\":1834:1840   */\n  dup3\n    /* \"#utility.yul\":1823:1832   */\n  dup8\n    /* \"#utility.yul\":1819:1841   */\n  add\n    /* \"#utility.yul\":1787:1851   */\n  tag_21\n  jump\t// in\ntag_49:\n    /* \"#utility.yul\":1777:1851   */\n  swap2\n  pop\n    /* \"#utility.yul\":1732:1861   */\n  pop\n    /* \"#utility.yul\":1205:1868   */\n  swap3\n  pop\n  swap3\n  pop\n  swap3\n  jump\t// out\n    /* \"#utility.yul\":1874:1992   */\ntag_25:\n    /* \"#utility.yul\":1961:1985   */\n  tag_51\n    /* \"#utility.yul\":1979:1984   */\n  dup2\n    /* \"#utility.yul\":1961:1985   */\n  tag_19\n  jump\t// in\ntag_51:\n    /* \"#utility.yul\":1956:1959   */\n  dup3\n    /* \"#utility.yul\":1949:1986   */\n  mstore\n    /* \"#utility.yul\":1874:1992   */\n  pop\n  pop\n  jump\t// out\n    /* \"#utility.yul\":1998:2220   */\ntag_9:\n    /* \"#utility.yul\":2091:2095   */\n  0x00\n    /* \"#utility.yul\":2129:2131   */\n  0x20\n    /* \"#utility.yul\":2118:2127   */\n  dup3\n    /* \"#utility.yul\":2114:2132   */\n  add\n    /* \"#utility.yul\":2106:2132   */\n  swap1\n  pop\n    /* \"#utility.yul\":2142:2213   */\n  tag_53\n    /* \"#utility.yul\":2210:2211   */\n  0x00\n    /* \"#utility.yul\":2199:2208   */\n  dup4\n    /* \"#utility.yul\":2195:2212   */\n  add\n    /* \"#utility.yul\":2186:2192   */\n  dup5\n    /* \"#utility.yul\":2142:2213   */\n  tag_25\n  jump\t// in\ntag_53:\n    /* \"#utility.yul\":1998:2220   */\n  swap3\n  swap2\n  pop\n  pop\n  jump\t// out\n    /* \"Backend/RecyclingRewards.sol\":286:3555  contract RecyclingRewards is Ownable {... */\ntag_13:\n  dataSize(sub_0)\n  dup1\n  dataOffset(sub_0)\n  0x00\n  codecopy\n  0x00\n  return\nstop\n\nsub_0: assembly {\n        /* \"Backend/RecyclingRewards.sol\":286:3555  contract RecyclingRewards is Ownable {... */\n      mstore(0x40, 0x80)\n      callvalue\n      dup1\n      iszero\n      tag_1\n      jumpi\n      0x00\n      dup1\n      revert\n    tag_1:\n      pop\n      jumpi(tag_2, lt(calldatasize, 0x04))\n      shr(0xe0, calldataload(0x00))\n      dup1\n      0x7e1a3786\n      gt\n      tag_15\n      jumpi\n      dup1\n      0x7e1a3786\n      eq\n      tag_9\n      jumpi\n      dup1\n      0x8da5cb5b\n      eq\n      tag_10\n      jumpi\n      dup1\n      0x9ef3a261\n      eq\n      tag_11\n      jumpi\n      dup1\n      0xc7b8981c\n      eq\n      tag_12\n      jumpi\n      dup1\n      0xf2fde38b\n      eq\n      tag_13\n      jumpi\n      dup1\n      0xf7c618c1\n      eq\n      tag_14\n      jumpi\n      jump(tag_2)\n    tag_15:\n      dup1\n      0x0660f1e8\n      eq\n      tag_3\n      jumpi\n      dup1\n      0x078b0fb7\n      eq\n      tag_4\n      jumpi\n      dup1\n      0x3f608ad2\n      eq\n      tag_5\n      jumpi\n      dup1\n      0x44301c13\n      eq\n      tag_6\n      jumpi\n      dup1\n      0x45e1d960\n      eq\n      tag_7\n      jumpi\n      dup1\n      0x715018a6\n      eq\n      tag_8\n      jumpi\n    tag_2:\n      0x00\n      dup1\n      revert\n        /* \"Backend/RecyclingRewards.sol\":544:590  mapping(address => uint256) public userRewards */\n    tag_3:\n      tag_16\n      0x04\n      dup1\n      calldatasize\n      sub\n      dup2\n      add\n      swap1\n      tag_17\n      swap2\n      swap1\n      tag_18\n      jump\t// in\n    tag_17:\n      tag_19\n      jump\t// in\n    tag_16:\n      mload(0x40)\n      tag_20\n      swap2\n      swap1\n      tag_21\n      jump\t// in\n    tag_20:\n      mload(0x40)\n      dup1\n      swap2\n      sub\n      swap1\n      return\n        /* \"Backend/RecyclingRewards.sol\":3442:3553  function getUserRewards(address user) external view returns (uint256) {... */\n    tag_4:\n      tag_22\n      0x04\n      dup1\n      calldatasize\n      sub\n      dup2\n      add\n      swap1\n      tag_23\n      swap2\n      swap1\n      tag_18\n      jump\t// in\n    tag_23:\n      tag_24\n      jump\t// in\n    tag_22:\n      mload(0x40)\n      tag_25\n      swap2\n      swap1\n      tag_21\n      jump\t// in\n    tag_25:\n      mload(0x40)\n      dup1\n      swap2\n      sub\n      swap1\n      return\n        /* \"Backend/RecyclingRewards.sol\":490:538  mapping(uint256 => bool) public recycledProducts */\n    tag_5:\n      tag_26\n      0x04\n      dup1\n      calldatasize\n      sub\n      dup2\n      add\n      swap1\n      tag_27\n      swap2\n      swap1\n      tag_28\n      jump\t// in\n    tag_27:\n      tag_29\n      jump\t// in\n    tag_26:\n      mload(0x40)\n      tag_30\n      swap2\n      swap1\n      tag_31\n      jump\t// in\n    tag_30:\n      mload(0x40)\n      dup1\n      swap2\n      sub\n      swap1\n      return\n        /* \"Backend/RecyclingRewards.sol\":1631:2385  function recycleProduct(uint256 tokenId, address nftContract) external {... */\n    tag_6:\n      tag_32\n      0x04\n      dup1\n      calldatasize\n      sub\n      dup2\n      add\n      swap1\n      tag_33\n      swap2\n      swap1\n      tag_34\n      jump\t// in\n    tag_33:\n      tag_35\n      jump\t// in\n    tag_32:\n      stop\n        /* \"Backend/RecyclingRewards.sol\":656:689  uint256 public rewardPerRecycling */\n    tag_7:\n      tag_36\n      tag_37\n      jump\t// in\n    tag_36:\n      mload(0x40)\n      tag_38\n      swap2\n      swap1\n      tag_21\n      jump\t// in\n    tag_38:\n      mload(0x40)\n      dup1\n      swap2\n      sub\n      swap1\n      return\n        /* \"@openzeppelin/contracts/access/Ownable.sol\":2293:2394  function renounceOwnership() public virtual onlyOwner {... */\n    tag_8:\n      tag_39\n      tag_40\n      jump\t// in\n    tag_39:\n      stop\n        /* \"Backend/RecyclingRewards.sol\":3166:3265  function getRewardRate() external view returns (uint256) {... */\n    tag_9:\n      tag_41\n      tag_42\n      jump\t// in\n    tag_41:\n      mload(0x40)\n      tag_43\n      swap2\n      swap1\n      tag_21\n      jump\t// in\n    tag_43:\n      mload(0x40)\n      dup1\n      swap2\n      sub\n      swap1\n      return\n        /* \"@openzeppelin/contracts/access/Ownable.sol\":1638:1723  function owner() public view virtual returns (address) {... */\n    tag_10:\n      tag_44\n      tag_45\n      jump\t// in\n    tag_44:\n      mload(0x40)\n      tag_46\n      swap2\n      swap1\n      tag_47\n      jump\t// in\n    tag_46:\n      mload(0x40)\n      dup1\n      swap2\n      sub\n      swap1\n      return\n        /* \"Backend/RecyclingRewards.sol\":2548:2667  function updateRewardRate(uint256 newRewardRate) external onlyOwner {... */\n    tag_11:\n      tag_48\n      0x04\n      dup1\n      calldatasize\n      sub\n      dup2\n      add\n      swap1\n      tag_49\n      swap2\n      swap1\n      tag_28\n      jump\t// in\n    tag_49:\n      tag_50\n      jump\t// in\n    tag_48:\n      stop\n        /* \"Backend/RecyclingRewards.sol\":2747:3035  function withdrawRewards() external {... */\n    tag_12:\n      tag_51\n      tag_52\n      jump\t// in\n    tag_51:\n      stop\n        /* \"@openzeppelin/contracts/access/Ownable.sol\":2543:2758  function transferOwnership(address newOwner) public virtual onlyOwner {... */\n    tag_13:\n      tag_53\n      0x04\n      dup1\n      calldatasize\n      sub\n      dup2\n      add\n      swap1\n      tag_54\n      swap2\n      swap1\n      tag_18\n      jump\t// in\n    tag_54:\n      tag_55\n      jump\t// in\n    tag_53:\n      stop\n        /* \"Backend/RecyclingRewards.sol\":393:418  IERC20 public rewardToken */\n    tag_14:\n      tag_56\n      tag_57\n      jump\t// in\n    tag_56:\n      mload(0x40)\n      tag_58\n      swap2\n      swap1\n      tag_59\n      jump\t// in\n    tag_58:\n      mload(0x40)\n      dup1\n      swap2\n      sub\n      swap1\n      return\n        /* \"Backend/RecyclingRewards.sol\":544:590  mapping(address => uint256) public userRewards */\n    tag_19:\n      mstore(0x20, 0x03)\n      dup1\n      0x00\n      mstore\n      keccak256(0x00, 0x40)\n      0x00\n      swap2\n      pop\n      swap1\n      pop\n      sload\n      dup2\n      jump\t// out\n        /* \"Backend/RecyclingRewards.sol\":3442:3553  function getUserRewards(address user) external view returns (uint256) {... */\n    tag_24:\n        /* \"Backend/RecyclingRewards.sol\":3503:3510  uint256 */\n      0x00\n        /* \"Backend/RecyclingRewards.sol\":3529:3540  userRewards */\n      0x03\n        /* \"Backend/RecyclingRewards.sol\":3529:3546  userRewards[user] */\n      0x00\n        /* \"Backend/RecyclingRewards.sol\":3541:3545  user */\n      dup4\n        /* \"Backend/RecyclingRewards.sol\":3529:3546  userRewards[user] */\n      0xffffffffffffffffffffffffffffffffffffffff\n      and\n      0xffffffffffffffffffffffffffffffffffffffff\n      and\n      dup2\n      mstore\n      0x20\n      add\n      swap1\n      dup2\n      mstore\n      0x20\n      add\n      0x00\n      keccak256\n      sload\n        /* \"Backend/RecyclingRewards.sol\":3522:3546  return userRewards[user] */\n      swap1\n      pop\n        /* \"Backend/RecyclingRewards.sol\":3442:3553  function getUserRewards(address user) external view returns (uint256) {... */\n      swap2\n      swap1\n      pop\n      jump\t// out\n        /* \"Backend/RecyclingRewards.sol\":490:538  mapping(uint256 => bool) public recycledProducts */\n    tag_29:\n      mstore(0x20, 0x02)\n      dup1\n      0x00\n      mstore\n      keccak256(0x00, 0x40)\n      0x00\n      swap2\n      pop\n      sload\n      swap1\n      0x0100\n      exp\n      swap1\n      div\n      0xff\n      and\n      dup2\n      jump\t// out\n        /* \"Backend/RecyclingRewards.sol\":1631:2385  function recycleProduct(uint256 tokenId, address nftContract) external {... */\n    tag_35:\n        /* \"Backend/RecyclingRewards.sol\":1712:1723  IERC721 nft */\n      0x00\n        /* \"Backend/RecyclingRewards.sol\":1734:1745  nftContract */\n      dup2\n        /* \"Backend/RecyclingRewards.sol\":1712:1746  IERC721 nft = IERC721(nftContract) */\n      swap1\n      pop\n        /* \"Backend/RecyclingRewards.sol\":1875:1885  msg.sender */\n      caller\n        /* \"Backend/RecyclingRewards.sol\":1851:1885  nft.ownerOf(tokenId) == msg.sender */\n      0xffffffffffffffffffffffffffffffffffffffff\n      and\n        /* \"Backend/RecyclingRewards.sol\":1851:1854  nft */\n      dup2\n        /* \"Backend/RecyclingRewards.sol\":1851:1862  nft.ownerOf */\n      0xffffffffffffffffffffffffffffffffffffffff\n      and\n      0x6352211e\n        /* \"Backend/RecyclingRewards.sol\":1863:1870  tokenId */\n      dup6\n        /* \"Backend/RecyclingRewards.sol\":1851:1871  nft.ownerOf(tokenId) */\n      mload(0x40)\n      dup3\n      0xffffffff\n      and\n      0xe0\n      shl\n      dup2\n      mstore\n      0x04\n      add\n      tag_62\n      swap2\n      swap1\n      tag_21\n      jump\t// in\n    tag_62:\n      0x20\n      mload(0x40)\n      dup1\n      dup4\n      sub\n      dup2\n      dup7\n      gas\n      staticcall\n      iszero\n      dup1\n      iszero\n      tag_64\n      jumpi\n      returndatasize\n      0x00\n      dup1\n      returndatacopy\n      revert(0x00, returndatasize)\n    tag_64:\n      pop\n      pop\n      pop\n      pop\n      mload(0x40)\n      returndatasize\n      not(0x1f)\n      0x1f\n      dup3\n      add\n      and\n      dup3\n      add\n      dup1\n      0x40\n      mstore\n      pop\n      dup2\n      add\n      swap1\n      tag_65\n      swap2\n      swap1\n      tag_66\n      jump\t// in\n    tag_65:\n        /* \"Backend/RecyclingRewards.sol\":1851:1885  nft.ownerOf(tokenId) == msg.sender */\n      0xffffffffffffffffffffffffffffffffffffffff\n      and\n      eq\n        /* \"Backend/RecyclingRewards.sol\":1843:1928  require(nft.ownerOf(tokenId) == msg.sender, \"You must own the product to recycle it\") */\n      tag_67\n      jumpi\n      mload(0x40)\n      0x08c379a000000000000000000000000000000000000000000000000000000000\n      dup2\n      mstore\n      0x04\n      add\n      tag_68\n      swap1\n      tag_69\n      jump\t// in\n    tag_68:\n      mload(0x40)\n      dup1\n      swap2\n      sub\n      swap1\n      revert\n    tag_67:\n        /* \"Backend/RecyclingRewards.sol\":1947:1963  recycledProducts */\n      0x02\n        /* \"Backend/RecyclingRewards.sol\":1947:1972  recycledProducts[tokenId] */\n      0x00\n        /* \"Backend/RecyclingRewards.sol\":1964:1971  tokenId */\n      dup5\n        /* \"Backend/RecyclingRewards.sol\":1947:1972  recycledProducts[tokenId] */\n      dup2\n      mstore\n      0x20\n      add\n      swap1\n      dup2\n      mstore\n      0x20\n      add\n      0x00\n      keccak256\n      0x00\n      swap1\n      sload\n      swap1\n      0x0100\n      exp\n      swap1\n      div\n      0xff\n      and\n        /* \"Backend/RecyclingRewards.sol\":1946:1972  !recycledProducts[tokenId] */\n      iszero\n        /* \"Backend/RecyclingRewards.sol\":1938:2015  require(!recycledProducts[tokenId], \"This product has already been recycled\") */\n      tag_70\n      jumpi\n      mload(0x40)\n      0x08c379a000000000000000000000000000000000000000000000000000000000\n      dup2\n      mstore\n      0x04\n      add\n      tag_71\n      swap1\n      tag_72\n      jump\t// in\n    tag_71:\n      mload(0x40)\n      dup1\n      swap2\n      sub\n      swap1\n      revert\n    tag_70:\n        /* \"Backend/RecyclingRewards.sol\":2094:2098  true */\n      0x01\n        /* \"Backend/RecyclingRewards.sol\":2066:2082  recycledProducts */\n      0x02\n        /* \"Backend/RecyclingRewards.sol\":2066:2091  recycledProducts[tokenId] */\n      0x00\n        /* \"Backend/RecyclingRewards.sol\":2083:2090  tokenId */\n      dup6\n        /* \"Backend/RecyclingRewards.sol\":2066:2091  recycledProducts[tokenId] */\n      dup2\n      mstore\n      0x20\n      add\n      swap1\n      dup2\n      mstore\n      0x20\n      add\n      0x00\n      keccak256\n      0x00\n        /* \"Backend/RecyclingRewards.sol\":2066:2098  recycledProducts[tokenId] = true */\n      0x0100\n      exp\n      dup2\n      sload\n      dup2\n      0xff\n      mul\n      not\n      and\n      swap1\n      dup4\n      iszero\n      iszero\n      mul\n      or\n      swap1\n      sstore\n      pop\n        /* \"Backend/RecyclingRewards.sol\":2197:2244  userRewards[msg.sender].add(rewardPerRecycling) */\n      tag_73\n        /* \"Backend/RecyclingRewards.sol\":2225:2243  rewardPerRecycling */\n      sload(0x04)\n        /* \"Backend/RecyclingRewards.sol\":2197:2208  userRewards */\n      0x03\n        /* \"Backend/RecyclingRewards.sol\":2197:2220  userRewards[msg.sender] */\n      0x00\n        /* \"Backend/RecyclingRewards.sol\":2209:2219  msg.sender */\n      caller\n        /* \"Backend/RecyclingRewards.sol\":2197:2220  userRewards[msg.sender] */\n      0xffffffffffffffffffffffffffffffffffffffff\n      and\n      0xffffffffffffffffffffffffffffffffffffffff\n      and\n      dup2\n      mstore\n      0x20\n      add\n      swap1\n      dup2\n      mstore\n      0x20\n      add\n      0x00\n      keccak256\n      sload\n        /* \"Backend/RecyclingRewards.sol\":2197:2224  userRewards[msg.sender].add */\n      tag_74\n      swap1\n        /* \"Backend/RecyclingRewards.sol\":2197:2244  userRewards[msg.sender].add(rewardPerRecycling) */\n      swap2\n      swap1\n      0xffffffff\n      and\n      jump\t// in\n    tag_73:\n        /* \"Backend/RecyclingRewards.sol\":2171:2182  userRewards */\n      0x03\n        /* \"Backend/RecyclingRewards.sol\":2171:2194  userRewards[msg.sender] */\n      0x00\n        /* \"Backend/RecyclingRewards.sol\":2183:2193  msg.sender */\n      caller\n        /* \"Backend/RecyclingRewards.sol\":2171:2194  userRewards[msg.sender] */\n      0xffffffffffffffffffffffffffffffffffffffff\n      and\n      0xffffffffffffffffffffffffffffffffffffffff\n      and\n      dup2\n      mstore\n      0x20\n      add\n      swap1\n      dup2\n      mstore\n      0x20\n      add\n      0x00\n      keccak256\n        /* \"Backend/RecyclingRewards.sol\":2171:2244  userRewards[msg.sender] = userRewards[msg.sender].add(rewardPerRecycling) */\n      dup2\n      swap1\n      sstore\n      pop\n        /* \"Backend/RecyclingRewards.sol\":2254:2265  rewardToken */\n      0x01\n      0x00\n      swap1\n      sload\n      swap1\n      0x0100\n      exp\n      swap1\n      div\n      0xffffffffffffffffffffffffffffffffffffffff\n      and\n        /* \"Backend/RecyclingRewards.sol\":2254:2274  rewardToken.transfer */\n      0xffffffffffffffffffffffffffffffffffffffff\n      and\n      0xa9059cbb\n        /* \"Backend/RecyclingRewards.sol\":2275:2285  msg.sender */\n      caller\n        /* \"Backend/RecyclingRewards.sol\":2287:2305  rewardPerRecycling */\n      sload(0x04)\n        /* \"Backend/RecyclingRewards.sol\":2254:2306  rewardToken.transfer(msg.sender, rewardPerRecycling) */\n      mload(0x40)\n      dup4\n      0xffffffff\n      and\n      0xe0\n      shl\n      dup2\n      mstore\n      0x04\n      add\n      tag_75\n      swap3\n      swap2\n      swap1\n      tag_76\n      jump\t// in\n    tag_75:\n      0x20\n      mload(0x40)\n      dup1\n      dup4\n      sub\n      dup2\n      0x00\n      dup8\n      gas\n      call\n      iszero\n      dup1\n      iszero\n      tag_78\n      jumpi\n      returndatasize\n      0x00\n      dup1\n      returndatacopy\n      revert(0x00, returndatasize)\n    tag_78:\n      pop\n      pop\n      pop\n      pop\n      mload(0x40)\n      returndatasize\n      not(0x1f)\n      0x1f\n      dup3\n      add\n      and\n      dup3\n      add\n      dup1\n      0x40\n      mstore\n      pop\n      dup2\n      add\n      swap1\n      tag_79\n      swap2\n      swap1\n      tag_80\n      jump\t// in\n    tag_79:\n      pop\n        /* \"Backend/RecyclingRewards.sol\":2350:2357  tokenId */\n      dup3\n        /* \"Backend/RecyclingRewards.sol\":2338:2348  msg.sender */\n      caller\n        /* \"Backend/RecyclingRewards.sol\":2322:2378  ProductRecycled(msg.sender, tokenId, rewardPerRecycling) */\n      0xffffffffffffffffffffffffffffffffffffffff\n      and\n      0x080ac4523930bdcc2e85ca0a99da6547ba0d4c3badb2a3693f781d80aa4863dc\n        /* \"Backend/RecyclingRewards.sol\":2359:2377  rewardPerRecycling */\n      sload(0x04)\n        /* \"Backend/RecyclingRewards.sol\":2322:2378  ProductRecycled(msg.sender, tokenId, rewardPerRecycling) */\n      mload(0x40)\n      tag_81\n      swap2\n      swap1\n      tag_21\n      jump\t// in\n    tag_81:\n      mload(0x40)\n      dup1\n      swap2\n      sub\n      swap1\n      log3\n        /* \"Backend/RecyclingRewards.sol\":1702:2385  {... */\n      pop\n        /* \"Backend/RecyclingRewards.sol\":1631:2385  function recycleProduct(uint256 tokenId, address nftContract) external {... */\n      pop\n      pop\n      jump\t// out\n        /* \"Backend/RecyclingRewards.sol\":656:689  uint256 public rewardPerRecycling */\n    tag_37:\n      sload(0x04)\n      dup2\n      jump\t// out\n        /* \"@openzeppelin/contracts/access/Ownable.sol\":2293:2394  function renounceOwnership() public virtual onlyOwner {... */\n    tag_40:\n        /* \"@openzeppelin/contracts/access/Ownable.sol\":1531:1544  _checkOwner() */\n      tag_83\n        /* \"@openzeppelin/contracts/access/Ownable.sol\":1531:1542  _checkOwner */\n      tag_84\n        /* \"@openzeppelin/contracts/access/Ownable.sol\":1531:1544  _checkOwner() */\n      jump\t// in\n    tag_83:\n        /* \"@openzeppelin/contracts/access/Ownable.sol\":2357:2387  _transferOwnership(address(0)) */\n      tag_86\n        /* \"@openzeppelin/contracts/access/Ownable.sol\":2384:2385  0 */\n      0x00\n        /* \"@openzeppelin/contracts/access/Ownable.sol\":2357:2375  _transferOwnership */\n      tag_87\n        /* \"@openzeppelin/contracts/access/Ownable.sol\":2357:2387  _transferOwnership(address(0)) */\n      jump\t// in\n    tag_86:\n        /* \"@openzeppelin/contracts/access/Ownable.sol\":2293:2394  function renounceOwnership() public virtual onlyOwner {... */\n      jump\t// out\n        /* \"Backend/RecyclingRewards.sol\":3166:3265  function getRewardRate() external view returns (uint256) {... */\n    tag_42:\n        /* \"Backend/RecyclingRewards.sol\":3214:3221  uint256 */\n      0x00\n        /* \"Backend/RecyclingRewards.sol\":3240:3258  rewardPerRecycling */\n      sload(0x04)\n        /* \"Backend/RecyclingRewards.sol\":3233:3258  return rewardPerRecycling */\n      swap1\n      pop\n        /* \"Backend/RecyclingRewards.sol\":3166:3265  function getRewardRate() external view returns (uint256) {... */\n      swap1\n      jump\t// out\n        /* \"@openzeppelin/contracts/access/Ownable.sol\":1638:1723  function owner() public view virtual returns (address) {... */\n    tag_45:\n        /* \"@openzeppelin/contracts/access/Ownable.sol\":1684:1691  address */\n      0x00\n        /* \"@openzeppelin/contracts/access/Ownable.sol\":1710:1716  _owner */\n      dup1\n      0x00\n      swap1\n      sload\n      swap1\n      0x0100\n      exp\n      swap1\n      div\n      0xffffffffffffffffffffffffffffffffffffffff\n      and\n        /* \"@openzeppelin/contracts/access/Ownable.sol\":1703:1716  return _owner */\n      swap1\n      pop\n        /* \"@openzeppelin/contracts/access/Ownable.sol\":1638:1723  function owner() public view virtual returns (address) {... */\n      swap1\n      jump\t// out\n        /* \"Backend/RecyclingRewards.sol\":2548:2667  function updateRewardRate(uint256 newRewardRate) external onlyOwner {... */\n    tag_50:\n        /* \"@openzeppelin/contracts/access/Ownable.sol\":1531:1544  _checkOwner() */\n      tag_91\n        /* \"@openzeppelin/contracts/access/Ownable.sol\":1531:1542  _checkOwner */\n      tag_84\n        /* \"@openzeppelin/contracts/access/Ownable.sol\":1531:1544  _checkOwner() */\n      jump\t// in\n    tag_91:\n        /* \"Backend/RecyclingRewards.sol\":2647:2660  newRewardRate */\n      dup1\n        /* \"Backend/RecyclingRewards.sol\":2626:2644  rewardPerRecycling */\n      0x04\n        /* \"Backend/RecyclingRewards.sol\":2626:2660  rewardPerRecycling = newRewardRate */\n      dup2\n      swap1\n      sstore\n      pop\n        /* \"Backend/RecyclingRewards.sol\":2548:2667  function updateRewardRate(uint256 newRewardRate) external onlyOwner {... */\n      pop\n      jump\t// out\n        /* \"Backend/RecyclingRewards.sol\":2747:3035  function withdrawRewards() external {... */\n    tag_52:\n        /* \"Backend/RecyclingRewards.sol\":2793:2807  uint256 amount */\n      0x00\n        /* \"Backend/RecyclingRewards.sol\":2810:2821  userRewards */\n      0x03\n        /* \"Backend/RecyclingRewards.sol\":2810:2833  userRewards[msg.sender] */\n      0x00\n        /* \"Backend/RecyclingRewards.sol\":2822:2832  msg.sender */\n      caller\n        /* \"Backend/RecyclingRewards.sol\":2810:2833  userRewards[msg.sender] */\n      0xffffffffffffffffffffffffffffffffffffffff\n      and\n      0xffffffffffffffffffffffffffffffffffffffff\n      and\n      dup2\n      mstore\n      0x20\n      add\n      swap1\n      dup2\n      mstore\n      0x20\n      add\n      0x00\n      keccak256\n      sload\n        /* \"Backend/RecyclingRewards.sol\":2793:2833  uint256 amount = userRewards[msg.sender] */\n      swap1\n      pop\n        /* \"Backend/RecyclingRewards.sol\":2860:2861  0 */\n      0x00\n        /* \"Backend/RecyclingRewards.sol\":2851:2857  amount */\n      dup2\n        /* \"Backend/RecyclingRewards.sol\":2851:2861  amount > 0 */\n      gt\n        /* \"Backend/RecyclingRewards.sol\":2843:2886  require(amount > 0, \"No rewards available\") */\n      tag_94\n      jumpi\n      mload(0x40)\n      0x08c379a000000000000000000000000000000000000000000000000000000000\n      dup2\n      mstore\n      0x04\n      add\n      tag_95\n      swap1\n      tag_96\n      jump\t// in\n    tag_95:\n      mload(0x40)\n      dup1\n      swap2\n      sub\n      swap1\n      revert\n    tag_94:\n        /* \"Backend/RecyclingRewards.sol\":2977:2978  0 */\n      0x00\n        /* \"Backend/RecyclingRewards.sol\":2951:2962  userRewards */\n      0x03\n        /* \"Backend/RecyclingRewards.sol\":2951:2974  userRewards[msg.sender] */\n      0x00\n        /* \"Backend/RecyclingRewards.sol\":2963:2973  msg.sender */\n      caller\n        /* \"Backend/RecyclingRewards.sol\":2951:2974  userRewards[msg.sender] */\n      0xffffffffffffffffffffffffffffffffffffffff\n      and\n      0xffffffffffffffffffffffffffffffffffffffff\n      and\n      dup2\n      mstore\n      0x20\n      add\n      swap1\n      dup2\n      mstore\n      0x20\n      add\n      0x00\n      keccak256\n        /* \"Backend/RecyclingRewards.sol\":2951:2978  userRewards[msg.sender] = 0 */\n      dup2\n      swap1\n      sstore\n      pop\n        /* \"Backend/RecyclingRewards.sol\":2988:2999  rewardToken */\n      0x01\n      0x00\n      swap1\n      sload\n      swap1\n      0x0100\n      exp\n      swap1\n      div\n      0xffffffffffffffffffffffffffffffffffffffff\n      and\n        /* \"Backend/RecyclingRewards.sol\":2988:3008  rewardToken.transfer */\n      0xffffffffffffffffffffffffffffffffffffffff\n      and\n      0xa9059cbb\n        /* \"Backend/RecyclingRewards.sol\":3009:3019  msg.sender */\n      caller\n        /* \"Backend/RecyclingRewards.sol\":3021:3027  amount */\n      dup4\n        /* \"Backend/RecyclingRewards.sol\":2988:3028  rewardToken.transfer(msg.sender, amount) */\n      mload(0x40)\n      dup4\n      0xffffffff\n      and\n      0xe0\n      shl\n      dup2\n      mstore\n      0x04\n      add\n      tag_97\n      swap3\n      swap2\n      swap1\n      tag_76\n      jump\t// in\n    tag_97:\n      0x20\n      mload(0x40)\n      dup1\n      dup4\n      sub\n      dup2\n      0x00\n      dup8\n      gas\n      call\n      iszero\n      dup1\n      iszero\n      tag_99\n      jumpi\n      returndatasize\n      0x00\n      dup1\n      returndatacopy\n      revert(0x00, returndatasize)\n    tag_99:\n      pop\n      pop\n      pop\n      pop\n      mload(0x40)\n      returndatasize\n      not(0x1f)\n      0x1f\n      dup3\n      add\n      and\n      dup3\n      add\n      dup1\n      0x40\n      mstore\n      pop\n      dup2\n      add\n      swap1\n      tag_100\n      swap2\n      swap1\n      tag_80\n      jump\t// in\n    tag_100:\n      pop\n        /* \"Backend/RecyclingRewards.sol\":2783:3035  {... */\n      pop\n        /* \"Backend/RecyclingRewards.sol\":2747:3035  function withdrawRewards() external {... */\n      jump\t// out\n        /* \"@openzeppelin/contracts/access/Ownable.sol\":2543:2758  function transferOwnership(address newOwner) public virtual onlyOwner {... */\n    tag_55:\n        /* \"@openzeppelin/contracts/access/Ownable.sol\":1531:1544  _checkOwner() */\n      tag_102\n        /* \"@openzeppelin/contracts/access/Ownable.sol\":1531:1542  _checkOwner */\n      tag_84\n        /* \"@openzeppelin/contracts/access/Ownable.sol\":1531:1544  _checkOwner() */\n      jump\t// in\n    tag_102:\n        /* \"@openzeppelin/contracts/access/Ownable.sol\":2647:2648  0 */\n      0x00\n        /* \"@openzeppelin/contracts/access/Ownable.sol\":2627:2649  newOwner == address(0) */\n      0xffffffffffffffffffffffffffffffffffffffff\n      and\n        /* \"@openzeppelin/contracts/access/Ownable.sol\":2627:2635  newOwner */\n      dup2\n        /* \"@openzeppelin/contracts/access/Ownable.sol\":2627:2649  newOwner == address(0) */\n      0xffffffffffffffffffffffffffffffffffffffff\n      and\n      sub\n        /* \"@openzeppelin/contracts/access/Ownable.sol\":2623:2714  if (newOwner == address(0)) {... */\n      tag_104\n      jumpi\n        /* \"@openzeppelin/contracts/access/Ownable.sol\":2700:2701  0 */\n      0x00\n        /* \"@openzeppelin/contracts/access/Ownable.sol\":2672:2703  OwnableInvalidOwner(address(0)) */\n      mload(0x40)\n      0x1e4fbdf700000000000000000000000000000000000000000000000000000000\n      dup2\n      mstore\n      0x04\n      add\n      tag_105\n      swap2\n      swap1\n      tag_47\n      jump\t// in\n    tag_105:\n      mload(0x40)\n      dup1\n      swap2\n      sub\n      swap1\n      revert\n        /* \"@openzeppelin/contracts/access/Ownable.sol\":2623:2714  if (newOwner == address(0)) {... */\n    tag_104:\n        /* \"@openzeppelin/contracts/access/Ownable.sol\":2723:2751  _transferOwnership(newOwner) */\n      tag_106\n        /* \"@openzeppelin/contracts/access/Ownable.sol\":2742:2750  newOwner */\n      dup2\n        /* \"@openzeppelin/contracts/access/Ownable.sol\":2723:2741  _transferOwnership */\n      tag_87\n        /* \"@openzeppelin/contracts/access/Ownable.sol\":2723:2751  _transferOwnership(newOwner) */\n      jump\t// in\n    tag_106:\n        /* \"@openzeppelin/contracts/access/Ownable.sol\":2543:2758  function transferOwnership(address newOwner) public virtual onlyOwner {... */\n      pop\n      jump\t// out\n        /* \"Backend/RecyclingRewards.sol\":393:418  IERC20 public rewardToken */\n    tag_57:\n      0x01\n      0x00\n      swap1\n      sload\n      swap1\n      0x0100\n      exp\n      swap1\n      div\n      0xffffffffffffffffffffffffffffffffffffffff\n      and\n      dup2\n      jump\t// out\n        /* \"@openzeppelin/contracts/utils/math/SafeMath.sol\":2755:2851  function add(uint256 a, uint256 b) internal pure returns (uint256) {... */\n    tag_74:\n        /* \"@openzeppelin/contracts/utils/math/SafeMath.sol\":2813:2820  uint256 */\n      0x00\n        /* \"@openzeppelin/contracts/utils/math/SafeMath.sol\":2843:2844  b */\n      dup2\n        /* \"@openzeppelin/contracts/utils/math/SafeMath.sol\":2839:2840  a */\n      dup4\n        /* \"@openzeppelin/contracts/utils/math/SafeMath.sol\":2839:2844  a + b */\n      tag_108\n      swap2\n      swap1\n      tag_109\n      jump\t// in\n    tag_108:\n        /* \"@openzeppelin/contracts/utils/math/SafeMath.sol\":2832:2844  return a + b */\n      swap1\n      pop\n        /* \"@openzeppelin/contracts/utils/math/SafeMath.sol\":2755:2851  function add(uint256 a, uint256 b) internal pure returns (uint256) {... */\n      swap3\n      swap2\n      pop\n      pop\n      jump\t// out\n        /* \"@openzeppelin/contracts/access/Ownable.sol\":1796:1958  function _checkOwner() internal view virtual {... */\n    tag_84:\n        /* \"@openzeppelin/contracts/access/Ownable.sol\":1866:1878  _msgSender() */\n      tag_111\n        /* \"@openzeppelin/contracts/access/Ownable.sol\":1866:1876  _msgSender */\n      tag_112\n        /* \"@openzeppelin/contracts/access/Ownable.sol\":1866:1878  _msgSender() */\n      jump\t// in\n    tag_111:\n        /* \"@openzeppelin/contracts/access/Ownable.sol\":1855:1878  owner() != _msgSender() */\n      0xffffffffffffffffffffffffffffffffffffffff\n      and\n        /* \"@openzeppelin/contracts/access/Ownable.sol\":1855:1862  owner() */\n      tag_113\n        /* \"@openzeppelin/contracts/access/Ownable.sol\":1855:1860  owner */\n      tag_45\n        /* \"@openzeppelin/contracts/access/Ownable.sol\":1855:1862  owner() */\n      jump\t// in\n    tag_113:\n        /* \"@openzeppelin/contracts/access/Ownable.sol\":1855:1878  owner() != _msgSender() */\n      0xffffffffffffffffffffffffffffffffffffffff\n      and\n      eq\n        /* \"@openzeppelin/contracts/access/Ownable.sol\":1851:1952  if (owner() != _msgSender()) {... */\n      tag_114\n      jumpi\n        /* \"@openzeppelin/contracts/access/Ownable.sol\":1928:1940  _msgSender() */\n      tag_115\n        /* \"@openzeppelin/contracts/access/Ownable.sol\":1928:1938  _msgSender */\n      tag_112\n        /* \"@openzeppelin/contracts/access/Ownable.sol\":1928:1940  _msgSender() */\n      jump\t// in\n    tag_115:\n        /* \"@openzeppelin/contracts/access/Ownable.sol\":1901:1941  OwnableUnauthorizedAccount(_msgSender()) */\n      mload(0x40)\n      0x118cdaa700000000000000000000000000000000000000000000000000000000\n      dup2\n      mstore\n      0x04\n      add\n      tag_116\n      swap2\n      swap1\n      tag_47\n      jump\t// in\n    tag_116:\n      mload(0x40)\n      dup1\n      swap2\n      sub\n      swap1\n      revert\n        /* \"@openzeppelin/contracts/access/Ownable.sol\":1851:1952  if (owner() != _msgSender()) {... */\n    tag_114:\n        /* \"@openzeppelin/contracts/access/Ownable.sol\":1796:1958  function _checkOwner() internal view virtual {... */\n      jump\t// out\n        /* \"@openzeppelin/contracts/access/Ownable.sol\":2912:3099  function _transferOwnership(address newOwner) internal virtual {... */\n    tag_87:\n        /* \"@openzeppelin/contracts/access/Ownable.sol\":2985:3001  address oldOwner */\n      0x00\n        /* \"@openzeppelin/contracts/access/Ownable.sol\":3004:3010  _owner */\n      dup1\n      0x00\n      swap1\n      sload\n      swap1\n      0x0100\n      exp\n      swap1\n      div\n      0xffffffffffffffffffffffffffffffffffffffff\n      and\n        /* \"@openzeppelin/contracts/access/Ownable.sol\":2985:3010  address oldOwner = _owner */\n      swap1\n      pop\n        /* \"@openzeppelin/contracts/access/Ownable.sol\":3029:3037  newOwner */\n      dup2\n        /* \"@openzeppelin/contracts/access/Ownable.sol\":3020:3026  _owner */\n      0x00\n      dup1\n        /* \"@openzeppelin/contracts/access/Ownable.sol\":3020:3037  _owner = newOwner */\n      0x0100\n      exp\n      dup2\n      sload\n      dup2\n      0xffffffffffffffffffffffffffffffffffffffff\n      mul\n      not\n      and\n      swap1\n      dup4\n      0xffffffffffffffffffffffffffffffffffffffff\n      and\n      mul\n      or\n      swap1\n      sstore\n      pop\n        /* \"@openzeppelin/contracts/access/Ownable.sol\":3083:3091  newOwner */\n      dup2\n        /* \"@openzeppelin/contracts/access/Ownable.sol\":3052:3092  OwnershipTransferred(oldOwner, newOwner) */\n      0xffffffffffffffffffffffffffffffffffffffff\n      and\n        /* \"@openzeppelin/contracts/access/Ownable.sol\":3073:3081  oldOwner */\n      dup2\n        /* \"@openzeppelin/contracts/access/Ownable.sol\":3052:3092  OwnershipTransferred(oldOwner, newOwner) */\n      0xffffffffffffffffffffffffffffffffffffffff\n      and\n      0x8be0079c531659141344cd1fd0a4f28419497f9722a3daafe3b4186f6b6457e0\n      mload(0x40)\n      mload(0x40)\n      dup1\n      swap2\n      sub\n      swap1\n      log3\n        /* \"@openzeppelin/contracts/access/Ownable.sol\":2975:3099  {... */\n      pop\n        /* \"@openzeppelin/contracts/access/Ownable.sol\":2912:3099  function _transferOwnership(address newOwner) internal virtual {... */\n      pop\n      jump\t// out\n        /* \"@openzeppelin/contracts/utils/Context.sol\":656:752  function _msgSender() internal view virtual returns (address) {... */\n    tag_112:\n        /* \"@openzeppelin/contracts/utils/Context.sol\":709:716  address */\n      0x00\n        /* \"@openzeppelin/contracts/utils/Context.sol\":735:745  msg.sender */\n      caller\n        /* \"@openzeppelin/contracts/utils/Context.sol\":728:745  return msg.sender */\n      swap1\n      pop\n        /* \"@openzeppelin/contracts/utils/Context.sol\":656:752  function _msgSender() internal view virtual returns (address) {... */\n      swap1\n      jump\t// out\n        /* \"#utility.yul\":88:205   */\n    tag_120:\n        /* \"#utility.yul\":197:198   */\n      0x00\n        /* \"#utility.yul\":194:195   */\n      dup1\n        /* \"#utility.yul\":187:199   */\n      revert\n        /* \"#utility.yul\":334:460   */\n    tag_122:\n        /* \"#utility.yul\":371:378   */\n      0x00\n        /* \"#utility.yul\":411:453   */\n      0xffffffffffffffffffffffffffffffffffffffff\n        /* \"#utility.yul\":404:409   */\n      dup3\n        /* \"#utility.yul\":400:454   */\n      and\n        /* \"#utility.yul\":389:454   */\n      swap1\n      pop\n        /* \"#utility.yul\":334:460   */\n      swap2\n      swap1\n      pop\n      jump\t// out\n        /* \"#utility.yul\":466:562   */\n    tag_123:\n        /* \"#utility.yul\":503:510   */\n      0x00\n        /* \"#utility.yul\":532:556   */\n      tag_155\n        /* \"#utility.yul\":550:555   */\n      dup3\n        /* \"#utility.yul\":532:556   */\n      tag_122\n      jump\t// in\n    tag_155:\n        /* \"#utility.yul\":521:556   */\n      swap1\n      pop\n        /* \"#utility.yul\":466:562   */\n      swap2\n      swap1\n      pop\n      jump\t// out\n        /* \"#utility.yul\":568:690   */\n    tag_124:\n        /* \"#utility.yul\":641:665   */\n      tag_157\n        /* \"#utility.yul\":659:664   */\n      dup2\n        /* \"#utility.yul\":641:665   */\n      tag_123\n      jump\t// in\n    tag_157:\n        /* \"#utility.yul\":634:639   */\n      dup2\n        /* \"#utility.yul\":631:666   */\n      eq\n        /* \"#utility.yul\":621:684   */\n      tag_158\n      jumpi\n        /* \"#utility.yul\":680:681   */\n      0x00\n        /* \"#utility.yul\":677:678   */\n      dup1\n        /* \"#utility.yul\":670:682   */\n      revert\n        /* \"#utility.yul\":621:684   */\n    tag_158:\n        /* \"#utility.yul\":568:690   */\n      pop\n      jump\t// out\n        /* \"#utility.yul\":696:835   */\n    tag_125:\n        /* \"#utility.yul\":742:747   */\n      0x00\n        /* \"#utility.yul\":780:786   */\n      dup2\n        /* \"#utility.yul\":767:787   */\n      calldataload\n        /* \"#utility.yul\":758:787   */\n      swap1\n      pop\n        /* \"#utility.yul\":796:829   */\n      tag_160\n        /* \"#utility.yul\":823:828   */\n      dup2\n        /* \"#utility.yul\":796:829   */\n      tag_124\n      jump\t// in\n    tag_160:\n        /* \"#utility.yul\":696:835   */\n      swap3\n      swap2\n      pop\n      pop\n      jump\t// out\n        /* \"#utility.yul\":841:1170   */\n    tag_18:\n        /* \"#utility.yul\":900:906   */\n      0x00\n        /* \"#utility.yul\":949:951   */\n      0x20\n        /* \"#utility.yul\":937:946   */\n      dup3\n        /* \"#utility.yul\":928:935   */\n      dup5\n        /* \"#utility.yul\":924:947   */\n      sub\n        /* \"#utility.yul\":920:952   */\n      slt\n        /* \"#utility.yul\":917:1036   */\n      iszero\n      tag_162\n      jumpi\n        /* \"#utility.yul\":955:1034   */\n      tag_163\n      tag_120\n      jump\t// in\n    tag_163:\n        /* \"#utility.yul\":917:1036   */\n    tag_162:\n        /* \"#utility.yul\":1075:1076   */\n      0x00\n        /* \"#utility.yul\":1100:1153   */\n      tag_164\n        /* \"#utility.yul\":1145:1152   */\n      dup5\n        /* \"#utility.yul\":1136:1142   */\n      dup3\n        /* \"#utility.yul\":1125:1134   */\n      dup6\n        /* \"#utility.yul\":1121:1143   */\n      add\n        /* \"#utility.yul\":1100:1153   */\n      tag_125\n      jump\t// in\n    tag_164:\n        /* \"#utility.yul\":1090:1153   */\n      swap2\n      pop\n        /* \"#utility.yul\":1046:1163   */\n      pop\n        /* \"#utility.yul\":841:1170   */\n      swap3\n      swap2\n      pop\n      pop\n      jump\t// out\n        /* \"#utility.yul\":1176:1253   */\n    tag_126:\n        /* \"#utility.yul\":1213:1220   */\n      0x00\n        /* \"#utility.yul\":1242:1247   */\n      dup2\n        /* \"#utility.yul\":1231:1247   */\n      swap1\n      pop\n        /* \"#utility.yul\":1176:1253   */\n      swap2\n      swap1\n      pop\n      jump\t// out\n        /* \"#utility.yul\":1259:1377   */\n    tag_127:\n        /* \"#utility.yul\":1346:1370   */\n      tag_167\n        /* \"#utility.yul\":1364:1369   */\n      dup2\n        /* \"#utility.yul\":1346:1370   */\n      tag_126\n      jump\t// in\n    tag_167:\n        /* \"#utility.yul\":1341:1344   */\n      dup3\n        /* \"#utility.yul\":1334:1371   */\n      mstore\n        /* \"#utility.yul\":1259:1377   */\n      pop\n      pop\n      jump\t// out\n        /* \"#utility.yul\":1383:1605   */\n    tag_21:\n        /* \"#utility.yul\":1476:1480   */\n      0x00\n        /* \"#utility.yul\":1514:1516   */\n      0x20\n        /* \"#utility.yul\":1503:1512   */\n      dup3\n        /* \"#utility.yul\":1499:1517   */\n      add\n        /* \"#utility.yul\":1491:1517   */\n      swap1\n      pop\n        /* \"#utility.yul\":1527:1598   */\n      tag_169\n        /* \"#utility.yul\":1595:1596   */\n      0x00\n        /* \"#utility.yul\":1584:1593   */\n      dup4\n        /* \"#utility.yul\":1580:1597   */\n      add\n        /* \"#utility.yul\":1571:1577   */\n      dup5\n        /* \"#utility.yul\":1527:1598   */\n      tag_127\n      jump\t// in\n    tag_169:\n        /* \"#utility.yul\":1383:1605   */\n      swap3\n      swap2\n      pop\n      pop\n      jump\t// out\n        /* \"#utility.yul\":1611:1733   */\n    tag_128:\n        /* \"#utility.yul\":1684:1708   */\n      tag_171\n        /* \"#utility.yul\":1702:1707   */\n      dup2\n        /* \"#utility.yul\":1684:1708   */\n      tag_126\n      jump\t// in\n    tag_171:\n        /* \"#utility.yul\":1677:1682   */\n      dup2\n        /* \"#utility.yul\":1674:1709   */\n      eq\n        /* \"#utility.yul\":1664:1727   */\n      tag_172\n      jumpi\n        /* \"#utility.yul\":1723:1724   */\n      0x00\n        /* \"#utility.yul\":1720:1721   */\n      dup1\n        /* \"#utility.yul\":1713:1725   */\n      revert\n        /* \"#utility.yul\":1664:1727   */\n    tag_172:\n        /* \"#utility.yul\":1611:1733   */\n      pop\n      jump\t// out\n        /* \"#utility.yul\":1739:1878   */\n    tag_129:\n        /* \"#utility.yul\":1785:1790   */\n      0x00\n        /* \"#utility.yul\":1823:1829   */\n      dup2\n        /* \"#utility.yul\":1810:1830   */\n      calldataload\n        /* \"#utility.yul\":1801:1830   */\n      swap1\n      pop\n        /* \"#utility.yul\":1839:1872   */\n      tag_174\n        /* \"#utility.yul\":1866:1871   */\n      dup2\n        /* \"#utility.yul\":1839:1872   */\n      tag_128\n      jump\t// in\n    tag_174:\n        /* \"#utility.yul\":1739:1878   */\n      swap3\n      swap2\n      pop\n      pop\n      jump\t// out\n        /* \"#utility.yul\":1884:2213   */\n    tag_28:\n        /* \"#utility.yul\":1943:1949   */\n      0x00\n        /* \"#utility.yul\":1992:1994   */\n      0x20\n        /* \"#utility.yul\":1980:1989   */\n      dup3\n        /* \"#utility.yul\":1971:1978   */\n      dup5\n        /* \"#utility.yul\":1967:1990   */\n      sub\n        /* \"#utility.yul\":1963:1995   */\n      slt\n        /* \"#utility.yul\":1960:2079   */\n      iszero\n      tag_176\n      jumpi\n        /* \"#utility.yul\":1998:2077   */\n      tag_177\n      tag_120\n      jump\t// in\n    tag_177:\n        /* \"#utility.yul\":1960:2079   */\n    tag_176:\n        /* \"#utility.yul\":2118:2119   */\n      0x00\n        /* \"#utility.yul\":2143:2196   */\n      tag_178\n        /* \"#utility.yul\":2188:2195   */\n      dup5\n        /* \"#utility.yul\":2179:2185   */\n      dup3\n        /* \"#utility.yul\":2168:2177   */\n      dup6\n        /* \"#utility.yul\":2164:2186   */\n      add\n        /* \"#utility.yul\":2143:2196   */\n      tag_129\n      jump\t// in\n    tag_178:\n        /* \"#utility.yul\":2133:2196   */\n      swap2\n      pop\n        /* \"#utility.yul\":2089:2206   */\n      pop\n        /* \"#utility.yul\":1884:2213   */\n      swap3\n      swap2\n      pop\n      pop\n      jump\t// out\n        /* \"#utility.yul\":2219:2309   */\n    tag_130:\n        /* \"#utility.yul\":2253:2260   */\n      0x00\n        /* \"#utility.yul\":2296:2301   */\n      dup2\n        /* \"#utility.yul\":2289:2302   */\n      iszero\n        /* \"#utility.yul\":2282:2303   */\n      iszero\n        /* \"#utility.yul\":2271:2303   */\n      swap1\n      pop\n        /* \"#utility.yul\":2219:2309   */\n      swap2\n      swap1\n      pop\n      jump\t// out\n        /* \"#utility.yul\":2315:2424   */\n    tag_131:\n        /* \"#utility.yul\":2396:2417   */\n      tag_181\n        /* \"#utility.yul\":2411:2416   */\n      dup2\n        /* \"#utility.yul\":2396:2417   */\n      tag_130\n      jump\t// in\n    tag_181:\n        /* \"#utility.yul\":2391:2394   */\n      dup3\n        /* \"#utility.yul\":2384:2418   */\n      mstore\n        /* \"#utility.yul\":2315:2424   */\n      pop\n      pop\n      jump\t// out\n        /* \"#utility.yul\":2430:2640   */\n    tag_31:\n        /* \"#utility.yul\":2517:2521   */\n      0x00\n        /* \"#utility.yul\":2555:2557   */\n      0x20\n        /* \"#utility.yul\":2544:2553   */\n      dup3\n        /* \"#utility.yul\":2540:2558   */\n      add\n        /* \"#utility.yul\":2532:2558   */\n      swap1\n      pop\n        /* \"#utility.yul\":2568:2633   */\n      tag_183\n        /* \"#utility.yul\":2630:2631   */\n      0x00\n        /* \"#utility.yul\":2619:2628   */\n      dup4\n        /* \"#utility.yul\":2615:2632   */\n      add\n        /* \"#utility.yul\":2606:2612   */\n      dup5\n        /* \"#utility.yul\":2568:2633   */\n      tag_131\n      jump\t// in\n    tag_183:\n        /* \"#utility.yul\":2430:2640   */\n      swap3\n      swap2\n      pop\n      pop\n      jump\t// out\n        /* \"#utility.yul\":2646:3120   */\n    tag_34:\n        /* \"#utility.yul\":2714:2720   */\n      0x00\n        /* \"#utility.yul\":2722:2728   */\n      dup1\n        /* \"#utility.yul\":2771:2773   */\n      0x40\n        /* \"#utility.yul\":2759:2768   */\n      dup4\n        /* \"#utility.yul\":2750:2757   */\n      dup6\n        /* \"#utility.yul\":2746:2769   */\n      sub\n        /* \"#utility.yul\":2742:2774   */\n      slt\n        /* \"#utility.yul\":2739:2858   */\n      iszero\n      tag_185\n      jumpi\n        /* \"#utility.yul\":2777:2856   */\n      tag_186\n      tag_120\n      jump\t// in\n    tag_186:\n        /* \"#utility.yul\":2739:2858   */\n    tag_185:\n        /* \"#utility.yul\":2897:2898   */\n      0x00\n        /* \"#utility.yul\":2922:2975   */\n      tag_187\n        /* \"#utility.yul\":2967:2974   */\n      dup6\n        /* \"#utility.yul\":2958:2964   */\n      dup3\n        /* \"#utility.yul\":2947:2956   */\n      dup7\n        /* \"#utility.yul\":2943:2965   */\n      add\n        /* \"#utility.yul\":2922:2975   */\n      tag_129\n      jump\t// in\n    tag_187:\n        /* \"#utility.yul\":2912:2975   */\n      swap3\n      pop\n        /* \"#utility.yul\":2868:2985   */\n      pop\n        /* \"#utility.yul\":3024:3026   */\n      0x20\n        /* \"#utility.yul\":3050:3103   */\n      tag_188\n        /* \"#utility.yul\":3095:3102   */\n      dup6\n        /* \"#utility.yul\":3086:3092   */\n      dup3\n        /* \"#utility.yul\":3075:3084   */\n      dup7\n        /* \"#utility.yul\":3071:3093   */\n      add\n        /* \"#utility.yul\":3050:3103   */\n      tag_125\n      jump\t// in\n    tag_188:\n        /* \"#utility.yul\":3040:3103   */\n      swap2\n      pop\n        /* \"#utility.yul\":2995:3113   */\n      pop\n        /* \"#utility.yul\":2646:3120   */\n      swap3\n      pop\n      swap3\n      swap1\n      pop\n      jump\t// out\n        /* \"#utility.yul\":3126:3244   */\n    tag_132:\n        /* \"#utility.yul\":3213:3237   */\n      tag_190\n        /* \"#utility.yul\":3231:3236   */\n      dup2\n        /* \"#utility.yul\":3213:3237   */\n      tag_123\n      jump\t// in\n    tag_190:\n        /* \"#utility.yul\":3208:3211   */\n      dup3\n        /* \"#utility.yul\":3201:3238   */\n      mstore\n        /* \"#utility.yul\":3126:3244   */\n      pop\n      pop\n      jump\t// out\n        /* \"#utility.yul\":3250:3472   */\n    tag_47:\n        /* \"#utility.yul\":3343:3347   */\n      0x00\n        /* \"#utility.yul\":3381:3383   */\n      0x20\n        /* \"#utility.yul\":3370:3379   */\n      dup3\n        /* \"#utility.yul\":3366:3384   */\n      add\n        /* \"#utility.yul\":3358:3384   */\n      swap1\n      pop\n        /* \"#utility.yul\":3394:3465   */\n      tag_192\n        /* \"#utility.yul\":3462:3463   */\n      0x00\n        /* \"#utility.yul\":3451:3460   */\n      dup4\n        /* \"#utility.yul\":3447:3464   */\n      add\n        /* \"#utility.yul\":3438:3444   */\n      dup5\n        /* \"#utility.yul\":3394:3465   */\n      tag_132\n      jump\t// in\n    tag_192:\n        /* \"#utility.yul\":3250:3472   */\n      swap3\n      swap2\n      pop\n      pop\n      jump\t// out\n        /* \"#utility.yul\":3478:3538   */\n    tag_133:\n        /* \"#utility.yul\":3506:3509   */\n      0x00\n        /* \"#utility.yul\":3527:3532   */\n      dup2\n        /* \"#utility.yul\":3520:3532   */\n      swap1\n      pop\n        /* \"#utility.yul\":3478:3538   */\n      swap2\n      swap1\n      pop\n      jump\t// out\n        /* \"#utility.yul\":3544:3686   */\n    tag_134:\n        /* \"#utility.yul\":3594:3603   */\n      0x00\n        /* \"#utility.yul\":3627:3680   */\n      tag_195\n        /* \"#utility.yul\":3645:3679   */\n      tag_196\n        /* \"#utility.yul\":3654:3678   */\n      tag_197\n        /* \"#utility.yul\":3672:3677   */\n      dup5\n        /* \"#utility.yul\":3654:3678   */\n      tag_122\n      jump\t// in\n    tag_197:\n        /* \"#utility.yul\":3645:3679   */\n      tag_133\n      jump\t// in\n    tag_196:\n        /* \"#utility.yul\":3627:3680   */\n      tag_122\n      jump\t// in\n    tag_195:\n        /* \"#utility.yul\":3614:3680   */\n      swap1\n      pop\n        /* \"#utility.yul\":3544:3686   */\n      swap2\n      swap1\n      pop\n      jump\t// out\n        /* \"#utility.yul\":3692:3818   */\n    tag_135:\n        /* \"#utility.yul\":3742:3751   */\n      0x00\n        /* \"#utility.yul\":3775:3812   */\n      tag_199\n        /* \"#utility.yul\":3806:3811   */\n      dup3\n        /* \"#utility.yul\":3775:3812   */\n      tag_134\n      jump\t// in\n    tag_199:\n        /* \"#utility.yul\":3762:3812   */\n      swap1\n      pop\n        /* \"#utility.yul\":3692:3818   */\n      swap2\n      swap1\n      pop\n      jump\t// out\n        /* \"#utility.yul\":3824:3964   */\n    tag_136:\n        /* \"#utility.yul\":3888:3897   */\n      0x00\n        /* \"#utility.yul\":3921:3958   */\n      tag_201\n        /* \"#utility.yul\":3952:3957   */\n      dup3\n        /* \"#utility.yul\":3921:3958   */\n      tag_135\n      jump\t// in\n    tag_201:\n        /* \"#utility.yul\":3908:3958   */\n      swap1\n      pop\n        /* \"#utility.yul\":3824:3964   */\n      swap2\n      swap1\n      pop\n      jump\t// out\n        /* \"#utility.yul\":3970:4129   */\n    tag_137:\n        /* \"#utility.yul\":4071:4122   */\n      tag_203\n        /* \"#utility.yul\":4116:4121   */\n      dup2\n        /* \"#utility.yul\":4071:4122   */\n      tag_136\n      jump\t// in\n    tag_203:\n        /* \"#utility.yul\":4066:4069   */\n      dup3\n        /* \"#utility.yul\":4059:4123   */\n      mstore\n        /* \"#utility.yul\":3970:4129   */\n      pop\n      pop\n      jump\t// out\n        /* \"#utility.yul\":4135:4385   */\n    tag_59:\n        /* \"#utility.yul\":4242:4246   */\n      0x00\n        /* \"#utility.yul\":4280:4282   */\n      0x20\n        /* \"#utility.yul\":4269:4278   */\n      dup3\n        /* \"#utility.yul\":4265:4283   */\n      add\n        /* \"#utility.yul\":4257:4283   */\n      swap1\n      pop\n        /* \"#utility.yul\":4293:4378   */\n      tag_205\n        /* \"#utility.yul\":4375:4376   */\n      0x00\n        /* \"#utility.yul\":4364:4373   */\n      dup4\n        /* \"#utility.yul\":4360:4377   */\n      add\n        /* \"#utility.yul\":4351:4357   */\n      dup5\n        /* \"#utility.yul\":4293:4378   */\n      tag_137\n      jump\t// in\n    tag_205:\n        /* \"#utility.yul\":4135:4385   */\n      swap3\n      swap2\n      pop\n      pop\n      jump\t// out\n        /* \"#utility.yul\":4391:4534   */\n    tag_138:\n        /* \"#utility.yul\":4448:4453   */\n      0x00\n        /* \"#utility.yul\":4479:4485   */\n      dup2\n        /* \"#utility.yul\":4473:4486   */\n      mload\n        /* \"#utility.yul\":4464:4486   */\n      swap1\n      pop\n        /* \"#utility.yul\":4495:4528   */\n      tag_207\n        /* \"#utility.yul\":4522:4527   */\n      dup2\n        /* \"#utility.yul\":4495:4528   */\n      tag_124\n      jump\t// in\n    tag_207:\n        /* \"#utility.yul\":4391:4534   */\n      swap3\n      swap2\n      pop\n      pop\n      jump\t// out\n        /* \"#utility.yul\":4540:4891   */\n    tag_66:\n        /* \"#utility.yul\":4610:4616   */\n      0x00\n        /* \"#utility.yul\":4659:4661   */\n      0x20\n        /* \"#utility.yul\":4647:4656   */\n      dup3\n        /* \"#utility.yul\":4638:4645   */\n      dup5\n        /* \"#utility.yul\":4634:4657   */\n      sub\n        /* \"#utility.yul\":4630:4662   */\n      slt\n        /* \"#utility.yul\":4627:4746   */\n      iszero\n      tag_209\n      jumpi\n        /* \"#utility.yul\":4665:4744   */\n      tag_210\n      tag_120\n      jump\t// in\n    tag_210:\n        /* \"#utility.yul\":4627:4746   */\n    tag_209:\n        /* \"#utility.yul\":4785:4786   */\n      0x00\n        /* \"#utility.yul\":4810:4874   */\n      tag_211\n        /* \"#utility.yul\":4866:4873   */\n      dup5\n        /* \"#utility.yul\":4857:4863   */\n      dup3\n        /* \"#utility.yul\":4846:4855   */\n      dup6\n        /* \"#utility.yul\":4842:4864   */\n      add\n        /* \"#utility.yul\":4810:4874   */\n      tag_138\n      jump\t// in\n    tag_211:\n        /* \"#utility.yul\":4800:4874   */\n      swap2\n      pop\n        /* \"#utility.yul\":4756:4884   */\n      pop\n        /* \"#utility.yul\":4540:4891   */\n      swap3\n      swap2\n      pop\n      pop\n      jump\t// out\n        /* \"#utility.yul\":4897:5066   */\n    tag_139:\n        /* \"#utility.yul\":4981:4992   */\n      0x00\n        /* \"#utility.yul\":5015:5021   */\n      dup3\n        /* \"#utility.yul\":5010:5013   */\n      dup3\n        /* \"#utility.yul\":5003:5022   */\n      mstore\n        /* \"#utility.yul\":5055:5059   */\n      0x20\n        /* \"#utility.yul\":5050:5053   */\n      dup3\n        /* \"#utility.yul\":5046:5060   */\n      add\n        /* \"#utility.yul\":5031:5060   */\n      swap1\n      pop\n        /* \"#utility.yul\":4897:5066   */\n      swap3\n      swap2\n      pop\n      pop\n      jump\t// out\n        /* \"#utility.yul\":5072:5297   */\n    tag_140:\n        /* \"#utility.yul\":5212:5246   */\n      0x596f75206d757374206f776e207468652070726f6475637420746f2072656379\n        /* \"#utility.yul\":5208:5209   */\n      0x00\n        /* \"#utility.yul\":5200:5206   */\n      dup3\n        /* \"#utility.yul\":5196:5210   */\n      add\n        /* \"#utility.yul\":5189:5247   */\n      mstore\n        /* \"#utility.yul\":5281:5289   */\n      0x636c652069740000000000000000000000000000000000000000000000000000\n        /* \"#utility.yul\":5276:5278   */\n      0x20\n        /* \"#utility.yul\":5268:5274   */\n      dup3\n        /* \"#utility.yul\":5264:5279   */\n      add\n        /* \"#utility.yul\":5257:5290   */\n      mstore\n        /* \"#utility.yul\":5072:5297   */\n      pop\n      jump\t// out\n        /* \"#utility.yul\":5303:5669   */\n    tag_141:\n        /* \"#utility.yul\":5445:5448   */\n      0x00\n        /* \"#utility.yul\":5466:5533   */\n      tag_215\n        /* \"#utility.yul\":5530:5532   */\n      0x26\n        /* \"#utility.yul\":5525:5528   */\n      dup4\n        /* \"#utility.yul\":5466:5533   */\n      tag_139\n      jump\t// in\n    tag_215:\n        /* \"#utility.yul\":5459:5533   */\n      swap2\n      pop\n        /* \"#utility.yul\":5542:5635   */\n      tag_216\n        /* \"#utility.yul\":5631:5634   */\n      dup3\n        /* \"#utility.yul\":5542:5635   */\n      tag_140\n      jump\t// in\n    tag_216:\n        /* \"#utility.yul\":5660:5662   */\n      0x40\n        /* \"#utility.yul\":5655:5658   */\n      dup3\n        /* \"#utility.yul\":5651:5663   */\n      add\n        /* \"#utility.yul\":5644:5663   */\n      swap1\n      pop\n        /* \"#utility.yul\":5303:5669   */\n      swap2\n      swap1\n      pop\n      jump\t// out\n        /* \"#utility.yul\":5675:6094   */\n    tag_69:\n        /* \"#utility.yul\":5841:5845   */\n      0x00\n        /* \"#utility.yul\":5879:5881   */\n      0x20\n        /* \"#utility.yul\":5868:5877   */\n      dup3\n        /* \"#utility.yul\":5864:5882   */\n      add\n        /* \"#utility.yul\":5856:5882   */\n      swap1\n      pop\n        /* \"#utility.yul\":5928:5937   */\n      dup2\n        /* \"#utility.yul\":5922:5926   */\n      dup2\n        /* \"#utility.yul\":5918:5938   */\n      sub\n        /* \"#utility.yul\":5914:5915   */\n      0x00\n        /* \"#utility.yul\":5903:5912   */\n      dup4\n        /* \"#utility.yul\":5899:5916   */\n      add\n        /* \"#utility.yul\":5892:5939   */\n      mstore\n        /* \"#utility.yul\":5956:6087   */\n      tag_218\n        /* \"#utility.yul\":6082:6086   */\n      dup2\n        /* \"#utility.yul\":5956:6087   */\n      tag_141\n      jump\t// in\n    tag_218:\n        /* \"#utility.yul\":5948:6087   */\n      swap1\n      pop\n        /* \"#utility.yul\":5675:6094   */\n      swap2\n      swap1\n      pop\n      jump\t// out\n        /* \"#utility.yul\":6100:6325   */\n    tag_142:\n        /* \"#utility.yul\":6240:6274   */\n      0x546869732070726f647563742068617320616c7265616479206265656e207265\n        /* \"#utility.yul\":6236:6237   */\n      0x00\n        /* \"#utility.yul\":6228:6234   */\n      dup3\n        /* \"#utility.yul\":6224:6238   */\n      add\n        /* \"#utility.yul\":6217:6275   */\n      mstore\n        /* \"#utility.yul\":6309:6317   */\n      0x6379636c65640000000000000000000000000000000000000000000000000000\n        /* \"#utility.yul\":6304:6306   */\n      0x20\n        /* \"#utility.yul\":6296:6302   */\n      dup3\n        /* \"#utility.yul\":6292:6307   */\n      add\n        /* \"#utility.yul\":6285:6318   */\n      mstore\n        /* \"#utility.yul\":6100:6325   */\n      pop\n      jump\t// out\n        /* \"#utility.yul\":6331:6697   */\n    tag_143:\n        /* \"#utility.yul\":6473:6476   */\n      0x00\n        /* \"#utility.yul\":6494:6561   */\n      tag_221\n        /* \"#utility.yul\":6558:6560   */\n      0x26\n        /* \"#utility.yul\":6553:6556   */\n      dup4\n        /* \"#utility.yul\":6494:6561   */\n      tag_139\n      jump\t// in\n    tag_221:\n        /* \"#utility.yul\":6487:6561   */\n      swap2\n      pop\n        /* \"#utility.yul\":6570:6663   */\n      tag_222\n        /* \"#utility.yul\":6659:6662   */\n      dup3\n        /* \"#utility.yul\":6570:6663   */\n      tag_142\n      jump\t// in\n    tag_222:\n        /* \"#utility.yul\":6688:6690   */\n      0x40\n        /* \"#utility.yul\":6683:6686   */\n      dup3\n        /* \"#utility.yul\":6679:6691   */\n      add\n        /* \"#utility.yul\":6672:6691   */\n      swap1\n      pop\n        /* \"#utility.yul\":6331:6697   */\n      swap2\n      swap1\n      pop\n      jump\t// out\n        /* \"#utility.yul\":6703:7122   */\n    tag_72:\n        /* \"#utility.yul\":6869:6873   */\n      0x00\n        /* \"#utility.yul\":6907:6909   */\n      0x20\n        /* \"#utility.yul\":6896:6905   */\n      dup3\n        /* \"#utility.yul\":6892:6910   */\n      add\n        /* \"#utility.yul\":6884:6910   */\n      swap1\n      pop\n        /* \"#utility.yul\":6956:6965   */\n      dup2\n        /* \"#utility.yul\":6950:6954   */\n      dup2\n        /* \"#utility.yul\":6946:6966   */\n      sub\n        /* \"#utility.yul\":6942:6943   */\n      0x00\n        /* \"#utility.yul\":6931:6940   */\n      dup4\n        /* \"#utility.yul\":6927:6944   */\n      add\n        /* \"#utility.yul\":6920:6967   */\n      mstore\n        /* \"#utility.yul\":6984:7115   */\n      tag_224\n        /* \"#utility.yul\":7110:7114   */\n      dup2\n        /* \"#utility.yul\":6984:7115   */\n      tag_143\n      jump\t// in\n    tag_224:\n        /* \"#utility.yul\":6976:7115   */\n      swap1\n      pop\n        /* \"#utility.yul\":6703:7122   */\n      swap2\n      swap1\n      pop\n      jump\t// out\n        /* \"#utility.yul\":7128:7460   */\n    tag_76:\n        /* \"#utility.yul\":7249:7253   */\n      0x00\n        /* \"#utility.yul\":7287:7289   */\n      0x40\n        /* \"#utility.yul\":7276:7285   */\n      dup3\n        /* \"#utility.yul\":7272:7290   */\n      add\n        /* \"#utility.yul\":7264:7290   */\n      swap1\n      pop\n        /* \"#utility.yul\":7300:7371   */\n      tag_226\n        /* \"#utility.yul\":7368:7369   */\n      0x00\n        /* \"#utility.yul\":7357:7366   */\n      dup4\n        /* \"#utility.yul\":7353:7370   */\n      add\n        /* \"#utility.yul\":7344:7350   */\n      dup6\n        /* \"#utility.yul\":7300:7371   */\n      tag_132\n      jump\t// in\n    tag_226:\n        /* \"#utility.yul\":7381:7453   */\n      tag_227\n        /* \"#utility.yul\":7449:7451   */\n      0x20\n        /* \"#utility.yul\":7438:7447   */\n      dup4\n        /* \"#utility.yul\":7434:7452   */\n      add\n        /* \"#utility.yul\":7425:7431   */\n      dup5\n        /* \"#utility.yul\":7381:7453   */\n      tag_127\n      jump\t// in\n    tag_227:\n        /* \"#utility.yul\":7128:7460   */\n      swap4\n      swap3\n      pop\n      pop\n      pop\n      jump\t// out\n        /* \"#utility.yul\":7466:7582   */\n    tag_144:\n        /* \"#utility.yul\":7536:7557   */\n      tag_229\n        /* \"#utility.yul\":7551:7556   */\n      dup2\n        /* \"#utility.yul\":7536:7557   */\n      tag_130\n      jump\t// in\n    tag_229:\n        /* \"#utility.yul\":7529:7534   */\n      dup2\n        /* \"#utility.yul\":7526:7558   */\n      eq\n        /* \"#utility.yul\":7516:7576   */\n      tag_230\n      jumpi\n        /* \"#utility.yul\":7572:7573   */\n      0x00\n        /* \"#utility.yul\":7569:7570   */\n      dup1\n        /* \"#utility.yul\":7562:7574   */\n      revert\n        /* \"#utility.yul\":7516:7576   */\n    tag_230:\n        /* \"#utility.yul\":7466:7582   */\n      pop\n      jump\t// out\n        /* \"#utility.yul\":7588:7725   */\n    tag_145:\n        /* \"#utility.yul\":7642:7647   */\n      0x00\n        /* \"#utility.yul\":7673:7679   */\n      dup2\n        /* \"#utility.yul\":7667:7680   */\n      mload\n        /* \"#utility.yul\":7658:7680   */\n      swap1\n      pop\n        /* \"#utility.yul\":7689:7719   */\n      tag_232\n        /* \"#utility.yul\":7713:7718   */\n      dup2\n        /* \"#utility.yul\":7689:7719   */\n      tag_144\n      jump\t// in\n    tag_232:\n        /* \"#utility.yul\":7588:7725   */\n      swap3\n      swap2\n      pop\n      pop\n      jump\t// out\n        /* \"#utility.yul\":7731:8076   */\n    tag_80:\n        /* \"#utility.yul\":7798:7804   */\n      0x00\n        /* \"#utility.yul\":7847:7849   */\n      0x20\n        /* \"#utility.yul\":7835:7844   */\n      dup3\n        /* \"#utility.yul\":7826:7833   */\n      dup5\n        /* \"#utility.yul\":7822:7845   */\n      sub\n        /* \"#utility.yul\":7818:7850   */\n      slt\n        /* \"#utility.yul\":7815:7934   */\n      iszero\n      tag_234\n      jumpi\n        /* \"#utility.yul\":7853:7932   */\n      tag_235\n      tag_120\n      jump\t// in\n    tag_235:\n        /* \"#utility.yul\":7815:7934   */\n    tag_234:\n        /* \"#utility.yul\":7973:7974   */\n      0x00\n        /* \"#utility.yul\":7998:8059   */\n      tag_236\n        /* \"#utility.yul\":8051:8058   */\n      dup5\n        /* \"#utility.yul\":8042:8048   */\n      dup3\n        /* \"#utility.yul\":8031:8040   */\n      dup6\n        /* \"#utility.yul\":8027:8049   */\n      add\n        /* \"#utility.yul\":7998:8059   */\n      tag_145\n      jump\t// in\n    tag_236:\n        /* \"#utility.yul\":7988:8059   */\n      swap2\n      pop\n        /* \"#utility.yul\":7944:8069   */\n      pop\n        /* \"#utility.yul\":7731:8076   */\n      swap3\n      swap2\n      pop\n      pop\n      jump\t// out\n        /* \"#utility.yul\":8082:8252   */\n    tag_146:\n        /* \"#utility.yul\":8222:8244   */\n      0x4e6f207265776172647320617661696c61626c65000000000000000000000000\n        /* \"#utility.yul\":8218:8219   */\n      0x00\n        /* \"#utility.yul\":8210:8216   */\n      dup3\n        /* \"#utility.yul\":8206:8220   */\n      add\n        /* \"#utility.yul\":8199:8245   */\n      mstore\n        /* \"#utility.yul\":8082:8252   */\n      pop\n      jump\t// out\n        /* \"#utility.yul\":8258:8624   */\n    tag_147:\n        /* \"#utility.yul\":8400:8403   */\n      0x00\n        /* \"#utility.yul\":8421:8488   */\n      tag_239\n        /* \"#utility.yul\":8485:8487   */\n      0x14\n        /* \"#utility.yul\":8480:8483   */\n      dup4\n        /* \"#utility.yul\":8421:8488   */\n      tag_139\n      jump\t// in\n    tag_239:\n        /* \"#utility.yul\":8414:8488   */\n      swap2\n      pop\n        /* \"#utility.yul\":8497:8590   */\n      tag_240\n        /* \"#utility.yul\":8586:8589   */\n      dup3\n        /* \"#utility.yul\":8497:8590   */\n      tag_146\n      jump\t// in\n    tag_240:\n        /* \"#utility.yul\":8615:8617   */\n      0x20\n        /* \"#utility.yul\":8610:8613   */\n      dup3\n        /* \"#utility.yul\":8606:8618   */\n      add\n        /* \"#utility.yul\":8599:8618   */\n      swap1\n      pop\n        /* \"#utility.yul\":8258:8624   */\n      swap2\n      swap1\n      pop\n      jump\t// out\n        /* \"#utility.yul\":8630:9049   */\n    tag_96:\n        /* \"#utility.yul\":8796:8800   */\n      0x00\n        /* \"#utility.yul\":8834:8836   */\n      0x20\n        /* \"#utility.yul\":8823:8832   */\n      dup3\n        /* \"#utility.yul\":8819:8837   */\n      add\n        /* \"#utility.yul\":8811:8837   */\n      swap1\n      pop\n        /* \"#utility.yul\":8883:8892   */\n      dup2\n        /* \"#utility.yul\":8877:8881   */\n      dup2\n        /* \"#utility.yul\":8873:8893   */\n      sub\n        /* \"#utility.yul\":8869:8870   */\n      0x00\n        /* \"#utility.yul\":8858:8867   */\n      dup4\n        /* \"#utility.yul\":8854:8871   */\n      add\n        /* \"#utility.yul\":8847:8894   */\n      mstore\n        /* \"#utility.yul\":8911:9042   */\n      tag_242\n        /* \"#utility.yul\":9037:9041   */\n      dup2\n        /* \"#utility.yul\":8911:9042   */\n      tag_147\n      jump\t// in\n    tag_242:\n        /* \"#utility.yul\":8903:9042   */\n      swap1\n      pop\n        /* \"#utility.yul\":8630:9049   */\n      swap2\n      swap1\n      pop\n      jump\t// out\n        /* \"#utility.yul\":9055:9235   */\n    tag_148:\n        /* \"#utility.yul\":9103:9180   */\n      0x4e487b7100000000000000000000000000000000000000000000000000000000\n        /* \"#utility.yul\":9100:9101   */\n      0x00\n        /* \"#utility.yul\":9093:9181   */\n      mstore\n        /* \"#utility.yul\":9200:9204   */\n      0x11\n        /* \"#utility.yul\":9197:9198   */\n      0x04\n        /* \"#utility.yul\":9190:9205   */\n      mstore\n        /* \"#utility.yul\":9224:9228   */\n      0x24\n        /* \"#utility.yul\":9221:9222   */\n      0x00\n        /* \"#utility.yul\":9214:9229   */\n      revert\n        /* \"#utility.yul\":9241:9432   */\n    tag_109:\n        /* \"#utility.yul\":9281:9284   */\n      0x00\n        /* \"#utility.yul\":9300:9320   */\n      tag_245\n        /* \"#utility.yul\":9318:9319   */\n      dup3\n        /* \"#utility.yul\":9300:9320   */\n      tag_126\n      jump\t// in\n    tag_245:\n        /* \"#utility.yul\":9295:9320   */\n      swap2\n      pop\n        /* \"#utility.yul\":9334:9354   */\n      tag_246\n        /* \"#utility.yul\":9352:9353   */\n      dup4\n        /* \"#utility.yul\":9334:9354   */\n      tag_126\n      jump\t// in\n    tag_246:\n        /* \"#utility.yul\":9329:9354   */\n      swap3\n      pop\n        /* \"#utility.yul\":9377:9378   */\n      dup3\n        /* \"#utility.yul\":9374:9375   */\n      dup3\n        /* \"#utility.yul\":9370:9379   */\n      add\n        /* \"#utility.yul\":9363:9379   */\n      swap1\n      pop\n        /* \"#utility.yul\":9398:9401   */\n      dup1\n        /* \"#utility.yul\":9395:9396   */\n      dup3\n        /* \"#utility.yul\":9392:9402   */\n      gt\n        /* \"#utility.yul\":9389:9425   */\n      iszero\n      tag_247\n      jumpi\n        /* \"#utility.yul\":9405:9423   */\n      tag_248\n      tag_148\n      jump\t// in\n    tag_248:\n        /* \"#utility.yul\":9389:9425   */\n    tag_247:\n        /* \"#utility.yul\":9241:9432   */\n      swap3\n      swap2\n      pop\n      pop\n      jump\t// out\n\n    auxdata: 0xa2646970667358221220eb049350ba0ddf1517e075ccc9736823b462d616e2a54815381fc801fb4f205e64736f6c63430008180033\n}\n",
				"bytecode": {
					"linkReferences": {},
					"object": "608060405234801562000010575f80fd5b50604051620011613803806200116183398181016040528101906200003691906200026a565b805f73ffffffffffffffffffffffffffffffffffffffff168173ffffffffffffffffffffffffffffffffffffffff1603620000aa575f6040517f1e4fbdf7000000000000000000000000000000000000000000000000000000008152600401620000a19190620002d4565b60405180910390fd5b620000bb816200010c60201b60201c565b508260015f6101000a81548173ffffffffffffffffffffffffffffffffffffffff021916908373ffffffffffffffffffffffffffffffffffffffff16021790555081600481905550505050620002ef565b5f805f9054906101000a900473ffffffffffffffffffffffffffffffffffffffff169050815f806101000a81548173ffffffffffffffffffffffffffffffffffffffff021916908373ffffffffffffffffffffffffffffffffffffffff1602179055508173ffffffffffffffffffffffffffffffffffffffff168173ffffffffffffffffffffffffffffffffffffffff167f8be0079c531659141344cd1fd0a4f28419497f9722a3daafe3b4186f6b6457e060405160405180910390a35050565b5f80fd5b5f73ffffffffffffffffffffffffffffffffffffffff82169050919050565b5f620001fc82620001d1565b9050919050565b6200020e81620001f0565b811462000219575f80fd5b50565b5f815190506200022c8162000203565b92915050565b5f819050919050565b620002468162000232565b811462000251575f80fd5b50565b5f8151905062000264816200023b565b92915050565b5f805f60608486031215620002845762000283620001cd565b5b5f62000293868287016200021c565b9350506020620002a68682870162000254565b9250506040620002b9868287016200021c565b9150509250925092565b620002ce81620001f0565b82525050565b5f602082019050620002e95f830184620002c3565b92915050565b610e6480620002fd5f395ff3fe608060405234801561000f575f80fd5b50600436106100b2575f3560e01c80637e1a37861161006f5780637e1a37861461018a5780638da5cb5b146101a85780639ef3a261146101c6578063c7b8981c146101e2578063f2fde38b146101ec578063f7c618c114610208576100b2565b80630660f1e8146100b6578063078b0fb7146100e65780633f608ad21461011657806344301c131461014657806345e1d96014610162578063715018a614610180575b5f80fd5b6100d060048036038101906100cb91906109c1565b610226565b6040516100dd9190610a04565b60405180910390f35b61010060048036038101906100fb91906109c1565b61023b565b60405161010d9190610a04565b60405180910390f35b610130600480360381019061012b9190610a47565b610281565b60405161013d9190610a8c565b60405180910390f35b610160600480360381019061015b9190610aa5565b61029e565b005b61016a610596565b6040516101779190610a04565b60405180910390f35b61018861059c565b005b6101926105af565b60405161019f9190610a04565b60405180910390f35b6101b06105b8565b6040516101bd9190610af2565b60405180910390f35b6101e060048036038101906101db9190610a47565b6105df565b005b6101ea6105f1565b005b610206600480360381019061020191906109c1565b610756565b005b6102106107da565b60405161021d9190610b66565b60405180910390f35b6003602052805f5260405f205f915090505481565b5f60035f8373ffffffffffffffffffffffffffffffffffffffff1673ffffffffffffffffffffffffffffffffffffffff1681526020019081526020015f20549050919050565b6002602052805f5260405f205f915054906101000a900460ff1681565b5f8190503373ffffffffffffffffffffffffffffffffffffffff168173ffffffffffffffffffffffffffffffffffffffff16636352211e856040518263ffffffff1660e01b81526004016102f29190610a04565b602060405180830381865afa15801561030d573d5f803e3d5ffd5b505050506040513d601f19601f820116820180604052508101906103319190610b93565b73ffffffffffffffffffffffffffffffffffffffff1614610387576040517f08c379a000000000000000000000000000000000000000000000000000000000815260040161037e90610c3e565b60405180910390fd5b60025f8481526020019081526020015f205f9054906101000a900460ff16156103e5576040517f08c379a00000000000000000000000000000000000000000000000000000000081526004016103dc90610ccc565b60405180910390fd5b600160025f8581526020019081526020015f205f6101000a81548160ff02191690831515021790555061046060045460035f3373ffffffffffffffffffffffffffffffffffffffff1673ffffffffffffffffffffffffffffffffffffffff1681526020019081526020015f20546107ff90919063ffffffff16565b60035f3373ffffffffffffffffffffffffffffffffffffffff1673ffffffffffffffffffffffffffffffffffffffff1681526020019081526020015f208190555060015f9054906101000a900473ffffffffffffffffffffffffffffffffffffffff1673ffffffffffffffffffffffffffffffffffffffff1663a9059cbb336004546040518363ffffffff1660e01b81526004016104ff929190610cea565b6020604051808303815f875af115801561051b573d5f803e3d5ffd5b505050506040513d601f19601f8201168201806040525081019061053f9190610d3b565b50823373ffffffffffffffffffffffffffffffffffffffff167f080ac4523930bdcc2e85ca0a99da6547ba0d4c3badb2a3693f781d80aa4863dc6004546040516105899190610a04565b60405180910390a3505050565b60045481565b6105a4610814565b6105ad5f61089b565b565b5f600454905090565b5f805f9054906101000a900473ffffffffffffffffffffffffffffffffffffffff16905090565b6105e7610814565b8060048190555050565b5f60035f3373ffffffffffffffffffffffffffffffffffffffff1673ffffffffffffffffffffffffffffffffffffffff1681526020019081526020015f205490505f8111610674576040517f08c379a000000000000000000000000000000000000000000000000000000000815260040161066b90610db0565b60405180910390fd5b5f60035f3373ffffffffffffffffffffffffffffffffffffffff1673ffffffffffffffffffffffffffffffffffffffff1681526020019081526020015f208190555060015f9054906101000a900473ffffffffffffffffffffffffffffffffffffffff1673ffffffffffffffffffffffffffffffffffffffff1663a9059cbb33836040518363ffffffff1660e01b8152600401610712929190610cea565b6020604051808303815f875af115801561072e573d5f803e3d5ffd5b505050506040513d601f19601f820116820180604052508101906107529190610d3b565b5050565b61075e610814565b5f73ffffffffffffffffffffffffffffffffffffffff168173ffffffffffffffffffffffffffffffffffffffff16036107ce575f6040517f1e4fbdf70000000000000000000000000000000000000000000000000000000081526004016107c59190610af2565b60405180910390fd5b6107d78161089b565b50565b60015f9054906101000a900473ffffffffffffffffffffffffffffffffffffffff1681565b5f818361080c9190610dfb565b905092915050565b61081c61095c565b73ffffffffffffffffffffffffffffffffffffffff1661083a6105b8565b73ffffffffffffffffffffffffffffffffffffffff16146108995761085d61095c565b6040517f118cdaa70000000000000000000000000000000000000000000000000000000081526004016108909190610af2565b60405180910390fd5b565b5f805f9054906101000a900473ffffffffffffffffffffffffffffffffffffffff169050815f806101000a81548173ffffffffffffffffffffffffffffffffffffffff021916908373ffffffffffffffffffffffffffffffffffffffff1602179055508173ffffffffffffffffffffffffffffffffffffffff168173ffffffffffffffffffffffffffffffffffffffff167f8be0079c531659141344cd1fd0a4f28419497f9722a3daafe3b4186f6b6457e060405160405180910390a35050565b5f33905090565b5f80fd5b5f73ffffffffffffffffffffffffffffffffffffffff82169050919050565b5f61099082610967565b9050919050565b6109a081610986565b81146109aa575f80fd5b50565b5f813590506109bb81610997565b92915050565b5f602082840312156109d6576109d5610963565b5b5f6109e3848285016109ad565b91505092915050565b5f819050919050565b6109fe816109ec565b82525050565b5f602082019050610a175f8301846109f5565b92915050565b610a26816109ec565b8114610a30575f80fd5b50565b5f81359050610a4181610a1d565b92915050565b5f60208284031215610a5c57610a5b610963565b5b5f610a6984828501610a33565b91505092915050565b5f8115159050919050565b610a8681610a72565b82525050565b5f602082019050610a9f5f830184610a7d565b92915050565b5f8060408385031215610abb57610aba610963565b5b5f610ac885828601610a33565b9250506020610ad9858286016109ad565b9150509250929050565b610aec81610986565b82525050565b5f602082019050610b055f830184610ae3565b92915050565b5f819050919050565b5f610b2e610b29610b2484610967565b610b0b565b610967565b9050919050565b5f610b3f82610b14565b9050919050565b5f610b5082610b35565b9050919050565b610b6081610b46565b82525050565b5f602082019050610b795f830184610b57565b92915050565b5f81519050610b8d81610997565b92915050565b5f60208284031215610ba857610ba7610963565b5b5f610bb584828501610b7f565b91505092915050565b5f82825260208201905092915050565b7f596f75206d757374206f776e207468652070726f6475637420746f20726563795f8201527f636c652069740000000000000000000000000000000000000000000000000000602082015250565b5f610c28602683610bbe565b9150610c3382610bce565b604082019050919050565b5f6020820190508181035f830152610c5581610c1c565b9050919050565b7f546869732070726f647563742068617320616c7265616479206265656e2072655f8201527f6379636c65640000000000000000000000000000000000000000000000000000602082015250565b5f610cb6602683610bbe565b9150610cc182610c5c565b604082019050919050565b5f6020820190508181035f830152610ce381610caa565b9050919050565b5f604082019050610cfd5f830185610ae3565b610d0a60208301846109f5565b9392505050565b610d1a81610a72565b8114610d24575f80fd5b50565b5f81519050610d3581610d11565b92915050565b5f60208284031215610d5057610d4f610963565b5b5f610d5d84828501610d27565b91505092915050565b7f4e6f207265776172647320617661696c61626c650000000000000000000000005f82015250565b5f610d9a601483610bbe565b9150610da582610d66565b602082019050919050565b5f6020820190508181035f830152610dc781610d8e565b9050919050565b7f4e487b71000000000000000000000000000000000000000000000000000000005f52601160045260245ffd5b5f610e05826109ec565b9150610e10836109ec565b9250828201905080821115610e2857610e27610dce565b5b9291505056fea2646970667358221220eb049350ba0ddf1517e075ccc9736823b462d616e2a54815381fc801fb4f205e64736f6c63430008180033",
					"opcodes": "PUSH1 0x80 PUSH1 0x40 MSTORE CALLVALUE DUP1 ISZERO PUSH3 0x10 JUMPI PUSH0 DUP1 REVERT JUMPDEST POP PUSH1 0x40 MLOAD PUSH3 0x1161 CODESIZE SUB DUP1 PUSH3 0x1161 DUP4 CODECOPY DUP2 DUP2 ADD PUSH1 0x40 MSTORE DUP2 ADD SWAP1 PUSH3 0x36 SWAP2 SWAP1 PUSH3 0x26A JUMP JUMPDEST DUP1 PUSH0 PUSH20 0xFFFFFFFFFFFFFFFFFFFFFFFFFFFFFFFFFFFFFFFF AND DUP2 PUSH20 0xFFFFFFFFFFFFFFFFFFFFFFFFFFFFFFFFFFFFFFFF AND SUB PUSH3 0xAA JUMPI PUSH0 PUSH1 0x40 MLOAD PUSH32 0x1E4FBDF700000000000000000000000000000000000000000000000000000000 DUP2 MSTORE PUSH1 0x4 ADD PUSH3 0xA1 SWAP2 SWAP1 PUSH3 0x2D4 JUMP JUMPDEST PUSH1 0x40 MLOAD DUP1 SWAP2 SUB SWAP1 REVERT JUMPDEST PUSH3 0xBB DUP2 PUSH3 0x10C PUSH1 0x20 SHL PUSH1 0x20 SHR JUMP JUMPDEST POP DUP3 PUSH1 0x1 PUSH0 PUSH2 0x100 EXP DUP2 SLOAD DUP2 PUSH20 0xFFFFFFFFFFFFFFFFFFFFFFFFFFFFFFFFFFFFFFFF MUL NOT AND SWAP1 DUP4 PUSH20 0xFFFFFFFFFFFFFFFFFFFFFFFFFFFFFFFFFFFFFFFF AND MUL OR SWAP1 SSTORE POP DUP2 PUSH1 0x4 DUP2 SWAP1 SSTORE POP POP POP POP PUSH3 0x2EF JUMP JUMPDEST PUSH0 DUP1 PUSH0 SWAP1 SLOAD SWAP1 PUSH2 0x100 EXP SWAP1 DIV PUSH20 0xFFFFFFFFFFFFFFFFFFFFFFFFFFFFFFFFFFFFFFFF AND SWAP1 POP DUP2 PUSH0 DUP1 PUSH2 0x100 EXP DUP2 SLOAD DUP2 PUSH20 0xFFFFFFFFFFFFFFFFFFFFFFFFFFFFFFFFFFFFFFFF MUL NOT AND SWAP1 DUP4 PUSH20 0xFFFFFFFFFFFFFFFFFFFFFFFFFFFFFFFFFFFFFFFF AND MUL OR SWAP1 SSTORE POP DUP2 PUSH20 0xFFFFFFFFFFFFFFFFFFFFFFFFFFFFFFFFFFFFFFFF AND DUP2 PUSH20 0xFFFFFFFFFFFFFFFFFFFFFFFFFFFFFFFFFFFFFFFF AND PUSH32 0x8BE0079C531659141344CD1FD0A4F28419497F9722A3DAAFE3B4186F6B6457E0 PUSH1 0x40 MLOAD PUSH1 0x40 MLOAD DUP1 SWAP2 SUB SWAP1 LOG3 POP POP JUMP JUMPDEST PUSH0 DUP1 REVERT JUMPDEST PUSH0 PUSH20 0xFFFFFFFFFFFFFFFFFFFFFFFFFFFFFFFFFFFFFFFF DUP3 AND SWAP1 POP SWAP2 SWAP1 POP JUMP JUMPDEST PUSH0 PUSH3 0x1FC DUP3 PUSH3 0x1D1 JUMP JUMPDEST SWAP1 POP SWAP2 SWAP1 POP JUMP JUMPDEST PUSH3 0x20E DUP2 PUSH3 0x1F0 JUMP JUMPDEST DUP2 EQ PUSH3 0x219 JUMPI PUSH0 DUP1 REVERT JUMPDEST POP JUMP JUMPDEST PUSH0 DUP2 MLOAD SWAP1 POP PUSH3 0x22C DUP2 PUSH3 0x203 JUMP JUMPDEST SWAP3 SWAP2 POP POP JUMP JUMPDEST PUSH0 DUP2 SWAP1 POP SWAP2 SWAP1 POP JUMP JUMPDEST PUSH3 0x246 DUP2 PUSH3 0x232 JUMP JUMPDEST DUP2 EQ PUSH3 0x251 JUMPI PUSH0 DUP1 REVERT JUMPDEST POP JUMP JUMPDEST PUSH0 DUP2 MLOAD SWAP1 POP PUSH3 0x264 DUP2 PUSH3 0x23B JUMP JUMPDEST SWAP3 SWAP2 POP POP JUMP JUMPDEST PUSH0 DUP1 PUSH0 PUSH1 0x60 DUP5 DUP7 SUB SLT ISZERO PUSH3 0x284 JUMPI PUSH3 0x283 PUSH3 0x1CD JUMP JUMPDEST JUMPDEST PUSH0 PUSH3 0x293 DUP7 DUP3 DUP8 ADD PUSH3 0x21C JUMP JUMPDEST SWAP4 POP POP PUSH1 0x20 PUSH3 0x2A6 DUP7 DUP3 DUP8 ADD PUSH3 0x254 JUMP JUMPDEST SWAP3 POP POP PUSH1 0x40 PUSH3 0x2B9 DUP7 DUP3 DUP8 ADD PUSH3 0x21C JUMP JUMPDEST SWAP2 POP POP SWAP3 POP SWAP3 POP SWAP3 JUMP JUMPDEST PUSH3 0x2CE DUP2 PUSH3 0x1F0 JUMP JUMPDEST DUP3 MSTORE POP POP JUMP JUMPDEST PUSH0 PUSH1 0x20 DUP3 ADD SWAP1 POP PUSH3 0x2E9 PUSH0 DUP4 ADD DUP5 PUSH3 0x2C3 JUMP JUMPDEST SWAP3 SWAP2 POP POP JUMP JUMPDEST PUSH2 0xE64 DUP1 PUSH3 0x2FD PUSH0 CODECOPY PUSH0 RETURN INVALID PUSH1 0x80 PUSH1 0x40 MSTORE CALLVALUE DUP1 ISZERO PUSH2 0xF JUMPI PUSH0 DUP1 REVERT JUMPDEST POP PUSH1 0x4 CALLDATASIZE LT PUSH2 0xB2 JUMPI PUSH0 CALLDATALOAD PUSH1 0xE0 SHR DUP1 PUSH4 0x7E1A3786 GT PUSH2 0x6F JUMPI DUP1 PUSH4 0x7E1A3786 EQ PUSH2 0x18A JUMPI DUP1 PUSH4 0x8DA5CB5B EQ PUSH2 0x1A8 JUMPI DUP1 PUSH4 0x9EF3A261 EQ PUSH2 0x1C6 JUMPI DUP1 PUSH4 0xC7B8981C EQ PUSH2 0x1E2 JUMPI DUP1 PUSH4 0xF2FDE38B EQ PUSH2 0x1EC JUMPI DUP1 PUSH4 0xF7C618C1 EQ PUSH2 0x208 JUMPI PUSH2 0xB2 JUMP JUMPDEST DUP1 PUSH4 0x660F1E8 EQ PUSH2 0xB6 JUMPI DUP1 PUSH4 0x78B0FB7 EQ PUSH2 0xE6 JUMPI DUP1 PUSH4 0x3F608AD2 EQ PUSH2 0x116 JUMPI DUP1 PUSH4 0x44301C13 EQ PUSH2 0x146 JUMPI DUP1 PUSH4 0x45E1D960 EQ PUSH2 0x162 JUMPI DUP1 PUSH4 0x715018A6 EQ PUSH2 0x180 JUMPI JUMPDEST PUSH0 DUP1 REVERT JUMPDEST PUSH2 0xD0 PUSH1 0x4 DUP1 CALLDATASIZE SUB DUP2 ADD SWAP1 PUSH2 0xCB SWAP2 SWAP1 PUSH2 0x9C1 JUMP JUMPDEST PUSH2 0x226 JUMP JUMPDEST PUSH1 0x40 MLOAD PUSH2 0xDD SWAP2 SWAP1 PUSH2 0xA04 JUMP JUMPDEST PUSH1 0x40 MLOAD DUP1 SWAP2 SUB SWAP1 RETURN JUMPDEST PUSH2 0x100 PUSH1 0x4 DUP1 CALLDATASIZE SUB DUP2 ADD SWAP1 PUSH2 0xFB SWAP2 SWAP1 PUSH2 0x9C1 JUMP JUMPDEST PUSH2 0x23B JUMP JUMPDEST PUSH1 0x40 MLOAD PUSH2 0x10D SWAP2 SWAP1 PUSH2 0xA04 JUMP JUMPDEST PUSH1 0x40 MLOAD DUP1 SWAP2 SUB SWAP1 RETURN JUMPDEST PUSH2 0x130 PUSH1 0x4 DUP1 CALLDATASIZE SUB DUP2 ADD SWAP1 PUSH2 0x12B SWAP2 SWAP1 PUSH2 0xA47 JUMP JUMPDEST PUSH2 0x281 JUMP JUMPDEST PUSH1 0x40 MLOAD PUSH2 0x13D SWAP2 SWAP1 PUSH2 0xA8C JUMP JUMPDEST PUSH1 0x40 MLOAD DUP1 SWAP2 SUB SWAP1 RETURN JUMPDEST PUSH2 0x160 PUSH1 0x4 DUP1 CALLDATASIZE SUB DUP2 ADD SWAP1 PUSH2 0x15B SWAP2 SWAP1 PUSH2 0xAA5 JUMP JUMPDEST PUSH2 0x29E JUMP JUMPDEST STOP JUMPDEST PUSH2 0x16A PUSH2 0x596 JUMP JUMPDEST PUSH1 0x40 MLOAD PUSH2 0x177 SWAP2 SWAP1 PUSH2 0xA04 JUMP JUMPDEST PUSH1 0x40 MLOAD DUP1 SWAP2 SUB SWAP1 RETURN JUMPDEST PUSH2 0x188 PUSH2 0x59C JUMP JUMPDEST STOP JUMPDEST PUSH2 0x192 PUSH2 0x5AF JUMP JUMPDEST PUSH1 0x40 MLOAD PUSH2 0x19F SWAP2 SWAP1 PUSH2 0xA04 JUMP JUMPDEST PUSH1 0x40 MLOAD DUP1 SWAP2 SUB SWAP1 RETURN JUMPDEST PUSH2 0x1B0 PUSH2 0x5B8 JUMP JUMPDEST PUSH1 0x40 MLOAD PUSH2 0x1BD SWAP2 SWAP1 PUSH2 0xAF2 JUMP JUMPDEST PUSH1 0x40 MLOAD DUP1 SWAP2 SUB SWAP1 RETURN JUMPDEST PUSH2 0x1E0 PUSH1 0x4 DUP1 CALLDATASIZE SUB DUP2 ADD SWAP1 PUSH2 0x1DB SWAP2 SWAP1 PUSH2 0xA47 JUMP JUMPDEST PUSH2 0x5DF JUMP JUMPDEST STOP JUMPDEST PUSH2 0x1EA PUSH2 0x5F1 JUMP JUMPDEST STOP JUMPDEST PUSH2 0x206 PUSH1 0x4 DUP1 CALLDATASIZE SUB DUP2 ADD SWAP1 PUSH2 0x201 SWAP2 SWAP1 PUSH2 0x9C1 JUMP JUMPDEST PUSH2 0x756 JUMP JUMPDEST STOP JUMPDEST PUSH2 0x210 PUSH2 0x7DA JUMP JUMPDEST PUSH1 0x40 MLOAD PUSH2 0x21D SWAP2 SWAP1 PUSH2 0xB66 JUMP JUMPDEST PUSH1 0x40 MLOAD DUP1 SWAP2 SUB SWAP1 RETURN JUMPDEST PUSH1 0x3 PUSH1 0x20 MSTORE DUP1 PUSH0 MSTORE PUSH1 0x40 PUSH0 KECCAK256 PUSH0 SWAP2 POP SWAP1 POP SLOAD DUP2 JUMP JUMPDEST PUSH0 PUSH1 0x3 PUSH0 DUP4 PUSH20 0xFFFFFFFFFFFFFFFFFFFFFFFFFFFFFFFFFFFFFFFF AND PUSH20 0xFFFFFFFFFFFFFFFFFFFFFFFFFFFFFFFFFFFFFFFF AND DUP2 MSTORE PUSH1 0x20 ADD SWAP1 DUP2 MSTORE PUSH1 0x20 ADD PUSH0 KECCAK256 SLOAD SWAP1 POP SWAP2 SWAP1 POP JUMP JUMPDEST PUSH1 0x2 PUSH1 0x20 MSTORE DUP1 PUSH0 MSTORE PUSH1 0x40 PUSH0 KECCAK256 PUSH0 SWAP2 POP SLOAD SWAP1 PUSH2 0x100 EXP SWAP1 DIV PUSH1 0xFF AND DUP2 JUMP JUMPDEST PUSH0 DUP2 SWAP1 POP CALLER PUSH20 0xFFFFFFFFFFFFFFFFFFFFFFFFFFFFFFFFFFFFFFFF AND DUP2 PUSH20 0xFFFFFFFFFFFFFFFFFFFFFFFFFFFFFFFFFFFFFFFF AND PUSH4 0x6352211E DUP6 PUSH1 0x40 MLOAD DUP3 PUSH4 0xFFFFFFFF AND PUSH1 0xE0 SHL DUP2 MSTORE PUSH1 0x4 ADD PUSH2 0x2F2 SWAP2 SWAP1 PUSH2 0xA04 JUMP JUMPDEST PUSH1 0x20 PUSH1 0x40 MLOAD DUP1 DUP4 SUB DUP2 DUP7 GAS STATICCALL ISZERO DUP1 ISZERO PUSH2 0x30D JUMPI RETURNDATASIZE PUSH0 DUP1 RETURNDATACOPY RETURNDATASIZE PUSH0 REVERT JUMPDEST POP POP POP POP PUSH1 0x40 MLOAD RETURNDATASIZE PUSH1 0x1F NOT PUSH1 0x1F DUP3 ADD AND DUP3 ADD DUP1 PUSH1 0x40 MSTORE POP DUP2 ADD SWAP1 PUSH2 0x331 SWAP2 SWAP1 PUSH2 0xB93 JUMP JUMPDEST PUSH20 0xFFFFFFFFFFFFFFFFFFFFFFFFFFFFFFFFFFFFFFFF AND EQ PUSH2 0x387 JUMPI PUSH1 0x40 MLOAD PUSH32 0x8C379A000000000000000000000000000000000000000000000000000000000 DUP2 MSTORE PUSH1 0x4 ADD PUSH2 0x37E SWAP1 PUSH2 0xC3E JUMP JUMPDEST PUSH1 0x40 MLOAD DUP1 SWAP2 SUB SWAP1 REVERT JUMPDEST PUSH1 0x2 PUSH0 DUP5 DUP2 MSTORE PUSH1 0x20 ADD SWAP1 DUP2 MSTORE PUSH1 0x20 ADD PUSH0 KECCAK256 PUSH0 SWAP1 SLOAD SWAP1 PUSH2 0x100 EXP SWAP1 DIV PUSH1 0xFF AND ISZERO PUSH2 0x3E5 JUMPI PUSH1 0x40 MLOAD PUSH32 0x8C379A000000000000000000000000000000000000000000000000000000000 DUP2 MSTORE PUSH1 0x4 ADD PUSH2 0x3DC SWAP1 PUSH2 0xCCC JUMP JUMPDEST PUSH1 0x40 MLOAD DUP1 SWAP2 SUB SWAP1 REVERT JUMPDEST PUSH1 0x1 PUSH1 0x2 PUSH0 DUP6 DUP2 MSTORE PUSH1 0x20 ADD SWAP1 DUP2 MSTORE PUSH1 0x20 ADD PUSH0 KECCAK256 PUSH0 PUSH2 0x100 EXP DUP2 SLOAD DUP2 PUSH1 0xFF MUL NOT AND SWAP1 DUP4 ISZERO ISZERO MUL OR SWAP1 SSTORE POP PUSH2 0x460 PUSH1 0x4 SLOAD PUSH1 0x3 PUSH0 CALLER PUSH20 0xFFFFFFFFFFFFFFFFFFFFFFFFFFFFFFFFFFFFFFFF AND PUSH20 0xFFFFFFFFFFFFFFFFFFFFFFFFFFFFFFFFFFFFFFFF AND DUP2 MSTORE PUSH1 0x20 ADD SWAP1 DUP2 MSTORE PUSH1 0x20 ADD PUSH0 KECCAK256 SLOAD PUSH2 0x7FF SWAP1 SWAP2 SWAP1 PUSH4 0xFFFFFFFF AND JUMP JUMPDEST PUSH1 0x3 PUSH0 CALLER PUSH20 0xFFFFFFFFFFFFFFFFFFFFFFFFFFFFFFFFFFFFFFFF AND PUSH20 0xFFFFFFFFFFFFFFFFFFFFFFFFFFFFFFFFFFFFFFFF AND DUP2 MSTORE PUSH1 0x20 ADD SWAP1 DUP2 MSTORE PUSH1 0x20 ADD PUSH0 KECCAK256 DUP2 SWAP1 SSTORE POP PUSH1 0x1 PUSH0 SWAP1 SLOAD SWAP1 PUSH2 0x100 EXP SWAP1 DIV PUSH20 0xFFFFFFFFFFFFFFFFFFFFFFFFFFFFFFFFFFFFFFFF AND PUSH20 0xFFFFFFFFFFFFFFFFFFFFFFFFFFFFFFFFFFFFFFFF AND PUSH4 0xA9059CBB CALLER PUSH1 0x4 SLOAD PUSH1 0x40 MLOAD DUP4 PUSH4 0xFFFFFFFF AND PUSH1 0xE0 SHL DUP2 MSTORE PUSH1 0x4 ADD PUSH2 0x4FF SWAP3 SWAP2 SWAP1 PUSH2 0xCEA JUMP JUMPDEST PUSH1 0x20 PUSH1 0x40 MLOAD DUP1 DUP4 SUB DUP2 PUSH0 DUP8 GAS CALL ISZERO DUP1 ISZERO PUSH2 0x51B JUMPI RETURNDATASIZE PUSH0 DUP1 RETURNDATACOPY RETURNDATASIZE PUSH0 REVERT JUMPDEST POP POP POP POP PUSH1 0x40 MLOAD RETURNDATASIZE PUSH1 0x1F NOT PUSH1 0x1F DUP3 ADD AND DUP3 ADD DUP1 PUSH1 0x40 MSTORE POP DUP2 ADD SWAP1 PUSH2 0x53F SWAP2 SWAP1 PUSH2 0xD3B JUMP JUMPDEST POP DUP3 CALLER PUSH20 0xFFFFFFFFFFFFFFFFFFFFFFFFFFFFFFFFFFFFFFFF AND PUSH32 0x80AC4523930BDCC2E85CA0A99DA6547BA0D4C3BADB2A3693F781D80AA4863DC PUSH1 0x4 SLOAD PUSH1 0x40 MLOAD PUSH2 0x589 SWAP2 SWAP1 PUSH2 0xA04 JUMP JUMPDEST PUSH1 0x40 MLOAD DUP1 SWAP2 SUB SWAP1 LOG3 POP POP POP JUMP JUMPDEST PUSH1 0x4 SLOAD DUP2 JUMP JUMPDEST PUSH2 0x5A4 PUSH2 0x814 JUMP JUMPDEST PUSH2 0x5AD PUSH0 PUSH2 0x89B JUMP JUMPDEST JUMP JUMPDEST PUSH0 PUSH1 0x4 SLOAD SWAP1 POP SWAP1 JUMP JUMPDEST PUSH0 DUP1 PUSH0 SWAP1 SLOAD SWAP1 PUSH2 0x100 EXP SWAP1 DIV PUSH20 0xFFFFFFFFFFFFFFFFFFFFFFFFFFFFFFFFFFFFFFFF AND SWAP1 POP SWAP1 JUMP JUMPDEST PUSH2 0x5E7 PUSH2 0x814 JUMP JUMPDEST DUP1 PUSH1 0x4 DUP2 SWAP1 SSTORE POP POP JUMP JUMPDEST PUSH0 PUSH1 0x3 PUSH0 CALLER PUSH20 0xFFFFFFFFFFFFFFFFFFFFFFFFFFFFFFFFFFFFFFFF AND PUSH20 0xFFFFFFFFFFFFFFFFFFFFFFFFFFFFFFFFFFFFFFFF AND DUP2 MSTORE PUSH1 0x20 ADD SWAP1 DUP2 MSTORE PUSH1 0x20 ADD PUSH0 KECCAK256 SLOAD SWAP1 POP PUSH0 DUP2 GT PUSH2 0x674 JUMPI PUSH1 0x40 MLOAD PUSH32 0x8C379A000000000000000000000000000000000000000000000000000000000 DUP2 MSTORE PUSH1 0x4 ADD PUSH2 0x66B SWAP1 PUSH2 0xDB0 JUMP JUMPDEST PUSH1 0x40 MLOAD DUP1 SWAP2 SUB SWAP1 REVERT JUMPDEST PUSH0 PUSH1 0x3 PUSH0 CALLER PUSH20 0xFFFFFFFFFFFFFFFFFFFFFFFFFFFFFFFFFFFFFFFF AND PUSH20 0xFFFFFFFFFFFFFFFFFFFFFFFFFFFFFFFFFFFFFFFF AND DUP2 MSTORE PUSH1 0x20 ADD SWAP1 DUP2 MSTORE PUSH1 0x20 ADD PUSH0 KECCAK256 DUP2 SWAP1 SSTORE POP PUSH1 0x1 PUSH0 SWAP1 SLOAD SWAP1 PUSH2 0x100 EXP SWAP1 DIV PUSH20 0xFFFFFFFFFFFFFFFFFFFFFFFFFFFFFFFFFFFFFFFF AND PUSH20 0xFFFFFFFFFFFFFFFFFFFFFFFFFFFFFFFFFFFFFFFF AND PUSH4 0xA9059CBB CALLER DUP4 PUSH1 0x40 MLOAD DUP4 PUSH4 0xFFFFFFFF AND PUSH1 0xE0 SHL DUP2 MSTORE PUSH1 0x4 ADD PUSH2 0x712 SWAP3 SWAP2 SWAP1 PUSH2 0xCEA JUMP JUMPDEST PUSH1 0x20 PUSH1 0x40 MLOAD DUP1 DUP4 SUB DUP2 PUSH0 DUP8 GAS CALL ISZERO DUP1 ISZERO PUSH2 0x72E JUMPI RETURNDATASIZE PUSH0 DUP1 RETURNDATACOPY RETURNDATASIZE PUSH0 REVERT JUMPDEST POP POP POP POP PUSH1 0x40 MLOAD RETURNDATASIZE PUSH1 0x1F NOT PUSH1 0x1F DUP3 ADD AND DUP3 ADD DUP1 PUSH1 0x40 MSTORE POP DUP2 ADD SWAP1 PUSH2 0x752 SWAP2 SWAP1 PUSH2 0xD3B JUMP JUMPDEST POP POP JUMP JUMPDEST PUSH2 0x75E PUSH2 0x814 JUMP JUMPDEST PUSH0 PUSH20 0xFFFFFFFFFFFFFFFFFFFFFFFFFFFFFFFFFFFFFFFF AND DUP2 PUSH20 0xFFFFFFFFFFFFFFFFFFFFFFFFFFFFFFFFFFFFFFFF AND SUB PUSH2 0x7CE JUMPI PUSH0 PUSH1 0x40 MLOAD PUSH32 0x1E4FBDF700000000000000000000000000000000000000000000000000000000 DUP2 MSTORE PUSH1 0x4 ADD PUSH2 0x7C5 SWAP2 SWAP1 PUSH2 0xAF2 JUMP JUMPDEST PUSH1 0x40 MLOAD DUP1 SWAP2 SUB SWAP1 REVERT JUMPDEST PUSH2 0x7D7 DUP2 PUSH2 0x89B JUMP JUMPDEST POP JUMP JUMPDEST PUSH1 0x1 PUSH0 SWAP1 SLOAD SWAP1 PUSH2 0x100 EXP SWAP1 DIV PUSH20 0xFFFFFFFFFFFFFFFFFFFFFFFFFFFFFFFFFFFFFFFF AND DUP2 JUMP JUMPDEST PUSH0 DUP2 DUP4 PUSH2 0x80C SWAP2 SWAP1 PUSH2 0xDFB JUMP JUMPDEST SWAP1 POP SWAP3 SWAP2 POP POP JUMP JUMPDEST PUSH2 0x81C PUSH2 0x95C JUMP JUMPDEST PUSH20 0xFFFFFFFFFFFFFFFFFFFFFFFFFFFFFFFFFFFFFFFF AND PUSH2 0x83A PUSH2 0x5B8 JUMP JUMPDEST PUSH20 0xFFFFFFFFFFFFFFFFFFFFFFFFFFFFFFFFFFFFFFFF AND EQ PUSH2 0x899 JUMPI PUSH2 0x85D PUSH2 0x95C JUMP JUMPDEST PUSH1 0x40 MLOAD PUSH32 0x118CDAA700000000000000000000000000000000000000000000000000000000 DUP2 MSTORE PUSH1 0x4 ADD PUSH2 0x890 SWAP2 SWAP1 PUSH2 0xAF2 JUMP JUMPDEST PUSH1 0x40 MLOAD DUP1 SWAP2 SUB SWAP1 REVERT JUMPDEST JUMP JUMPDEST PUSH0 DUP1 PUSH0 SWAP1 SLOAD SWAP1 PUSH2 0x100 EXP SWAP1 DIV PUSH20 0xFFFFFFFFFFFFFFFFFFFFFFFFFFFFFFFFFFFFFFFF AND SWAP1 POP DUP2 PUSH0 DUP1 PUSH2 0x100 EXP DUP2 SLOAD DUP2 PUSH20 0xFFFFFFFFFFFFFFFFFFFFFFFFFFFFFFFFFFFFFFFF MUL NOT AND SWAP1 DUP4 PUSH20 0xFFFFFFFFFFFFFFFFFFFFFFFFFFFFFFFFFFFFFFFF AND MUL OR SWAP1 SSTORE POP DUP2 PUSH20 0xFFFFFFFFFFFFFFFFFFFFFFFFFFFFFFFFFFFFFFFF AND DUP2 PUSH20 0xFFFFFFFFFFFFFFFFFFFFFFFFFFFFFFFFFFFFFFFF AND PUSH32 0x8BE0079C531659141344CD1FD0A4F28419497F9722A3DAAFE3B4186F6B6457E0 PUSH1 0x40 MLOAD PUSH1 0x40 MLOAD DUP1 SWAP2 SUB SWAP1 LOG3 POP POP JUMP JUMPDEST PUSH0 CALLER SWAP1 POP SWAP1 JUMP JUMPDEST PUSH0 DUP1 REVERT JUMPDEST PUSH0 PUSH20 0xFFFFFFFFFFFFFFFFFFFFFFFFFFFFFFFFFFFFFFFF DUP3 AND SWAP1 POP SWAP2 SWAP1 POP JUMP JUMPDEST PUSH0 PUSH2 0x990 DUP3 PUSH2 0x967 JUMP JUMPDEST SWAP1 POP SWAP2 SWAP1 POP JUMP JUMPDEST PUSH2 0x9A0 DUP2 PUSH2 0x986 JUMP JUMPDEST DUP2 EQ PUSH2 0x9AA JUMPI PUSH0 DUP1 REVERT JUMPDEST POP JUMP JUMPDEST PUSH0 DUP2 CALLDATALOAD SWAP1 POP PUSH2 0x9BB DUP2 PUSH2 0x997 JUMP JUMPDEST SWAP3 SWAP2 POP POP JUMP JUMPDEST PUSH0 PUSH1 0x20 DUP3 DUP5 SUB SLT ISZERO PUSH2 0x9D6 JUMPI PUSH2 0x9D5 PUSH2 0x963 JUMP JUMPDEST JUMPDEST PUSH0 PUSH2 0x9E3 DUP5 DUP3 DUP6 ADD PUSH2 0x9AD JUMP JUMPDEST SWAP2 POP POP SWAP3 SWAP2 POP POP JUMP JUMPDEST PUSH0 DUP2 SWAP1 POP SWAP2 SWAP1 POP JUMP JUMPDEST PUSH2 0x9FE DUP2 PUSH2 0x9EC JUMP JUMPDEST DUP3 MSTORE POP POP JUMP JUMPDEST PUSH0 PUSH1 0x20 DUP3 ADD SWAP1 POP PUSH2 0xA17 PUSH0 DUP4 ADD DUP5 PUSH2 0x9F5 JUMP JUMPDEST SWAP3 SWAP2 POP POP JUMP JUMPDEST PUSH2 0xA26 DUP2 PUSH2 0x9EC JUMP JUMPDEST DUP2 EQ PUSH2 0xA30 JUMPI PUSH0 DUP1 REVERT JUMPDEST POP JUMP JUMPDEST PUSH0 DUP2 CALLDATALOAD SWAP1 POP PUSH2 0xA41 DUP2 PUSH2 0xA1D JUMP JUMPDEST SWAP3 SWAP2 POP POP JUMP JUMPDEST PUSH0 PUSH1 0x20 DUP3 DUP5 SUB SLT ISZERO PUSH2 0xA5C JUMPI PUSH2 0xA5B PUSH2 0x963 JUMP JUMPDEST JUMPDEST PUSH0 PUSH2 0xA69 DUP5 DUP3 DUP6 ADD PUSH2 0xA33 JUMP JUMPDEST SWAP2 POP POP SWAP3 SWAP2 POP POP JUMP JUMPDEST PUSH0 DUP2 ISZERO ISZERO SWAP1 POP SWAP2 SWAP1 POP JUMP JUMPDEST PUSH2 0xA86 DUP2 PUSH2 0xA72 JUMP JUMPDEST DUP3 MSTORE POP POP JUMP JUMPDEST PUSH0 PUSH1 0x20 DUP3 ADD SWAP1 POP PUSH2 0xA9F PUSH0 DUP4 ADD DUP5 PUSH2 0xA7D JUMP JUMPDEST SWAP3 SWAP2 POP POP JUMP JUMPDEST PUSH0 DUP1 PUSH1 0x40 DUP4 DUP6 SUB SLT ISZERO PUSH2 0xABB JUMPI PUSH2 0xABA PUSH2 0x963 JUMP JUMPDEST JUMPDEST PUSH0 PUSH2 0xAC8 DUP6 DUP3 DUP7 ADD PUSH2 0xA33 JUMP JUMPDEST SWAP3 POP POP PUSH1 0x20 PUSH2 0xAD9 DUP6 DUP3 DUP7 ADD PUSH2 0x9AD JUMP JUMPDEST SWAP2 POP POP SWAP3 POP SWAP3 SWAP1 POP JUMP JUMPDEST PUSH2 0xAEC DUP2 PUSH2 0x986 JUMP JUMPDEST DUP3 MSTORE POP POP JUMP JUMPDEST PUSH0 PUSH1 0x20 DUP3 ADD SWAP1 POP PUSH2 0xB05 PUSH0 DUP4 ADD DUP5 PUSH2 0xAE3 JUMP JUMPDEST SWAP3 SWAP2 POP POP JUMP JUMPDEST PUSH0 DUP2 SWAP1 POP SWAP2 SWAP1 POP JUMP JUMPDEST PUSH0 PUSH2 0xB2E PUSH2 0xB29 PUSH2 0xB24 DUP5 PUSH2 0x967 JUMP JUMPDEST PUSH2 0xB0B JUMP JUMPDEST PUSH2 0x967 JUMP JUMPDEST SWAP1 POP SWAP2 SWAP1 POP JUMP JUMPDEST PUSH0 PUSH2 0xB3F DUP3 PUSH2 0xB14 JUMP JUMPDEST SWAP1 POP SWAP2 SWAP1 POP JUMP JUMPDEST PUSH0 PUSH2 0xB50 DUP3 PUSH2 0xB35 JUMP JUMPDEST SWAP1 POP SWAP2 SWAP1 POP JUMP JUMPDEST PUSH2 0xB60 DUP2 PUSH2 0xB46 JUMP JUMPDEST DUP3 MSTORE POP POP JUMP JUMPDEST PUSH0 PUSH1 0x20 DUP3 ADD SWAP1 POP PUSH2 0xB79 PUSH0 DUP4 ADD DUP5 PUSH2 0xB57 JUMP JUMPDEST SWAP3 SWAP2 POP POP JUMP JUMPDEST PUSH0 DUP2 MLOAD SWAP1 POP PUSH2 0xB8D DUP2 PUSH2 0x997 JUMP JUMPDEST SWAP3 SWAP2 POP POP JUMP JUMPDEST PUSH0 PUSH1 0x20 DUP3 DUP5 SUB SLT ISZERO PUSH2 0xBA8 JUMPI PUSH2 0xBA7 PUSH2 0x963 JUMP JUMPDEST JUMPDEST PUSH0 PUSH2 0xBB5 DUP5 DUP3 DUP6 ADD PUSH2 0xB7F JUMP JUMPDEST SWAP2 POP POP SWAP3 SWAP2 POP POP JUMP JUMPDEST PUSH0 DUP3 DUP3 MSTORE PUSH1 0x20 DUP3 ADD SWAP1 POP SWAP3 SWAP2 POP POP JUMP JUMPDEST PUSH32 0x596F75206D757374206F776E207468652070726F6475637420746F2072656379 PUSH0 DUP3 ADD MSTORE PUSH32 0x636C652069740000000000000000000000000000000000000000000000000000 PUSH1 0x20 DUP3 ADD MSTORE POP JUMP JUMPDEST PUSH0 PUSH2 0xC28 PUSH1 0x26 DUP4 PUSH2 0xBBE JUMP JUMPDEST SWAP2 POP PUSH2 0xC33 DUP3 PUSH2 0xBCE JUMP JUMPDEST PUSH1 0x40 DUP3 ADD SWAP1 POP SWAP2 SWAP1 POP JUMP JUMPDEST PUSH0 PUSH1 0x20 DUP3 ADD SWAP1 POP DUP2 DUP2 SUB PUSH0 DUP4 ADD MSTORE PUSH2 0xC55 DUP2 PUSH2 0xC1C JUMP JUMPDEST SWAP1 POP SWAP2 SWAP1 POP JUMP JUMPDEST PUSH32 0x546869732070726F647563742068617320616C7265616479206265656E207265 PUSH0 DUP3 ADD MSTORE PUSH32 0x6379636C65640000000000000000000000000000000000000000000000000000 PUSH1 0x20 DUP3 ADD MSTORE POP JUMP JUMPDEST PUSH0 PUSH2 0xCB6 PUSH1 0x26 DUP4 PUSH2 0xBBE JUMP JUMPDEST SWAP2 POP PUSH2 0xCC1 DUP3 PUSH2 0xC5C JUMP JUMPDEST PUSH1 0x40 DUP3 ADD SWAP1 POP SWAP2 SWAP1 POP JUMP JUMPDEST PUSH0 PUSH1 0x20 DUP3 ADD SWAP1 POP DUP2 DUP2 SUB PUSH0 DUP4 ADD MSTORE PUSH2 0xCE3 DUP2 PUSH2 0xCAA JUMP JUMPDEST SWAP1 POP SWAP2 SWAP1 POP JUMP JUMPDEST PUSH0 PUSH1 0x40 DUP3 ADD SWAP1 POP PUSH2 0xCFD PUSH0 DUP4 ADD DUP6 PUSH2 0xAE3 JUMP JUMPDEST PUSH2 0xD0A PUSH1 0x20 DUP4 ADD DUP5 PUSH2 0x9F5 JUMP JUMPDEST SWAP4 SWAP3 POP POP POP JUMP JUMPDEST PUSH2 0xD1A DUP2 PUSH2 0xA72 JUMP JUMPDEST DUP2 EQ PUSH2 0xD24 JUMPI PUSH0 DUP1 REVERT JUMPDEST POP JUMP JUMPDEST PUSH0 DUP2 MLOAD SWAP1 POP PUSH2 0xD35 DUP2 PUSH2 0xD11 JUMP JUMPDEST SWAP3 SWAP2 POP POP JUMP JUMPDEST PUSH0 PUSH1 0x20 DUP3 DUP5 SUB SLT ISZERO PUSH2 0xD50 JUMPI PUSH2 0xD4F PUSH2 0x963 JUMP JUMPDEST JUMPDEST PUSH0 PUSH2 0xD5D DUP5 DUP3 DUP6 ADD PUSH2 0xD27 JUMP JUMPDEST SWAP2 POP POP SWAP3 SWAP2 POP POP JUMP JUMPDEST PUSH32 0x4E6F207265776172647320617661696C61626C65000000000000000000000000 PUSH0 DUP3 ADD MSTORE POP JUMP JUMPDEST PUSH0 PUSH2 0xD9A PUSH1 0x14 DUP4 PUSH2 0xBBE JUMP JUMPDEST SWAP2 POP PUSH2 0xDA5 DUP3 PUSH2 0xD66 JUMP JUMPDEST PUSH1 0x20 DUP3 ADD SWAP1 POP SWAP2 SWAP1 POP JUMP JUMPDEST PUSH0 PUSH1 0x20 DUP3 ADD SWAP1 POP DUP2 DUP2 SUB PUSH0 DUP4 ADD MSTORE PUSH2 0xDC7 DUP2 PUSH2 0xD8E JUMP JUMPDEST SWAP1 POP SWAP2 SWAP1 POP JUMP JUMPDEST PUSH32 0x4E487B7100000000000000000000000000000000000000000000000000000000 PUSH0 MSTORE PUSH1 0x11 PUSH1 0x4 MSTORE PUSH1 0x24 PUSH0 REVERT JUMPDEST PUSH0 PUSH2 0xE05 DUP3 PUSH2 0x9EC JUMP JUMPDEST SWAP2 POP PUSH2 0xE10 DUP4 PUSH2 0x9EC JUMP JUMPDEST SWAP3 POP DUP3 DUP3 ADD SWAP1 POP DUP1 DUP3 GT ISZERO PUSH2 0xE28 JUMPI PUSH2 0xE27 PUSH2 0xDCE JUMP JUMPDEST JUMPDEST SWAP3 SWAP2 POP POP JUMP INVALID LOG2 PUSH5 0x6970667358 0x22 SLT KECCAK256 0xEB DIV SWAP4 POP 0xBA 0xD 0xDF ISZERO OR 0xE0 PUSH22 0xCCC9736823B462D616E2A54815381FC801FB4F205E64 PUSH20 0x6F6C634300081800330000000000000000000000 "
				},
				"gasEstimates": {
					"creation": {
						"codeDepositCost": "736800",
						"executionCost": "infinite",
						"totalCost": "infinite"
					},
					"external": {
						"getRewardRate()": "2432",
						"getUserRewards(address)": "2852",
						"owner()": "2537",
						"recycleProduct(uint256,address)": "infinite",
						"recycledProducts(uint256)": "2830",
						"renounceOwnership()": "infinite",
						"rewardPerRecycling()": "2514",
						"rewardToken()": "infinite",
						"transferOwnership(address)": "infinite",
						"updateRewardRate(uint256)": "infinite",
						"userRewards(address)": "2803",
						"withdrawRewards()": "infinite"
					}
				},
				"methodIdentifiers": {
					"getRewardRate()": "7e1a3786",
					"getUserRewards(address)": "078b0fb7",
					"owner()": "8da5cb5b",
					"recycleProduct(uint256,address)": "44301c13",
					"recycledProducts(uint256)": "3f608ad2",
					"renounceOwnership()": "715018a6",
					"rewardPerRecycling()": "45e1d960",
					"rewardToken()": "f7c618c1",
					"transferOwnership(address)": "f2fde38b",
					"updateRewardRate(uint256)": "9ef3a261",
					"userRewards(address)": "0660f1e8",
					"withdrawRewards()": "c7b8981c"
				}
			},
			"storageLayout": {
				"storage": [
					{
						"astId": 8,
						"contract": "Backend/RecyclingRewards.sol:RecyclingRewards",
						"label": "_owner",
						"offset": 0,
						"slot": "0",
						"type": "t_address"
					},
					{
						"astId": 710,
						"contract": "Backend/RecyclingRewards.sol:RecyclingRewards",
						"label": "rewardToken",
						"offset": 0,
						"slot": "1",
						"type": "t_contract(IERC20)225"
					},
					{
						"astId": 714,
						"contract": "Backend/RecyclingRewards.sol:RecyclingRewards",
						"label": "recycledProducts",
						"offset": 0,
						"slot": "2",
						"type": "t_mapping(t_uint256,t_bool)"
					},
					{
						"astId": 718,
						"contract": "Backend/RecyclingRewards.sol:RecyclingRewards",
						"label": "userRewards",
						"offset": 0,
						"slot": "3",
						"type": "t_mapping(t_address,t_uint256)"
					},
					{
						"astId": 720,
						"contract": "Backend/RecyclingRewards.sol:RecyclingRewards",
						"label": "rewardPerRecycling",
						"offset": 0,
						"slot": "4",
						"type": "t_uint256"
					}
				],
				"types": {
					"t_address": {
						"encoding": "inplace",
						"label": "address",
						"numberOfBytes": "20"
					},
					"t_bool": {
						"encoding": "inplace",
						"label": "bool",
						"numberOfBytes": "1"
					},
					"t_contract(IERC20)225": {
						"encoding": "inplace",
						"label": "contract IERC20",
						"numberOfBytes": "20"
					},
					"t_mapping(t_address,t_uint256)": {
						"encoding": "mapping",
						"key": "t_address",
						"label": "mapping(address => uint256)",
						"numberOfBytes": "32",
						"value": "t_uint256"
					},
					"t_mapping(t_uint256,t_bool)": {
						"encoding": "mapping",
						"key": "t_uint256",
						"label": "mapping(uint256 => bool)",
						"numberOfBytes": "32",
						"value": "t_bool"
					},
					"t_uint256": {
						"encoding": "inplace",
						"label": "uint256",
						"numberOfBytes": "32"
					}
				}
			},
			"userdoc": {
				"kind": "user",
				"methods": {
					"constructor": {
						"notice": "Constructor to initialize the contract with the reward token and reward rate"
					},
					"getRewardRate()": {
						"notice": "Get the current reward rate for recycling"
					},
					"getUserRewards(address)": {
						"notice": "Get the accumulated rewards for a user"
					},
					"recycleProduct(uint256,address)": {
						"notice": "Recycle a product and earn rewards"
					},
					"updateRewardRate(uint256)": {
						"notice": "Update the reward rate for recycling products"
					},
					"withdrawRewards()": {
						"notice": "Withdraw the rewards accumulated by a user"
					}
				},
				"version": 1
			}
		}
	}
}