{
	"Backend/SustainabilityMetrics.sol": {
		"SustainabilityMetrics": {
			"abi": [
				{
					"inputs": [
						{
							"internalType": "address",
							"name": "initialOwner",
							"type": "address"
						}
					],
					"stateMutability": "nonpayable",
					"type": "constructor"
				},
				{
					"inputs": [
						{
							"internalType": "address",
							"name": "owner",
							"type": "address"
						}
					],
					"name": "OwnableInvalidOwner",
					"type": "error"
				},
				{
					"inputs": [
						{
							"internalType": "address",
							"name": "account",
							"type": "address"
						}
					],
					"name": "OwnableUnauthorizedAccount",
					"type": "error"
				},
				{
					"anonymous": false,
					"inputs": [
						{
							"indexed": true,
							"internalType": "address",
							"name": "previousOwner",
							"type": "address"
						},
						{
							"indexed": true,
							"internalType": "address",
							"name": "newOwner",
							"type": "address"
						}
					],
					"name": "OwnershipTransferred",
					"type": "event"
				},
				{
					"anonymous": false,
					"inputs": [
						{
							"indexed": true,
							"internalType": "address",
							"name": "user",
							"type": "address"
						},
						{
							"indexed": true,
							"internalType": "address",
							"name": "brand",
							"type": "address"
						},
						{
							"indexed": false,
							"internalType": "uint256",
							"name": "carbonReduction",
							"type": "uint256"
						},
						{
							"indexed": false,
							"internalType": "uint256",
							"name": "rewardAmount",
							"type": "uint256"
						}
					],
					"name": "RecyclingEvent",
					"type": "event"
				},
				{
					"inputs": [
						{
							"internalType": "address",
							"name": "",
							"type": "address"
						}
					],
					"name": "brandCarbonReduction",
					"outputs": [
						{
							"internalType": "uint256",
							"name": "",
							"type": "uint256"
						}
					],
					"stateMutability": "view",
					"type": "function"
				},
				{
					"inputs": [
						{
							"internalType": "address",
							"name": "",
							"type": "address"
						}
					],
					"name": "brandRecycledCount",
					"outputs": [
						{
							"internalType": "uint256",
							"name": "",
							"type": "uint256"
						}
					],
					"stateMutability": "view",
					"type": "function"
				},
				{
					"inputs": [
						{
							"internalType": "address",
							"name": "",
							"type": "address"
						}
					],
					"name": "brandTotalRewards",
					"outputs": [
						{
							"internalType": "uint256",
							"name": "",
							"type": "uint256"
						}
					],
					"stateMutability": "view",
					"type": "function"
				},
				{
					"inputs": [],
					"name": "carbonReductionPerRecycling",
					"outputs": [
						{
							"internalType": "uint256",
							"name": "",
							"type": "uint256"
						}
					],
					"stateMutability": "view",
					"type": "function"
				},
				{
					"inputs": [
						{
							"internalType": "address",
							"name": "brand",
							"type": "address"
						}
					],
					"name": "getRecycledProductCount",
					"outputs": [
						{
							"internalType": "uint256",
							"name": "",
							"type": "uint256"
						}
					],
					"stateMutability": "view",
					"type": "function"
				},
				{
					"inputs": [
						{
							"internalType": "address",
							"name": "brand",
							"type": "address"
						}
					],
					"name": "getSustainabilityMetrics",
					"outputs": [
						{
							"internalType": "uint256",
							"name": "recycledCount",
							"type": "uint256"
						},
						{
							"internalType": "uint256",
							"name": "totalRewards",
							"type": "uint256"
						},
						{
							"internalType": "uint256",
							"name": "totalCarbonReduction",
							"type": "uint256"
						}
					],
					"stateMutability": "view",
					"type": "function"
				},
				{
					"inputs": [
						{
							"internalType": "address",
							"name": "brand",
							"type": "address"
						}
					],
					"name": "getTotalCarbonReduction",
					"outputs": [
						{
							"internalType": "uint256",
							"name": "",
							"type": "uint256"
						}
					],
					"stateMutability": "view",
					"type": "function"
				},
				{
					"inputs": [
						{
							"internalType": "address",
							"name": "brand",
							"type": "address"
						}
					],
					"name": "getTotalRewards",
					"outputs": [
						{
							"internalType": "uint256",
							"name": "",
							"type": "uint256"
						}
					],
					"stateMutability": "view",
					"type": "function"
				},
				{
					"inputs": [],
					"name": "owner",
					"outputs": [
						{
							"internalType": "address",
							"name": "",
							"type": "address"
						}
					],
					"stateMutability": "view",
					"type": "function"
				},
				{
					"inputs": [
						{
							"internalType": "address",
							"name": "user",
							"type": "address"
						},
						{
							"internalType": "address",
							"name": "brand",
							"type": "address"
						}
					],
					"name": "recordRecyclingEvent",
					"outputs": [],
					"stateMutability": "nonpayable",
					"type": "function"
				},
				{
					"inputs": [],
					"name": "renounceOwnership",
					"outputs": [],
					"stateMutability": "nonpayable",
					"type": "function"
				},
				{
					"inputs": [],
					"name": "rewardPerRecycling",
					"outputs": [
						{
							"internalType": "uint256",
							"name": "",
							"type": "uint256"
						}
					],
					"stateMutability": "view",
					"type": "function"
				},
				{
					"inputs": [
						{
							"internalType": "address",
							"name": "newOwner",
							"type": "address"
						}
					],
					"name": "transferOwnership",
					"outputs": [],
					"stateMutability": "nonpayable",
					"type": "function"
				},
				{
					"inputs": [
						{
							"internalType": "uint256",
							"name": "newCarbonReduction",
							"type": "uint256"
						}
					],
					"name": "updateCarbonReductionRate",
					"outputs": [],
					"stateMutability": "nonpayable",
					"type": "function"
				},
				{
					"inputs": [
						{
							"internalType": "uint256",
							"name": "newRewardRate",
							"type": "uint256"
						}
					],
					"name": "updateRewardRate",
					"outputs": [],
					"stateMutability": "nonpayable",
					"type": "function"
				}
			],
			"devdoc": {
				"errors": {
					"OwnableInvalidOwner(address)": [
						{
							"details": "The owner is not a valid owner account. (eg. `address(0)`)"
						}
					],
					"OwnableUnauthorizedAccount(address)": [
						{
							"details": "The caller account is not authorized to perform an operation."
						}
					]
				},
				"kind": "dev",
				"methods": {
					"constructor": {
						"params": {
							"initialOwner": "The address of the initial owner (usually msg.sender)"
						}
					},
					"owner()": {
						"details": "Returns the address of the current owner."
					},
					"renounceOwnership()": {
						"details": "Leaves the contract without owner. It will not be possible to call `onlyOwner` functions. Can only be called by the current owner. NOTE: Renouncing ownership will leave the contract without an owner, thereby disabling any functionality that is only available to the owner."
					},
					"transferOwnership(address)": {
						"details": "Transfers ownership of the contract to a new account (`newOwner`). Can only be called by the current owner."
					}
				},
				"version": 1
			},
			"evm": {
				"assembly": "    /* \"Backend/SustainabilityMetrics.sol\":170:3550  contract SustainabilityMetrics is Ownable {... */\n  mstore(0x40, 0x80)\n    /* \"Backend/SustainabilityMetrics.sol\":945:947  10 */\n  0x0a\n    /* \"Backend/SustainabilityMetrics.sol\":900:947  uint256 public carbonReductionPerRecycling = 10 */\n  0x04\n  sstore\n    /* \"Backend/SustainabilityMetrics.sol\":1046:1049  100 */\n  0x64\n    /* \"Backend/SustainabilityMetrics.sol\":1010:1049  uint256 public rewardPerRecycling = 100 */\n  0x05\n  sstore\n    /* \"Backend/SustainabilityMetrics.sol\":1295:1434  constructor(address initialOwner) Ownable(initialOwner) {... */\n  callvalue\n  dup1\n  iszero\n  tag_1\n  jumpi\n  0x00\n  dup1\n  revert\ntag_1:\n  pop\n  mload(0x40)\n  sub(codesize, bytecodeSize)\n  dup1\n  bytecodeSize\n  dup4\n  codecopy\n  dup2\n  dup2\n  add\n  0x40\n  mstore\n  dup2\n  add\n  swap1\n  tag_2\n  swap2\n  swap1\n  tag_3\n  jump\t// in\ntag_2:\n    /* \"Backend/SustainabilityMetrics.sol\":1337:1349  initialOwner */\n  dup1\n    /* \"@openzeppelin/contracts/access/Ownable.sol\":1297:1298  0 */\n  0x00\n    /* \"@openzeppelin/contracts/access/Ownable.sol\":1273:1299  initialOwner == address(0) */\n  0xffffffffffffffffffffffffffffffffffffffff\n  and\n    /* \"@openzeppelin/contracts/access/Ownable.sol\":1273:1285  initialOwner */\n  dup2\n    /* \"@openzeppelin/contracts/access/Ownable.sol\":1273:1299  initialOwner == address(0) */\n  0xffffffffffffffffffffffffffffffffffffffff\n  and\n  sub\n    /* \"@openzeppelin/contracts/access/Ownable.sol\":1269:1364  if (initialOwner == address(0)) {... */\n  tag_7\n  jumpi\n    /* \"@openzeppelin/contracts/access/Ownable.sol\":1350:1351  0 */\n  0x00\n    /* \"@openzeppelin/contracts/access/Ownable.sol\":1322:1353  OwnableInvalidOwner(address(0)) */\n  mload(0x40)\n  0x1e4fbdf700000000000000000000000000000000000000000000000000000000\n  dup2\n  mstore\n  0x04\n  add\n  tag_8\n  swap2\n  swap1\n  tag_9\n  jump\t// in\ntag_8:\n  mload(0x40)\n  dup1\n  swap2\n  sub\n  swap1\n  revert\n    /* \"@openzeppelin/contracts/access/Ownable.sol\":1269:1364  if (initialOwner == address(0)) {... */\ntag_7:\n    /* \"@openzeppelin/contracts/access/Ownable.sol\":1373:1405  _transferOwnership(initialOwner) */\n  tag_10\n    /* \"@openzeppelin/contracts/access/Ownable.sol\":1392:1404  initialOwner */\n  dup2\n    /* \"@openzeppelin/contracts/access/Ownable.sol\":1373:1391  _transferOwnership */\n  shl(0x20, tag_11)\n    /* \"@openzeppelin/contracts/access/Ownable.sol\":1373:1405  _transferOwnership(initialOwner) */\n  0x20\n  shr\n  jump\t// in\ntag_10:\n    /* \"@openzeppelin/contracts/access/Ownable.sol\":1225:1412  constructor(address initialOwner) {... */\n  pop\n    /* \"Backend/SustainabilityMetrics.sol\":1361:1392  transferOwnership(initialOwner) */\n  tag_13\n    /* \"Backend/SustainabilityMetrics.sol\":1379:1391  initialOwner */\n  dup2\n    /* \"Backend/SustainabilityMetrics.sol\":1361:1378  transferOwnership */\n  shl(0x20, tag_14)\n    /* \"Backend/SustainabilityMetrics.sol\":1361:1392  transferOwnership(initialOwner) */\n  0x20\n  shr\n  jump\t// in\ntag_13:\n    /* \"Backend/SustainabilityMetrics.sol\":1295:1434  constructor(address initialOwner) Ownable(initialOwner) {... */\n  pop\n    /* \"Backend/SustainabilityMetrics.sol\":170:3550  contract SustainabilityMetrics is Ownable {... */\n  jump(tag_15)\n    /* \"@openzeppelin/contracts/access/Ownable.sol\":2912:3099  function _transferOwnership(address newOwner) internal virtual {... */\ntag_11:\n    /* \"@openzeppelin/contracts/access/Ownable.sol\":2985:3001  address oldOwner */\n  0x00\n    /* \"@openzeppelin/contracts/access/Ownable.sol\":3004:3010  _owner */\n  dup1\n  0x00\n  swap1\n  sload\n  swap1\n  0x0100\n  exp\n  swap1\n  div\n  0xffffffffffffffffffffffffffffffffffffffff\n  and\n    /* \"@openzeppelin/contracts/access/Ownable.sol\":2985:3010  address oldOwner = _owner */\n  swap1\n  pop\n    /* \"@openzeppelin/contracts/access/Ownable.sol\":3029:3037  newOwner */\n  dup2\n    /* \"@openzeppelin/contracts/access/Ownable.sol\":3020:3026  _owner */\n  0x00\n  dup1\n    /* \"@openzeppelin/contracts/access/Ownable.sol\":3020:3037  _owner = newOwner */\n  0x0100\n  exp\n  dup2\n  sload\n  dup2\n  0xffffffffffffffffffffffffffffffffffffffff\n  mul\n  not\n  and\n  swap1\n  dup4\n  0xffffffffffffffffffffffffffffffffffffffff\n  and\n  mul\n  or\n  swap1\n  sstore\n  pop\n    /* \"@openzeppelin/contracts/access/Ownable.sol\":3083:3091  newOwner */\n  dup2\n    /* \"@openzeppelin/contracts/access/Ownable.sol\":3052:3092  OwnershipTransferred(oldOwner, newOwner) */\n  0xffffffffffffffffffffffffffffffffffffffff\n  and\n    /* \"@openzeppelin/contracts/access/Ownable.sol\":3073:3081  oldOwner */\n  dup2\n    /* \"@openzeppelin/contracts/access/Ownable.sol\":3052:3092  OwnershipTransferred(oldOwner, newOwner) */\n  0xffffffffffffffffffffffffffffffffffffffff\n  and\n  0x8be0079c531659141344cd1fd0a4f28419497f9722a3daafe3b4186f6b6457e0\n  mload(0x40)\n  mload(0x40)\n  dup1\n  swap2\n  sub\n  swap1\n  log3\n    /* \"@openzeppelin/contracts/access/Ownable.sol\":2975:3099  {... */\n  pop\n    /* \"@openzeppelin/contracts/access/Ownable.sol\":2912:3099  function _transferOwnership(address newOwner) internal virtual {... */\n  pop\n  jump\t// out\n    /* \"@openzeppelin/contracts/access/Ownable.sol\":2543:2758  function transferOwnership(address newOwner) public virtual onlyOwner {... */\ntag_14:\n    /* \"@openzeppelin/contracts/access/Ownable.sol\":1531:1544  _checkOwner() */\n  tag_18\n    /* \"@openzeppelin/contracts/access/Ownable.sol\":1531:1542  _checkOwner */\n  shl(0x20, tag_19)\n    /* \"@openzeppelin/contracts/access/Ownable.sol\":1531:1544  _checkOwner() */\n  0x20\n  shr\n  jump\t// in\ntag_18:\n    /* \"@openzeppelin/contracts/access/Ownable.sol\":2647:2648  0 */\n  0x00\n    /* \"@openzeppelin/contracts/access/Ownable.sol\":2627:2649  newOwner == address(0) */\n  0xffffffffffffffffffffffffffffffffffffffff\n  and\n    /* \"@openzeppelin/contracts/access/Ownable.sol\":2627:2635  newOwner */\n  dup2\n    /* \"@openzeppelin/contracts/access/Ownable.sol\":2627:2649  newOwner == address(0) */\n  0xffffffffffffffffffffffffffffffffffffffff\n  and\n  sub\n    /* \"@openzeppelin/contracts/access/Ownable.sol\":2623:2714  if (newOwner == address(0)) {... */\n  tag_21\n  jumpi\n    /* \"@openzeppelin/contracts/access/Ownable.sol\":2700:2701  0 */\n  0x00\n    /* \"@openzeppelin/contracts/access/Ownable.sol\":2672:2703  OwnableInvalidOwner(address(0)) */\n  mload(0x40)\n  0x1e4fbdf700000000000000000000000000000000000000000000000000000000\n  dup2\n  mstore\n  0x04\n  add\n  tag_22\n  swap2\n  swap1\n  tag_9\n  jump\t// in\ntag_22:\n  mload(0x40)\n  dup1\n  swap2\n  sub\n  swap1\n  revert\n    /* \"@openzeppelin/contracts/access/Ownable.sol\":2623:2714  if (newOwner == address(0)) {... */\ntag_21:\n    /* \"@openzeppelin/contracts/access/Ownable.sol\":2723:2751  _transferOwnership(newOwner) */\n  tag_23\n    /* \"@openzeppelin/contracts/access/Ownable.sol\":2742:2750  newOwner */\n  dup2\n    /* \"@openzeppelin/contracts/access/Ownable.sol\":2723:2741  _transferOwnership */\n  shl(0x20, tag_11)\n    /* \"@openzeppelin/contracts/access/Ownable.sol\":2723:2751  _transferOwnership(newOwner) */\n  0x20\n  shr\n  jump\t// in\ntag_23:\n    /* \"@openzeppelin/contracts/access/Ownable.sol\":2543:2758  function transferOwnership(address newOwner) public virtual onlyOwner {... */\n  pop\n  jump\t// out\n    /* \"@openzeppelin/contracts/access/Ownable.sol\":1796:1958  function _checkOwner() internal view virtual {... */\ntag_19:\n    /* \"@openzeppelin/contracts/access/Ownable.sol\":1866:1878  _msgSender() */\n  tag_25\n    /* \"@openzeppelin/contracts/access/Ownable.sol\":1866:1876  _msgSender */\n  shl(0x20, tag_26)\n    /* \"@openzeppelin/contracts/access/Ownable.sol\":1866:1878  _msgSender() */\n  0x20\n  shr\n  jump\t// in\ntag_25:\n    /* \"@openzeppelin/contracts/access/Ownable.sol\":1855:1878  owner() != _msgSender() */\n  0xffffffffffffffffffffffffffffffffffffffff\n  and\n    /* \"@openzeppelin/contracts/access/Ownable.sol\":1855:1862  owner() */\n  tag_27\n    /* \"@openzeppelin/contracts/access/Ownable.sol\":1855:1860  owner */\n  shl(0x20, tag_28)\n    /* \"@openzeppelin/contracts/access/Ownable.sol\":1855:1862  owner() */\n  0x20\n  shr\n  jump\t// in\ntag_27:\n    /* \"@openzeppelin/contracts/access/Ownable.sol\":1855:1878  owner() != _msgSender() */\n  0xffffffffffffffffffffffffffffffffffffffff\n  and\n  eq\n    /* \"@openzeppelin/contracts/access/Ownable.sol\":1851:1952  if (owner() != _msgSender()) {... */\n  tag_29\n  jumpi\n    /* \"@openzeppelin/contracts/access/Ownable.sol\":1928:1940  _msgSender() */\n  tag_30\n    /* \"@openzeppelin/contracts/access/Ownable.sol\":1928:1938  _msgSender */\n  shl(0x20, tag_26)\n    /* \"@openzeppelin/contracts/access/Ownable.sol\":1928:1940  _msgSender() */\n  0x20\n  shr\n  jump\t// in\ntag_30:\n    /* \"@openzeppelin/contracts/access/Ownable.sol\":1901:1941  OwnableUnauthorizedAccount(_msgSender()) */\n  mload(0x40)\n  0x118cdaa700000000000000000000000000000000000000000000000000000000\n  dup2\n  mstore\n  0x04\n  add\n  tag_31\n  swap2\n  swap1\n  tag_9\n  jump\t// in\ntag_31:\n  mload(0x40)\n  dup1\n  swap2\n  sub\n  swap1\n  revert\n    /* \"@openzeppelin/contracts/access/Ownable.sol\":1851:1952  if (owner() != _msgSender()) {... */\ntag_29:\n    /* \"@openzeppelin/contracts/access/Ownable.sol\":1796:1958  function _checkOwner() internal view virtual {... */\n  jump\t// out\n    /* \"@openzeppelin/contracts/utils/Context.sol\":656:752  function _msgSender() internal view virtual returns (address) {... */\ntag_26:\n    /* \"@openzeppelin/contracts/utils/Context.sol\":709:716  address */\n  0x00\n    /* \"@openzeppelin/contracts/utils/Context.sol\":735:745  msg.sender */\n  caller\n    /* \"@openzeppelin/contracts/utils/Context.sol\":728:745  return msg.sender */\n  swap1\n  pop\n    /* \"@openzeppelin/contracts/utils/Context.sol\":656:752  function _msgSender() internal view virtual returns (address) {... */\n  swap1\n  jump\t// out\n    /* \"@openzeppelin/contracts/access/Ownable.sol\":1638:1723  function owner() public view virtual returns (address) {... */\ntag_28:\n    /* \"@openzeppelin/contracts/access/Ownable.sol\":1684:1691  address */\n  0x00\n    /* \"@openzeppelin/contracts/access/Ownable.sol\":1710:1716  _owner */\n  dup1\n  0x00\n  swap1\n  sload\n  swap1\n  0x0100\n  exp\n  swap1\n  div\n  0xffffffffffffffffffffffffffffffffffffffff\n  and\n    /* \"@openzeppelin/contracts/access/Ownable.sol\":1703:1716  return _owner */\n  swap1\n  pop\n    /* \"@openzeppelin/contracts/access/Ownable.sol\":1638:1723  function owner() public view virtual returns (address) {... */\n  swap1\n  jump\t// out\n    /* \"#utility.yul\":88:205   */\ntag_35:\n    /* \"#utility.yul\":197:198   */\n  0x00\n    /* \"#utility.yul\":194:195   */\n  dup1\n    /* \"#utility.yul\":187:199   */\n  revert\n    /* \"#utility.yul\":334:460   */\ntag_37:\n    /* \"#utility.yul\":371:378   */\n  0x00\n    /* \"#utility.yul\":411:453   */\n  0xffffffffffffffffffffffffffffffffffffffff\n    /* \"#utility.yul\":404:409   */\n  dup3\n    /* \"#utility.yul\":400:454   */\n  and\n    /* \"#utility.yul\":389:454   */\n  swap1\n  pop\n    /* \"#utility.yul\":334:460   */\n  swap2\n  swap1\n  pop\n  jump\t// out\n    /* \"#utility.yul\":466:562   */\ntag_38:\n    /* \"#utility.yul\":503:510   */\n  0x00\n    /* \"#utility.yul\":532:556   */\n  tag_48\n    /* \"#utility.yul\":550:555   */\n  dup3\n    /* \"#utility.yul\":532:556   */\n  tag_37\n  jump\t// in\ntag_48:\n    /* \"#utility.yul\":521:556   */\n  swap1\n  pop\n    /* \"#utility.yul\":466:562   */\n  swap2\n  swap1\n  pop\n  jump\t// out\n    /* \"#utility.yul\":568:690   */\ntag_39:\n    /* \"#utility.yul\":641:665   */\n  tag_50\n    /* \"#utility.yul\":659:664   */\n  dup2\n    /* \"#utility.yul\":641:665   */\n  tag_38\n  jump\t// in\ntag_50:\n    /* \"#utility.yul\":634:639   */\n  dup2\n    /* \"#utility.yul\":631:666   */\n  eq\n    /* \"#utility.yul\":621:684   */\n  tag_51\n  jumpi\n    /* \"#utility.yul\":680:681   */\n  0x00\n    /* \"#utility.yul\":677:678   */\n  dup1\n    /* \"#utility.yul\":670:682   */\n  revert\n    /* \"#utility.yul\":621:684   */\ntag_51:\n    /* \"#utility.yul\":568:690   */\n  pop\n  jump\t// out\n    /* \"#utility.yul\":696:839   */\ntag_40:\n    /* \"#utility.yul\":753:758   */\n  0x00\n    /* \"#utility.yul\":784:790   */\n  dup2\n    /* \"#utility.yul\":778:791   */\n  mload\n    /* \"#utility.yul\":769:791   */\n  swap1\n  pop\n    /* \"#utility.yul\":800:833   */\n  tag_53\n    /* \"#utility.yul\":827:832   */\n  dup2\n    /* \"#utility.yul\":800:833   */\n  tag_39\n  jump\t// in\ntag_53:\n    /* \"#utility.yul\":696:839   */\n  swap3\n  swap2\n  pop\n  pop\n  jump\t// out\n    /* \"#utility.yul\":845:1196   */\ntag_3:\n    /* \"#utility.yul\":915:921   */\n  0x00\n    /* \"#utility.yul\":964:966   */\n  0x20\n    /* \"#utility.yul\":952:961   */\n  dup3\n    /* \"#utility.yul\":943:950   */\n  dup5\n    /* \"#utility.yul\":939:962   */\n  sub\n    /* \"#utility.yul\":935:967   */\n  slt\n    /* \"#utility.yul\":932:1051   */\n  iszero\n  tag_55\n  jumpi\n    /* \"#utility.yul\":970:1049   */\n  tag_56\n  tag_35\n  jump\t// in\ntag_56:\n    /* \"#utility.yul\":932:1051   */\ntag_55:\n    /* \"#utility.yul\":1090:1091   */\n  0x00\n    /* \"#utility.yul\":1115:1179   */\n  tag_57\n    /* \"#utility.yul\":1171:1178   */\n  dup5\n    /* \"#utility.yul\":1162:1168   */\n  dup3\n    /* \"#utility.yul\":1151:1160   */\n  dup6\n    /* \"#utility.yul\":1147:1169   */\n  add\n    /* \"#utility.yul\":1115:1179   */\n  tag_40\n  jump\t// in\ntag_57:\n    /* \"#utility.yul\":1105:1179   */\n  swap2\n  pop\n    /* \"#utility.yul\":1061:1189   */\n  pop\n    /* \"#utility.yul\":845:1196   */\n  swap3\n  swap2\n  pop\n  pop\n  jump\t// out\n    /* \"#utility.yul\":1202:1320   */\ntag_41:\n    /* \"#utility.yul\":1289:1313   */\n  tag_59\n    /* \"#utility.yul\":1307:1312   */\n  dup2\n    /* \"#utility.yul\":1289:1313   */\n  tag_38\n  jump\t// in\ntag_59:\n    /* \"#utility.yul\":1284:1287   */\n  dup3\n    /* \"#utility.yul\":1277:1314   */\n  mstore\n    /* \"#utility.yul\":1202:1320   */\n  pop\n  pop\n  jump\t// out\n    /* \"#utility.yul\":1326:1548   */\ntag_9:\n    /* \"#utility.yul\":1419:1423   */\n  0x00\n    /* \"#utility.yul\":1457:1459   */\n  0x20\n    /* \"#utility.yul\":1446:1455   */\n  dup3\n    /* \"#utility.yul\":1442:1460   */\n  add\n    /* \"#utility.yul\":1434:1460   */\n  swap1\n  pop\n    /* \"#utility.yul\":1470:1541   */\n  tag_61\n    /* \"#utility.yul\":1538:1539   */\n  0x00\n    /* \"#utility.yul\":1527:1536   */\n  dup4\n    /* \"#utility.yul\":1523:1540   */\n  add\n    /* \"#utility.yul\":1514:1520   */\n  dup5\n    /* \"#utility.yul\":1470:1541   */\n  tag_41\n  jump\t// in\ntag_61:\n    /* \"#utility.yul\":1326:1548   */\n  swap3\n  swap2\n  pop\n  pop\n  jump\t// out\n    /* \"Backend/SustainabilityMetrics.sol\":170:3550  contract SustainabilityMetrics is Ownable {... */\ntag_15:\n  dataSize(sub_0)\n  dup1\n  dataOffset(sub_0)\n  0x00\n  codecopy\n  0x00\n  return\nstop\n\nsub_0: assembly {\n        /* \"Backend/SustainabilityMetrics.sol\":170:3550  contract SustainabilityMetrics is Ownable {... */\n      mstore(0x40, 0x80)\n      callvalue\n      dup1\n      iszero\n      tag_1\n      jumpi\n      0x00\n      dup1\n      revert\n    tag_1:\n      pop\n      jumpi(tag_2, lt(calldatasize, 0x04))\n      shr(0xe0, calldataload(0x00))\n      dup1\n      0x7b7b7d39\n      gt\n      tag_18\n      jumpi\n      dup1\n      0x9cd2e084\n      gt\n      tag_19\n      jumpi\n      dup1\n      0x9cd2e084\n      eq\n      tag_14\n      jumpi\n      dup1\n      0x9ef3a261\n      eq\n      tag_15\n      jumpi\n      dup1\n      0xbf9966f8\n      eq\n      tag_16\n      jumpi\n      dup1\n      0xf2fde38b\n      eq\n      tag_17\n      jumpi\n      jump(tag_2)\n    tag_19:\n      dup1\n      0x7b7b7d39\n      eq\n      tag_10\n      jumpi\n      dup1\n      0x7cd4c38d\n      eq\n      tag_11\n      jumpi\n      dup1\n      0x874376bb\n      eq\n      tag_12\n      jumpi\n      dup1\n      0x8da5cb5b\n      eq\n      tag_13\n      jumpi\n      jump(tag_2)\n    tag_18:\n      dup1\n      0x45e1d960\n      gt\n      tag_20\n      jumpi\n      dup1\n      0x45e1d960\n      eq\n      tag_6\n      jumpi\n      dup1\n      0x5dd3b85b\n      eq\n      tag_7\n      jumpi\n      dup1\n      0x703b2429\n      eq\n      tag_8\n      jumpi\n      dup1\n      0x715018a6\n      eq\n      tag_9\n      jumpi\n      jump(tag_2)\n    tag_20:\n      dup1\n      0x1052311c\n      eq\n      tag_3\n      jumpi\n      dup1\n      0x27d359b7\n      eq\n      tag_4\n      jumpi\n      dup1\n      0x2bcf161c\n      eq\n      tag_5\n      jumpi\n    tag_2:\n      0x00\n      dup1\n      revert\n        /* \"Backend/SustainabilityMetrics.sol\":412:464  mapping(address => uint256) public brandTotalRewards */\n    tag_3:\n      tag_21\n      0x04\n      dup1\n      calldatasize\n      sub\n      dup2\n      add\n      swap1\n      tag_22\n      swap2\n      swap1\n      tag_23\n      jump\t// in\n    tag_22:\n      tag_24\n      jump\t// in\n    tag_21:\n      mload(0x40)\n      tag_25\n      swap2\n      swap1\n      tag_26\n      jump\t// in\n    tag_25:\n      mload(0x40)\n      dup1\n      swap2\n      sub\n      swap1\n      return\n        /* \"Backend/SustainabilityMetrics.sol\":1505:2191  function recordRecyclingEvent(address user, address brand) external onlyOwner {... */\n    tag_4:\n      tag_27\n      0x04\n      dup1\n      calldatasize\n      sub\n      dup2\n      add\n      swap1\n      tag_28\n      swap2\n      swap1\n      tag_29\n      jump\t// in\n    tag_28:\n      tag_30\n      jump\t// in\n    tag_27:\n      stop\n        /* \"Backend/SustainabilityMetrics.sol\":2452:2572  function getTotalRewards(address brand) external view returns (uint256) {... */\n    tag_5:\n      tag_31\n      0x04\n      dup1\n      calldatasize\n      sub\n      dup2\n      add\n      swap1\n      tag_32\n      swap2\n      swap1\n      tag_23\n      jump\t// in\n    tag_32:\n      tag_33\n      jump\t// in\n    tag_31:\n      mload(0x40)\n      tag_34\n      swap2\n      swap1\n      tag_26\n      jump\t// in\n    tag_34:\n      mload(0x40)\n      dup1\n      swap2\n      sub\n      swap1\n      return\n        /* \"Backend/SustainabilityMetrics.sol\":1010:1049  uint256 public rewardPerRecycling = 100 */\n    tag_6:\n      tag_35\n      tag_36\n      jump\t// in\n    tag_35:\n      mload(0x40)\n      tag_37\n      swap2\n      swap1\n      tag_26\n      jump\t// in\n    tag_37:\n      mload(0x40)\n      dup1\n      swap2\n      sub\n      swap1\n      return\n        /* \"Backend/SustainabilityMetrics.sol\":2640:2771  function getTotalCarbonReduction(address brand) external view returns (uint256) {... */\n    tag_7:\n      tag_38\n      0x04\n      dup1\n      calldatasize\n      sub\n      dup2\n      add\n      swap1\n      tag_39\n      swap2\n      swap1\n      tag_23\n      jump\t// in\n    tag_39:\n      tag_40\n      jump\t// in\n    tag_38:\n      mload(0x40)\n      tag_41\n      swap2\n      swap1\n      tag_26\n      jump\t// in\n    tag_41:\n      mload(0x40)\n      dup1\n      swap2\n      sub\n      swap1\n      return\n        /* \"Backend/SustainabilityMetrics.sol\":3014:3161  function updateCarbonReductionRate(uint256 newCarbonReduction) external onlyOwner {... */\n    tag_8:\n      tag_42\n      0x04\n      dup1\n      calldatasize\n      sub\n      dup2\n      add\n      swap1\n      tag_43\n      swap2\n      swap1\n      tag_44\n      jump\t// in\n    tag_43:\n      tag_45\n      jump\t// in\n    tag_42:\n      stop\n        /* \"@openzeppelin/contracts/access/Ownable.sol\":2293:2394  function renounceOwnership() public virtual onlyOwner {... */\n    tag_9:\n      tag_46\n      tag_47\n      jump\t// in\n    tag_46:\n      stop\n        /* \"Backend/SustainabilityMetrics.sol\":900:947  uint256 public carbonReductionPerRecycling = 10 */\n    tag_10:\n      tag_48\n      tag_49\n      jump\t// in\n    tag_48:\n      mload(0x40)\n      tag_50\n      swap2\n      swap1\n      tag_26\n      jump\t// in\n    tag_50:\n      mload(0x40)\n      dup1\n      swap2\n      sub\n      swap1\n      return\n        /* \"Backend/SustainabilityMetrics.sol\":546:601  mapping(address => uint256) public brandCarbonReduction */\n    tag_11:\n      tag_51\n      0x04\n      dup1\n      calldatasize\n      sub\n      dup2\n      add\n      swap1\n      tag_52\n      swap2\n      swap1\n      tag_23\n      jump\t// in\n    tag_52:\n      tag_53\n      jump\t// in\n    tag_51:\n      mload(0x40)\n      tag_54\n      swap2\n      swap1\n      tag_26\n      jump\t// in\n    tag_54:\n      mload(0x40)\n      dup1\n      swap2\n      sub\n      swap1\n      return\n        /* \"Backend/SustainabilityMetrics.sol\":3234:3548  function getSustainabilityMetrics(address brand) external view returns (uint256 recycledCount, uint256 totalRewards, uint256 totalCarbonReduction) {... */\n    tag_12:\n      tag_55\n      0x04\n      dup1\n      calldatasize\n      sub\n      dup2\n      add\n      swap1\n      tag_56\n      swap2\n      swap1\n      tag_23\n      jump\t// in\n    tag_56:\n      tag_57\n      jump\t// in\n    tag_55:\n      mload(0x40)\n      tag_58\n      swap4\n      swap3\n      swap2\n      swap1\n      tag_59\n      jump\t// in\n    tag_58:\n      mload(0x40)\n      dup1\n      swap2\n      sub\n      swap1\n      return\n        /* \"@openzeppelin/contracts/access/Ownable.sol\":1638:1723  function owner() public view virtual returns (address) {... */\n    tag_13:\n      tag_60\n      tag_61\n      jump\t// in\n    tag_60:\n      mload(0x40)\n      tag_62\n      swap2\n      swap1\n      tag_63\n      jump\t// in\n    tag_62:\n      mload(0x40)\n      dup1\n      swap2\n      sub\n      swap1\n      return\n        /* \"Backend/SustainabilityMetrics.sol\":308:361  mapping(address => uint256) public brandRecycledCount */\n    tag_14:\n      tag_64\n      0x04\n      dup1\n      calldatasize\n      sub\n      dup2\n      add\n      swap1\n      tag_65\n      swap2\n      swap1\n      tag_23\n      jump\t// in\n    tag_65:\n      tag_66\n      jump\t// in\n    tag_64:\n      mload(0x40)\n      tag_67\n      swap2\n      swap1\n      tag_26\n      jump\t// in\n    tag_67:\n      mload(0x40)\n      dup1\n      swap2\n      sub\n      swap1\n      return\n        /* \"Backend/SustainabilityMetrics.sol\":2837:2956  function updateRewardRate(uint256 newRewardRate) external onlyOwner {... */\n    tag_15:\n      tag_68\n      0x04\n      dup1\n      calldatasize\n      sub\n      dup2\n      add\n      swap1\n      tag_69\n      swap2\n      swap1\n      tag_44\n      jump\t// in\n    tag_69:\n      tag_70\n      jump\t// in\n    tag_68:\n      stop\n        /* \"Backend/SustainabilityMetrics.sol\":2257:2386  function getRecycledProductCount(address brand) external view returns (uint256) {... */\n    tag_16:\n      tag_71\n      0x04\n      dup1\n      calldatasize\n      sub\n      dup2\n      add\n      swap1\n      tag_72\n      swap2\n      swap1\n      tag_23\n      jump\t// in\n    tag_72:\n      tag_73\n      jump\t// in\n    tag_71:\n      mload(0x40)\n      tag_74\n      swap2\n      swap1\n      tag_26\n      jump\t// in\n    tag_74:\n      mload(0x40)\n      dup1\n      swap2\n      sub\n      swap1\n      return\n        /* \"@openzeppelin/contracts/access/Ownable.sol\":2543:2758  function transferOwnership(address newOwner) public virtual onlyOwner {... */\n    tag_17:\n      tag_75\n      0x04\n      dup1\n      calldatasize\n      sub\n      dup2\n      add\n      swap1\n      tag_76\n      swap2\n      swap1\n      tag_23\n      jump\t// in\n    tag_76:\n      tag_77\n      jump\t// in\n    tag_75:\n      stop\n        /* \"Backend/SustainabilityMetrics.sol\":412:464  mapping(address => uint256) public brandTotalRewards */\n    tag_24:\n      mstore(0x20, 0x02)\n      dup1\n      0x00\n      mstore\n      keccak256(0x00, 0x40)\n      0x00\n      swap2\n      pop\n      swap1\n      pop\n      sload\n      dup2\n      jump\t// out\n        /* \"Backend/SustainabilityMetrics.sol\":1505:2191  function recordRecyclingEvent(address user, address brand) external onlyOwner {... */\n    tag_30:\n        /* \"@openzeppelin/contracts/access/Ownable.sol\":1531:1544  _checkOwner() */\n      tag_79\n        /* \"@openzeppelin/contracts/access/Ownable.sol\":1531:1542  _checkOwner */\n      tag_80\n        /* \"@openzeppelin/contracts/access/Ownable.sol\":1531:1544  _checkOwner() */\n      jump\t// in\n    tag_79:\n        /* \"Backend/SustainabilityMetrics.sol\":1674:1706  brandRecycledCount[brand].add(1) */\n      tag_82\n        /* \"Backend/SustainabilityMetrics.sol\":1704:1705  1 */\n      0x01\n        /* \"Backend/SustainabilityMetrics.sol\":1674:1692  brandRecycledCount */\n      dup1\n        /* \"Backend/SustainabilityMetrics.sol\":1674:1699  brandRecycledCount[brand] */\n      0x00\n        /* \"Backend/SustainabilityMetrics.sol\":1693:1698  brand */\n      dup5\n        /* \"Backend/SustainabilityMetrics.sol\":1674:1699  brandRecycledCount[brand] */\n      0xffffffffffffffffffffffffffffffffffffffff\n      and\n      0xffffffffffffffffffffffffffffffffffffffff\n      and\n      dup2\n      mstore\n      0x20\n      add\n      swap1\n      dup2\n      mstore\n      0x20\n      add\n      0x00\n      keccak256\n      sload\n        /* \"Backend/SustainabilityMetrics.sol\":1674:1703  brandRecycledCount[brand].add */\n      tag_83\n      swap1\n        /* \"Backend/SustainabilityMetrics.sol\":1674:1706  brandRecycledCount[brand].add(1) */\n      swap2\n      swap1\n      0xffffffff\n      and\n      jump\t// in\n    tag_82:\n        /* \"Backend/SustainabilityMetrics.sol\":1646:1664  brandRecycledCount */\n      0x01\n        /* \"Backend/SustainabilityMetrics.sol\":1646:1671  brandRecycledCount[brand] */\n      0x00\n        /* \"Backend/SustainabilityMetrics.sol\":1665:1670  brand */\n      dup4\n        /* \"Backend/SustainabilityMetrics.sol\":1646:1671  brandRecycledCount[brand] */\n      0xffffffffffffffffffffffffffffffffffffffff\n      and\n      0xffffffffffffffffffffffffffffffffffffffff\n      and\n      dup2\n      mstore\n      0x20\n      add\n      swap1\n      dup2\n      mstore\n      0x20\n      add\n      0x00\n      keccak256\n        /* \"Backend/SustainabilityMetrics.sol\":1646:1706  brandRecycledCount[brand] = brandRecycledCount[brand].add(1) */\n      dup2\n      swap1\n      sstore\n      pop\n        /* \"Backend/SustainabilityMetrics.sol\":1809:1857  brandTotalRewards[brand].add(rewardPerRecycling) */\n      tag_84\n        /* \"Backend/SustainabilityMetrics.sol\":1838:1856  rewardPerRecycling */\n      sload(0x05)\n        /* \"Backend/SustainabilityMetrics.sol\":1809:1826  brandTotalRewards */\n      0x02\n        /* \"Backend/SustainabilityMetrics.sol\":1809:1833  brandTotalRewards[brand] */\n      0x00\n        /* \"Backend/SustainabilityMetrics.sol\":1827:1832  brand */\n      dup5\n        /* \"Backend/SustainabilityMetrics.sol\":1809:1833  brandTotalRewards[brand] */\n      0xffffffffffffffffffffffffffffffffffffffff\n      and\n      0xffffffffffffffffffffffffffffffffffffffff\n      and\n      dup2\n      mstore\n      0x20\n      add\n      swap1\n      dup2\n      mstore\n      0x20\n      add\n      0x00\n      keccak256\n      sload\n        /* \"Backend/SustainabilityMetrics.sol\":1809:1837  brandTotalRewards[brand].add */\n      tag_83\n      swap1\n        /* \"Backend/SustainabilityMetrics.sol\":1809:1857  brandTotalRewards[brand].add(rewardPerRecycling) */\n      swap2\n      swap1\n      0xffffffff\n      and\n      jump\t// in\n    tag_84:\n        /* \"Backend/SustainabilityMetrics.sol\":1782:1799  brandTotalRewards */\n      0x02\n        /* \"Backend/SustainabilityMetrics.sol\":1782:1806  brandTotalRewards[brand] */\n      0x00\n        /* \"Backend/SustainabilityMetrics.sol\":1800:1805  brand */\n      dup4\n        /* \"Backend/SustainabilityMetrics.sol\":1782:1806  brandTotalRewards[brand] */\n      0xffffffffffffffffffffffffffffffffffffffff\n      and\n      0xffffffffffffffffffffffffffffffffffffffff\n      and\n      dup2\n      mstore\n      0x20\n      add\n      swap1\n      dup2\n      mstore\n      0x20\n      add\n      0x00\n      keccak256\n        /* \"Backend/SustainabilityMetrics.sol\":1782:1857  brandTotalRewards[brand] = brandTotalRewards[brand].add(rewardPerRecycling) */\n      dup2\n      swap1\n      sstore\n      pop\n        /* \"Backend/SustainabilityMetrics.sol\":2010:2070  brandCarbonReduction[brand].add(carbonReductionPerRecycling) */\n      tag_85\n        /* \"Backend/SustainabilityMetrics.sol\":2042:2069  carbonReductionPerRecycling */\n      sload(0x04)\n        /* \"Backend/SustainabilityMetrics.sol\":2010:2030  brandCarbonReduction */\n      0x03\n        /* \"Backend/SustainabilityMetrics.sol\":2010:2037  brandCarbonReduction[brand] */\n      0x00\n        /* \"Backend/SustainabilityMetrics.sol\":2031:2036  brand */\n      dup5\n        /* \"Backend/SustainabilityMetrics.sol\":2010:2037  brandCarbonReduction[brand] */\n      0xffffffffffffffffffffffffffffffffffffffff\n      and\n      0xffffffffffffffffffffffffffffffffffffffff\n      and\n      dup2\n      mstore\n      0x20\n      add\n      swap1\n      dup2\n      mstore\n      0x20\n      add\n      0x00\n      keccak256\n      sload\n        /* \"Backend/SustainabilityMetrics.sol\":2010:2041  brandCarbonReduction[brand].add */\n      tag_83\n      swap1\n        /* \"Backend/SustainabilityMetrics.sol\":2010:2070  brandCarbonReduction[brand].add(carbonReductionPerRecycling) */\n      swap2\n      swap1\n      0xffffffff\n      and\n      jump\t// in\n    tag_85:\n        /* \"Backend/SustainabilityMetrics.sol\":1980:2000  brandCarbonReduction */\n      0x03\n        /* \"Backend/SustainabilityMetrics.sol\":1980:2007  brandCarbonReduction[brand] */\n      0x00\n        /* \"Backend/SustainabilityMetrics.sol\":2001:2006  brand */\n      dup4\n        /* \"Backend/SustainabilityMetrics.sol\":1980:2007  brandCarbonReduction[brand] */\n      0xffffffffffffffffffffffffffffffffffffffff\n      and\n      0xffffffffffffffffffffffffffffffffffffffff\n      and\n      dup2\n      mstore\n      0x20\n      add\n      swap1\n      dup2\n      mstore\n      0x20\n      add\n      0x00\n      keccak256\n        /* \"Backend/SustainabilityMetrics.sol\":1980:2070  brandCarbonReduction[brand] = brandCarbonReduction[brand].add(carbonReductionPerRecycling) */\n      dup2\n      swap1\n      sstore\n      pop\n        /* \"Backend/SustainabilityMetrics.sol\":2129:2134  brand */\n      dup1\n        /* \"Backend/SustainabilityMetrics.sol\":2108:2184  RecyclingEvent(user, brand, carbonReductionPerRecycling, rewardPerRecycling) */\n      0xffffffffffffffffffffffffffffffffffffffff\n      and\n        /* \"Backend/SustainabilityMetrics.sol\":2123:2127  user */\n      dup3\n        /* \"Backend/SustainabilityMetrics.sol\":2108:2184  RecyclingEvent(user, brand, carbonReductionPerRecycling, rewardPerRecycling) */\n      0xffffffffffffffffffffffffffffffffffffffff\n      and\n      0x07556b09b2561c77a746318dc6feb0cca9bb60768590c2e78130e7863746de29\n        /* \"Backend/SustainabilityMetrics.sol\":2136:2163  carbonReductionPerRecycling */\n      sload(0x04)\n        /* \"Backend/SustainabilityMetrics.sol\":2165:2183  rewardPerRecycling */\n      sload(0x05)\n        /* \"Backend/SustainabilityMetrics.sol\":2108:2184  RecyclingEvent(user, brand, carbonReductionPerRecycling, rewardPerRecycling) */\n      mload(0x40)\n      tag_86\n      swap3\n      swap2\n      swap1\n      tag_87\n      jump\t// in\n    tag_86:\n      mload(0x40)\n      dup1\n      swap2\n      sub\n      swap1\n      log3\n        /* \"Backend/SustainabilityMetrics.sol\":1505:2191  function recordRecyclingEvent(address user, address brand) external onlyOwner {... */\n      pop\n      pop\n      jump\t// out\n        /* \"Backend/SustainabilityMetrics.sol\":2452:2572  function getTotalRewards(address brand) external view returns (uint256) {... */\n    tag_33:\n        /* \"Backend/SustainabilityMetrics.sol\":2515:2522  uint256 */\n      0x00\n        /* \"Backend/SustainabilityMetrics.sol\":2541:2558  brandTotalRewards */\n      0x02\n        /* \"Backend/SustainabilityMetrics.sol\":2541:2565  brandTotalRewards[brand] */\n      0x00\n        /* \"Backend/SustainabilityMetrics.sol\":2559:2564  brand */\n      dup4\n        /* \"Backend/SustainabilityMetrics.sol\":2541:2565  brandTotalRewards[brand] */\n      0xffffffffffffffffffffffffffffffffffffffff\n      and\n      0xffffffffffffffffffffffffffffffffffffffff\n      and\n      dup2\n      mstore\n      0x20\n      add\n      swap1\n      dup2\n      mstore\n      0x20\n      add\n      0x00\n      keccak256\n      sload\n        /* \"Backend/SustainabilityMetrics.sol\":2534:2565  return brandTotalRewards[brand] */\n      swap1\n      pop\n        /* \"Backend/SustainabilityMetrics.sol\":2452:2572  function getTotalRewards(address brand) external view returns (uint256) {... */\n      swap2\n      swap1\n      pop\n      jump\t// out\n        /* \"Backend/SustainabilityMetrics.sol\":1010:1049  uint256 public rewardPerRecycling = 100 */\n    tag_36:\n      sload(0x05)\n      dup2\n      jump\t// out\n        /* \"Backend/SustainabilityMetrics.sol\":2640:2771  function getTotalCarbonReduction(address brand) external view returns (uint256) {... */\n    tag_40:\n        /* \"Backend/SustainabilityMetrics.sol\":2711:2718  uint256 */\n      0x00\n        /* \"Backend/SustainabilityMetrics.sol\":2737:2757  brandCarbonReduction */\n      0x03\n        /* \"Backend/SustainabilityMetrics.sol\":2737:2764  brandCarbonReduction[brand] */\n      0x00\n        /* \"Backend/SustainabilityMetrics.sol\":2758:2763  brand */\n      dup4\n        /* \"Backend/SustainabilityMetrics.sol\":2737:2764  brandCarbonReduction[brand] */\n      0xffffffffffffffffffffffffffffffffffffffff\n      and\n      0xffffffffffffffffffffffffffffffffffffffff\n      and\n      dup2\n      mstore\n      0x20\n      add\n      swap1\n      dup2\n      mstore\n      0x20\n      add\n      0x00\n      keccak256\n      sload\n        /* \"Backend/SustainabilityMetrics.sol\":2730:2764  return brandCarbonReduction[brand] */\n      swap1\n      pop\n        /* \"Backend/SustainabilityMetrics.sol\":2640:2771  function getTotalCarbonReduction(address brand) external view returns (uint256) {... */\n      swap2\n      swap1\n      pop\n      jump\t// out\n        /* \"Backend/SustainabilityMetrics.sol\":3014:3161  function updateCarbonReductionRate(uint256 newCarbonReduction) external onlyOwner {... */\n    tag_45:\n        /* \"@openzeppelin/contracts/access/Ownable.sol\":1531:1544  _checkOwner() */\n      tag_91\n        /* \"@openzeppelin/contracts/access/Ownable.sol\":1531:1542  _checkOwner */\n      tag_80\n        /* \"@openzeppelin/contracts/access/Ownable.sol\":1531:1544  _checkOwner() */\n      jump\t// in\n    tag_91:\n        /* \"Backend/SustainabilityMetrics.sol\":3136:3154  newCarbonReduction */\n      dup1\n        /* \"Backend/SustainabilityMetrics.sol\":3106:3133  carbonReductionPerRecycling */\n      0x04\n        /* \"Backend/SustainabilityMetrics.sol\":3106:3154  carbonReductionPerRecycling = newCarbonReduction */\n      dup2\n      swap1\n      sstore\n      pop\n        /* \"Backend/SustainabilityMetrics.sol\":3014:3161  function updateCarbonReductionRate(uint256 newCarbonReduction) external onlyOwner {... */\n      pop\n      jump\t// out\n        /* \"@openzeppelin/contracts/access/Ownable.sol\":2293:2394  function renounceOwnership() public virtual onlyOwner {... */\n    tag_47:\n        /* \"@openzeppelin/contracts/access/Ownable.sol\":1531:1544  _checkOwner() */\n      tag_94\n        /* \"@openzeppelin/contracts/access/Ownable.sol\":1531:1542  _checkOwner */\n      tag_80\n        /* \"@openzeppelin/contracts/access/Ownable.sol\":1531:1544  _checkOwner() */\n      jump\t// in\n    tag_94:\n        /* \"@openzeppelin/contracts/access/Ownable.sol\":2357:2387  _transferOwnership(address(0)) */\n      tag_96\n        /* \"@openzeppelin/contracts/access/Ownable.sol\":2384:2385  0 */\n      0x00\n        /* \"@openzeppelin/contracts/access/Ownable.sol\":2357:2375  _transferOwnership */\n      tag_97\n        /* \"@openzeppelin/contracts/access/Ownable.sol\":2357:2387  _transferOwnership(address(0)) */\n      jump\t// in\n    tag_96:\n        /* \"@openzeppelin/contracts/access/Ownable.sol\":2293:2394  function renounceOwnership() public virtual onlyOwner {... */\n      jump\t// out\n        /* \"Backend/SustainabilityMetrics.sol\":900:947  uint256 public carbonReductionPerRecycling = 10 */\n    tag_49:\n      sload(0x04)\n      dup2\n      jump\t// out\n        /* \"Backend/SustainabilityMetrics.sol\":546:601  mapping(address => uint256) public brandCarbonReduction */\n    tag_53:\n      mstore(0x20, 0x03)\n      dup1\n      0x00\n      mstore\n      keccak256(0x00, 0x40)\n      0x00\n      swap2\n      pop\n      swap1\n      pop\n      sload\n      dup2\n      jump\t// out\n        /* \"Backend/SustainabilityMetrics.sol\":3234:3548  function getSustainabilityMetrics(address brand) external view returns (uint256 recycledCount, uint256 totalRewards, uint256 totalCarbonReduction) {... */\n    tag_57:\n        /* \"Backend/SustainabilityMetrics.sol\":3306:3327  uint256 recycledCount */\n      0x00\n        /* \"Backend/SustainabilityMetrics.sol\":3329:3349  uint256 totalRewards */\n      dup1\n        /* \"Backend/SustainabilityMetrics.sol\":3351:3379  uint256 totalCarbonReduction */\n      0x00\n        /* \"Backend/SustainabilityMetrics.sol\":3407:3425  brandRecycledCount */\n      0x01\n        /* \"Backend/SustainabilityMetrics.sol\":3407:3432  brandRecycledCount[brand] */\n      0x00\n        /* \"Backend/SustainabilityMetrics.sol\":3426:3431  brand */\n      dup6\n        /* \"Backend/SustainabilityMetrics.sol\":3407:3432  brandRecycledCount[brand] */\n      0xffffffffffffffffffffffffffffffffffffffff\n      and\n      0xffffffffffffffffffffffffffffffffffffffff\n      and\n      dup2\n      mstore\n      0x20\n      add\n      swap1\n      dup2\n      mstore\n      0x20\n      add\n      0x00\n      keccak256\n      sload\n        /* \"Backend/SustainabilityMetrics.sol\":3391:3432  recycledCount = brandRecycledCount[brand] */\n      swap3\n      pop\n        /* \"Backend/SustainabilityMetrics.sol\":3457:3474  brandTotalRewards */\n      0x02\n        /* \"Backend/SustainabilityMetrics.sol\":3457:3481  brandTotalRewards[brand] */\n      0x00\n        /* \"Backend/SustainabilityMetrics.sol\":3475:3480  brand */\n      dup6\n        /* \"Backend/SustainabilityMetrics.sol\":3457:3481  brandTotalRewards[brand] */\n      0xffffffffffffffffffffffffffffffffffffffff\n      and\n      0xffffffffffffffffffffffffffffffffffffffff\n      and\n      dup2\n      mstore\n      0x20\n      add\n      swap1\n      dup2\n      mstore\n      0x20\n      add\n      0x00\n      keccak256\n      sload\n        /* \"Backend/SustainabilityMetrics.sol\":3442:3481  totalRewards = brandTotalRewards[brand] */\n      swap2\n      pop\n        /* \"Backend/SustainabilityMetrics.sol\":3514:3534  brandCarbonReduction */\n      0x03\n        /* \"Backend/SustainabilityMetrics.sol\":3514:3541  brandCarbonReduction[brand] */\n      0x00\n        /* \"Backend/SustainabilityMetrics.sol\":3535:3540  brand */\n      dup6\n        /* \"Backend/SustainabilityMetrics.sol\":3514:3541  brandCarbonReduction[brand] */\n      0xffffffffffffffffffffffffffffffffffffffff\n      and\n      0xffffffffffffffffffffffffffffffffffffffff\n      and\n      dup2\n      mstore\n      0x20\n      add\n      swap1\n      dup2\n      mstore\n      0x20\n      add\n      0x00\n      keccak256\n      sload\n        /* \"Backend/SustainabilityMetrics.sol\":3491:3541  totalCarbonReduction = brandCarbonReduction[brand] */\n      swap1\n      pop\n        /* \"Backend/SustainabilityMetrics.sol\":3234:3548  function getSustainabilityMetrics(address brand) external view returns (uint256 recycledCount, uint256 totalRewards, uint256 totalCarbonReduction) {... */\n      swap2\n      swap4\n      swap1\n      swap3\n      pop\n      jump\t// out\n        /* \"@openzeppelin/contracts/access/Ownable.sol\":1638:1723  function owner() public view virtual returns (address) {... */\n    tag_61:\n        /* \"@openzeppelin/contracts/access/Ownable.sol\":1684:1691  address */\n      0x00\n        /* \"@openzeppelin/contracts/access/Ownable.sol\":1710:1716  _owner */\n      dup1\n      0x00\n      swap1\n      sload\n      swap1\n      0x0100\n      exp\n      swap1\n      div\n      0xffffffffffffffffffffffffffffffffffffffff\n      and\n        /* \"@openzeppelin/contracts/access/Ownable.sol\":1703:1716  return _owner */\n      swap1\n      pop\n        /* \"@openzeppelin/contracts/access/Ownable.sol\":1638:1723  function owner() public view virtual returns (address) {... */\n      swap1\n      jump\t// out\n        /* \"Backend/SustainabilityMetrics.sol\":308:361  mapping(address => uint256) public brandRecycledCount */\n    tag_66:\n      mstore(0x20, 0x01)\n      dup1\n      0x00\n      mstore\n      keccak256(0x00, 0x40)\n      0x00\n      swap2\n      pop\n      swap1\n      pop\n      sload\n      dup2\n      jump\t// out\n        /* \"Backend/SustainabilityMetrics.sol\":2837:2956  function updateRewardRate(uint256 newRewardRate) external onlyOwner {... */\n    tag_70:\n        /* \"@openzeppelin/contracts/access/Ownable.sol\":1531:1544  _checkOwner() */\n      tag_101\n        /* \"@openzeppelin/contracts/access/Ownable.sol\":1531:1542  _checkOwner */\n      tag_80\n        /* \"@openzeppelin/contracts/access/Ownable.sol\":1531:1544  _checkOwner() */\n      jump\t// in\n    tag_101:\n        /* \"Backend/SustainabilityMetrics.sol\":2936:2949  newRewardRate */\n      dup1\n        /* \"Backend/SustainabilityMetrics.sol\":2915:2933  rewardPerRecycling */\n      0x05\n        /* \"Backend/SustainabilityMetrics.sol\":2915:2949  rewardPerRecycling = newRewardRate */\n      dup2\n      swap1\n      sstore\n      pop\n        /* \"Backend/SustainabilityMetrics.sol\":2837:2956  function updateRewardRate(uint256 newRewardRate) external onlyOwner {... */\n      pop\n      jump\t// out\n        /* \"Backend/SustainabilityMetrics.sol\":2257:2386  function getRecycledProductCount(address brand) external view returns (uint256) {... */\n    tag_73:\n        /* \"Backend/SustainabilityMetrics.sol\":2328:2335  uint256 */\n      0x00\n        /* \"Backend/SustainabilityMetrics.sol\":2354:2372  brandRecycledCount */\n      0x01\n        /* \"Backend/SustainabilityMetrics.sol\":2354:2379  brandRecycledCount[brand] */\n      0x00\n        /* \"Backend/SustainabilityMetrics.sol\":2373:2378  brand */\n      dup4\n        /* \"Backend/SustainabilityMetrics.sol\":2354:2379  brandRecycledCount[brand] */\n      0xffffffffffffffffffffffffffffffffffffffff\n      and\n      0xffffffffffffffffffffffffffffffffffffffff\n      and\n      dup2\n      mstore\n      0x20\n      add\n      swap1\n      dup2\n      mstore\n      0x20\n      add\n      0x00\n      keccak256\n      sload\n        /* \"Backend/SustainabilityMetrics.sol\":2347:2379  return brandRecycledCount[brand] */\n      swap1\n      pop\n        /* \"Backend/SustainabilityMetrics.sol\":2257:2386  function getRecycledProductCount(address brand) external view returns (uint256) {... */\n      swap2\n      swap1\n      pop\n      jump\t// out\n        /* \"@openzeppelin/contracts/access/Ownable.sol\":2543:2758  function transferOwnership(address newOwner) public virtual onlyOwner {... */\n    tag_77:\n        /* \"@openzeppelin/contracts/access/Ownable.sol\":1531:1544  _checkOwner() */\n      tag_105\n        /* \"@openzeppelin/contracts/access/Ownable.sol\":1531:1542  _checkOwner */\n      tag_80\n        /* \"@openzeppelin/contracts/access/Ownable.sol\":1531:1544  _checkOwner() */\n      jump\t// in\n    tag_105:\n        /* \"@openzeppelin/contracts/access/Ownable.sol\":2647:2648  0 */\n      0x00\n        /* \"@openzeppelin/contracts/access/Ownable.sol\":2627:2649  newOwner == address(0) */\n      0xffffffffffffffffffffffffffffffffffffffff\n      and\n        /* \"@openzeppelin/contracts/access/Ownable.sol\":2627:2635  newOwner */\n      dup2\n        /* \"@openzeppelin/contracts/access/Ownable.sol\":2627:2649  newOwner == address(0) */\n      0xffffffffffffffffffffffffffffffffffffffff\n      and\n      sub\n        /* \"@openzeppelin/contracts/access/Ownable.sol\":2623:2714  if (newOwner == address(0)) {... */\n      tag_107\n      jumpi\n        /* \"@openzeppelin/contracts/access/Ownable.sol\":2700:2701  0 */\n      0x00\n        /* \"@openzeppelin/contracts/access/Ownable.sol\":2672:2703  OwnableInvalidOwner(address(0)) */\n      mload(0x40)\n      0x1e4fbdf700000000000000000000000000000000000000000000000000000000\n      dup2\n      mstore\n      0x04\n      add\n      tag_108\n      swap2\n      swap1\n      tag_63\n      jump\t// in\n    tag_108:\n      mload(0x40)\n      dup1\n      swap2\n      sub\n      swap1\n      revert\n        /* \"@openzeppelin/contracts/access/Ownable.sol\":2623:2714  if (newOwner == address(0)) {... */\n    tag_107:\n        /* \"@openzeppelin/contracts/access/Ownable.sol\":2723:2751  _transferOwnership(newOwner) */\n      tag_109\n        /* \"@openzeppelin/contracts/access/Ownable.sol\":2742:2750  newOwner */\n      dup2\n        /* \"@openzeppelin/contracts/access/Ownable.sol\":2723:2741  _transferOwnership */\n      tag_97\n        /* \"@openzeppelin/contracts/access/Ownable.sol\":2723:2751  _transferOwnership(newOwner) */\n      jump\t// in\n    tag_109:\n        /* \"@openzeppelin/contracts/access/Ownable.sol\":2543:2758  function transferOwnership(address newOwner) public virtual onlyOwner {... */\n      pop\n      jump\t// out\n        /* \"@openzeppelin/contracts/access/Ownable.sol\":1796:1958  function _checkOwner() internal view virtual {... */\n    tag_80:\n        /* \"@openzeppelin/contracts/access/Ownable.sol\":1866:1878  _msgSender() */\n      tag_111\n        /* \"@openzeppelin/contracts/access/Ownable.sol\":1866:1876  _msgSender */\n      tag_112\n        /* \"@openzeppelin/contracts/access/Ownable.sol\":1866:1878  _msgSender() */\n      jump\t// in\n    tag_111:\n        /* \"@openzeppelin/contracts/access/Ownable.sol\":1855:1878  owner() != _msgSender() */\n      0xffffffffffffffffffffffffffffffffffffffff\n      and\n        /* \"@openzeppelin/contracts/access/Ownable.sol\":1855:1862  owner() */\n      tag_113\n        /* \"@openzeppelin/contracts/access/Ownable.sol\":1855:1860  owner */\n      tag_61\n        /* \"@openzeppelin/contracts/access/Ownable.sol\":1855:1862  owner() */\n      jump\t// in\n    tag_113:\n        /* \"@openzeppelin/contracts/access/Ownable.sol\":1855:1878  owner() != _msgSender() */\n      0xffffffffffffffffffffffffffffffffffffffff\n      and\n      eq\n        /* \"@openzeppelin/contracts/access/Ownable.sol\":1851:1952  if (owner() != _msgSender()) {... */\n      tag_114\n      jumpi\n        /* \"@openzeppelin/contracts/access/Ownable.sol\":1928:1940  _msgSender() */\n      tag_115\n        /* \"@openzeppelin/contracts/access/Ownable.sol\":1928:1938  _msgSender */\n      tag_112\n        /* \"@openzeppelin/contracts/access/Ownable.sol\":1928:1940  _msgSender() */\n      jump\t// in\n    tag_115:\n        /* \"@openzeppelin/contracts/access/Ownable.sol\":1901:1941  OwnableUnauthorizedAccount(_msgSender()) */\n      mload(0x40)\n      0x118cdaa700000000000000000000000000000000000000000000000000000000\n      dup2\n      mstore\n      0x04\n      add\n      tag_116\n      swap2\n      swap1\n      tag_63\n      jump\t// in\n    tag_116:\n      mload(0x40)\n      dup1\n      swap2\n      sub\n      swap1\n      revert\n        /* \"@openzeppelin/contracts/access/Ownable.sol\":1851:1952  if (owner() != _msgSender()) {... */\n    tag_114:\n        /* \"@openzeppelin/contracts/access/Ownable.sol\":1796:1958  function _checkOwner() internal view virtual {... */\n      jump\t// out\n        /* \"@openzeppelin/contracts/utils/math/SafeMath.sol\":2755:2851  function add(uint256 a, uint256 b) internal pure returns (uint256) {... */\n    tag_83:\n        /* \"@openzeppelin/contracts/utils/math/SafeMath.sol\":2813:2820  uint256 */\n      0x00\n        /* \"@openzeppelin/contracts/utils/math/SafeMath.sol\":2843:2844  b */\n      dup2\n        /* \"@openzeppelin/contracts/utils/math/SafeMath.sol\":2839:2840  a */\n      dup4\n        /* \"@openzeppelin/contracts/utils/math/SafeMath.sol\":2839:2844  a + b */\n      tag_118\n      swap2\n      swap1\n      tag_119\n      jump\t// in\n    tag_118:\n        /* \"@openzeppelin/contracts/utils/math/SafeMath.sol\":2832:2844  return a + b */\n      swap1\n      pop\n        /* \"@openzeppelin/contracts/utils/math/SafeMath.sol\":2755:2851  function add(uint256 a, uint256 b) internal pure returns (uint256) {... */\n      swap3\n      swap2\n      pop\n      pop\n      jump\t// out\n        /* \"@openzeppelin/contracts/access/Ownable.sol\":2912:3099  function _transferOwnership(address newOwner) internal virtual {... */\n    tag_97:\n        /* \"@openzeppelin/contracts/access/Ownable.sol\":2985:3001  address oldOwner */\n      0x00\n        /* \"@openzeppelin/contracts/access/Ownable.sol\":3004:3010  _owner */\n      dup1\n      0x00\n      swap1\n      sload\n      swap1\n      0x0100\n      exp\n      swap1\n      div\n      0xffffffffffffffffffffffffffffffffffffffff\n      and\n        /* \"@openzeppelin/contracts/access/Ownable.sol\":2985:3010  address oldOwner = _owner */\n      swap1\n      pop\n        /* \"@openzeppelin/contracts/access/Ownable.sol\":3029:3037  newOwner */\n      dup2\n        /* \"@openzeppelin/contracts/access/Ownable.sol\":3020:3026  _owner */\n      0x00\n      dup1\n        /* \"@openzeppelin/contracts/access/Ownable.sol\":3020:3037  _owner = newOwner */\n      0x0100\n      exp\n      dup2\n      sload\n      dup2\n      0xffffffffffffffffffffffffffffffffffffffff\n      mul\n      not\n      and\n      swap1\n      dup4\n      0xffffffffffffffffffffffffffffffffffffffff\n      and\n      mul\n      or\n      swap1\n      sstore\n      pop\n        /* \"@openzeppelin/contracts/access/Ownable.sol\":3083:3091  newOwner */\n      dup2\n        /* \"@openzeppelin/contracts/access/Ownable.sol\":3052:3092  OwnershipTransferred(oldOwner, newOwner) */\n      0xffffffffffffffffffffffffffffffffffffffff\n      and\n        /* \"@openzeppelin/contracts/access/Ownable.sol\":3073:3081  oldOwner */\n      dup2\n        /* \"@openzeppelin/contracts/access/Ownable.sol\":3052:3092  OwnershipTransferred(oldOwner, newOwner) */\n      0xffffffffffffffffffffffffffffffffffffffff\n      and\n      0x8be0079c531659141344cd1fd0a4f28419497f9722a3daafe3b4186f6b6457e0\n      mload(0x40)\n      mload(0x40)\n      dup1\n      swap2\n      sub\n      swap1\n      log3\n        /* \"@openzeppelin/contracts/access/Ownable.sol\":2975:3099  {... */\n      pop\n        /* \"@openzeppelin/contracts/access/Ownable.sol\":2912:3099  function _transferOwnership(address newOwner) internal virtual {... */\n      pop\n      jump\t// out\n        /* \"@openzeppelin/contracts/utils/Context.sol\":656:752  function _msgSender() internal view virtual returns (address) {... */\n    tag_112:\n        /* \"@openzeppelin/contracts/utils/Context.sol\":709:716  address */\n      0x00\n        /* \"@openzeppelin/contracts/utils/Context.sol\":735:745  msg.sender */\n      caller\n        /* \"@openzeppelin/contracts/utils/Context.sol\":728:745  return msg.sender */\n      swap1\n      pop\n        /* \"@openzeppelin/contracts/utils/Context.sol\":656:752  function _msgSender() internal view virtual returns (address) {... */\n      swap1\n      jump\t// out\n        /* \"#utility.yul\":88:205   */\n    tag_123:\n        /* \"#utility.yul\":197:198   */\n      0x00\n        /* \"#utility.yul\":194:195   */\n      dup1\n        /* \"#utility.yul\":187:199   */\n      revert\n        /* \"#utility.yul\":334:460   */\n    tag_125:\n        /* \"#utility.yul\":371:378   */\n      0x00\n        /* \"#utility.yul\":411:453   */\n      0xffffffffffffffffffffffffffffffffffffffff\n        /* \"#utility.yul\":404:409   */\n      dup3\n        /* \"#utility.yul\":400:454   */\n      and\n        /* \"#utility.yul\":389:454   */\n      swap1\n      pop\n        /* \"#utility.yul\":334:460   */\n      swap2\n      swap1\n      pop\n      jump\t// out\n        /* \"#utility.yul\":466:562   */\n    tag_126:\n        /* \"#utility.yul\":503:510   */\n      0x00\n        /* \"#utility.yul\":532:556   */\n      tag_141\n        /* \"#utility.yul\":550:555   */\n      dup3\n        /* \"#utility.yul\":532:556   */\n      tag_125\n      jump\t// in\n    tag_141:\n        /* \"#utility.yul\":521:556   */\n      swap1\n      pop\n        /* \"#utility.yul\":466:562   */\n      swap2\n      swap1\n      pop\n      jump\t// out\n        /* \"#utility.yul\":568:690   */\n    tag_127:\n        /* \"#utility.yul\":641:665   */\n      tag_143\n        /* \"#utility.yul\":659:664   */\n      dup2\n        /* \"#utility.yul\":641:665   */\n      tag_126\n      jump\t// in\n    tag_143:\n        /* \"#utility.yul\":634:639   */\n      dup2\n        /* \"#utility.yul\":631:666   */\n      eq\n        /* \"#utility.yul\":621:684   */\n      tag_144\n      jumpi\n        /* \"#utility.yul\":680:681   */\n      0x00\n        /* \"#utility.yul\":677:678   */\n      dup1\n        /* \"#utility.yul\":670:682   */\n      revert\n        /* \"#utility.yul\":621:684   */\n    tag_144:\n        /* \"#utility.yul\":568:690   */\n      pop\n      jump\t// out\n        /* \"#utility.yul\":696:835   */\n    tag_128:\n        /* \"#utility.yul\":742:747   */\n      0x00\n        /* \"#utility.yul\":780:786   */\n      dup2\n        /* \"#utility.yul\":767:787   */\n      calldataload\n        /* \"#utility.yul\":758:787   */\n      swap1\n      pop\n        /* \"#utility.yul\":796:829   */\n      tag_146\n        /* \"#utility.yul\":823:828   */\n      dup2\n        /* \"#utility.yul\":796:829   */\n      tag_127\n      jump\t// in\n    tag_146:\n        /* \"#utility.yul\":696:835   */\n      swap3\n      swap2\n      pop\n      pop\n      jump\t// out\n        /* \"#utility.yul\":841:1170   */\n    tag_23:\n        /* \"#utility.yul\":900:906   */\n      0x00\n        /* \"#utility.yul\":949:951   */\n      0x20\n        /* \"#utility.yul\":937:946   */\n      dup3\n        /* \"#utility.yul\":928:935   */\n      dup5\n        /* \"#utility.yul\":924:947   */\n      sub\n        /* \"#utility.yul\":920:952   */\n      slt\n        /* \"#utility.yul\":917:1036   */\n      iszero\n      tag_148\n      jumpi\n        /* \"#utility.yul\":955:1034   */\n      tag_149\n      tag_123\n      jump\t// in\n    tag_149:\n        /* \"#utility.yul\":917:1036   */\n    tag_148:\n        /* \"#utility.yul\":1075:1076   */\n      0x00\n        /* \"#utility.yul\":1100:1153   */\n      tag_150\n        /* \"#utility.yul\":1145:1152   */\n      dup5\n        /* \"#utility.yul\":1136:1142   */\n      dup3\n        /* \"#utility.yul\":1125:1134   */\n      dup6\n        /* \"#utility.yul\":1121:1143   */\n      add\n        /* \"#utility.yul\":1100:1153   */\n      tag_128\n      jump\t// in\n    tag_150:\n        /* \"#utility.yul\":1090:1153   */\n      swap2\n      pop\n        /* \"#utility.yul\":1046:1163   */\n      pop\n        /* \"#utility.yul\":841:1170   */\n      swap3\n      swap2\n      pop\n      pop\n      jump\t// out\n        /* \"#utility.yul\":1176:1253   */\n    tag_129:\n        /* \"#utility.yul\":1213:1220   */\n      0x00\n        /* \"#utility.yul\":1242:1247   */\n      dup2\n        /* \"#utility.yul\":1231:1247   */\n      swap1\n      pop\n        /* \"#utility.yul\":1176:1253   */\n      swap2\n      swap1\n      pop\n      jump\t// out\n        /* \"#utility.yul\":1259:1377   */\n    tag_130:\n        /* \"#utility.yul\":1346:1370   */\n      tag_153\n        /* \"#utility.yul\":1364:1369   */\n      dup2\n        /* \"#utility.yul\":1346:1370   */\n      tag_129\n      jump\t// in\n    tag_153:\n        /* \"#utility.yul\":1341:1344   */\n      dup3\n        /* \"#utility.yul\":1334:1371   */\n      mstore\n        /* \"#utility.yul\":1259:1377   */\n      pop\n      pop\n      jump\t// out\n        /* \"#utility.yul\":1383:1605   */\n    tag_26:\n        /* \"#utility.yul\":1476:1480   */\n      0x00\n        /* \"#utility.yul\":1514:1516   */\n      0x20\n        /* \"#utility.yul\":1503:1512   */\n      dup3\n        /* \"#utility.yul\":1499:1517   */\n      add\n        /* \"#utility.yul\":1491:1517   */\n      swap1\n      pop\n        /* \"#utility.yul\":1527:1598   */\n      tag_155\n        /* \"#utility.yul\":1595:1596   */\n      0x00\n        /* \"#utility.yul\":1584:1593   */\n      dup4\n        /* \"#utility.yul\":1580:1597   */\n      add\n        /* \"#utility.yul\":1571:1577   */\n      dup5\n        /* \"#utility.yul\":1527:1598   */\n      tag_130\n      jump\t// in\n    tag_155:\n        /* \"#utility.yul\":1383:1605   */\n      swap3\n      swap2\n      pop\n      pop\n      jump\t// out\n        /* \"#utility.yul\":1611:2085   */\n    tag_29:\n        /* \"#utility.yul\":1679:1685   */\n      0x00\n        /* \"#utility.yul\":1687:1693   */\n      dup1\n        /* \"#utility.yul\":1736:1738   */\n      0x40\n        /* \"#utility.yul\":1724:1733   */\n      dup4\n        /* \"#utility.yul\":1715:1722   */\n      dup6\n        /* \"#utility.yul\":1711:1734   */\n      sub\n        /* \"#utility.yul\":1707:1739   */\n      slt\n        /* \"#utility.yul\":1704:1823   */\n      iszero\n      tag_157\n      jumpi\n        /* \"#utility.yul\":1742:1821   */\n      tag_158\n      tag_123\n      jump\t// in\n    tag_158:\n        /* \"#utility.yul\":1704:1823   */\n    tag_157:\n        /* \"#utility.yul\":1862:1863   */\n      0x00\n        /* \"#utility.yul\":1887:1940   */\n      tag_159\n        /* \"#utility.yul\":1932:1939   */\n      dup6\n        /* \"#utility.yul\":1923:1929   */\n      dup3\n        /* \"#utility.yul\":1912:1921   */\n      dup7\n        /* \"#utility.yul\":1908:1930   */\n      add\n        /* \"#utility.yul\":1887:1940   */\n      tag_128\n      jump\t// in\n    tag_159:\n        /* \"#utility.yul\":1877:1940   */\n      swap3\n      pop\n        /* \"#utility.yul\":1833:1950   */\n      pop\n        /* \"#utility.yul\":1989:1991   */\n      0x20\n        /* \"#utility.yul\":2015:2068   */\n      tag_160\n        /* \"#utility.yul\":2060:2067   */\n      dup6\n        /* \"#utility.yul\":2051:2057   */\n      dup3\n        /* \"#utility.yul\":2040:2049   */\n      dup7\n        /* \"#utility.yul\":2036:2058   */\n      add\n        /* \"#utility.yul\":2015:2068   */\n      tag_128\n      jump\t// in\n    tag_160:\n        /* \"#utility.yul\":2005:2068   */\n      swap2\n      pop\n        /* \"#utility.yul\":1960:2078   */\n      pop\n        /* \"#utility.yul\":1611:2085   */\n      swap3\n      pop\n      swap3\n      swap1\n      pop\n      jump\t// out\n        /* \"#utility.yul\":2091:2213   */\n    tag_131:\n        /* \"#utility.yul\":2164:2188   */\n      tag_162\n        /* \"#utility.yul\":2182:2187   */\n      dup2\n        /* \"#utility.yul\":2164:2188   */\n      tag_129\n      jump\t// in\n    tag_162:\n        /* \"#utility.yul\":2157:2162   */\n      dup2\n        /* \"#utility.yul\":2154:2189   */\n      eq\n        /* \"#utility.yul\":2144:2207   */\n      tag_163\n      jumpi\n        /* \"#utility.yul\":2203:2204   */\n      0x00\n        /* \"#utility.yul\":2200:2201   */\n      dup1\n        /* \"#utility.yul\":2193:2205   */\n      revert\n        /* \"#utility.yul\":2144:2207   */\n    tag_163:\n        /* \"#utility.yul\":2091:2213   */\n      pop\n      jump\t// out\n        /* \"#utility.yul\":2219:2358   */\n    tag_132:\n        /* \"#utility.yul\":2265:2270   */\n      0x00\n        /* \"#utility.yul\":2303:2309   */\n      dup2\n        /* \"#utility.yul\":2290:2310   */\n      calldataload\n        /* \"#utility.yul\":2281:2310   */\n      swap1\n      pop\n        /* \"#utility.yul\":2319:2352   */\n      tag_165\n        /* \"#utility.yul\":2346:2351   */\n      dup2\n        /* \"#utility.yul\":2319:2352   */\n      tag_131\n      jump\t// in\n    tag_165:\n        /* \"#utility.yul\":2219:2358   */\n      swap3\n      swap2\n      pop\n      pop\n      jump\t// out\n        /* \"#utility.yul\":2364:2693   */\n    tag_44:\n        /* \"#utility.yul\":2423:2429   */\n      0x00\n        /* \"#utility.yul\":2472:2474   */\n      0x20\n        /* \"#utility.yul\":2460:2469   */\n      dup3\n        /* \"#utility.yul\":2451:2458   */\n      dup5\n        /* \"#utility.yul\":2447:2470   */\n      sub\n        /* \"#utility.yul\":2443:2475   */\n      slt\n        /* \"#utility.yul\":2440:2559   */\n      iszero\n      tag_167\n      jumpi\n        /* \"#utility.yul\":2478:2557   */\n      tag_168\n      tag_123\n      jump\t// in\n    tag_168:\n        /* \"#utility.yul\":2440:2559   */\n    tag_167:\n        /* \"#utility.yul\":2598:2599   */\n      0x00\n        /* \"#utility.yul\":2623:2676   */\n      tag_169\n        /* \"#utility.yul\":2668:2675   */\n      dup5\n        /* \"#utility.yul\":2659:2665   */\n      dup3\n        /* \"#utility.yul\":2648:2657   */\n      dup6\n        /* \"#utility.yul\":2644:2666   */\n      add\n        /* \"#utility.yul\":2623:2676   */\n      tag_132\n      jump\t// in\n    tag_169:\n        /* \"#utility.yul\":2613:2676   */\n      swap2\n      pop\n        /* \"#utility.yul\":2569:2686   */\n      pop\n        /* \"#utility.yul\":2364:2693   */\n      swap3\n      swap2\n      pop\n      pop\n      jump\t// out\n        /* \"#utility.yul\":2699:3141   */\n    tag_59:\n        /* \"#utility.yul\":2848:2852   */\n      0x00\n        /* \"#utility.yul\":2886:2888   */\n      0x60\n        /* \"#utility.yul\":2875:2884   */\n      dup3\n        /* \"#utility.yul\":2871:2889   */\n      add\n        /* \"#utility.yul\":2863:2889   */\n      swap1\n      pop\n        /* \"#utility.yul\":2899:2970   */\n      tag_171\n        /* \"#utility.yul\":2967:2968   */\n      0x00\n        /* \"#utility.yul\":2956:2965   */\n      dup4\n        /* \"#utility.yul\":2952:2969   */\n      add\n        /* \"#utility.yul\":2943:2949   */\n      dup7\n        /* \"#utility.yul\":2899:2970   */\n      tag_130\n      jump\t// in\n    tag_171:\n        /* \"#utility.yul\":2980:3052   */\n      tag_172\n        /* \"#utility.yul\":3048:3050   */\n      0x20\n        /* \"#utility.yul\":3037:3046   */\n      dup4\n        /* \"#utility.yul\":3033:3051   */\n      add\n        /* \"#utility.yul\":3024:3030   */\n      dup6\n        /* \"#utility.yul\":2980:3052   */\n      tag_130\n      jump\t// in\n    tag_172:\n        /* \"#utility.yul\":3062:3134   */\n      tag_173\n        /* \"#utility.yul\":3130:3132   */\n      0x40\n        /* \"#utility.yul\":3119:3128   */\n      dup4\n        /* \"#utility.yul\":3115:3133   */\n      add\n        /* \"#utility.yul\":3106:3112   */\n      dup5\n        /* \"#utility.yul\":3062:3134   */\n      tag_130\n      jump\t// in\n    tag_173:\n        /* \"#utility.yul\":2699:3141   */\n      swap5\n      swap4\n      pop\n      pop\n      pop\n      pop\n      jump\t// out\n        /* \"#utility.yul\":3147:3265   */\n    tag_133:\n        /* \"#utility.yul\":3234:3258   */\n      tag_175\n        /* \"#utility.yul\":3252:3257   */\n      dup2\n        /* \"#utility.yul\":3234:3258   */\n      tag_126\n      jump\t// in\n    tag_175:\n        /* \"#utility.yul\":3229:3232   */\n      dup3\n        /* \"#utility.yul\":3222:3259   */\n      mstore\n        /* \"#utility.yul\":3147:3265   */\n      pop\n      pop\n      jump\t// out\n        /* \"#utility.yul\":3271:3493   */\n    tag_63:\n        /* \"#utility.yul\":3364:3368   */\n      0x00\n        /* \"#utility.yul\":3402:3404   */\n      0x20\n        /* \"#utility.yul\":3391:3400   */\n      dup3\n        /* \"#utility.yul\":3387:3405   */\n      add\n        /* \"#utility.yul\":3379:3405   */\n      swap1\n      pop\n        /* \"#utility.yul\":3415:3486   */\n      tag_177\n        /* \"#utility.yul\":3483:3484   */\n      0x00\n        /* \"#utility.yul\":3472:3481   */\n      dup4\n        /* \"#utility.yul\":3468:3485   */\n      add\n        /* \"#utility.yul\":3459:3465   */\n      dup5\n        /* \"#utility.yul\":3415:3486   */\n      tag_133\n      jump\t// in\n    tag_177:\n        /* \"#utility.yul\":3271:3493   */\n      swap3\n      swap2\n      pop\n      pop\n      jump\t// out\n        /* \"#utility.yul\":3499:3831   */\n    tag_87:\n        /* \"#utility.yul\":3620:3624   */\n      0x00\n        /* \"#utility.yul\":3658:3660   */\n      0x40\n        /* \"#utility.yul\":3647:3656   */\n      dup3\n        /* \"#utility.yul\":3643:3661   */\n      add\n        /* \"#utility.yul\":3635:3661   */\n      swap1\n      pop\n        /* \"#utility.yul\":3671:3742   */\n      tag_179\n        /* \"#utility.yul\":3739:3740   */\n      0x00\n        /* \"#utility.yul\":3728:3737   */\n      dup4\n        /* \"#utility.yul\":3724:3741   */\n      add\n        /* \"#utility.yul\":3715:3721   */\n      dup6\n        /* \"#utility.yul\":3671:3742   */\n      tag_130\n      jump\t// in\n    tag_179:\n        /* \"#utility.yul\":3752:3824   */\n      tag_180\n        /* \"#utility.yul\":3820:3822   */\n      0x20\n        /* \"#utility.yul\":3809:3818   */\n      dup4\n        /* \"#utility.yul\":3805:3823   */\n      add\n        /* \"#utility.yul\":3796:3802   */\n      dup5\n        /* \"#utility.yul\":3752:3824   */\n      tag_130\n      jump\t// in\n    tag_180:\n        /* \"#utility.yul\":3499:3831   */\n      swap4\n      swap3\n      pop\n      pop\n      pop\n      jump\t// out\n        /* \"#utility.yul\":3837:4017   */\n    tag_134:\n        /* \"#utility.yul\":3885:3962   */\n      0x4e487b7100000000000000000000000000000000000000000000000000000000\n        /* \"#utility.yul\":3882:3883   */\n      0x00\n        /* \"#utility.yul\":3875:3963   */\n      mstore\n        /* \"#utility.yul\":3982:3986   */\n      0x11\n        /* \"#utility.yul\":3979:3980   */\n      0x04\n        /* \"#utility.yul\":3972:3987   */\n      mstore\n        /* \"#utility.yul\":4006:4010   */\n      0x24\n        /* \"#utility.yul\":4003:4004   */\n      0x00\n        /* \"#utility.yul\":3996:4011   */\n      revert\n        /* \"#utility.yul\":4023:4214   */\n    tag_119:\n        /* \"#utility.yul\":4063:4066   */\n      0x00\n        /* \"#utility.yul\":4082:4102   */\n      tag_183\n        /* \"#utility.yul\":4100:4101   */\n      dup3\n        /* \"#utility.yul\":4082:4102   */\n      tag_129\n      jump\t// in\n    tag_183:\n        /* \"#utility.yul\":4077:4102   */\n      swap2\n      pop\n        /* \"#utility.yul\":4116:4136   */\n      tag_184\n        /* \"#utility.yul\":4134:4135   */\n      dup4\n        /* \"#utility.yul\":4116:4136   */\n      tag_129\n      jump\t// in\n    tag_184:\n        /* \"#utility.yul\":4111:4136   */\n      swap3\n      pop\n        /* \"#utility.yul\":4159:4160   */\n      dup3\n        /* \"#utility.yul\":4156:4157   */\n      dup3\n        /* \"#utility.yul\":4152:4161   */\n      add\n        /* \"#utility.yul\":4145:4161   */\n      swap1\n      pop\n        /* \"#utility.yul\":4180:4183   */\n      dup1\n        /* \"#utility.yul\":4177:4178   */\n      dup3\n        /* \"#utility.yul\":4174:4184   */\n      gt\n        /* \"#utility.yul\":4171:4207   */\n      iszero\n      tag_185\n      jumpi\n        /* \"#utility.yul\":4187:4205   */\n      tag_186\n      tag_134\n      jump\t// in\n    tag_186:\n        /* \"#utility.yul\":4171:4207   */\n    tag_185:\n        /* \"#utility.yul\":4023:4214   */\n      swap3\n      swap2\n      pop\n      pop\n      jump\t// out\n\n    auxdata: 0xa2646970667358221220df31b1c3005189a4876fde065a074e06e6b27a4bf712c2d20c103cb4e447467564736f6c63430008180033\n}\n",
				"bytecode": {
					"linkReferences": {},
					"object": "6080604052600a60045560646005553480156200001a575f80fd5b5060405162000fb438038062000fb483398181016040528101906200004091906200036b565b805f73ffffffffffffffffffffffffffffffffffffffff168173ffffffffffffffffffffffffffffffffffffffff1603620000b4575f6040517f1e4fbdf7000000000000000000000000000000000000000000000000000000008152600401620000ab9190620003ac565b60405180910390fd5b620000c581620000de60201b60201c565b50620000d7816200019f60201b60201c565b50620003c7565b5f805f9054906101000a900473ffffffffffffffffffffffffffffffffffffffff169050815f806101000a81548173ffffffffffffffffffffffffffffffffffffffff021916908373ffffffffffffffffffffffffffffffffffffffff1602179055508173ffffffffffffffffffffffffffffffffffffffff168173ffffffffffffffffffffffffffffffffffffffff167f8be0079c531659141344cd1fd0a4f28419497f9722a3daafe3b4186f6b6457e060405160405180910390a35050565b620001af6200023660201b60201c565b5f73ffffffffffffffffffffffffffffffffffffffff168173ffffffffffffffffffffffffffffffffffffffff160362000222575f6040517f1e4fbdf7000000000000000000000000000000000000000000000000000000008152600401620002199190620003ac565b60405180910390fd5b6200023381620000de60201b60201c565b50565b62000246620002d860201b60201c565b73ffffffffffffffffffffffffffffffffffffffff166200026c620002df60201b60201c565b73ffffffffffffffffffffffffffffffffffffffff1614620002d65762000298620002d860201b60201c565b6040517f118cdaa7000000000000000000000000000000000000000000000000000000008152600401620002cd9190620003ac565b60405180910390fd5b565b5f33905090565b5f805f9054906101000a900473ffffffffffffffffffffffffffffffffffffffff16905090565b5f80fd5b5f73ffffffffffffffffffffffffffffffffffffffff82169050919050565b5f62000335826200030a565b9050919050565b620003478162000329565b811462000352575f80fd5b50565b5f8151905062000365816200033c565b92915050565b5f6020828403121562000383576200038262000306565b5b5f620003928482850162000355565b91505092915050565b620003a68162000329565b82525050565b5f602082019050620003c15f8301846200039b565b92915050565b610bdf80620003d55f395ff3fe608060405234801561000f575f80fd5b50600436106100f3575f3560e01c80637b7b7d39116100955780639cd2e084116100645780639cd2e084146102855780639ef3a261146102b5578063bf9966f8146102d1578063f2fde38b14610301576100f3565b80637b7b7d39146101e75780637cd4c38d14610205578063874376bb146102355780638da5cb5b14610267576100f3565b806345e1d960116100d157806345e1d960146101735780635dd3b85b14610191578063703b2429146101c1578063715018a6146101dd576100f3565b80631052311c146100f757806327d359b7146101275780632bcf161c14610143575b5f80fd5b610111600480360381019061010c91906109d6565b61031d565b60405161011e9190610a19565b60405180910390f35b610141600480360381019061013c9190610a32565b610332565b005b61015d600480360381019061015891906109d6565b610560565b60405161016a9190610a19565b60405180910390f35b61017b6105a6565b6040516101889190610a19565b60405180910390f35b6101ab60048036038101906101a691906109d6565b6105ac565b6040516101b89190610a19565b60405180910390f35b6101db60048036038101906101d69190610a9a565b6105f2565b005b6101e5610604565b005b6101ef610617565b6040516101fc9190610a19565b60405180910390f35b61021f600480360381019061021a91906109d6565b61061d565b60405161022c9190610a19565b60405180910390f35b61024f600480360381019061024a91906109d6565b610632565b60405161025e93929190610ac5565b60405180910390f35b61026f6106fc565b60405161027c9190610b09565b60405180910390f35b61029f600480360381019061029a91906109d6565b610723565b6040516102ac9190610a19565b60405180910390f35b6102cf60048036038101906102ca9190610a9a565b610738565b005b6102eb60048036038101906102e691906109d6565b61074a565b6040516102f89190610a19565b60405180910390f35b61031b600480360381019061031691906109d6565b610790565b005b6002602052805f5260405f205f915090505481565b61033a610814565b61038a6001805f8473ffffffffffffffffffffffffffffffffffffffff1673ffffffffffffffffffffffffffffffffffffffff1681526020019081526020015f205461089b90919063ffffffff16565b60015f8373ffffffffffffffffffffffffffffffffffffffff1673ffffffffffffffffffffffffffffffffffffffff1681526020019081526020015f208190555061041d60055460025f8473ffffffffffffffffffffffffffffffffffffffff1673ffffffffffffffffffffffffffffffffffffffff1681526020019081526020015f205461089b90919063ffffffff16565b60025f8373ffffffffffffffffffffffffffffffffffffffff1673ffffffffffffffffffffffffffffffffffffffff1681526020019081526020015f20819055506104b060045460035f8473ffffffffffffffffffffffffffffffffffffffff1673ffffffffffffffffffffffffffffffffffffffff1681526020019081526020015f205461089b90919063ffffffff16565b60035f8373ffffffffffffffffffffffffffffffffffffffff1673ffffffffffffffffffffffffffffffffffffffff1681526020019081526020015f20819055508073ffffffffffffffffffffffffffffffffffffffff168273ffffffffffffffffffffffffffffffffffffffff167f07556b09b2561c77a746318dc6feb0cca9bb60768590c2e78130e7863746de29600454600554604051610554929190610b22565b60405180910390a35050565b5f60025f8373ffffffffffffffffffffffffffffffffffffffff1673ffffffffffffffffffffffffffffffffffffffff1681526020019081526020015f20549050919050565b60055481565b5f60035f8373ffffffffffffffffffffffffffffffffffffffff1673ffffffffffffffffffffffffffffffffffffffff1681526020019081526020015f20549050919050565b6105fa610814565b8060048190555050565b61060c610814565b6106155f6108b0565b565b60045481565b6003602052805f5260405f205f915090505481565b5f805f60015f8573ffffffffffffffffffffffffffffffffffffffff1673ffffffffffffffffffffffffffffffffffffffff1681526020019081526020015f2054925060025f8573ffffffffffffffffffffffffffffffffffffffff1673ffffffffffffffffffffffffffffffffffffffff1681526020019081526020015f2054915060035f8573ffffffffffffffffffffffffffffffffffffffff1673ffffffffffffffffffffffffffffffffffffffff1681526020019081526020015f205490509193909250565b5f805f9054906101000a900473ffffffffffffffffffffffffffffffffffffffff16905090565b6001602052805f5260405f205f915090505481565b610740610814565b8060058190555050565b5f60015f8373ffffffffffffffffffffffffffffffffffffffff1673ffffffffffffffffffffffffffffffffffffffff1681526020019081526020015f20549050919050565b610798610814565b5f73ffffffffffffffffffffffffffffffffffffffff168173ffffffffffffffffffffffffffffffffffffffff1603610808575f6040517f1e4fbdf70000000000000000000000000000000000000000000000000000000081526004016107ff9190610b09565b60405180910390fd5b610811816108b0565b50565b61081c610971565b73ffffffffffffffffffffffffffffffffffffffff1661083a6106fc565b73ffffffffffffffffffffffffffffffffffffffff16146108995761085d610971565b6040517f118cdaa70000000000000000000000000000000000000000000000000000000081526004016108909190610b09565b60405180910390fd5b565b5f81836108a89190610b76565b905092915050565b5f805f9054906101000a900473ffffffffffffffffffffffffffffffffffffffff169050815f806101000a81548173ffffffffffffffffffffffffffffffffffffffff021916908373ffffffffffffffffffffffffffffffffffffffff1602179055508173ffffffffffffffffffffffffffffffffffffffff168173ffffffffffffffffffffffffffffffffffffffff167f8be0079c531659141344cd1fd0a4f28419497f9722a3daafe3b4186f6b6457e060405160405180910390a35050565b5f33905090565b5f80fd5b5f73ffffffffffffffffffffffffffffffffffffffff82169050919050565b5f6109a58261097c565b9050919050565b6109b58161099b565b81146109bf575f80fd5b50565b5f813590506109d0816109ac565b92915050565b5f602082840312156109eb576109ea610978565b5b5f6109f8848285016109c2565b91505092915050565b5f819050919050565b610a1381610a01565b82525050565b5f602082019050610a2c5f830184610a0a565b92915050565b5f8060408385031215610a4857610a47610978565b5b5f610a55858286016109c2565b9250506020610a66858286016109c2565b9150509250929050565b610a7981610a01565b8114610a83575f80fd5b50565b5f81359050610a9481610a70565b92915050565b5f60208284031215610aaf57610aae610978565b5b5f610abc84828501610a86565b91505092915050565b5f606082019050610ad85f830186610a0a565b610ae56020830185610a0a565b610af26040830184610a0a565b949350505050565b610b038161099b565b82525050565b5f602082019050610b1c5f830184610afa565b92915050565b5f604082019050610b355f830185610a0a565b610b426020830184610a0a565b9392505050565b7f4e487b71000000000000000000000000000000000000000000000000000000005f52601160045260245ffd5b5f610b8082610a01565b9150610b8b83610a01565b9250828201905080821115610ba357610ba2610b49565b5b9291505056fea2646970667358221220df31b1c3005189a4876fde065a074e06e6b27a4bf712c2d20c103cb4e447467564736f6c63430008180033",
					"opcodes": "PUSH1 0x80 PUSH1 0x40 MSTORE PUSH1 0xA PUSH1 0x4 SSTORE PUSH1 0x64 PUSH1 0x5 SSTORE CALLVALUE DUP1 ISZERO PUSH3 0x1A JUMPI PUSH0 DUP1 REVERT JUMPDEST POP PUSH1 0x40 MLOAD PUSH3 0xFB4 CODESIZE SUB DUP1 PUSH3 0xFB4 DUP4 CODECOPY DUP2 DUP2 ADD PUSH1 0x40 MSTORE DUP2 ADD SWAP1 PUSH3 0x40 SWAP2 SWAP1 PUSH3 0x36B JUMP JUMPDEST DUP1 PUSH0 PUSH20 0xFFFFFFFFFFFFFFFFFFFFFFFFFFFFFFFFFFFFFFFF AND DUP2 PUSH20 0xFFFFFFFFFFFFFFFFFFFFFFFFFFFFFFFFFFFFFFFF AND SUB PUSH3 0xB4 JUMPI PUSH0 PUSH1 0x40 MLOAD PUSH32 0x1E4FBDF700000000000000000000000000000000000000000000000000000000 DUP2 MSTORE PUSH1 0x4 ADD PUSH3 0xAB SWAP2 SWAP1 PUSH3 0x3AC JUMP JUMPDEST PUSH1 0x40 MLOAD DUP1 SWAP2 SUB SWAP1 REVERT JUMPDEST PUSH3 0xC5 DUP2 PUSH3 0xDE PUSH1 0x20 SHL PUSH1 0x20 SHR JUMP JUMPDEST POP PUSH3 0xD7 DUP2 PUSH3 0x19F PUSH1 0x20 SHL PUSH1 0x20 SHR JUMP JUMPDEST POP PUSH3 0x3C7 JUMP JUMPDEST PUSH0 DUP1 PUSH0 SWAP1 SLOAD SWAP1 PUSH2 0x100 EXP SWAP1 DIV PUSH20 0xFFFFFFFFFFFFFFFFFFFFFFFFFFFFFFFFFFFFFFFF AND SWAP1 POP DUP2 PUSH0 DUP1 PUSH2 0x100 EXP DUP2 SLOAD DUP2 PUSH20 0xFFFFFFFFFFFFFFFFFFFFFFFFFFFFFFFFFFFFFFFF MUL NOT AND SWAP1 DUP4 PUSH20 0xFFFFFFFFFFFFFFFFFFFFFFFFFFFFFFFFFFFFFFFF AND MUL OR SWAP1 SSTORE POP DUP2 PUSH20 0xFFFFFFFFFFFFFFFFFFFFFFFFFFFFFFFFFFFFFFFF AND DUP2 PUSH20 0xFFFFFFFFFFFFFFFFFFFFFFFFFFFFFFFFFFFFFFFF AND PUSH32 0x8BE0079C531659141344CD1FD0A4F28419497F9722A3DAAFE3B4186F6B6457E0 PUSH1 0x40 MLOAD PUSH1 0x40 MLOAD DUP1 SWAP2 SUB SWAP1 LOG3 POP POP JUMP JUMPDEST PUSH3 0x1AF PUSH3 0x236 PUSH1 0x20 SHL PUSH1 0x20 SHR JUMP JUMPDEST PUSH0 PUSH20 0xFFFFFFFFFFFFFFFFFFFFFFFFFFFFFFFFFFFFFFFF AND DUP2 PUSH20 0xFFFFFFFFFFFFFFFFFFFFFFFFFFFFFFFFFFFFFFFF AND SUB PUSH3 0x222 JUMPI PUSH0 PUSH1 0x40 MLOAD PUSH32 0x1E4FBDF700000000000000000000000000000000000000000000000000000000 DUP2 MSTORE PUSH1 0x4 ADD PUSH3 0x219 SWAP2 SWAP1 PUSH3 0x3AC JUMP JUMPDEST PUSH1 0x40 MLOAD DUP1 SWAP2 SUB SWAP1 REVERT JUMPDEST PUSH3 0x233 DUP2 PUSH3 0xDE PUSH1 0x20 SHL PUSH1 0x20 SHR JUMP JUMPDEST POP JUMP JUMPDEST PUSH3 0x246 PUSH3 0x2D8 PUSH1 0x20 SHL PUSH1 0x20 SHR JUMP JUMPDEST PUSH20 0xFFFFFFFFFFFFFFFFFFFFFFFFFFFFFFFFFFFFFFFF AND PUSH3 0x26C PUSH3 0x2DF PUSH1 0x20 SHL PUSH1 0x20 SHR JUMP JUMPDEST PUSH20 0xFFFFFFFFFFFFFFFFFFFFFFFFFFFFFFFFFFFFFFFF AND EQ PUSH3 0x2D6 JUMPI PUSH3 0x298 PUSH3 0x2D8 PUSH1 0x20 SHL PUSH1 0x20 SHR JUMP JUMPDEST PUSH1 0x40 MLOAD PUSH32 0x118CDAA700000000000000000000000000000000000000000000000000000000 DUP2 MSTORE PUSH1 0x4 ADD PUSH3 0x2CD SWAP2 SWAP1 PUSH3 0x3AC JUMP JUMPDEST PUSH1 0x40 MLOAD DUP1 SWAP2 SUB SWAP1 REVERT JUMPDEST JUMP JUMPDEST PUSH0 CALLER SWAP1 POP SWAP1 JUMP JUMPDEST PUSH0 DUP1 PUSH0 SWAP1 SLOAD SWAP1 PUSH2 0x100 EXP SWAP1 DIV PUSH20 0xFFFFFFFFFFFFFFFFFFFFFFFFFFFFFFFFFFFFFFFF AND SWAP1 POP SWAP1 JUMP JUMPDEST PUSH0 DUP1 REVERT JUMPDEST PUSH0 PUSH20 0xFFFFFFFFFFFFFFFFFFFFFFFFFFFFFFFFFFFFFFFF DUP3 AND SWAP1 POP SWAP2 SWAP1 POP JUMP JUMPDEST PUSH0 PUSH3 0x335 DUP3 PUSH3 0x30A JUMP JUMPDEST SWAP1 POP SWAP2 SWAP1 POP JUMP JUMPDEST PUSH3 0x347 DUP2 PUSH3 0x329 JUMP JUMPDEST DUP2 EQ PUSH3 0x352 JUMPI PUSH0 DUP1 REVERT JUMPDEST POP JUMP JUMPDEST PUSH0 DUP2 MLOAD SWAP1 POP PUSH3 0x365 DUP2 PUSH3 0x33C JUMP JUMPDEST SWAP3 SWAP2 POP POP JUMP JUMPDEST PUSH0 PUSH1 0x20 DUP3 DUP5 SUB SLT ISZERO PUSH3 0x383 JUMPI PUSH3 0x382 PUSH3 0x306 JUMP JUMPDEST JUMPDEST PUSH0 PUSH3 0x392 DUP5 DUP3 DUP6 ADD PUSH3 0x355 JUMP JUMPDEST SWAP2 POP POP SWAP3 SWAP2 POP POP JUMP JUMPDEST PUSH3 0x3A6 DUP2 PUSH3 0x329 JUMP JUMPDEST DUP3 MSTORE POP POP JUMP JUMPDEST PUSH0 PUSH1 0x20 DUP3 ADD SWAP1 POP PUSH3 0x3C1 PUSH0 DUP4 ADD DUP5 PUSH3 0x39B JUMP JUMPDEST SWAP3 SWAP2 POP POP JUMP JUMPDEST PUSH2 0xBDF DUP1 PUSH3 0x3D5 PUSH0 CODECOPY PUSH0 RETURN INVALID PUSH1 0x80 PUSH1 0x40 MSTORE CALLVALUE DUP1 ISZERO PUSH2 0xF JUMPI PUSH0 DUP1 REVERT JUMPDEST POP PUSH1 0x4 CALLDATASIZE LT PUSH2 0xF3 JUMPI PUSH0 CALLDATALOAD PUSH1 0xE0 SHR DUP1 PUSH4 0x7B7B7D39 GT PUSH2 0x95 JUMPI DUP1 PUSH4 0x9CD2E084 GT PUSH2 0x64 JUMPI DUP1 PUSH4 0x9CD2E084 EQ PUSH2 0x285 JUMPI DUP1 PUSH4 0x9EF3A261 EQ PUSH2 0x2B5 JUMPI DUP1 PUSH4 0xBF9966F8 EQ PUSH2 0x2D1 JUMPI DUP1 PUSH4 0xF2FDE38B EQ PUSH2 0x301 JUMPI PUSH2 0xF3 JUMP JUMPDEST DUP1 PUSH4 0x7B7B7D39 EQ PUSH2 0x1E7 JUMPI DUP1 PUSH4 0x7CD4C38D EQ PUSH2 0x205 JUMPI DUP1 PUSH4 0x874376BB EQ PUSH2 0x235 JUMPI DUP1 PUSH4 0x8DA5CB5B EQ PUSH2 0x267 JUMPI PUSH2 0xF3 JUMP JUMPDEST DUP1 PUSH4 0x45E1D960 GT PUSH2 0xD1 JUMPI DUP1 PUSH4 0x45E1D960 EQ PUSH2 0x173 JUMPI DUP1 PUSH4 0x5DD3B85B EQ PUSH2 0x191 JUMPI DUP1 PUSH4 0x703B2429 EQ PUSH2 0x1C1 JUMPI DUP1 PUSH4 0x715018A6 EQ PUSH2 0x1DD JUMPI PUSH2 0xF3 JUMP JUMPDEST DUP1 PUSH4 0x1052311C EQ PUSH2 0xF7 JUMPI DUP1 PUSH4 0x27D359B7 EQ PUSH2 0x127 JUMPI DUP1 PUSH4 0x2BCF161C EQ PUSH2 0x143 JUMPI JUMPDEST PUSH0 DUP1 REVERT JUMPDEST PUSH2 0x111 PUSH1 0x4 DUP1 CALLDATASIZE SUB DUP2 ADD SWAP1 PUSH2 0x10C SWAP2 SWAP1 PUSH2 0x9D6 JUMP JUMPDEST PUSH2 0x31D JUMP JUMPDEST PUSH1 0x40 MLOAD PUSH2 0x11E SWAP2 SWAP1 PUSH2 0xA19 JUMP JUMPDEST PUSH1 0x40 MLOAD DUP1 SWAP2 SUB SWAP1 RETURN JUMPDEST PUSH2 0x141 PUSH1 0x4 DUP1 CALLDATASIZE SUB DUP2 ADD SWAP1 PUSH2 0x13C SWAP2 SWAP1 PUSH2 0xA32 JUMP JUMPDEST PUSH2 0x332 JUMP JUMPDEST STOP JUMPDEST PUSH2 0x15D PUSH1 0x4 DUP1 CALLDATASIZE SUB DUP2 ADD SWAP1 PUSH2 0x158 SWAP2 SWAP1 PUSH2 0x9D6 JUMP JUMPDEST PUSH2 0x560 JUMP JUMPDEST PUSH1 0x40 MLOAD PUSH2 0x16A SWAP2 SWAP1 PUSH2 0xA19 JUMP JUMPDEST PUSH1 0x40 MLOAD DUP1 SWAP2 SUB SWAP1 RETURN JUMPDEST PUSH2 0x17B PUSH2 0x5A6 JUMP JUMPDEST PUSH1 0x40 MLOAD PUSH2 0x188 SWAP2 SWAP1 PUSH2 0xA19 JUMP JUMPDEST PUSH1 0x40 MLOAD DUP1 SWAP2 SUB SWAP1 RETURN JUMPDEST PUSH2 0x1AB PUSH1 0x4 DUP1 CALLDATASIZE SUB DUP2 ADD SWAP1 PUSH2 0x1A6 SWAP2 SWAP1 PUSH2 0x9D6 JUMP JUMPDEST PUSH2 0x5AC JUMP JUMPDEST PUSH1 0x40 MLOAD PUSH2 0x1B8 SWAP2 SWAP1 PUSH2 0xA19 JUMP JUMPDEST PUSH1 0x40 MLOAD DUP1 SWAP2 SUB SWAP1 RETURN JUMPDEST PUSH2 0x1DB PUSH1 0x4 DUP1 CALLDATASIZE SUB DUP2 ADD SWAP1 PUSH2 0x1D6 SWAP2 SWAP1 PUSH2 0xA9A JUMP JUMPDEST PUSH2 0x5F2 JUMP JUMPDEST STOP JUMPDEST PUSH2 0x1E5 PUSH2 0x604 JUMP JUMPDEST STOP JUMPDEST PUSH2 0x1EF PUSH2 0x617 JUMP JUMPDEST PUSH1 0x40 MLOAD PUSH2 0x1FC SWAP2 SWAP1 PUSH2 0xA19 JUMP JUMPDEST PUSH1 0x40 MLOAD DUP1 SWAP2 SUB SWAP1 RETURN JUMPDEST PUSH2 0x21F PUSH1 0x4 DUP1 CALLDATASIZE SUB DUP2 ADD SWAP1 PUSH2 0x21A SWAP2 SWAP1 PUSH2 0x9D6 JUMP JUMPDEST PUSH2 0x61D JUMP JUMPDEST PUSH1 0x40 MLOAD PUSH2 0x22C SWAP2 SWAP1 PUSH2 0xA19 JUMP JUMPDEST PUSH1 0x40 MLOAD DUP1 SWAP2 SUB SWAP1 RETURN JUMPDEST PUSH2 0x24F PUSH1 0x4 DUP1 CALLDATASIZE SUB DUP2 ADD SWAP1 PUSH2 0x24A SWAP2 SWAP1 PUSH2 0x9D6 JUMP JUMPDEST PUSH2 0x632 JUMP JUMPDEST PUSH1 0x40 MLOAD PUSH2 0x25E SWAP4 SWAP3 SWAP2 SWAP1 PUSH2 0xAC5 JUMP JUMPDEST PUSH1 0x40 MLOAD DUP1 SWAP2 SUB SWAP1 RETURN JUMPDEST PUSH2 0x26F PUSH2 0x6FC JUMP JUMPDEST PUSH1 0x40 MLOAD PUSH2 0x27C SWAP2 SWAP1 PUSH2 0xB09 JUMP JUMPDEST PUSH1 0x40 MLOAD DUP1 SWAP2 SUB SWAP1 RETURN JUMPDEST PUSH2 0x29F PUSH1 0x4 DUP1 CALLDATASIZE SUB DUP2 ADD SWAP1 PUSH2 0x29A SWAP2 SWAP1 PUSH2 0x9D6 JUMP JUMPDEST PUSH2 0x723 JUMP JUMPDEST PUSH1 0x40 MLOAD PUSH2 0x2AC SWAP2 SWAP1 PUSH2 0xA19 JUMP JUMPDEST PUSH1 0x40 MLOAD DUP1 SWAP2 SUB SWAP1 RETURN JUMPDEST PUSH2 0x2CF PUSH1 0x4 DUP1 CALLDATASIZE SUB DUP2 ADD SWAP1 PUSH2 0x2CA SWAP2 SWAP1 PUSH2 0xA9A JUMP JUMPDEST PUSH2 0x738 JUMP JUMPDEST STOP JUMPDEST PUSH2 0x2EB PUSH1 0x4 DUP1 CALLDATASIZE SUB DUP2 ADD SWAP1 PUSH2 0x2E6 SWAP2 SWAP1 PUSH2 0x9D6 JUMP JUMPDEST PUSH2 0x74A JUMP JUMPDEST PUSH1 0x40 MLOAD PUSH2 0x2F8 SWAP2 SWAP1 PUSH2 0xA19 JUMP JUMPDEST PUSH1 0x40 MLOAD DUP1 SWAP2 SUB SWAP1 RETURN JUMPDEST PUSH2 0x31B PUSH1 0x4 DUP1 CALLDATASIZE SUB DUP2 ADD SWAP1 PUSH2 0x316 SWAP2 SWAP1 PUSH2 0x9D6 JUMP JUMPDEST PUSH2 0x790 JUMP JUMPDEST STOP JUMPDEST PUSH1 0x2 PUSH1 0x20 MSTORE DUP1 PUSH0 MSTORE PUSH1 0x40 PUSH0 KECCAK256 PUSH0 SWAP2 POP SWAP1 POP SLOAD DUP2 JUMP JUMPDEST PUSH2 0x33A PUSH2 0x814 JUMP JUMPDEST PUSH2 0x38A PUSH1 0x1 DUP1 PUSH0 DUP5 PUSH20 0xFFFFFFFFFFFFFFFFFFFFFFFFFFFFFFFFFFFFFFFF AND PUSH20 0xFFFFFFFFFFFFFFFFFFFFFFFFFFFFFFFFFFFFFFFF AND DUP2 MSTORE PUSH1 0x20 ADD SWAP1 DUP2 MSTORE PUSH1 0x20 ADD PUSH0 KECCAK256 SLOAD PUSH2 0x89B SWAP1 SWAP2 SWAP1 PUSH4 0xFFFFFFFF AND JUMP JUMPDEST PUSH1 0x1 PUSH0 DUP4 PUSH20 0xFFFFFFFFFFFFFFFFFFFFFFFFFFFFFFFFFFFFFFFF AND PUSH20 0xFFFFFFFFFFFFFFFFFFFFFFFFFFFFFFFFFFFFFFFF AND DUP2 MSTORE PUSH1 0x20 ADD SWAP1 DUP2 MSTORE PUSH1 0x20 ADD PUSH0 KECCAK256 DUP2 SWAP1 SSTORE POP PUSH2 0x41D PUSH1 0x5 SLOAD PUSH1 0x2 PUSH0 DUP5 PUSH20 0xFFFFFFFFFFFFFFFFFFFFFFFFFFFFFFFFFFFFFFFF AND PUSH20 0xFFFFFFFFFFFFFFFFFFFFFFFFFFFFFFFFFFFFFFFF AND DUP2 MSTORE PUSH1 0x20 ADD SWAP1 DUP2 MSTORE PUSH1 0x20 ADD PUSH0 KECCAK256 SLOAD PUSH2 0x89B SWAP1 SWAP2 SWAP1 PUSH4 0xFFFFFFFF AND JUMP JUMPDEST PUSH1 0x2 PUSH0 DUP4 PUSH20 0xFFFFFFFFFFFFFFFFFFFFFFFFFFFFFFFFFFFFFFFF AND PUSH20 0xFFFFFFFFFFFFFFFFFFFFFFFFFFFFFFFFFFFFFFFF AND DUP2 MSTORE PUSH1 0x20 ADD SWAP1 DUP2 MSTORE PUSH1 0x20 ADD PUSH0 KECCAK256 DUP2 SWAP1 SSTORE POP PUSH2 0x4B0 PUSH1 0x4 SLOAD PUSH1 0x3 PUSH0 DUP5 PUSH20 0xFFFFFFFFFFFFFFFFFFFFFFFFFFFFFFFFFFFFFFFF AND PUSH20 0xFFFFFFFFFFFFFFFFFFFFFFFFFFFFFFFFFFFFFFFF AND DUP2 MSTORE PUSH1 0x20 ADD SWAP1 DUP2 MSTORE PUSH1 0x20 ADD PUSH0 KECCAK256 SLOAD PUSH2 0x89B SWAP1 SWAP2 SWAP1 PUSH4 0xFFFFFFFF AND JUMP JUMPDEST PUSH1 0x3 PUSH0 DUP4 PUSH20 0xFFFFFFFFFFFFFFFFFFFFFFFFFFFFFFFFFFFFFFFF AND PUSH20 0xFFFFFFFFFFFFFFFFFFFFFFFFFFFFFFFFFFFFFFFF AND DUP2 MSTORE PUSH1 0x20 ADD SWAP1 DUP2 MSTORE PUSH1 0x20 ADD PUSH0 KECCAK256 DUP2 SWAP1 SSTORE POP DUP1 PUSH20 0xFFFFFFFFFFFFFFFFFFFFFFFFFFFFFFFFFFFFFFFF AND DUP3 PUSH20 0xFFFFFFFFFFFFFFFFFFFFFFFFFFFFFFFFFFFFFFFF AND PUSH32 0x7556B09B2561C77A746318DC6FEB0CCA9BB60768590C2E78130E7863746DE29 PUSH1 0x4 SLOAD PUSH1 0x5 SLOAD PUSH1 0x40 MLOAD PUSH2 0x554 SWAP3 SWAP2 SWAP1 PUSH2 0xB22 JUMP JUMPDEST PUSH1 0x40 MLOAD DUP1 SWAP2 SUB SWAP1 LOG3 POP POP JUMP JUMPDEST PUSH0 PUSH1 0x2 PUSH0 DUP4 PUSH20 0xFFFFFFFFFFFFFFFFFFFFFFFFFFFFFFFFFFFFFFFF AND PUSH20 0xFFFFFFFFFFFFFFFFFFFFFFFFFFFFFFFFFFFFFFFF AND DUP2 MSTORE PUSH1 0x20 ADD SWAP1 DUP2 MSTORE PUSH1 0x20 ADD PUSH0 KECCAK256 SLOAD SWAP1 POP SWAP2 SWAP1 POP JUMP JUMPDEST PUSH1 0x5 SLOAD DUP2 JUMP JUMPDEST PUSH0 PUSH1 0x3 PUSH0 DUP4 PUSH20 0xFFFFFFFFFFFFFFFFFFFFFFFFFFFFFFFFFFFFFFFF AND PUSH20 0xFFFFFFFFFFFFFFFFFFFFFFFFFFFFFFFFFFFFFFFF AND DUP2 MSTORE PUSH1 0x20 ADD SWAP1 DUP2 MSTORE PUSH1 0x20 ADD PUSH0 KECCAK256 SLOAD SWAP1 POP SWAP2 SWAP1 POP JUMP JUMPDEST PUSH2 0x5FA PUSH2 0x814 JUMP JUMPDEST DUP1 PUSH1 0x4 DUP2 SWAP1 SSTORE POP POP JUMP JUMPDEST PUSH2 0x60C PUSH2 0x814 JUMP JUMPDEST PUSH2 0x615 PUSH0 PUSH2 0x8B0 JUMP JUMPDEST JUMP JUMPDEST PUSH1 0x4 SLOAD DUP2 JUMP JUMPDEST PUSH1 0x3 PUSH1 0x20 MSTORE DUP1 PUSH0 MSTORE PUSH1 0x40 PUSH0 KECCAK256 PUSH0 SWAP2 POP SWAP1 POP SLOAD DUP2 JUMP JUMPDEST PUSH0 DUP1 PUSH0 PUSH1 0x1 PUSH0 DUP6 PUSH20 0xFFFFFFFFFFFFFFFFFFFFFFFFFFFFFFFFFFFFFFFF AND PUSH20 0xFFFFFFFFFFFFFFFFFFFFFFFFFFFFFFFFFFFFFFFF AND DUP2 MSTORE PUSH1 0x20 ADD SWAP1 DUP2 MSTORE PUSH1 0x20 ADD PUSH0 KECCAK256 SLOAD SWAP3 POP PUSH1 0x2 PUSH0 DUP6 PUSH20 0xFFFFFFFFFFFFFFFFFFFFFFFFFFFFFFFFFFFFFFFF AND PUSH20 0xFFFFFFFFFFFFFFFFFFFFFFFFFFFFFFFFFFFFFFFF AND DUP2 MSTORE PUSH1 0x20 ADD SWAP1 DUP2 MSTORE PUSH1 0x20 ADD PUSH0 KECCAK256 SLOAD SWAP2 POP PUSH1 0x3 PUSH0 DUP6 PUSH20 0xFFFFFFFFFFFFFFFFFFFFFFFFFFFFFFFFFFFFFFFF AND PUSH20 0xFFFFFFFFFFFFFFFFFFFFFFFFFFFFFFFFFFFFFFFF AND DUP2 MSTORE PUSH1 0x20 ADD SWAP1 DUP2 MSTORE PUSH1 0x20 ADD PUSH0 KECCAK256 SLOAD SWAP1 POP SWAP2 SWAP4 SWAP1 SWAP3 POP JUMP JUMPDEST PUSH0 DUP1 PUSH0 SWAP1 SLOAD SWAP1 PUSH2 0x100 EXP SWAP1 DIV PUSH20 0xFFFFFFFFFFFFFFFFFFFFFFFFFFFFFFFFFFFFFFFF AND SWAP1 POP SWAP1 JUMP JUMPDEST PUSH1 0x1 PUSH1 0x20 MSTORE DUP1 PUSH0 MSTORE PUSH1 0x40 PUSH0 KECCAK256 PUSH0 SWAP2 POP SWAP1 POP SLOAD DUP2 JUMP JUMPDEST PUSH2 0x740 PUSH2 0x814 JUMP JUMPDEST DUP1 PUSH1 0x5 DUP2 SWAP1 SSTORE POP POP JUMP JUMPDEST PUSH0 PUSH1 0x1 PUSH0 DUP4 PUSH20 0xFFFFFFFFFFFFFFFFFFFFFFFFFFFFFFFFFFFFFFFF AND PUSH20 0xFFFFFFFFFFFFFFFFFFFFFFFFFFFFFFFFFFFFFFFF AND DUP2 MSTORE PUSH1 0x20 ADD SWAP1 DUP2 MSTORE PUSH1 0x20 ADD PUSH0 KECCAK256 SLOAD SWAP1 POP SWAP2 SWAP1 POP JUMP JUMPDEST PUSH2 0x798 PUSH2 0x814 JUMP JUMPDEST PUSH0 PUSH20 0xFFFFFFFFFFFFFFFFFFFFFFFFFFFFFFFFFFFFFFFF AND DUP2 PUSH20 0xFFFFFFFFFFFFFFFFFFFFFFFFFFFFFFFFFFFFFFFF AND SUB PUSH2 0x808 JUMPI PUSH0 PUSH1 0x40 MLOAD PUSH32 0x1E4FBDF700000000000000000000000000000000000000000000000000000000 DUP2 MSTORE PUSH1 0x4 ADD PUSH2 0x7FF SWAP2 SWAP1 PUSH2 0xB09 JUMP JUMPDEST PUSH1 0x40 MLOAD DUP1 SWAP2 SUB SWAP1 REVERT JUMPDEST PUSH2 0x811 DUP2 PUSH2 0x8B0 JUMP JUMPDEST POP JUMP JUMPDEST PUSH2 0x81C PUSH2 0x971 JUMP JUMPDEST PUSH20 0xFFFFFFFFFFFFFFFFFFFFFFFFFFFFFFFFFFFFFFFF AND PUSH2 0x83A PUSH2 0x6FC JUMP JUMPDEST PUSH20 0xFFFFFFFFFFFFFFFFFFFFFFFFFFFFFFFFFFFFFFFF AND EQ PUSH2 0x899 JUMPI PUSH2 0x85D PUSH2 0x971 JUMP JUMPDEST PUSH1 0x40 MLOAD PUSH32 0x118CDAA700000000000000000000000000000000000000000000000000000000 DUP2 MSTORE PUSH1 0x4 ADD PUSH2 0x890 SWAP2 SWAP1 PUSH2 0xB09 JUMP JUMPDEST PUSH1 0x40 MLOAD DUP1 SWAP2 SUB SWAP1 REVERT JUMPDEST JUMP JUMPDEST PUSH0 DUP2 DUP4 PUSH2 0x8A8 SWAP2 SWAP1 PUSH2 0xB76 JUMP JUMPDEST SWAP1 POP SWAP3 SWAP2 POP POP JUMP JUMPDEST PUSH0 DUP1 PUSH0 SWAP1 SLOAD SWAP1 PUSH2 0x100 EXP SWAP1 DIV PUSH20 0xFFFFFFFFFFFFFFFFFFFFFFFFFFFFFFFFFFFFFFFF AND SWAP1 POP DUP2 PUSH0 DUP1 PUSH2 0x100 EXP DUP2 SLOAD DUP2 PUSH20 0xFFFFFFFFFFFFFFFFFFFFFFFFFFFFFFFFFFFFFFFF MUL NOT AND SWAP1 DUP4 PUSH20 0xFFFFFFFFFFFFFFFFFFFFFFFFFFFFFFFFFFFFFFFF AND MUL OR SWAP1 SSTORE POP DUP2 PUSH20 0xFFFFFFFFFFFFFFFFFFFFFFFFFFFFFFFFFFFFFFFF AND DUP2 PUSH20 0xFFFFFFFFFFFFFFFFFFFFFFFFFFFFFFFFFFFFFFFF AND PUSH32 0x8BE0079C531659141344CD1FD0A4F28419497F9722A3DAAFE3B4186F6B6457E0 PUSH1 0x40 MLOAD PUSH1 0x40 MLOAD DUP1 SWAP2 SUB SWAP1 LOG3 POP POP JUMP JUMPDEST PUSH0 CALLER SWAP1 POP SWAP1 JUMP JUMPDEST PUSH0 DUP1 REVERT JUMPDEST PUSH0 PUSH20 0xFFFFFFFFFFFFFFFFFFFFFFFFFFFFFFFFFFFFFFFF DUP3 AND SWAP1 POP SWAP2 SWAP1 POP JUMP JUMPDEST PUSH0 PUSH2 0x9A5 DUP3 PUSH2 0x97C JUMP JUMPDEST SWAP1 POP SWAP2 SWAP1 POP JUMP JUMPDEST PUSH2 0x9B5 DUP2 PUSH2 0x99B JUMP JUMPDEST DUP2 EQ PUSH2 0x9BF JUMPI PUSH0 DUP1 REVERT JUMPDEST POP JUMP JUMPDEST PUSH0 DUP2 CALLDATALOAD SWAP1 POP PUSH2 0x9D0 DUP2 PUSH2 0x9AC JUMP JUMPDEST SWAP3 SWAP2 POP POP JUMP JUMPDEST PUSH0 PUSH1 0x20 DUP3 DUP5 SUB SLT ISZERO PUSH2 0x9EB JUMPI PUSH2 0x9EA PUSH2 0x978 JUMP JUMPDEST JUMPDEST PUSH0 PUSH2 0x9F8 DUP5 DUP3 DUP6 ADD PUSH2 0x9C2 JUMP JUMPDEST SWAP2 POP POP SWAP3 SWAP2 POP POP JUMP JUMPDEST PUSH0 DUP2 SWAP1 POP SWAP2 SWAP1 POP JUMP JUMPDEST PUSH2 0xA13 DUP2 PUSH2 0xA01 JUMP JUMPDEST DUP3 MSTORE POP POP JUMP JUMPDEST PUSH0 PUSH1 0x20 DUP3 ADD SWAP1 POP PUSH2 0xA2C PUSH0 DUP4 ADD DUP5 PUSH2 0xA0A JUMP JUMPDEST SWAP3 SWAP2 POP POP JUMP JUMPDEST PUSH0 DUP1 PUSH1 0x40 DUP4 DUP6 SUB SLT ISZERO PUSH2 0xA48 JUMPI PUSH2 0xA47 PUSH2 0x978 JUMP JUMPDEST JUMPDEST PUSH0 PUSH2 0xA55 DUP6 DUP3 DUP7 ADD PUSH2 0x9C2 JUMP JUMPDEST SWAP3 POP POP PUSH1 0x20 PUSH2 0xA66 DUP6 DUP3 DUP7 ADD PUSH2 0x9C2 JUMP JUMPDEST SWAP2 POP POP SWAP3 POP SWAP3 SWAP1 POP JUMP JUMPDEST PUSH2 0xA79 DUP2 PUSH2 0xA01 JUMP JUMPDEST DUP2 EQ PUSH2 0xA83 JUMPI PUSH0 DUP1 REVERT JUMPDEST POP JUMP JUMPDEST PUSH0 DUP2 CALLDATALOAD SWAP1 POP PUSH2 0xA94 DUP2 PUSH2 0xA70 JUMP JUMPDEST SWAP3 SWAP2 POP POP JUMP JUMPDEST PUSH0 PUSH1 0x20 DUP3 DUP5 SUB SLT ISZERO PUSH2 0xAAF JUMPI PUSH2 0xAAE PUSH2 0x978 JUMP JUMPDEST JUMPDEST PUSH0 PUSH2 0xABC DUP5 DUP3 DUP6 ADD PUSH2 0xA86 JUMP JUMPDEST SWAP2 POP POP SWAP3 SWAP2 POP POP JUMP JUMPDEST PUSH0 PUSH1 0x60 DUP3 ADD SWAP1 POP PUSH2 0xAD8 PUSH0 DUP4 ADD DUP7 PUSH2 0xA0A JUMP JUMPDEST PUSH2 0xAE5 PUSH1 0x20 DUP4 ADD DUP6 PUSH2 0xA0A JUMP JUMPDEST PUSH2 0xAF2 PUSH1 0x40 DUP4 ADD DUP5 PUSH2 0xA0A JUMP JUMPDEST SWAP5 SWAP4 POP POP POP POP JUMP JUMPDEST PUSH2 0xB03 DUP2 PUSH2 0x99B JUMP JUMPDEST DUP3 MSTORE POP POP JUMP JUMPDEST PUSH0 PUSH1 0x20 DUP3 ADD SWAP1 POP PUSH2 0xB1C PUSH0 DUP4 ADD DUP5 PUSH2 0xAFA JUMP JUMPDEST SWAP3 SWAP2 POP POP JUMP JUMPDEST PUSH0 PUSH1 0x40 DUP3 ADD SWAP1 POP PUSH2 0xB35 PUSH0 DUP4 ADD DUP6 PUSH2 0xA0A JUMP JUMPDEST PUSH2 0xB42 PUSH1 0x20 DUP4 ADD DUP5 PUSH2 0xA0A JUMP JUMPDEST SWAP4 SWAP3 POP POP POP JUMP JUMPDEST PUSH32 0x4E487B7100000000000000000000000000000000000000000000000000000000 PUSH0 MSTORE PUSH1 0x11 PUSH1 0x4 MSTORE PUSH1 0x24 PUSH0 REVERT JUMPDEST PUSH0 PUSH2 0xB80 DUP3 PUSH2 0xA01 JUMP JUMPDEST SWAP2 POP PUSH2 0xB8B DUP4 PUSH2 0xA01 JUMP JUMPDEST SWAP3 POP DUP3 DUP3 ADD SWAP1 POP DUP1 DUP3 GT ISZERO PUSH2 0xBA3 JUMPI PUSH2 0xBA2 PUSH2 0xB49 JUMP JUMPDEST JUMPDEST SWAP3 SWAP2 POP POP JUMP INVALID LOG2 PUSH5 0x6970667358 0x22 SLT KECCAK256 0xDF BALANCE 0xB1 0xC3 STOP MLOAD DUP10 LOG4 DUP8 PUSH16 0xDE065A074E06E6B27A4BF712C2D20C10 EXTCODECOPY 0xB4 0xE4 SELFBALANCE CHAINID PUSH22 0x64736F6C634300081800330000000000000000000000 "
				},
				"gasEstimates": {
					"creation": {
						"codeDepositCost": "607800",
						"executionCost": "infinite",
						"totalCost": "infinite"
					},
					"external": {
						"brandCarbonReduction(address)": "2847",
						"brandRecycledCount(address)": "2824",
						"brandTotalRewards(address)": "2826",
						"carbonReductionPerRecycling()": "2448",
						"getRecycledProductCount(address)": "2895",
						"getSustainabilityMetrics(address)": "infinite",
						"getTotalCarbonReduction(address)": "2874",
						"getTotalRewards(address)": "2897",
						"owner()": "2604",
						"recordRecyclingEvent(address,address)": "infinite",
						"renounceOwnership()": "infinite",
						"rewardPerRecycling()": "2448",
						"transferOwnership(address)": "infinite",
						"updateCarbonReductionRate(uint256)": "infinite",
						"updateRewardRate(uint256)": "infinite"
					}
				},
				"methodIdentifiers": {
					"brandCarbonReduction(address)": "7cd4c38d",
					"brandRecycledCount(address)": "9cd2e084",
					"brandTotalRewards(address)": "1052311c",
					"carbonReductionPerRecycling()": "7b7b7d39",
					"getRecycledProductCount(address)": "bf9966f8",
					"getSustainabilityMetrics(address)": "874376bb",
					"getTotalCarbonReduction(address)": "5dd3b85b",
					"getTotalRewards(address)": "2bcf161c",
					"owner()": "8da5cb5b",
					"recordRecyclingEvent(address,address)": "27d359b7",
					"renounceOwnership()": "715018a6",
					"rewardPerRecycling()": "45e1d960",
					"transferOwnership(address)": "f2fde38b",
					"updateCarbonReductionRate(uint256)": "703b2429",
					"updateRewardRate(uint256)": "9ef3a261"
				}
			},
			"storageLayout": {
				"storage": [
					{
						"astId": 8,
						"contract": "Backend/SustainabilityMetrics.sol:SustainabilityMetrics",
						"label": "_owner",
						"offset": 0,
						"slot": "0",
						"type": "t_address"
					},
					{
						"astId": 502,
						"contract": "Backend/SustainabilityMetrics.sol:SustainabilityMetrics",
						"label": "brandRecycledCount",
						"offset": 0,
						"slot": "1",
						"type": "t_mapping(t_address,t_uint256)"
					},
					{
						"astId": 506,
						"contract": "Backend/SustainabilityMetrics.sol:SustainabilityMetrics",
						"label": "brandTotalRewards",
						"offset": 0,
						"slot": "2",
						"type": "t_mapping(t_address,t_uint256)"
					},
					{
						"astId": 510,
						"contract": "Backend/SustainabilityMetrics.sol:SustainabilityMetrics",
						"label": "brandCarbonReduction",
						"offset": 0,
						"slot": "3",
						"type": "t_mapping(t_address,t_uint256)"
					},
					{
						"astId": 523,
						"contract": "Backend/SustainabilityMetrics.sol:SustainabilityMetrics",
						"label": "carbonReductionPerRecycling",
						"offset": 0,
						"slot": "4",
						"type": "t_uint256"
					},
					{
						"astId": 526,
						"contract": "Backend/SustainabilityMetrics.sol:SustainabilityMetrics",
						"label": "rewardPerRecycling",
						"offset": 0,
						"slot": "5",
						"type": "t_uint256"
					}
				],
				"types": {
					"t_address": {
						"encoding": "inplace",
						"label": "address",
						"numberOfBytes": "20"
					},
					"t_mapping(t_address,t_uint256)": {
						"encoding": "mapping",
						"key": "t_address",
						"label": "mapping(address => uint256)",
						"numberOfBytes": "32",
						"value": "t_uint256"
					},
					"t_uint256": {
						"encoding": "inplace",
						"label": "uint256",
						"numberOfBytes": "32"
					}
				}
			},
			"userdoc": {
				"kind": "user",
				"methods": {
					"constructor": {
						"notice": "Constructor to initialize the contract with the reward token and reward rate"
					}
				},
				"version": 1
			}
		}
	}
}