{
	"Backend/MarketplaceContract.sol": {
		"MarketplaceContract": {
			"abi": [
				{
					"inputs": [
						{
							"internalType": "uint256",
							"name": "fee",
							"type": "uint256"
						},
						{
							"internalType": "address",
							"name": "initialOwner",
							"type": "address"
						}
					],
					"stateMutability": "nonpayable",
					"type": "constructor"
				},
				{
					"inputs": [
						{
							"internalType": "address",
							"name": "owner",
							"type": "address"
						}
					],
					"name": "OwnableInvalidOwner",
					"type": "error"
				},
				{
					"inputs": [
						{
							"internalType": "address",
							"name": "account",
							"type": "address"
						}
					],
					"name": "OwnableUnauthorizedAccount",
					"type": "error"
				},
				{
					"anonymous": false,
					"inputs": [
						{
							"indexed": true,
							"internalType": "uint256",
							"name": "tokenId",
							"type": "uint256"
						},
						{
							"indexed": true,
							"internalType": "address",
							"name": "seller",
							"type": "address"
						}
					],
					"name": "ListingCanceled",
					"type": "event"
				},
				{
					"anonymous": false,
					"inputs": [
						{
							"indexed": true,
							"internalType": "address",
							"name": "previousOwner",
							"type": "address"
						},
						{
							"indexed": true,
							"internalType": "address",
							"name": "newOwner",
							"type": "address"
						}
					],
					"name": "OwnershipTransferred",
					"type": "event"
				},
				{
					"anonymous": false,
					"inputs": [
						{
							"indexed": true,
							"internalType": "uint256",
							"name": "tokenId",
							"type": "uint256"
						},
						{
							"indexed": true,
							"internalType": "address",
							"name": "seller",
							"type": "address"
						},
						{
							"indexed": false,
							"internalType": "uint256",
							"name": "price",
							"type": "uint256"
						}
					],
					"name": "ProductListed",
					"type": "event"
				},
				{
					"anonymous": false,
					"inputs": [
						{
							"indexed": true,
							"internalType": "uint256",
							"name": "tokenId",
							"type": "uint256"
						},
						{
							"indexed": true,
							"internalType": "address",
							"name": "seller",
							"type": "address"
						},
						{
							"indexed": true,
							"internalType": "address",
							"name": "buyer",
							"type": "address"
						},
						{
							"indexed": false,
							"internalType": "uint256",
							"name": "price",
							"type": "uint256"
						}
					],
					"name": "ProductSold",
					"type": "event"
				},
				{
					"inputs": [
						{
							"internalType": "uint256",
							"name": "tokenId",
							"type": "uint256"
						}
					],
					"name": "buyProduct",
					"outputs": [],
					"stateMutability": "payable",
					"type": "function"
				},
				{
					"inputs": [
						{
							"internalType": "uint256",
							"name": "tokenId",
							"type": "uint256"
						}
					],
					"name": "cancelListing",
					"outputs": [],
					"stateMutability": "nonpayable",
					"type": "function"
				},
				{
					"inputs": [
						{
							"internalType": "uint256",
							"name": "tokenId",
							"type": "uint256"
						}
					],
					"name": "getListing",
					"outputs": [
						{
							"internalType": "address",
							"name": "seller",
							"type": "address"
						},
						{
							"internalType": "uint256",
							"name": "price",
							"type": "uint256"
						},
						{
							"internalType": "bool",
							"name": "isActive",
							"type": "bool"
						}
					],
					"stateMutability": "view",
					"type": "function"
				},
				{
					"inputs": [
						{
							"internalType": "uint256",
							"name": "tokenId",
							"type": "uint256"
						},
						{
							"internalType": "uint256",
							"name": "price",
							"type": "uint256"
						}
					],
					"name": "listProduct",
					"outputs": [],
					"stateMutability": "nonpayable",
					"type": "function"
				},
				{
					"inputs": [
						{
							"internalType": "uint256",
							"name": "",
							"type": "uint256"
						}
					],
					"name": "listings",
					"outputs": [
						{
							"internalType": "address",
							"name": "seller",
							"type": "address"
						},
						{
							"internalType": "uint256",
							"name": "price",
							"type": "uint256"
						},
						{
							"internalType": "bool",
							"name": "isActive",
							"type": "bool"
						}
					],
					"stateMutability": "view",
					"type": "function"
				},
				{
					"inputs": [],
					"name": "owner",
					"outputs": [
						{
							"internalType": "address",
							"name": "",
							"type": "address"
						}
					],
					"stateMutability": "view",
					"type": "function"
				},
				{
					"inputs": [],
					"name": "platformFeePercent",
					"outputs": [
						{
							"internalType": "uint256",
							"name": "",
							"type": "uint256"
						}
					],
					"stateMutability": "view",
					"type": "function"
				},
				{
					"inputs": [],
					"name": "renounceOwnership",
					"outputs": [],
					"stateMutability": "nonpayable",
					"type": "function"
				},
				{
					"inputs": [
						{
							"internalType": "address",
							"name": "newOwner",
							"type": "address"
						}
					],
					"name": "transferOwnership",
					"outputs": [],
					"stateMutability": "nonpayable",
					"type": "function"
				},
				{
					"inputs": [
						{
							"internalType": "uint256",
							"name": "newFee",
							"type": "uint256"
						}
					],
					"name": "updatePlatformFee",
					"outputs": [],
					"stateMutability": "nonpayable",
					"type": "function"
				}
			],
			"devdoc": {
				"errors": {
					"OwnableInvalidOwner(address)": [
						{
							"details": "The owner is not a valid owner account. (eg. `address(0)`)"
						}
					],
					"OwnableUnauthorizedAccount(address)": [
						{
							"details": "The caller account is not authorized to perform an operation."
						}
					]
				},
				"kind": "dev",
				"methods": {
					"buyProduct(uint256)": {
						"params": {
							"tokenId": "The ID of the product NFT to buy"
						}
					},
					"cancelListing(uint256)": {
						"params": {
							"tokenId": "The ID of the product NFT to cancel the listing"
						}
					},
					"constructor": {
						"params": {
							"fee": "The marketplace fee percentage (e.g., 3 for 3%)",
							"initialOwner": "The address of the initial owner (msg.sender)"
						}
					},
					"getListing(uint256)": {
						"params": {
							"tokenId": "The ID of the product NFT"
						},
						"returns": {
							"isActive": "Whether the product is still listed for sale",
							"price": "The price at which the product is listed",
							"seller": "The address of the seller"
						}
					},
					"listProduct(uint256,uint256)": {
						"params": {
							"price": "The price at which the product is listed",
							"tokenId": "The ID of the product NFT"
						}
					},
					"owner()": {
						"details": "Returns the address of the current owner."
					},
					"renounceOwnership()": {
						"details": "Leaves the contract without owner. It will not be possible to call `onlyOwner` functions. Can only be called by the current owner. NOTE: Renouncing ownership will leave the contract without an owner, thereby disabling any functionality that is only available to the owner."
					},
					"transferOwnership(address)": {
						"details": "Transfers ownership of the contract to a new account (`newOwner`). Can only be called by the current owner."
					},
					"updatePlatformFee(uint256)": {
						"params": {
							"newFee": "The new marketplace fee percentage"
						}
					}
				},
				"version": 1
			},
			"evm": {
				"assembly": "    /* \"Backend/MarketplaceContract.sol\":287:4791  contract MarketplaceContract is Ownable {... */\n  mstore(0x40, 0x80)\n    /* \"Backend/MarketplaceContract.sol\":1419:1590  constructor(uint256 fee, address initialOwner) Ownable(initialOwner) {... */\n  callvalue\n  dup1\n  iszero\n  tag_1\n  jumpi\n  0x00\n  dup1\n  revert\ntag_1:\n  pop\n  mload(0x40)\n  sub(codesize, bytecodeSize)\n  dup1\n  bytecodeSize\n  dup4\n  codecopy\n  dup2\n  dup2\n  add\n  0x40\n  mstore\n  dup2\n  add\n  swap1\n  tag_2\n  swap2\n  swap1\n  tag_3\n  jump\t// in\ntag_2:\n    /* \"Backend/MarketplaceContract.sol\":1474:1486  initialOwner */\n  dup1\n    /* \"@openzeppelin/contracts/access/Ownable.sol\":1297:1298  0 */\n  0x00\n    /* \"@openzeppelin/contracts/access/Ownable.sol\":1273:1299  initialOwner == address(0) */\n  0xffffffffffffffffffffffffffffffffffffffff\n  and\n    /* \"@openzeppelin/contracts/access/Ownable.sol\":1273:1285  initialOwner */\n  dup2\n    /* \"@openzeppelin/contracts/access/Ownable.sol\":1273:1299  initialOwner == address(0) */\n  0xffffffffffffffffffffffffffffffffffffffff\n  and\n  sub\n    /* \"@openzeppelin/contracts/access/Ownable.sol\":1269:1364  if (initialOwner == address(0)) {... */\n  tag_7\n  jumpi\n    /* \"@openzeppelin/contracts/access/Ownable.sol\":1350:1351  0 */\n  0x00\n    /* \"@openzeppelin/contracts/access/Ownable.sol\":1322:1353  OwnableInvalidOwner(address(0)) */\n  mload(0x40)\n  0x1e4fbdf700000000000000000000000000000000000000000000000000000000\n  dup2\n  mstore\n  0x04\n  add\n  tag_8\n  swap2\n  swap1\n  tag_9\n  jump\t// in\ntag_8:\n  mload(0x40)\n  dup1\n  swap2\n  sub\n  swap1\n  revert\n    /* \"@openzeppelin/contracts/access/Ownable.sol\":1269:1364  if (initialOwner == address(0)) {... */\ntag_7:\n    /* \"@openzeppelin/contracts/access/Ownable.sol\":1373:1405  _transferOwnership(initialOwner) */\n  tag_10\n    /* \"@openzeppelin/contracts/access/Ownable.sol\":1392:1404  initialOwner */\n  dup2\n    /* \"@openzeppelin/contracts/access/Ownable.sol\":1373:1391  _transferOwnership */\n  shl(0x20, tag_11)\n    /* \"@openzeppelin/contracts/access/Ownable.sol\":1373:1405  _transferOwnership(initialOwner) */\n  0x20\n  shr\n  jump\t// in\ntag_10:\n    /* \"@openzeppelin/contracts/access/Ownable.sol\":1225:1412  constructor(address initialOwner) {... */\n  pop\n    /* \"Backend/MarketplaceContract.sol\":1513:1516  100 */\n  0x64\n    /* \"Backend/MarketplaceContract.sol\":1506:1509  fee */\n  dup3\n    /* \"Backend/MarketplaceContract.sol\":1506:1516  fee <= 100 */\n  gt\n  iszero\n    /* \"Backend/MarketplaceContract.sol\":1498:1549  require(fee <= 100, \"Fee cannot be more than 100%\") */\n  tag_13\n  jumpi\n  mload(0x40)\n  0x08c379a000000000000000000000000000000000000000000000000000000000\n  dup2\n  mstore\n  0x04\n  add\n  tag_14\n  swap1\n  tag_15\n  jump\t// in\ntag_14:\n  mload(0x40)\n  dup1\n  swap2\n  sub\n  swap1\n  revert\ntag_13:\n    /* \"Backend/MarketplaceContract.sol\":1580:1583  fee */\n  dup2\n    /* \"Backend/MarketplaceContract.sol\":1559:1577  platformFeePercent */\n  0x01\n    /* \"Backend/MarketplaceContract.sol\":1559:1583  platformFeePercent = fee */\n  dup2\n  swap1\n  sstore\n  pop\n    /* \"Backend/MarketplaceContract.sol\":1419:1590  constructor(uint256 fee, address initialOwner) Ownable(initialOwner) {... */\n  pop\n  pop\n    /* \"Backend/MarketplaceContract.sol\":287:4791  contract MarketplaceContract is Ownable {... */\n  jump(tag_16)\n    /* \"@openzeppelin/contracts/access/Ownable.sol\":2912:3099  function _transferOwnership(address newOwner) internal virtual {... */\ntag_11:\n    /* \"@openzeppelin/contracts/access/Ownable.sol\":2985:3001  address oldOwner */\n  0x00\n    /* \"@openzeppelin/contracts/access/Ownable.sol\":3004:3010  _owner */\n  dup1\n  0x00\n  swap1\n  sload\n  swap1\n  0x0100\n  exp\n  swap1\n  div\n  0xffffffffffffffffffffffffffffffffffffffff\n  and\n    /* \"@openzeppelin/contracts/access/Ownable.sol\":2985:3010  address oldOwner = _owner */\n  swap1\n  pop\n    /* \"@openzeppelin/contracts/access/Ownable.sol\":3029:3037  newOwner */\n  dup2\n    /* \"@openzeppelin/contracts/access/Ownable.sol\":3020:3026  _owner */\n  0x00\n  dup1\n    /* \"@openzeppelin/contracts/access/Ownable.sol\":3020:3037  _owner = newOwner */\n  0x0100\n  exp\n  dup2\n  sload\n  dup2\n  0xffffffffffffffffffffffffffffffffffffffff\n  mul\n  not\n  and\n  swap1\n  dup4\n  0xffffffffffffffffffffffffffffffffffffffff\n  and\n  mul\n  or\n  swap1\n  sstore\n  pop\n    /* \"@openzeppelin/contracts/access/Ownable.sol\":3083:3091  newOwner */\n  dup2\n    /* \"@openzeppelin/contracts/access/Ownable.sol\":3052:3092  OwnershipTransferred(oldOwner, newOwner) */\n  0xffffffffffffffffffffffffffffffffffffffff\n  and\n    /* \"@openzeppelin/contracts/access/Ownable.sol\":3073:3081  oldOwner */\n  dup2\n    /* \"@openzeppelin/contracts/access/Ownable.sol\":3052:3092  OwnershipTransferred(oldOwner, newOwner) */\n  0xffffffffffffffffffffffffffffffffffffffff\n  and\n  0x8be0079c531659141344cd1fd0a4f28419497f9722a3daafe3b4186f6b6457e0\n  mload(0x40)\n  mload(0x40)\n  dup1\n  swap2\n  sub\n  swap1\n  log3\n    /* \"@openzeppelin/contracts/access/Ownable.sol\":2975:3099  {... */\n  pop\n    /* \"@openzeppelin/contracts/access/Ownable.sol\":2912:3099  function _transferOwnership(address newOwner) internal virtual {... */\n  pop\n  jump\t// out\n    /* \"#utility.yul\":88:205   */\ntag_19:\n    /* \"#utility.yul\":197:198   */\n  0x00\n    /* \"#utility.yul\":194:195   */\n  dup1\n    /* \"#utility.yul\":187:199   */\n  revert\n    /* \"#utility.yul\":334:411   */\ntag_21:\n    /* \"#utility.yul\":371:378   */\n  0x00\n    /* \"#utility.yul\":400:405   */\n  dup2\n    /* \"#utility.yul\":389:405   */\n  swap1\n  pop\n    /* \"#utility.yul\":334:411   */\n  swap2\n  swap1\n  pop\n  jump\t// out\n    /* \"#utility.yul\":417:539   */\ntag_22:\n    /* \"#utility.yul\":490:514   */\n  tag_38\n    /* \"#utility.yul\":508:513   */\n  dup2\n    /* \"#utility.yul\":490:514   */\n  tag_21\n  jump\t// in\ntag_38:\n    /* \"#utility.yul\":483:488   */\n  dup2\n    /* \"#utility.yul\":480:515   */\n  eq\n    /* \"#utility.yul\":470:533   */\n  tag_39\n  jumpi\n    /* \"#utility.yul\":529:530   */\n  0x00\n    /* \"#utility.yul\":526:527   */\n  dup1\n    /* \"#utility.yul\":519:531   */\n  revert\n    /* \"#utility.yul\":470:533   */\ntag_39:\n    /* \"#utility.yul\":417:539   */\n  pop\n  jump\t// out\n    /* \"#utility.yul\":545:688   */\ntag_23:\n    /* \"#utility.yul\":602:607   */\n  0x00\n    /* \"#utility.yul\":633:639   */\n  dup2\n    /* \"#utility.yul\":627:640   */\n  mload\n    /* \"#utility.yul\":618:640   */\n  swap1\n  pop\n    /* \"#utility.yul\":649:682   */\n  tag_41\n    /* \"#utility.yul\":676:681   */\n  dup2\n    /* \"#utility.yul\":649:682   */\n  tag_22\n  jump\t// in\ntag_41:\n    /* \"#utility.yul\":545:688   */\n  swap3\n  swap2\n  pop\n  pop\n  jump\t// out\n    /* \"#utility.yul\":694:820   */\ntag_24:\n    /* \"#utility.yul\":731:738   */\n  0x00\n    /* \"#utility.yul\":771:813   */\n  0xffffffffffffffffffffffffffffffffffffffff\n    /* \"#utility.yul\":764:769   */\n  dup3\n    /* \"#utility.yul\":760:814   */\n  and\n    /* \"#utility.yul\":749:814   */\n  swap1\n  pop\n    /* \"#utility.yul\":694:820   */\n  swap2\n  swap1\n  pop\n  jump\t// out\n    /* \"#utility.yul\":826:922   */\ntag_25:\n    /* \"#utility.yul\":863:870   */\n  0x00\n    /* \"#utility.yul\":892:916   */\n  tag_44\n    /* \"#utility.yul\":910:915   */\n  dup3\n    /* \"#utility.yul\":892:916   */\n  tag_24\n  jump\t// in\ntag_44:\n    /* \"#utility.yul\":881:916   */\n  swap1\n  pop\n    /* \"#utility.yul\":826:922   */\n  swap2\n  swap1\n  pop\n  jump\t// out\n    /* \"#utility.yul\":928:1050   */\ntag_26:\n    /* \"#utility.yul\":1001:1025   */\n  tag_46\n    /* \"#utility.yul\":1019:1024   */\n  dup2\n    /* \"#utility.yul\":1001:1025   */\n  tag_25\n  jump\t// in\ntag_46:\n    /* \"#utility.yul\":994:999   */\n  dup2\n    /* \"#utility.yul\":991:1026   */\n  eq\n    /* \"#utility.yul\":981:1044   */\n  tag_47\n  jumpi\n    /* \"#utility.yul\":1040:1041   */\n  0x00\n    /* \"#utility.yul\":1037:1038   */\n  dup1\n    /* \"#utility.yul\":1030:1042   */\n  revert\n    /* \"#utility.yul\":981:1044   */\ntag_47:\n    /* \"#utility.yul\":928:1050   */\n  pop\n  jump\t// out\n    /* \"#utility.yul\":1056:1199   */\ntag_27:\n    /* \"#utility.yul\":1113:1118   */\n  0x00\n    /* \"#utility.yul\":1144:1150   */\n  dup2\n    /* \"#utility.yul\":1138:1151   */\n  mload\n    /* \"#utility.yul\":1129:1151   */\n  swap1\n  pop\n    /* \"#utility.yul\":1160:1193   */\n  tag_49\n    /* \"#utility.yul\":1187:1192   */\n  dup2\n    /* \"#utility.yul\":1160:1193   */\n  tag_26\n  jump\t// in\ntag_49:\n    /* \"#utility.yul\":1056:1199   */\n  swap3\n  swap2\n  pop\n  pop\n  jump\t// out\n    /* \"#utility.yul\":1205:1712   */\ntag_3:\n    /* \"#utility.yul\":1284:1290   */\n  0x00\n    /* \"#utility.yul\":1292:1298   */\n  dup1\n    /* \"#utility.yul\":1341:1343   */\n  0x40\n    /* \"#utility.yul\":1329:1338   */\n  dup4\n    /* \"#utility.yul\":1320:1327   */\n  dup6\n    /* \"#utility.yul\":1316:1339   */\n  sub\n    /* \"#utility.yul\":1312:1344   */\n  slt\n    /* \"#utility.yul\":1309:1428   */\n  iszero\n  tag_51\n  jumpi\n    /* \"#utility.yul\":1347:1426   */\n  tag_52\n  tag_19\n  jump\t// in\ntag_52:\n    /* \"#utility.yul\":1309:1428   */\ntag_51:\n    /* \"#utility.yul\":1467:1468   */\n  0x00\n    /* \"#utility.yul\":1492:1556   */\n  tag_53\n    /* \"#utility.yul\":1548:1555   */\n  dup6\n    /* \"#utility.yul\":1539:1545   */\n  dup3\n    /* \"#utility.yul\":1528:1537   */\n  dup7\n    /* \"#utility.yul\":1524:1546   */\n  add\n    /* \"#utility.yul\":1492:1556   */\n  tag_23\n  jump\t// in\ntag_53:\n    /* \"#utility.yul\":1482:1556   */\n  swap3\n  pop\n    /* \"#utility.yul\":1438:1566   */\n  pop\n    /* \"#utility.yul\":1605:1607   */\n  0x20\n    /* \"#utility.yul\":1631:1695   */\n  tag_54\n    /* \"#utility.yul\":1687:1694   */\n  dup6\n    /* \"#utility.yul\":1678:1684   */\n  dup3\n    /* \"#utility.yul\":1667:1676   */\n  dup7\n    /* \"#utility.yul\":1663:1685   */\n  add\n    /* \"#utility.yul\":1631:1695   */\n  tag_27\n  jump\t// in\ntag_54:\n    /* \"#utility.yul\":1621:1695   */\n  swap2\n  pop\n    /* \"#utility.yul\":1576:1705   */\n  pop\n    /* \"#utility.yul\":1205:1712   */\n  swap3\n  pop\n  swap3\n  swap1\n  pop\n  jump\t// out\n    /* \"#utility.yul\":1718:1836   */\ntag_28:\n    /* \"#utility.yul\":1805:1829   */\n  tag_56\n    /* \"#utility.yul\":1823:1828   */\n  dup2\n    /* \"#utility.yul\":1805:1829   */\n  tag_25\n  jump\t// in\ntag_56:\n    /* \"#utility.yul\":1800:1803   */\n  dup3\n    /* \"#utility.yul\":1793:1830   */\n  mstore\n    /* \"#utility.yul\":1718:1836   */\n  pop\n  pop\n  jump\t// out\n    /* \"#utility.yul\":1842:2064   */\ntag_9:\n    /* \"#utility.yul\":1935:1939   */\n  0x00\n    /* \"#utility.yul\":1973:1975   */\n  0x20\n    /* \"#utility.yul\":1962:1971   */\n  dup3\n    /* \"#utility.yul\":1958:1976   */\n  add\n    /* \"#utility.yul\":1950:1976   */\n  swap1\n  pop\n    /* \"#utility.yul\":1986:2057   */\n  tag_58\n    /* \"#utility.yul\":2054:2055   */\n  0x00\n    /* \"#utility.yul\":2043:2052   */\n  dup4\n    /* \"#utility.yul\":2039:2056   */\n  add\n    /* \"#utility.yul\":2030:2036   */\n  dup5\n    /* \"#utility.yul\":1986:2057   */\n  tag_28\n  jump\t// in\ntag_58:\n    /* \"#utility.yul\":1842:2064   */\n  swap3\n  swap2\n  pop\n  pop\n  jump\t// out\n    /* \"#utility.yul\":2070:2239   */\ntag_29:\n    /* \"#utility.yul\":2154:2165   */\n  0x00\n    /* \"#utility.yul\":2188:2194   */\n  dup3\n    /* \"#utility.yul\":2183:2186   */\n  dup3\n    /* \"#utility.yul\":2176:2195   */\n  mstore\n    /* \"#utility.yul\":2228:2232   */\n  0x20\n    /* \"#utility.yul\":2223:2226   */\n  dup3\n    /* \"#utility.yul\":2219:2233   */\n  add\n    /* \"#utility.yul\":2204:2233   */\n  swap1\n  pop\n    /* \"#utility.yul\":2070:2239   */\n  swap3\n  swap2\n  pop\n  pop\n  jump\t// out\n    /* \"#utility.yul\":2245:2423   */\ntag_30:\n    /* \"#utility.yul\":2385:2415   */\n  0x4665652063616e6e6f74206265206d6f7265207468616e203130302500000000\n    /* \"#utility.yul\":2381:2382   */\n  0x00\n    /* \"#utility.yul\":2373:2379   */\n  dup3\n    /* \"#utility.yul\":2369:2383   */\n  add\n    /* \"#utility.yul\":2362:2416   */\n  mstore\n    /* \"#utility.yul\":2245:2423   */\n  pop\n  jump\t// out\n    /* \"#utility.yul\":2429:2795   */\ntag_31:\n    /* \"#utility.yul\":2571:2574   */\n  0x00\n    /* \"#utility.yul\":2592:2659   */\n  tag_62\n    /* \"#utility.yul\":2656:2658   */\n  0x1c\n    /* \"#utility.yul\":2651:2654   */\n  dup4\n    /* \"#utility.yul\":2592:2659   */\n  tag_29\n  jump\t// in\ntag_62:\n    /* \"#utility.yul\":2585:2659   */\n  swap2\n  pop\n    /* \"#utility.yul\":2668:2761   */\n  tag_63\n    /* \"#utility.yul\":2757:2760   */\n  dup3\n    /* \"#utility.yul\":2668:2761   */\n  tag_30\n  jump\t// in\ntag_63:\n    /* \"#utility.yul\":2786:2788   */\n  0x20\n    /* \"#utility.yul\":2781:2784   */\n  dup3\n    /* \"#utility.yul\":2777:2789   */\n  add\n    /* \"#utility.yul\":2770:2789   */\n  swap1\n  pop\n    /* \"#utility.yul\":2429:2795   */\n  swap2\n  swap1\n  pop\n  jump\t// out\n    /* \"#utility.yul\":2801:3220   */\ntag_15:\n    /* \"#utility.yul\":2967:2971   */\n  0x00\n    /* \"#utility.yul\":3005:3007   */\n  0x20\n    /* \"#utility.yul\":2994:3003   */\n  dup3\n    /* \"#utility.yul\":2990:3008   */\n  add\n    /* \"#utility.yul\":2982:3008   */\n  swap1\n  pop\n    /* \"#utility.yul\":3054:3063   */\n  dup2\n    /* \"#utility.yul\":3048:3052   */\n  dup2\n    /* \"#utility.yul\":3044:3064   */\n  sub\n    /* \"#utility.yul\":3040:3041   */\n  0x00\n    /* \"#utility.yul\":3029:3038   */\n  dup4\n    /* \"#utility.yul\":3025:3042   */\n  add\n    /* \"#utility.yul\":3018:3065   */\n  mstore\n    /* \"#utility.yul\":3082:3213   */\n  tag_65\n    /* \"#utility.yul\":3208:3212   */\n  dup2\n    /* \"#utility.yul\":3082:3213   */\n  tag_31\n  jump\t// in\ntag_65:\n    /* \"#utility.yul\":3074:3213   */\n  swap1\n  pop\n    /* \"#utility.yul\":2801:3220   */\n  swap2\n  swap1\n  pop\n  jump\t// out\n    /* \"Backend/MarketplaceContract.sol\":287:4791  contract MarketplaceContract is Ownable {... */\ntag_16:\n  dataSize(sub_0)\n  dup1\n  dataOffset(sub_0)\n  0x00\n  codecopy\n  0x00\n  return\nstop\n\nsub_0: assembly {\n        /* \"Backend/MarketplaceContract.sol\":287:4791  contract MarketplaceContract is Ownable {... */\n      mstore(0x40, 0x80)\n      jumpi(tag_1, lt(calldatasize, 0x04))\n      shr(0xe0, calldataload(0x00))\n      dup1\n      0x8c639a85\n      gt\n      tag_12\n      jumpi\n      dup1\n      0x8c639a85\n      eq\n      tag_7\n      jumpi\n      dup1\n      0x8da5cb5b\n      eq\n      tag_8\n      jumpi\n      dup1\n      0xaa0b5988\n      eq\n      tag_9\n      jumpi\n      dup1\n      0xde74e57b\n      eq\n      tag_10\n      jumpi\n      dup1\n      0xf2fde38b\n      eq\n      tag_11\n      jumpi\n      jump(tag_1)\n    tag_12:\n      dup1\n      0x107a274a\n      eq\n      tag_2\n      jumpi\n      dup1\n      0x305a67a8\n      eq\n      tag_3\n      jumpi\n      dup1\n      0x44a2d466\n      eq\n      tag_4\n      jumpi\n      dup1\n      0x715018a6\n      eq\n      tag_5\n      jumpi\n      dup1\n      0x8642269e\n      eq\n      tag_6\n      jumpi\n    tag_1:\n      0x00\n      dup1\n      revert\n        /* \"Backend/MarketplaceContract.sol\":4557:4789  function getListing(uint256 tokenId) external view returns (address seller, uint256 price, bool isActive) {... */\n    tag_2:\n      callvalue\n      dup1\n      iszero\n      tag_13\n      jumpi\n      0x00\n      dup1\n      revert\n    tag_13:\n      pop\n      tag_14\n      0x04\n      dup1\n      calldatasize\n      sub\n      dup2\n      add\n      swap1\n      tag_15\n      swap2\n      swap1\n      tag_16\n      jump\t// in\n    tag_15:\n      tag_17\n      jump\t// in\n    tag_14:\n      mload(0x40)\n      tag_18\n      swap4\n      swap3\n      swap2\n      swap1\n      tag_19\n      jump\t// in\n    tag_18:\n      mload(0x40)\n      dup1\n      swap2\n      sub\n      swap1\n      return\n        /* \"Backend/MarketplaceContract.sol\":3575:3953  function cancelListing(uint256 tokenId) external {... */\n    tag_3:\n      callvalue\n      dup1\n      iszero\n      tag_20\n      jumpi\n      0x00\n      dup1\n      revert\n    tag_20:\n      pop\n      tag_21\n      0x04\n      dup1\n      calldatasize\n      sub\n      dup2\n      add\n      swap1\n      tag_22\n      swap2\n      swap1\n      tag_16\n      jump\t// in\n    tag_22:\n      tag_23\n      jump\t// in\n    tag_21:\n      stop\n        /* \"Backend/MarketplaceContract.sol\":1779:2457  function listProduct(uint256 tokenId, uint256 price) external {... */\n    tag_4:\n      callvalue\n      dup1\n      iszero\n      tag_24\n      jumpi\n      0x00\n      dup1\n      revert\n    tag_24:\n      pop\n      tag_25\n      0x04\n      dup1\n      calldatasize\n      sub\n      dup2\n      add\n      swap1\n      tag_26\n      swap2\n      swap1\n      tag_27\n      jump\t// in\n    tag_26:\n      tag_28\n      jump\t// in\n    tag_25:\n      stop\n        /* \"@openzeppelin/contracts/access/Ownable.sol\":2293:2394  function renounceOwnership() public virtual onlyOwner {... */\n    tag_5:\n      callvalue\n      dup1\n      iszero\n      tag_29\n      jumpi\n      0x00\n      dup1\n      revert\n    tag_29:\n      pop\n      tag_30\n      tag_31\n      jump\t// in\n    tag_30:\n      stop\n        /* \"Backend/MarketplaceContract.sol\":2579:3443  function buyProduct(uint256 tokenId) external payable {... */\n    tag_6:\n      tag_32\n      0x04\n      dup1\n      calldatasize\n      sub\n      dup2\n      add\n      swap1\n      tag_33\n      swap2\n      swap1\n      tag_16\n      jump\t// in\n    tag_33:\n      tag_34\n      jump\t// in\n    tag_32:\n      stop\n        /* \"Backend/MarketplaceContract.sol\":431:464  uint256 public platformFeePercent */\n    tag_7:\n      callvalue\n      dup1\n      iszero\n      tag_35\n      jumpi\n      0x00\n      dup1\n      revert\n    tag_35:\n      pop\n      tag_36\n      tag_37\n      jump\t// in\n    tag_36:\n      mload(0x40)\n      tag_38\n      swap2\n      swap1\n      tag_39\n      jump\t// in\n    tag_38:\n      mload(0x40)\n      dup1\n      swap2\n      sub\n      swap1\n      return\n        /* \"@openzeppelin/contracts/access/Ownable.sol\":1638:1723  function owner() public view virtual returns (address) {... */\n    tag_8:\n      callvalue\n      dup1\n      iszero\n      tag_40\n      jumpi\n      0x00\n      dup1\n      revert\n    tag_40:\n      pop\n      tag_41\n      tag_42\n      jump\t// in\n    tag_41:\n      mload(0x40)\n      tag_43\n      swap2\n      swap1\n      tag_44\n      jump\t// in\n    tag_43:\n      mload(0x40)\n      dup1\n      swap2\n      sub\n      swap1\n      return\n        /* \"Backend/MarketplaceContract.sol\":4081:4251  function updatePlatformFee(uint256 newFee) external onlyOwner {... */\n    tag_9:\n      callvalue\n      dup1\n      iszero\n      tag_45\n      jumpi\n      0x00\n      dup1\n      revert\n    tag_45:\n      pop\n      tag_46\n      0x04\n      dup1\n      calldatasize\n      sub\n      dup2\n      add\n      swap1\n      tag_47\n      swap2\n      swap1\n      tag_16\n      jump\t// in\n    tag_47:\n      tag_48\n      jump\t// in\n    tag_46:\n      stop\n        /* \"Backend/MarketplaceContract.sol\":1135:1178  mapping(uint256 => Listing) public listings */\n    tag_10:\n      callvalue\n      dup1\n      iszero\n      tag_49\n      jumpi\n      0x00\n      dup1\n      revert\n    tag_49:\n      pop\n      tag_50\n      0x04\n      dup1\n      calldatasize\n      sub\n      dup2\n      add\n      swap1\n      tag_51\n      swap2\n      swap1\n      tag_16\n      jump\t// in\n    tag_51:\n      tag_52\n      jump\t// in\n    tag_50:\n      mload(0x40)\n      tag_53\n      swap4\n      swap3\n      swap2\n      swap1\n      tag_19\n      jump\t// in\n    tag_53:\n      mload(0x40)\n      dup1\n      swap2\n      sub\n      swap1\n      return\n        /* \"@openzeppelin/contracts/access/Ownable.sol\":2543:2758  function transferOwnership(address newOwner) public virtual onlyOwner {... */\n    tag_11:\n      callvalue\n      dup1\n      iszero\n      tag_54\n      jumpi\n      0x00\n      dup1\n      revert\n    tag_54:\n      pop\n      tag_55\n      0x04\n      dup1\n      calldatasize\n      sub\n      dup2\n      add\n      swap1\n      tag_56\n      swap2\n      swap1\n      tag_57\n      jump\t// in\n    tag_56:\n      tag_58\n      jump\t// in\n    tag_55:\n      stop\n        /* \"Backend/MarketplaceContract.sol\":4557:4789  function getListing(uint256 tokenId) external view returns (address seller, uint256 price, bool isActive) {... */\n    tag_17:\n        /* \"Backend/MarketplaceContract.sol\":4617:4631  address seller */\n      0x00\n        /* \"Backend/MarketplaceContract.sol\":4633:4646  uint256 price */\n      dup1\n        /* \"Backend/MarketplaceContract.sol\":4648:4661  bool isActive */\n      0x00\n        /* \"Backend/MarketplaceContract.sol\":4673:4696  Listing storage listing */\n      dup1\n        /* \"Backend/MarketplaceContract.sol\":4699:4707  listings */\n      0x02\n        /* \"Backend/MarketplaceContract.sol\":4699:4716  listings[tokenId] */\n      0x00\n        /* \"Backend/MarketplaceContract.sol\":4708:4715  tokenId */\n      dup7\n        /* \"Backend/MarketplaceContract.sol\":4699:4716  listings[tokenId] */\n      dup2\n      mstore\n      0x20\n      add\n      swap1\n      dup2\n      mstore\n      0x20\n      add\n      0x00\n      keccak256\n        /* \"Backend/MarketplaceContract.sol\":4673:4716  Listing storage listing = listings[tokenId] */\n      swap1\n      pop\n        /* \"Backend/MarketplaceContract.sol\":4734:4741  listing */\n      dup1\n        /* \"Backend/MarketplaceContract.sol\":4734:4748  listing.seller */\n      0x00\n      add\n      0x00\n      swap1\n      sload\n      swap1\n      0x0100\n      exp\n      swap1\n      div\n      0xffffffffffffffffffffffffffffffffffffffff\n      and\n        /* \"Backend/MarketplaceContract.sol\":4750:4757  listing */\n      dup2\n        /* \"Backend/MarketplaceContract.sol\":4750:4763  listing.price */\n      0x01\n      add\n      sload\n        /* \"Backend/MarketplaceContract.sol\":4765:4772  listing */\n      dup3\n        /* \"Backend/MarketplaceContract.sol\":4765:4781  listing.isActive */\n      0x02\n      add\n      0x00\n      swap1\n      sload\n      swap1\n      0x0100\n      exp\n      swap1\n      div\n      0xff\n      and\n        /* \"Backend/MarketplaceContract.sol\":4726:4782  return (listing.seller, listing.price, listing.isActive) */\n      swap4\n      pop\n      swap4\n      pop\n      swap4\n      pop\n      pop\n        /* \"Backend/MarketplaceContract.sol\":4557:4789  function getListing(uint256 tokenId) external view returns (address seller, uint256 price, bool isActive) {... */\n      swap2\n      swap4\n      swap1\n      swap3\n      pop\n      jump\t// out\n        /* \"Backend/MarketplaceContract.sol\":3575:3953  function cancelListing(uint256 tokenId) external {... */\n    tag_23:\n        /* \"Backend/MarketplaceContract.sol\":3634:3657  Listing storage listing */\n      0x00\n        /* \"Backend/MarketplaceContract.sol\":3660:3668  listings */\n      0x02\n        /* \"Backend/MarketplaceContract.sol\":3660:3677  listings[tokenId] */\n      0x00\n        /* \"Backend/MarketplaceContract.sol\":3669:3676  tokenId */\n      dup4\n        /* \"Backend/MarketplaceContract.sol\":3660:3677  listings[tokenId] */\n      dup2\n      mstore\n      0x20\n      add\n      swap1\n      dup2\n      mstore\n      0x20\n      add\n      0x00\n      keccak256\n        /* \"Backend/MarketplaceContract.sol\":3634:3677  Listing storage listing = listings[tokenId] */\n      swap1\n      pop\n        /* \"Backend/MarketplaceContract.sol\":3696:3703  listing */\n      dup1\n        /* \"Backend/MarketplaceContract.sol\":3696:3712  listing.isActive */\n      0x02\n      add\n      0x00\n      swap1\n      sload\n      swap1\n      0x0100\n      exp\n      swap1\n      div\n      0xff\n      and\n        /* \"Backend/MarketplaceContract.sol\":3688:3738  require(listing.isActive, \"Product is not listed\") */\n      tag_61\n      jumpi\n      mload(0x40)\n      0x08c379a000000000000000000000000000000000000000000000000000000000\n      dup2\n      mstore\n      0x04\n      add\n      tag_62\n      swap1\n      tag_63\n      jump\t// in\n    tag_62:\n      mload(0x40)\n      dup1\n      swap2\n      sub\n      swap1\n      revert\n    tag_61:\n        /* \"Backend/MarketplaceContract.sol\":3770:3777  listing */\n      dup1\n        /* \"Backend/MarketplaceContract.sol\":3770:3784  listing.seller */\n      0x00\n      add\n      0x00\n      swap1\n      sload\n      swap1\n      0x0100\n      exp\n      swap1\n      div\n      0xffffffffffffffffffffffffffffffffffffffff\n      and\n        /* \"Backend/MarketplaceContract.sol\":3756:3784  msg.sender == listing.seller */\n      0xffffffffffffffffffffffffffffffffffffffff\n      and\n        /* \"Backend/MarketplaceContract.sol\":3756:3766  msg.sender */\n      caller\n        /* \"Backend/MarketplaceContract.sol\":3756:3784  msg.sender == listing.seller */\n      0xffffffffffffffffffffffffffffffffffffffff\n      and\n      eq\n        /* \"Backend/MarketplaceContract.sol\":3748:3811  require(msg.sender == listing.seller, \"You are not the seller\") */\n      tag_64\n      jumpi\n      mload(0x40)\n      0x08c379a000000000000000000000000000000000000000000000000000000000\n      dup2\n      mstore\n      0x04\n      add\n      tag_65\n      swap1\n      tag_66\n      jump\t// in\n    tag_65:\n      mload(0x40)\n      dup1\n      swap2\n      sub\n      swap1\n      revert\n    tag_64:\n        /* \"Backend/MarketplaceContract.sol\":3889:3894  false */\n      0x00\n        /* \"Backend/MarketplaceContract.sol\":3870:3877  listing */\n      dup2\n        /* \"Backend/MarketplaceContract.sol\":3870:3886  listing.isActive */\n      0x02\n      add\n      0x00\n        /* \"Backend/MarketplaceContract.sol\":3870:3894  listing.isActive = false */\n      0x0100\n      exp\n      dup2\n      sload\n      dup2\n      0xff\n      mul\n      not\n      and\n      swap1\n      dup4\n      iszero\n      iszero\n      mul\n      or\n      swap1\n      sstore\n      pop\n        /* \"Backend/MarketplaceContract.sol\":3935:3945  msg.sender */\n      caller\n        /* \"Backend/MarketplaceContract.sol\":3910:3946  ListingCanceled(tokenId, msg.sender) */\n      0xffffffffffffffffffffffffffffffffffffffff\n      and\n        /* \"Backend/MarketplaceContract.sol\":3926:3933  tokenId */\n      dup3\n        /* \"Backend/MarketplaceContract.sol\":3910:3946  ListingCanceled(tokenId, msg.sender) */\n      0xbb7be15645f4eda9d65591c3a81b5e39256151f91bc25180315de259167c2e23\n      mload(0x40)\n      mload(0x40)\n      dup1\n      swap2\n      sub\n      swap1\n      log3\n        /* \"Backend/MarketplaceContract.sol\":3624:3953  {... */\n      pop\n        /* \"Backend/MarketplaceContract.sol\":3575:3953  function cancelListing(uint256 tokenId) external {... */\n      pop\n      jump\t// out\n        /* \"Backend/MarketplaceContract.sol\":1779:2457  function listProduct(uint256 tokenId, uint256 price) external {... */\n    tag_28:\n        /* \"Backend/MarketplaceContract.sol\":1867:1868  0 */\n      0x00\n        /* \"Backend/MarketplaceContract.sol\":1859:1864  price */\n      dup2\n        /* \"Backend/MarketplaceContract.sol\":1859:1868  price > 0 */\n      gt\n        /* \"Backend/MarketplaceContract.sol\":1851:1901  require(price > 0, \"Price must be greater than 0\") */\n      tag_68\n      jumpi\n      mload(0x40)\n      0x08c379a000000000000000000000000000000000000000000000000000000000\n      dup2\n      mstore\n      0x04\n      add\n      tag_69\n      swap1\n      tag_70\n      jump\t// in\n    tag_69:\n      mload(0x40)\n      dup1\n      swap2\n      sub\n      swap1\n      revert\n    tag_68:\n        /* \"Backend/MarketplaceContract.sol\":1911:1930  IERC721 nftContract */\n      0x00\n        /* \"Backend/MarketplaceContract.sol\":1949:1953  this */\n      address\n        /* \"Backend/MarketplaceContract.sol\":1911:1955  IERC721 nftContract = IERC721(address(this)) */\n      swap1\n      pop\n        /* \"Backend/MarketplaceContract.sol\":1965:1983  address tokenOwner */\n      0x00\n        /* \"Backend/MarketplaceContract.sol\":1986:1997  nftContract */\n      dup2\n        /* \"Backend/MarketplaceContract.sol\":1986:2005  nftContract.ownerOf */\n      0xffffffffffffffffffffffffffffffffffffffff\n      and\n      0x6352211e\n        /* \"Backend/MarketplaceContract.sol\":2006:2013  tokenId */\n      dup6\n        /* \"Backend/MarketplaceContract.sol\":1986:2014  nftContract.ownerOf(tokenId) */\n      mload(0x40)\n      dup3\n      0xffffffff\n      and\n      0xe0\n      shl\n      dup2\n      mstore\n      0x04\n      add\n      tag_71\n      swap2\n      swap1\n      tag_39\n      jump\t// in\n    tag_71:\n      0x20\n      mload(0x40)\n      dup1\n      dup4\n      sub\n      dup2\n      dup7\n      gas\n      staticcall\n      iszero\n      dup1\n      iszero\n      tag_73\n      jumpi\n      returndatasize\n      0x00\n      dup1\n      returndatacopy\n      revert(0x00, returndatasize)\n    tag_73:\n      pop\n      pop\n      pop\n      pop\n      mload(0x40)\n      returndatasize\n      not(0x1f)\n      0x1f\n      dup3\n      add\n      and\n      dup3\n      add\n      dup1\n      0x40\n      mstore\n      pop\n      dup2\n      add\n      swap1\n      tag_74\n      swap2\n      swap1\n      tag_75\n      jump\t// in\n    tag_74:\n        /* \"Backend/MarketplaceContract.sol\":1965:2014  address tokenOwner = nftContract.ownerOf(tokenId) */\n      swap1\n      pop\n        /* \"Backend/MarketplaceContract.sol\":2047:2057  tokenOwner */\n      dup1\n        /* \"Backend/MarketplaceContract.sol\":2033:2057  msg.sender == tokenOwner */\n      0xffffffffffffffffffffffffffffffffffffffff\n      and\n        /* \"Backend/MarketplaceContract.sol\":2033:2043  msg.sender */\n      caller\n        /* \"Backend/MarketplaceContract.sol\":2033:2057  msg.sender == tokenOwner */\n      0xffffffffffffffffffffffffffffffffffffffff\n      and\n      eq\n        /* \"Backend/MarketplaceContract.sol\":2025:2093  require(msg.sender == tokenOwner, \"You must own the NFT to list it\") */\n      tag_76\n      jumpi\n      mload(0x40)\n      0x08c379a000000000000000000000000000000000000000000000000000000000\n      dup2\n      mstore\n      0x04\n      add\n      tag_77\n      swap1\n      tag_78\n      jump\t// in\n    tag_77:\n      mload(0x40)\n      dup1\n      swap2\n      sub\n      swap1\n      revert\n    tag_76:\n        /* \"Backend/MarketplaceContract.sol\":2111:2122  nftContract */\n      dup2\n        /* \"Backend/MarketplaceContract.sol\":2111:2139  nftContract.isApprovedForAll */\n      0xffffffffffffffffffffffffffffffffffffffff\n      and\n      0xe985e9c5\n        /* \"Backend/MarketplaceContract.sol\":2140:2150  tokenOwner */\n      dup3\n        /* \"Backend/MarketplaceContract.sol\":2160:2164  this */\n      address\n        /* \"Backend/MarketplaceContract.sol\":2111:2166  nftContract.isApprovedForAll(tokenOwner, address(this)) */\n      mload(0x40)\n      dup4\n      0xffffffff\n      and\n      0xe0\n      shl\n      dup2\n      mstore\n      0x04\n      add\n      tag_79\n      swap3\n      swap2\n      swap1\n      tag_80\n      jump\t// in\n    tag_79:\n      0x20\n      mload(0x40)\n      dup1\n      dup4\n      sub\n      dup2\n      dup7\n      gas\n      staticcall\n      iszero\n      dup1\n      iszero\n      tag_82\n      jumpi\n      returndatasize\n      0x00\n      dup1\n      returndatacopy\n      revert(0x00, returndatasize)\n    tag_82:\n      pop\n      pop\n      pop\n      pop\n      mload(0x40)\n      returndatasize\n      not(0x1f)\n      0x1f\n      dup3\n      add\n      and\n      dup3\n      add\n      dup1\n      0x40\n      mstore\n      pop\n      dup2\n      add\n      swap1\n      tag_83\n      swap2\n      swap1\n      tag_84\n      jump\t// in\n    tag_83:\n        /* \"Backend/MarketplaceContract.sol\":2103:2219  require(nftContract.isApprovedForAll(tokenOwner, address(this)), \"Marketplace must be approved to transfer the NFT\") */\n      tag_85\n      jumpi\n      mload(0x40)\n      0x08c379a000000000000000000000000000000000000000000000000000000000\n      dup2\n      mstore\n      0x04\n      add\n      tag_86\n      swap1\n      tag_87\n      jump\t// in\n    tag_86:\n      mload(0x40)\n      dup1\n      swap2\n      sub\n      swap1\n      revert\n    tag_85:\n        /* \"Backend/MarketplaceContract.sol\":2288:2393  Listing({... */\n      mload(0x40)\n      dup1\n      0x60\n      add\n      0x40\n      mstore\n      dup1\n        /* \"Backend/MarketplaceContract.sol\":2318:2328  tokenOwner */\n      dup3\n        /* \"Backend/MarketplaceContract.sol\":2288:2393  Listing({... */\n      0xffffffffffffffffffffffffffffffffffffffff\n      and\n      dup2\n      mstore\n      0x20\n      add\n        /* \"Backend/MarketplaceContract.sol\":2349:2354  price */\n      dup5\n        /* \"Backend/MarketplaceContract.sol\":2288:2393  Listing({... */\n      dup2\n      mstore\n      0x20\n      add\n        /* \"Backend/MarketplaceContract.sol\":2378:2382  true */\n      0x01\n        /* \"Backend/MarketplaceContract.sol\":2288:2393  Listing({... */\n      iszero\n      iszero\n      dup2\n      mstore\n      pop\n        /* \"Backend/MarketplaceContract.sol\":2268:2276  listings */\n      0x02\n        /* \"Backend/MarketplaceContract.sol\":2268:2285  listings[tokenId] */\n      0x00\n        /* \"Backend/MarketplaceContract.sol\":2277:2284  tokenId */\n      dup7\n        /* \"Backend/MarketplaceContract.sol\":2268:2285  listings[tokenId] */\n      dup2\n      mstore\n      0x20\n      add\n      swap1\n      dup2\n      mstore\n      0x20\n      add\n      0x00\n      keccak256\n        /* \"Backend/MarketplaceContract.sol\":2268:2393  listings[tokenId] = Listing({... */\n      0x00\n      dup3\n      add\n      mload\n      dup2\n      0x00\n      add\n      exp(0x0100, 0x00)\n      dup2\n      sload\n      dup2\n      0xffffffffffffffffffffffffffffffffffffffff\n      mul\n      not\n      and\n      swap1\n      dup4\n      0xffffffffffffffffffffffffffffffffffffffff\n      and\n      mul\n      or\n      swap1\n      sstore\n      pop\n      0x20\n      dup3\n      add\n      mload\n      dup2\n      0x01\n      add\n      sstore\n      0x40\n      dup3\n      add\n      mload\n      dup2\n      0x02\n      add\n      exp(0x0100, 0x00)\n      dup2\n      sload\n      dup2\n      0xff\n      mul\n      not\n      and\n      swap1\n      dup4\n      iszero\n      iszero\n      mul\n      or\n      swap1\n      sstore\n      pop\n      swap1\n      pop\n      pop\n        /* \"Backend/MarketplaceContract.sol\":2432:2442  tokenOwner */\n      dup1\n        /* \"Backend/MarketplaceContract.sol\":2409:2450  ProductListed(tokenId, tokenOwner, price) */\n      0xffffffffffffffffffffffffffffffffffffffff\n      and\n        /* \"Backend/MarketplaceContract.sol\":2423:2430  tokenId */\n      dup5\n        /* \"Backend/MarketplaceContract.sol\":2409:2450  ProductListed(tokenId, tokenOwner, price) */\n      0xaae25b31116c34c03f0dc58472ff47d3ea0e38a572ec53c9e66319b994717ddb\n        /* \"Backend/MarketplaceContract.sol\":2444:2449  price */\n      dup6\n        /* \"Backend/MarketplaceContract.sol\":2409:2450  ProductListed(tokenId, tokenOwner, price) */\n      mload(0x40)\n      tag_88\n      swap2\n      swap1\n      tag_39\n      jump\t// in\n    tag_88:\n      mload(0x40)\n      dup1\n      swap2\n      sub\n      swap1\n      log3\n        /* \"Backend/MarketplaceContract.sol\":1841:2457  {... */\n      pop\n      pop\n        /* \"Backend/MarketplaceContract.sol\":1779:2457  function listProduct(uint256 tokenId, uint256 price) external {... */\n      pop\n      pop\n      jump\t// out\n        /* \"@openzeppelin/contracts/access/Ownable.sol\":2293:2394  function renounceOwnership() public virtual onlyOwner {... */\n    tag_31:\n        /* \"@openzeppelin/contracts/access/Ownable.sol\":1531:1544  _checkOwner() */\n      tag_90\n        /* \"@openzeppelin/contracts/access/Ownable.sol\":1531:1542  _checkOwner */\n      tag_91\n        /* \"@openzeppelin/contracts/access/Ownable.sol\":1531:1544  _checkOwner() */\n      jump\t// in\n    tag_90:\n        /* \"@openzeppelin/contracts/access/Ownable.sol\":2357:2387  _transferOwnership(address(0)) */\n      tag_93\n        /* \"@openzeppelin/contracts/access/Ownable.sol\":2384:2385  0 */\n      0x00\n        /* \"@openzeppelin/contracts/access/Ownable.sol\":2357:2375  _transferOwnership */\n      tag_94\n        /* \"@openzeppelin/contracts/access/Ownable.sol\":2357:2387  _transferOwnership(address(0)) */\n      jump\t// in\n    tag_93:\n        /* \"@openzeppelin/contracts/access/Ownable.sol\":2293:2394  function renounceOwnership() public virtual onlyOwner {... */\n      jump\t// out\n        /* \"Backend/MarketplaceContract.sol\":2579:3443  function buyProduct(uint256 tokenId) external payable {... */\n    tag_34:\n        /* \"Backend/MarketplaceContract.sol\":2643:2666  Listing storage listing */\n      0x00\n        /* \"Backend/MarketplaceContract.sol\":2669:2677  listings */\n      0x02\n        /* \"Backend/MarketplaceContract.sol\":2669:2686  listings[tokenId] */\n      0x00\n        /* \"Backend/MarketplaceContract.sol\":2678:2685  tokenId */\n      dup4\n        /* \"Backend/MarketplaceContract.sol\":2669:2686  listings[tokenId] */\n      dup2\n      mstore\n      0x20\n      add\n      swap1\n      dup2\n      mstore\n      0x20\n      add\n      0x00\n      keccak256\n        /* \"Backend/MarketplaceContract.sol\":2643:2686  Listing storage listing = listings[tokenId] */\n      swap1\n      pop\n        /* \"Backend/MarketplaceContract.sol\":2705:2712  listing */\n      dup1\n        /* \"Backend/MarketplaceContract.sol\":2705:2721  listing.isActive */\n      0x02\n      add\n      0x00\n      swap1\n      sload\n      swap1\n      0x0100\n      exp\n      swap1\n      div\n      0xff\n      and\n        /* \"Backend/MarketplaceContract.sol\":2697:2749  require(listing.isActive, \"Product is not for sale\") */\n      tag_96\n      jumpi\n      mload(0x40)\n      0x08c379a000000000000000000000000000000000000000000000000000000000\n      dup2\n      mstore\n      0x04\n      add\n      tag_97\n      swap1\n      tag_98\n      jump\t// in\n    tag_97:\n      mload(0x40)\n      dup1\n      swap2\n      sub\n      swap1\n      revert\n    tag_96:\n        /* \"Backend/MarketplaceContract.sol\":2780:2787  listing */\n      dup1\n        /* \"Backend/MarketplaceContract.sol\":2780:2793  listing.price */\n      0x01\n      add\n      sload\n        /* \"Backend/MarketplaceContract.sol\":2767:2776  msg.value */\n      callvalue\n        /* \"Backend/MarketplaceContract.sol\":2767:2793  msg.value == listing.price */\n      eq\n        /* \"Backend/MarketplaceContract.sol\":2759:2822  require(msg.value == listing.price, \"Incorrect payment amount\") */\n      tag_99\n      jumpi\n      mload(0x40)\n      0x08c379a000000000000000000000000000000000000000000000000000000000\n      dup2\n      mstore\n      0x04\n      add\n      tag_100\n      swap1\n      tag_101\n      jump\t// in\n    tag_100:\n      mload(0x40)\n      dup1\n      swap2\n      sub\n      swap1\n      revert\n    tag_99:\n        /* \"Backend/MarketplaceContract.sol\":2833:2850  uint256 feeAmount */\n      0x00\n        /* \"Backend/MarketplaceContract.sol\":2853:2899  listing.price.mul(platformFeePercent).div(100) */\n      tag_102\n        /* \"Backend/MarketplaceContract.sol\":2895:2898  100 */\n      0x64\n        /* \"Backend/MarketplaceContract.sol\":2853:2890  listing.price.mul(platformFeePercent) */\n      tag_103\n        /* \"Backend/MarketplaceContract.sol\":2871:2889  platformFeePercent */\n      sload(0x01)\n        /* \"Backend/MarketplaceContract.sol\":2853:2860  listing */\n      dup6\n        /* \"Backend/MarketplaceContract.sol\":2853:2866  listing.price */\n      0x01\n      add\n      sload\n        /* \"Backend/MarketplaceContract.sol\":2853:2870  listing.price.mul */\n      tag_104\n      swap1\n        /* \"Backend/MarketplaceContract.sol\":2853:2890  listing.price.mul(platformFeePercent) */\n      swap2\n      swap1\n      0xffffffff\n      and\n      jump\t// in\n    tag_103:\n        /* \"Backend/MarketplaceContract.sol\":2853:2894  listing.price.mul(platformFeePercent).div */\n      tag_105\n      swap1\n        /* \"Backend/MarketplaceContract.sol\":2853:2899  listing.price.mul(platformFeePercent).div(100) */\n      swap2\n      swap1\n      0xffffffff\n      and\n      jump\t// in\n    tag_102:\n        /* \"Backend/MarketplaceContract.sol\":2833:2899  uint256 feeAmount = listing.price.mul(platformFeePercent).div(100) */\n      swap1\n      pop\n        /* \"Backend/MarketplaceContract.sol\":2909:2929  uint256 sellerAmount */\n      0x00\n        /* \"Backend/MarketplaceContract.sol\":2932:2960  listing.price.sub(feeAmount) */\n      tag_106\n        /* \"Backend/MarketplaceContract.sol\":2950:2959  feeAmount */\n      dup3\n        /* \"Backend/MarketplaceContract.sol\":2932:2939  listing */\n      dup5\n        /* \"Backend/MarketplaceContract.sol\":2932:2945  listing.price */\n      0x01\n      add\n      sload\n        /* \"Backend/MarketplaceContract.sol\":2932:2949  listing.price.sub */\n      tag_107\n      swap1\n        /* \"Backend/MarketplaceContract.sol\":2932:2960  listing.price.sub(feeAmount) */\n      swap2\n      swap1\n      0xffffffff\n      and\n      jump\t// in\n    tag_106:\n        /* \"Backend/MarketplaceContract.sol\":2909:2960  uint256 sellerAmount = listing.price.sub(feeAmount) */\n      swap1\n      pop\n        /* \"Backend/MarketplaceContract.sol\":3028:3032  this */\n      address\n        /* \"Backend/MarketplaceContract.sol\":3012:3051  IERC721(address(this)).safeTransferFrom */\n      0xffffffffffffffffffffffffffffffffffffffff\n      and\n      0x42842e0e\n        /* \"Backend/MarketplaceContract.sol\":3052:3059  listing */\n      dup5\n        /* \"Backend/MarketplaceContract.sol\":3052:3066  listing.seller */\n      0x00\n      add\n      0x00\n      swap1\n      sload\n      swap1\n      0x0100\n      exp\n      swap1\n      div\n      0xffffffffffffffffffffffffffffffffffffffff\n      and\n        /* \"Backend/MarketplaceContract.sol\":3068:3078  msg.sender */\n      caller\n        /* \"Backend/MarketplaceContract.sol\":3080:3087  tokenId */\n      dup8\n        /* \"Backend/MarketplaceContract.sol\":3012:3088  IERC721(address(this)).safeTransferFrom(listing.seller, msg.sender, tokenId) */\n      mload(0x40)\n      dup5\n      0xffffffff\n      and\n      0xe0\n      shl\n      dup2\n      mstore\n      0x04\n      add\n      tag_108\n      swap4\n      swap3\n      swap2\n      swap1\n      tag_109\n      jump\t// in\n    tag_108:\n      0x00\n      mload(0x40)\n      dup1\n      dup4\n      sub\n      dup2\n      0x00\n      dup8\n      dup1\n      extcodesize\n      iszero\n      dup1\n      iszero\n      tag_110\n      jumpi\n      0x00\n      dup1\n      revert\n    tag_110:\n      pop\n      gas\n      call\n      iszero\n      dup1\n      iszero\n      tag_112\n      jumpi\n      returndatasize\n      0x00\n      dup1\n      returndatacopy\n      revert(0x00, returndatasize)\n    tag_112:\n      pop\n      pop\n      pop\n      pop\n        /* \"Backend/MarketplaceContract.sol\":3156:3163  listing */\n      dup3\n        /* \"Backend/MarketplaceContract.sol\":3156:3170  listing.seller */\n      0x00\n      add\n      0x00\n      swap1\n      sload\n      swap1\n      0x0100\n      exp\n      swap1\n      div\n      0xffffffffffffffffffffffffffffffffffffffff\n      and\n        /* \"Backend/MarketplaceContract.sol\":3148:3180  payable(listing.seller).transfer */\n      0xffffffffffffffffffffffffffffffffffffffff\n      and\n        /* \"Backend/MarketplaceContract.sol\":3148:3194  payable(listing.seller).transfer(sellerAmount) */\n      0x08fc\n        /* \"Backend/MarketplaceContract.sol\":3181:3193  sellerAmount */\n      dup3\n        /* \"Backend/MarketplaceContract.sol\":3148:3194  payable(listing.seller).transfer(sellerAmount) */\n      swap1\n      dup2\n      iszero\n      mul\n      swap1\n      mload(0x40)\n      0x00\n      mload(0x40)\n      dup1\n      dup4\n      sub\n      dup2\n      dup6\n      dup9\n      dup9\n      call\n      swap4\n      pop\n      pop\n      pop\n      pop\n      iszero\n      dup1\n      iszero\n      tag_114\n      jumpi\n      returndatasize\n      0x00\n      dup1\n      returndatacopy\n      revert(0x00, returndatasize)\n    tag_114:\n      pop\n        /* \"Backend/MarketplaceContract.sol\":3244:3251  owner() */\n      tag_115\n        /* \"Backend/MarketplaceContract.sol\":3244:3249  owner */\n      tag_42\n        /* \"Backend/MarketplaceContract.sol\":3244:3251  owner() */\n      jump\t// in\n    tag_115:\n        /* \"Backend/MarketplaceContract.sol\":3236:3261  payable(owner()).transfer */\n      0xffffffffffffffffffffffffffffffffffffffff\n      and\n        /* \"Backend/MarketplaceContract.sol\":3236:3272  payable(owner()).transfer(feeAmount) */\n      0x08fc\n        /* \"Backend/MarketplaceContract.sol\":3262:3271  feeAmount */\n      dup4\n        /* \"Backend/MarketplaceContract.sol\":3236:3272  payable(owner()).transfer(feeAmount) */\n      swap1\n      dup2\n      iszero\n      mul\n      swap1\n      mload(0x40)\n      0x00\n      mload(0x40)\n      dup1\n      dup4\n      sub\n      dup2\n      dup6\n      dup9\n      dup9\n      call\n      swap4\n      pop\n      pop\n      pop\n      pop\n      iszero\n      dup1\n      iszero\n      tag_117\n      jumpi\n      returndatasize\n      0x00\n      dup1\n      returndatacopy\n      revert(0x00, returndatasize)\n    tag_117:\n      pop\n        /* \"Backend/MarketplaceContract.sol\":3352:3357  false */\n      0x00\n        /* \"Backend/MarketplaceContract.sol\":3333:3340  listing */\n      dup4\n        /* \"Backend/MarketplaceContract.sol\":3333:3349  listing.isActive */\n      0x02\n      add\n      0x00\n        /* \"Backend/MarketplaceContract.sol\":3333:3357  listing.isActive = false */\n      0x0100\n      exp\n      dup2\n      sload\n      dup2\n      0xff\n      mul\n      not\n      and\n      swap1\n      dup4\n      iszero\n      iszero\n      mul\n      or\n      swap1\n      sstore\n      pop\n        /* \"Backend/MarketplaceContract.sol\":3410:3420  msg.sender */\n      caller\n        /* \"Backend/MarketplaceContract.sol\":3373:3436  ProductSold(tokenId, listing.seller, msg.sender, listing.price) */\n      0xffffffffffffffffffffffffffffffffffffffff\n      and\n        /* \"Backend/MarketplaceContract.sol\":3394:3401  listing */\n      dup4\n        /* \"Backend/MarketplaceContract.sol\":3394:3408  listing.seller */\n      0x00\n      add\n      0x00\n      swap1\n      sload\n      swap1\n      0x0100\n      exp\n      swap1\n      div\n      0xffffffffffffffffffffffffffffffffffffffff\n      and\n        /* \"Backend/MarketplaceContract.sol\":3373:3436  ProductSold(tokenId, listing.seller, msg.sender, listing.price) */\n      0xffffffffffffffffffffffffffffffffffffffff\n      and\n        /* \"Backend/MarketplaceContract.sol\":3385:3392  tokenId */\n      dup6\n        /* \"Backend/MarketplaceContract.sol\":3373:3436  ProductSold(tokenId, listing.seller, msg.sender, listing.price) */\n      0xa02e46fc9bbd3e1138787bc1dc117ae0b9a5a3745ea30b0ab673d79d90739029\n        /* \"Backend/MarketplaceContract.sol\":3422:3429  listing */\n      dup7\n        /* \"Backend/MarketplaceContract.sol\":3422:3435  listing.price */\n      0x01\n      add\n      sload\n        /* \"Backend/MarketplaceContract.sol\":3373:3436  ProductSold(tokenId, listing.seller, msg.sender, listing.price) */\n      mload(0x40)\n      tag_118\n      swap2\n      swap1\n      tag_39\n      jump\t// in\n    tag_118:\n      mload(0x40)\n      dup1\n      swap2\n      sub\n      swap1\n      log4\n        /* \"Backend/MarketplaceContract.sol\":2633:3443  {... */\n      pop\n      pop\n      pop\n        /* \"Backend/MarketplaceContract.sol\":2579:3443  function buyProduct(uint256 tokenId) external payable {... */\n      pop\n      jump\t// out\n        /* \"Backend/MarketplaceContract.sol\":431:464  uint256 public platformFeePercent */\n    tag_37:\n      sload(0x01)\n      dup2\n      jump\t// out\n        /* \"@openzeppelin/contracts/access/Ownable.sol\":1638:1723  function owner() public view virtual returns (address) {... */\n    tag_42:\n        /* \"@openzeppelin/contracts/access/Ownable.sol\":1684:1691  address */\n      0x00\n        /* \"@openzeppelin/contracts/access/Ownable.sol\":1710:1716  _owner */\n      dup1\n      0x00\n      swap1\n      sload\n      swap1\n      0x0100\n      exp\n      swap1\n      div\n      0xffffffffffffffffffffffffffffffffffffffff\n      and\n        /* \"@openzeppelin/contracts/access/Ownable.sol\":1703:1716  return _owner */\n      swap1\n      pop\n        /* \"@openzeppelin/contracts/access/Ownable.sol\":1638:1723  function owner() public view virtual returns (address) {... */\n      swap1\n      jump\t// out\n        /* \"Backend/MarketplaceContract.sol\":4081:4251  function updatePlatformFee(uint256 newFee) external onlyOwner {... */\n    tag_48:\n        /* \"@openzeppelin/contracts/access/Ownable.sol\":1531:1544  _checkOwner() */\n      tag_121\n        /* \"@openzeppelin/contracts/access/Ownable.sol\":1531:1542  _checkOwner */\n      tag_91\n        /* \"@openzeppelin/contracts/access/Ownable.sol\":1531:1544  _checkOwner() */\n      jump\t// in\n    tag_121:\n        /* \"Backend/MarketplaceContract.sol\":4171:4174  100 */\n      0x64\n        /* \"Backend/MarketplaceContract.sol\":4161:4167  newFee */\n      dup2\n        /* \"Backend/MarketplaceContract.sol\":4161:4174  newFee <= 100 */\n      gt\n      iszero\n        /* \"Backend/MarketplaceContract.sol\":4153:4207  require(newFee <= 100, \"Fee cannot be more than 100%\") */\n      tag_123\n      jumpi\n      mload(0x40)\n      0x08c379a000000000000000000000000000000000000000000000000000000000\n      dup2\n      mstore\n      0x04\n      add\n      tag_124\n      swap1\n      tag_125\n      jump\t// in\n    tag_124:\n      mload(0x40)\n      dup1\n      swap2\n      sub\n      swap1\n      revert\n    tag_123:\n        /* \"Backend/MarketplaceContract.sol\":4238:4244  newFee */\n      dup1\n        /* \"Backend/MarketplaceContract.sol\":4217:4235  platformFeePercent */\n      0x01\n        /* \"Backend/MarketplaceContract.sol\":4217:4244  platformFeePercent = newFee */\n      dup2\n      swap1\n      sstore\n      pop\n        /* \"Backend/MarketplaceContract.sol\":4081:4251  function updatePlatformFee(uint256 newFee) external onlyOwner {... */\n      pop\n      jump\t// out\n        /* \"Backend/MarketplaceContract.sol\":1135:1178  mapping(uint256 => Listing) public listings */\n    tag_52:\n      mstore(0x20, 0x02)\n      dup1\n      0x00\n      mstore\n      keccak256(0x00, 0x40)\n      0x00\n      swap2\n      pop\n      swap1\n      pop\n      dup1\n      0x00\n      add\n      0x00\n      swap1\n      sload\n      swap1\n      0x0100\n      exp\n      swap1\n      div\n      0xffffffffffffffffffffffffffffffffffffffff\n      and\n      swap1\n      dup1\n      0x01\n      add\n      sload\n      swap1\n      dup1\n      0x02\n      add\n      0x00\n      swap1\n      sload\n      swap1\n      0x0100\n      exp\n      swap1\n      div\n      0xff\n      and\n      swap1\n      pop\n      dup4\n      jump\t// out\n        /* \"@openzeppelin/contracts/access/Ownable.sol\":2543:2758  function transferOwnership(address newOwner) public virtual onlyOwner {... */\n    tag_58:\n        /* \"@openzeppelin/contracts/access/Ownable.sol\":1531:1544  _checkOwner() */\n      tag_127\n        /* \"@openzeppelin/contracts/access/Ownable.sol\":1531:1542  _checkOwner */\n      tag_91\n        /* \"@openzeppelin/contracts/access/Ownable.sol\":1531:1544  _checkOwner() */\n      jump\t// in\n    tag_127:\n        /* \"@openzeppelin/contracts/access/Ownable.sol\":2647:2648  0 */\n      0x00\n        /* \"@openzeppelin/contracts/access/Ownable.sol\":2627:2649  newOwner == address(0) */\n      0xffffffffffffffffffffffffffffffffffffffff\n      and\n        /* \"@openzeppelin/contracts/access/Ownable.sol\":2627:2635  newOwner */\n      dup2\n        /* \"@openzeppelin/contracts/access/Ownable.sol\":2627:2649  newOwner == address(0) */\n      0xffffffffffffffffffffffffffffffffffffffff\n      and\n      sub\n        /* \"@openzeppelin/contracts/access/Ownable.sol\":2623:2714  if (newOwner == address(0)) {... */\n      tag_129\n      jumpi\n        /* \"@openzeppelin/contracts/access/Ownable.sol\":2700:2701  0 */\n      0x00\n        /* \"@openzeppelin/contracts/access/Ownable.sol\":2672:2703  OwnableInvalidOwner(address(0)) */\n      mload(0x40)\n      0x1e4fbdf700000000000000000000000000000000000000000000000000000000\n      dup2\n      mstore\n      0x04\n      add\n      tag_130\n      swap2\n      swap1\n      tag_44\n      jump\t// in\n    tag_130:\n      mload(0x40)\n      dup1\n      swap2\n      sub\n      swap1\n      revert\n        /* \"@openzeppelin/contracts/access/Ownable.sol\":2623:2714  if (newOwner == address(0)) {... */\n    tag_129:\n        /* \"@openzeppelin/contracts/access/Ownable.sol\":2723:2751  _transferOwnership(newOwner) */\n      tag_131\n        /* \"@openzeppelin/contracts/access/Ownable.sol\":2742:2750  newOwner */\n      dup2\n        /* \"@openzeppelin/contracts/access/Ownable.sol\":2723:2741  _transferOwnership */\n      tag_94\n        /* \"@openzeppelin/contracts/access/Ownable.sol\":2723:2751  _transferOwnership(newOwner) */\n      jump\t// in\n    tag_131:\n        /* \"@openzeppelin/contracts/access/Ownable.sol\":2543:2758  function transferOwnership(address newOwner) public virtual onlyOwner {... */\n      pop\n      jump\t// out\n        /* \"@openzeppelin/contracts/access/Ownable.sol\":1796:1958  function _checkOwner() internal view virtual {... */\n    tag_91:\n        /* \"@openzeppelin/contracts/access/Ownable.sol\":1866:1878  _msgSender() */\n      tag_133\n        /* \"@openzeppelin/contracts/access/Ownable.sol\":1866:1876  _msgSender */\n      tag_134\n        /* \"@openzeppelin/contracts/access/Ownable.sol\":1866:1878  _msgSender() */\n      jump\t// in\n    tag_133:\n        /* \"@openzeppelin/contracts/access/Ownable.sol\":1855:1878  owner() != _msgSender() */\n      0xffffffffffffffffffffffffffffffffffffffff\n      and\n        /* \"@openzeppelin/contracts/access/Ownable.sol\":1855:1862  owner() */\n      tag_135\n        /* \"@openzeppelin/contracts/access/Ownable.sol\":1855:1860  owner */\n      tag_42\n        /* \"@openzeppelin/contracts/access/Ownable.sol\":1855:1862  owner() */\n      jump\t// in\n    tag_135:\n        /* \"@openzeppelin/contracts/access/Ownable.sol\":1855:1878  owner() != _msgSender() */\n      0xffffffffffffffffffffffffffffffffffffffff\n      and\n      eq\n        /* \"@openzeppelin/contracts/access/Ownable.sol\":1851:1952  if (owner() != _msgSender()) {... */\n      tag_136\n      jumpi\n        /* \"@openzeppelin/contracts/access/Ownable.sol\":1928:1940  _msgSender() */\n      tag_137\n        /* \"@openzeppelin/contracts/access/Ownable.sol\":1928:1938  _msgSender */\n      tag_134\n        /* \"@openzeppelin/contracts/access/Ownable.sol\":1928:1940  _msgSender() */\n      jump\t// in\n    tag_137:\n        /* \"@openzeppelin/contracts/access/Ownable.sol\":1901:1941  OwnableUnauthorizedAccount(_msgSender()) */\n      mload(0x40)\n      0x118cdaa700000000000000000000000000000000000000000000000000000000\n      dup2\n      mstore\n      0x04\n      add\n      tag_138\n      swap2\n      swap1\n      tag_44\n      jump\t// in\n    tag_138:\n      mload(0x40)\n      dup1\n      swap2\n      sub\n      swap1\n      revert\n        /* \"@openzeppelin/contracts/access/Ownable.sol\":1851:1952  if (owner() != _msgSender()) {... */\n    tag_136:\n        /* \"@openzeppelin/contracts/access/Ownable.sol\":1796:1958  function _checkOwner() internal view virtual {... */\n      jump\t// out\n        /* \"@openzeppelin/contracts/access/Ownable.sol\":2912:3099  function _transferOwnership(address newOwner) internal virtual {... */\n    tag_94:\n        /* \"@openzeppelin/contracts/access/Ownable.sol\":2985:3001  address oldOwner */\n      0x00\n        /* \"@openzeppelin/contracts/access/Ownable.sol\":3004:3010  _owner */\n      dup1\n      0x00\n      swap1\n      sload\n      swap1\n      0x0100\n      exp\n      swap1\n      div\n      0xffffffffffffffffffffffffffffffffffffffff\n      and\n        /* \"@openzeppelin/contracts/access/Ownable.sol\":2985:3010  address oldOwner = _owner */\n      swap1\n      pop\n        /* \"@openzeppelin/contracts/access/Ownable.sol\":3029:3037  newOwner */\n      dup2\n        /* \"@openzeppelin/contracts/access/Ownable.sol\":3020:3026  _owner */\n      0x00\n      dup1\n        /* \"@openzeppelin/contracts/access/Ownable.sol\":3020:3037  _owner = newOwner */\n      0x0100\n      exp\n      dup2\n      sload\n      dup2\n      0xffffffffffffffffffffffffffffffffffffffff\n      mul\n      not\n      and\n      swap1\n      dup4\n      0xffffffffffffffffffffffffffffffffffffffff\n      and\n      mul\n      or\n      swap1\n      sstore\n      pop\n        /* \"@openzeppelin/contracts/access/Ownable.sol\":3083:3091  newOwner */\n      dup2\n        /* \"@openzeppelin/contracts/access/Ownable.sol\":3052:3092  OwnershipTransferred(oldOwner, newOwner) */\n      0xffffffffffffffffffffffffffffffffffffffff\n      and\n        /* \"@openzeppelin/contracts/access/Ownable.sol\":3073:3081  oldOwner */\n      dup2\n        /* \"@openzeppelin/contracts/access/Ownable.sol\":3052:3092  OwnershipTransferred(oldOwner, newOwner) */\n      0xffffffffffffffffffffffffffffffffffffffff\n      and\n      0x8be0079c531659141344cd1fd0a4f28419497f9722a3daafe3b4186f6b6457e0\n      mload(0x40)\n      mload(0x40)\n      dup1\n      swap2\n      sub\n      swap1\n      log3\n        /* \"@openzeppelin/contracts/access/Ownable.sol\":2975:3099  {... */\n      pop\n        /* \"@openzeppelin/contracts/access/Ownable.sol\":2912:3099  function _transferOwnership(address newOwner) internal virtual {... */\n      pop\n      jump\t// out\n        /* \"@openzeppelin/contracts/utils/math/SafeMath.sol\":3465:3561  function mul(uint256 a, uint256 b) internal pure returns (uint256) {... */\n    tag_104:\n        /* \"@openzeppelin/contracts/utils/math/SafeMath.sol\":3523:3530  uint256 */\n      0x00\n        /* \"@openzeppelin/contracts/utils/math/SafeMath.sol\":3553:3554  b */\n      dup2\n        /* \"@openzeppelin/contracts/utils/math/SafeMath.sol\":3549:3550  a */\n      dup4\n        /* \"@openzeppelin/contracts/utils/math/SafeMath.sol\":3549:3554  a * b */\n      tag_141\n      swap2\n      swap1\n      tag_142\n      jump\t// in\n    tag_141:\n        /* \"@openzeppelin/contracts/utils/math/SafeMath.sol\":3542:3554  return a * b */\n      swap1\n      pop\n        /* \"@openzeppelin/contracts/utils/math/SafeMath.sol\":3465:3561  function mul(uint256 a, uint256 b) internal pure returns (uint256) {... */\n      swap3\n      swap2\n      pop\n      pop\n      jump\t// out\n        /* \"@openzeppelin/contracts/utils/math/SafeMath.sol\":3850:3946  function div(uint256 a, uint256 b) internal pure returns (uint256) {... */\n    tag_105:\n        /* \"@openzeppelin/contracts/utils/math/SafeMath.sol\":3908:3915  uint256 */\n      0x00\n        /* \"@openzeppelin/contracts/utils/math/SafeMath.sol\":3938:3939  b */\n      dup2\n        /* \"@openzeppelin/contracts/utils/math/SafeMath.sol\":3934:3935  a */\n      dup4\n        /* \"@openzeppelin/contracts/utils/math/SafeMath.sol\":3934:3939  a / b */\n      tag_144\n      swap2\n      swap1\n      tag_145\n      jump\t// in\n    tag_144:\n        /* \"@openzeppelin/contracts/utils/math/SafeMath.sol\":3927:3939  return a / b */\n      swap1\n      pop\n        /* \"@openzeppelin/contracts/utils/math/SafeMath.sol\":3850:3946  function div(uint256 a, uint256 b) internal pure returns (uint256) {... */\n      swap3\n      swap2\n      pop\n      pop\n      jump\t// out\n        /* \"@openzeppelin/contracts/utils/math/SafeMath.sol\":3122:3218  function sub(uint256 a, uint256 b) internal pure returns (uint256) {... */\n    tag_107:\n        /* \"@openzeppelin/contracts/utils/math/SafeMath.sol\":3180:3187  uint256 */\n      0x00\n        /* \"@openzeppelin/contracts/utils/math/SafeMath.sol\":3210:3211  b */\n      dup2\n        /* \"@openzeppelin/contracts/utils/math/SafeMath.sol\":3206:3207  a */\n      dup4\n        /* \"@openzeppelin/contracts/utils/math/SafeMath.sol\":3206:3211  a - b */\n      tag_147\n      swap2\n      swap1\n      tag_148\n      jump\t// in\n    tag_147:\n        /* \"@openzeppelin/contracts/utils/math/SafeMath.sol\":3199:3211  return a - b */\n      swap1\n      pop\n        /* \"@openzeppelin/contracts/utils/math/SafeMath.sol\":3122:3218  function sub(uint256 a, uint256 b) internal pure returns (uint256) {... */\n      swap3\n      swap2\n      pop\n      pop\n      jump\t// out\n        /* \"@openzeppelin/contracts/utils/Context.sol\":656:752  function _msgSender() internal view virtual returns (address) {... */\n    tag_134:\n        /* \"@openzeppelin/contracts/utils/Context.sol\":709:716  address */\n      0x00\n        /* \"@openzeppelin/contracts/utils/Context.sol\":735:745  msg.sender */\n      caller\n        /* \"@openzeppelin/contracts/utils/Context.sol\":728:745  return msg.sender */\n      swap1\n      pop\n        /* \"@openzeppelin/contracts/utils/Context.sol\":656:752  function _msgSender() internal view virtual returns (address) {... */\n      swap1\n      jump\t// out\n        /* \"#utility.yul\":88:205   */\n    tag_151:\n        /* \"#utility.yul\":197:198   */\n      0x00\n        /* \"#utility.yul\":194:195   */\n      dup1\n        /* \"#utility.yul\":187:199   */\n      revert\n        /* \"#utility.yul\":334:411   */\n    tag_153:\n        /* \"#utility.yul\":371:378   */\n      0x00\n        /* \"#utility.yul\":400:405   */\n      dup2\n        /* \"#utility.yul\":389:405   */\n      swap1\n      pop\n        /* \"#utility.yul\":334:411   */\n      swap2\n      swap1\n      pop\n      jump\t// out\n        /* \"#utility.yul\":417:539   */\n    tag_154:\n        /* \"#utility.yul\":490:514   */\n      tag_192\n        /* \"#utility.yul\":508:513   */\n      dup2\n        /* \"#utility.yul\":490:514   */\n      tag_153\n      jump\t// in\n    tag_192:\n        /* \"#utility.yul\":483:488   */\n      dup2\n        /* \"#utility.yul\":480:515   */\n      eq\n        /* \"#utility.yul\":470:533   */\n      tag_193\n      jumpi\n        /* \"#utility.yul\":529:530   */\n      0x00\n        /* \"#utility.yul\":526:527   */\n      dup1\n        /* \"#utility.yul\":519:531   */\n      revert\n        /* \"#utility.yul\":470:533   */\n    tag_193:\n        /* \"#utility.yul\":417:539   */\n      pop\n      jump\t// out\n        /* \"#utility.yul\":545:684   */\n    tag_155:\n        /* \"#utility.yul\":591:596   */\n      0x00\n        /* \"#utility.yul\":629:635   */\n      dup2\n        /* \"#utility.yul\":616:636   */\n      calldataload\n        /* \"#utility.yul\":607:636   */\n      swap1\n      pop\n        /* \"#utility.yul\":645:678   */\n      tag_195\n        /* \"#utility.yul\":672:677   */\n      dup2\n        /* \"#utility.yul\":645:678   */\n      tag_154\n      jump\t// in\n    tag_195:\n        /* \"#utility.yul\":545:684   */\n      swap3\n      swap2\n      pop\n      pop\n      jump\t// out\n        /* \"#utility.yul\":690:1019   */\n    tag_16:\n        /* \"#utility.yul\":749:755   */\n      0x00\n        /* \"#utility.yul\":798:800   */\n      0x20\n        /* \"#utility.yul\":786:795   */\n      dup3\n        /* \"#utility.yul\":777:784   */\n      dup5\n        /* \"#utility.yul\":773:796   */\n      sub\n        /* \"#utility.yul\":769:801   */\n      slt\n        /* \"#utility.yul\":766:885   */\n      iszero\n      tag_197\n      jumpi\n        /* \"#utility.yul\":804:883   */\n      tag_198\n      tag_151\n      jump\t// in\n    tag_198:\n        /* \"#utility.yul\":766:885   */\n    tag_197:\n        /* \"#utility.yul\":924:925   */\n      0x00\n        /* \"#utility.yul\":949:1002   */\n      tag_199\n        /* \"#utility.yul\":994:1001   */\n      dup5\n        /* \"#utility.yul\":985:991   */\n      dup3\n        /* \"#utility.yul\":974:983   */\n      dup6\n        /* \"#utility.yul\":970:992   */\n      add\n        /* \"#utility.yul\":949:1002   */\n      tag_155\n      jump\t// in\n    tag_199:\n        /* \"#utility.yul\":939:1002   */\n      swap2\n      pop\n        /* \"#utility.yul\":895:1012   */\n      pop\n        /* \"#utility.yul\":690:1019   */\n      swap3\n      swap2\n      pop\n      pop\n      jump\t// out\n        /* \"#utility.yul\":1025:1151   */\n    tag_156:\n        /* \"#utility.yul\":1062:1069   */\n      0x00\n        /* \"#utility.yul\":1102:1144   */\n      0xffffffffffffffffffffffffffffffffffffffff\n        /* \"#utility.yul\":1095:1100   */\n      dup3\n        /* \"#utility.yul\":1091:1145   */\n      and\n        /* \"#utility.yul\":1080:1145   */\n      swap1\n      pop\n        /* \"#utility.yul\":1025:1151   */\n      swap2\n      swap1\n      pop\n      jump\t// out\n        /* \"#utility.yul\":1157:1253   */\n    tag_157:\n        /* \"#utility.yul\":1194:1201   */\n      0x00\n        /* \"#utility.yul\":1223:1247   */\n      tag_202\n        /* \"#utility.yul\":1241:1246   */\n      dup3\n        /* \"#utility.yul\":1223:1247   */\n      tag_156\n      jump\t// in\n    tag_202:\n        /* \"#utility.yul\":1212:1247   */\n      swap1\n      pop\n        /* \"#utility.yul\":1157:1253   */\n      swap2\n      swap1\n      pop\n      jump\t// out\n        /* \"#utility.yul\":1259:1377   */\n    tag_158:\n        /* \"#utility.yul\":1346:1370   */\n      tag_204\n        /* \"#utility.yul\":1364:1369   */\n      dup2\n        /* \"#utility.yul\":1346:1370   */\n      tag_157\n      jump\t// in\n    tag_204:\n        /* \"#utility.yul\":1341:1344   */\n      dup3\n        /* \"#utility.yul\":1334:1371   */\n      mstore\n        /* \"#utility.yul\":1259:1377   */\n      pop\n      pop\n      jump\t// out\n        /* \"#utility.yul\":1383:1501   */\n    tag_159:\n        /* \"#utility.yul\":1470:1494   */\n      tag_206\n        /* \"#utility.yul\":1488:1493   */\n      dup2\n        /* \"#utility.yul\":1470:1494   */\n      tag_153\n      jump\t// in\n    tag_206:\n        /* \"#utility.yul\":1465:1468   */\n      dup3\n        /* \"#utility.yul\":1458:1495   */\n      mstore\n        /* \"#utility.yul\":1383:1501   */\n      pop\n      pop\n      jump\t// out\n        /* \"#utility.yul\":1507:1597   */\n    tag_160:\n        /* \"#utility.yul\":1541:1548   */\n      0x00\n        /* \"#utility.yul\":1584:1589   */\n      dup2\n        /* \"#utility.yul\":1577:1590   */\n      iszero\n        /* \"#utility.yul\":1570:1591   */\n      iszero\n        /* \"#utility.yul\":1559:1591   */\n      swap1\n      pop\n        /* \"#utility.yul\":1507:1597   */\n      swap2\n      swap1\n      pop\n      jump\t// out\n        /* \"#utility.yul\":1603:1712   */\n    tag_161:\n        /* \"#utility.yul\":1684:1705   */\n      tag_209\n        /* \"#utility.yul\":1699:1704   */\n      dup2\n        /* \"#utility.yul\":1684:1705   */\n      tag_160\n      jump\t// in\n    tag_209:\n        /* \"#utility.yul\":1679:1682   */\n      dup3\n        /* \"#utility.yul\":1672:1706   */\n      mstore\n        /* \"#utility.yul\":1603:1712   */\n      pop\n      pop\n      jump\t// out\n        /* \"#utility.yul\":1718:2148   */\n    tag_19:\n        /* \"#utility.yul\":1861:1865   */\n      0x00\n        /* \"#utility.yul\":1899:1901   */\n      0x60\n        /* \"#utility.yul\":1888:1897   */\n      dup3\n        /* \"#utility.yul\":1884:1902   */\n      add\n        /* \"#utility.yul\":1876:1902   */\n      swap1\n      pop\n        /* \"#utility.yul\":1912:1983   */\n      tag_211\n        /* \"#utility.yul\":1980:1981   */\n      0x00\n        /* \"#utility.yul\":1969:1978   */\n      dup4\n        /* \"#utility.yul\":1965:1982   */\n      add\n        /* \"#utility.yul\":1956:1962   */\n      dup7\n        /* \"#utility.yul\":1912:1983   */\n      tag_158\n      jump\t// in\n    tag_211:\n        /* \"#utility.yul\":1993:2065   */\n      tag_212\n        /* \"#utility.yul\":2061:2063   */\n      0x20\n        /* \"#utility.yul\":2050:2059   */\n      dup4\n        /* \"#utility.yul\":2046:2064   */\n      add\n        /* \"#utility.yul\":2037:2043   */\n      dup6\n        /* \"#utility.yul\":1993:2065   */\n      tag_159\n      jump\t// in\n    tag_212:\n        /* \"#utility.yul\":2075:2141   */\n      tag_213\n        /* \"#utility.yul\":2137:2139   */\n      0x40\n        /* \"#utility.yul\":2126:2135   */\n      dup4\n        /* \"#utility.yul\":2122:2140   */\n      add\n        /* \"#utility.yul\":2113:2119   */\n      dup5\n        /* \"#utility.yul\":2075:2141   */\n      tag_161\n      jump\t// in\n    tag_213:\n        /* \"#utility.yul\":1718:2148   */\n      swap5\n      swap4\n      pop\n      pop\n      pop\n      pop\n      jump\t// out\n        /* \"#utility.yul\":2154:2628   */\n    tag_27:\n        /* \"#utility.yul\":2222:2228   */\n      0x00\n        /* \"#utility.yul\":2230:2236   */\n      dup1\n        /* \"#utility.yul\":2279:2281   */\n      0x40\n        /* \"#utility.yul\":2267:2276   */\n      dup4\n        /* \"#utility.yul\":2258:2265   */\n      dup6\n        /* \"#utility.yul\":2254:2277   */\n      sub\n        /* \"#utility.yul\":2250:2282   */\n      slt\n        /* \"#utility.yul\":2247:2366   */\n      iszero\n      tag_215\n      jumpi\n        /* \"#utility.yul\":2285:2364   */\n      tag_216\n      tag_151\n      jump\t// in\n    tag_216:\n        /* \"#utility.yul\":2247:2366   */\n    tag_215:\n        /* \"#utility.yul\":2405:2406   */\n      0x00\n        /* \"#utility.yul\":2430:2483   */\n      tag_217\n        /* \"#utility.yul\":2475:2482   */\n      dup6\n        /* \"#utility.yul\":2466:2472   */\n      dup3\n        /* \"#utility.yul\":2455:2464   */\n      dup7\n        /* \"#utility.yul\":2451:2473   */\n      add\n        /* \"#utility.yul\":2430:2483   */\n      tag_155\n      jump\t// in\n    tag_217:\n        /* \"#utility.yul\":2420:2483   */\n      swap3\n      pop\n        /* \"#utility.yul\":2376:2493   */\n      pop\n        /* \"#utility.yul\":2532:2534   */\n      0x20\n        /* \"#utility.yul\":2558:2611   */\n      tag_218\n        /* \"#utility.yul\":2603:2610   */\n      dup6\n        /* \"#utility.yul\":2594:2600   */\n      dup3\n        /* \"#utility.yul\":2583:2592   */\n      dup7\n        /* \"#utility.yul\":2579:2601   */\n      add\n        /* \"#utility.yul\":2558:2611   */\n      tag_155\n      jump\t// in\n    tag_218:\n        /* \"#utility.yul\":2548:2611   */\n      swap2\n      pop\n        /* \"#utility.yul\":2503:2621   */\n      pop\n        /* \"#utility.yul\":2154:2628   */\n      swap3\n      pop\n      swap3\n      swap1\n      pop\n      jump\t// out\n        /* \"#utility.yul\":2634:2856   */\n    tag_39:\n        /* \"#utility.yul\":2727:2731   */\n      0x00\n        /* \"#utility.yul\":2765:2767   */\n      0x20\n        /* \"#utility.yul\":2754:2763   */\n      dup3\n        /* \"#utility.yul\":2750:2768   */\n      add\n        /* \"#utility.yul\":2742:2768   */\n      swap1\n      pop\n        /* \"#utility.yul\":2778:2849   */\n      tag_220\n        /* \"#utility.yul\":2846:2847   */\n      0x00\n        /* \"#utility.yul\":2835:2844   */\n      dup4\n        /* \"#utility.yul\":2831:2848   */\n      add\n        /* \"#utility.yul\":2822:2828   */\n      dup5\n        /* \"#utility.yul\":2778:2849   */\n      tag_159\n      jump\t// in\n    tag_220:\n        /* \"#utility.yul\":2634:2856   */\n      swap3\n      swap2\n      pop\n      pop\n      jump\t// out\n        /* \"#utility.yul\":2862:3084   */\n    tag_44:\n        /* \"#utility.yul\":2955:2959   */\n      0x00\n        /* \"#utility.yul\":2993:2995   */\n      0x20\n        /* \"#utility.yul\":2982:2991   */\n      dup3\n        /* \"#utility.yul\":2978:2996   */\n      add\n        /* \"#utility.yul\":2970:2996   */\n      swap1\n      pop\n        /* \"#utility.yul\":3006:3077   */\n      tag_222\n        /* \"#utility.yul\":3074:3075   */\n      0x00\n        /* \"#utility.yul\":3063:3072   */\n      dup4\n        /* \"#utility.yul\":3059:3076   */\n      add\n        /* \"#utility.yul\":3050:3056   */\n      dup5\n        /* \"#utility.yul\":3006:3077   */\n      tag_158\n      jump\t// in\n    tag_222:\n        /* \"#utility.yul\":2862:3084   */\n      swap3\n      swap2\n      pop\n      pop\n      jump\t// out\n        /* \"#utility.yul\":3090:3212   */\n    tag_162:\n        /* \"#utility.yul\":3163:3187   */\n      tag_224\n        /* \"#utility.yul\":3181:3186   */\n      dup2\n        /* \"#utility.yul\":3163:3187   */\n      tag_157\n      jump\t// in\n    tag_224:\n        /* \"#utility.yul\":3156:3161   */\n      dup2\n        /* \"#utility.yul\":3153:3188   */\n      eq\n        /* \"#utility.yul\":3143:3206   */\n      tag_225\n      jumpi\n        /* \"#utility.yul\":3202:3203   */\n      0x00\n        /* \"#utility.yul\":3199:3200   */\n      dup1\n        /* \"#utility.yul\":3192:3204   */\n      revert\n        /* \"#utility.yul\":3143:3206   */\n    tag_225:\n        /* \"#utility.yul\":3090:3212   */\n      pop\n      jump\t// out\n        /* \"#utility.yul\":3218:3357   */\n    tag_163:\n        /* \"#utility.yul\":3264:3269   */\n      0x00\n        /* \"#utility.yul\":3302:3308   */\n      dup2\n        /* \"#utility.yul\":3289:3309   */\n      calldataload\n        /* \"#utility.yul\":3280:3309   */\n      swap1\n      pop\n        /* \"#utility.yul\":3318:3351   */\n      tag_227\n        /* \"#utility.yul\":3345:3350   */\n      dup2\n        /* \"#utility.yul\":3318:3351   */\n      tag_162\n      jump\t// in\n    tag_227:\n        /* \"#utility.yul\":3218:3357   */\n      swap3\n      swap2\n      pop\n      pop\n      jump\t// out\n        /* \"#utility.yul\":3363:3692   */\n    tag_57:\n        /* \"#utility.yul\":3422:3428   */\n      0x00\n        /* \"#utility.yul\":3471:3473   */\n      0x20\n        /* \"#utility.yul\":3459:3468   */\n      dup3\n        /* \"#utility.yul\":3450:3457   */\n      dup5\n        /* \"#utility.yul\":3446:3469   */\n      sub\n        /* \"#utility.yul\":3442:3474   */\n      slt\n        /* \"#utility.yul\":3439:3558   */\n      iszero\n      tag_229\n      jumpi\n        /* \"#utility.yul\":3477:3556   */\n      tag_230\n      tag_151\n      jump\t// in\n    tag_230:\n        /* \"#utility.yul\":3439:3558   */\n    tag_229:\n        /* \"#utility.yul\":3597:3598   */\n      0x00\n        /* \"#utility.yul\":3622:3675   */\n      tag_231\n        /* \"#utility.yul\":3667:3674   */\n      dup5\n        /* \"#utility.yul\":3658:3664   */\n      dup3\n        /* \"#utility.yul\":3647:3656   */\n      dup6\n        /* \"#utility.yul\":3643:3665   */\n      add\n        /* \"#utility.yul\":3622:3675   */\n      tag_163\n      jump\t// in\n    tag_231:\n        /* \"#utility.yul\":3612:3675   */\n      swap2\n      pop\n        /* \"#utility.yul\":3568:3685   */\n      pop\n        /* \"#utility.yul\":3363:3692   */\n      swap3\n      swap2\n      pop\n      pop\n      jump\t// out\n        /* \"#utility.yul\":3698:3867   */\n    tag_164:\n        /* \"#utility.yul\":3782:3793   */\n      0x00\n        /* \"#utility.yul\":3816:3822   */\n      dup3\n        /* \"#utility.yul\":3811:3814   */\n      dup3\n        /* \"#utility.yul\":3804:3823   */\n      mstore\n        /* \"#utility.yul\":3856:3860   */\n      0x20\n        /* \"#utility.yul\":3851:3854   */\n      dup3\n        /* \"#utility.yul\":3847:3861   */\n      add\n        /* \"#utility.yul\":3832:3861   */\n      swap1\n      pop\n        /* \"#utility.yul\":3698:3867   */\n      swap3\n      swap2\n      pop\n      pop\n      jump\t// out\n        /* \"#utility.yul\":3873:4044   */\n    tag_165:\n        /* \"#utility.yul\":4013:4036   */\n      0x50726f64756374206973206e6f74206c69737465640000000000000000000000\n        /* \"#utility.yul\":4009:4010   */\n      0x00\n        /* \"#utility.yul\":4001:4007   */\n      dup3\n        /* \"#utility.yul\":3997:4011   */\n      add\n        /* \"#utility.yul\":3990:4037   */\n      mstore\n        /* \"#utility.yul\":3873:4044   */\n      pop\n      jump\t// out\n        /* \"#utility.yul\":4050:4416   */\n    tag_166:\n        /* \"#utility.yul\":4192:4195   */\n      0x00\n        /* \"#utility.yul\":4213:4280   */\n      tag_235\n        /* \"#utility.yul\":4277:4279   */\n      0x15\n        /* \"#utility.yul\":4272:4275   */\n      dup4\n        /* \"#utility.yul\":4213:4280   */\n      tag_164\n      jump\t// in\n    tag_235:\n        /* \"#utility.yul\":4206:4280   */\n      swap2\n      pop\n        /* \"#utility.yul\":4289:4382   */\n      tag_236\n        /* \"#utility.yul\":4378:4381   */\n      dup3\n        /* \"#utility.yul\":4289:4382   */\n      tag_165\n      jump\t// in\n    tag_236:\n        /* \"#utility.yul\":4407:4409   */\n      0x20\n        /* \"#utility.yul\":4402:4405   */\n      dup3\n        /* \"#utility.yul\":4398:4410   */\n      add\n        /* \"#utility.yul\":4391:4410   */\n      swap1\n      pop\n        /* \"#utility.yul\":4050:4416   */\n      swap2\n      swap1\n      pop\n      jump\t// out\n        /* \"#utility.yul\":4422:4841   */\n    tag_63:\n        /* \"#utility.yul\":4588:4592   */\n      0x00\n        /* \"#utility.yul\":4626:4628   */\n      0x20\n        /* \"#utility.yul\":4615:4624   */\n      dup3\n        /* \"#utility.yul\":4611:4629   */\n      add\n        /* \"#utility.yul\":4603:4629   */\n      swap1\n      pop\n        /* \"#utility.yul\":4675:4684   */\n      dup2\n        /* \"#utility.yul\":4669:4673   */\n      dup2\n        /* \"#utility.yul\":4665:4685   */\n      sub\n        /* \"#utility.yul\":4661:4662   */\n      0x00\n        /* \"#utility.yul\":4650:4659   */\n      dup4\n        /* \"#utility.yul\":4646:4663   */\n      add\n        /* \"#utility.yul\":4639:4686   */\n      mstore\n        /* \"#utility.yul\":4703:4834   */\n      tag_238\n        /* \"#utility.yul\":4829:4833   */\n      dup2\n        /* \"#utility.yul\":4703:4834   */\n      tag_166\n      jump\t// in\n    tag_238:\n        /* \"#utility.yul\":4695:4834   */\n      swap1\n      pop\n        /* \"#utility.yul\":4422:4841   */\n      swap2\n      swap1\n      pop\n      jump\t// out\n        /* \"#utility.yul\":4847:5019   */\n    tag_167:\n        /* \"#utility.yul\":4987:5011   */\n      0x596f7520617265206e6f74207468652073656c6c657200000000000000000000\n        /* \"#utility.yul\":4983:4984   */\n      0x00\n        /* \"#utility.yul\":4975:4981   */\n      dup3\n        /* \"#utility.yul\":4971:4985   */\n      add\n        /* \"#utility.yul\":4964:5012   */\n      mstore\n        /* \"#utility.yul\":4847:5019   */\n      pop\n      jump\t// out\n        /* \"#utility.yul\":5025:5391   */\n    tag_168:\n        /* \"#utility.yul\":5167:5170   */\n      0x00\n        /* \"#utility.yul\":5188:5255   */\n      tag_241\n        /* \"#utility.yul\":5252:5254   */\n      0x16\n        /* \"#utility.yul\":5247:5250   */\n      dup4\n        /* \"#utility.yul\":5188:5255   */\n      tag_164\n      jump\t// in\n    tag_241:\n        /* \"#utility.yul\":5181:5255   */\n      swap2\n      pop\n        /* \"#utility.yul\":5264:5357   */\n      tag_242\n        /* \"#utility.yul\":5353:5356   */\n      dup3\n        /* \"#utility.yul\":5264:5357   */\n      tag_167\n      jump\t// in\n    tag_242:\n        /* \"#utility.yul\":5382:5384   */\n      0x20\n        /* \"#utility.yul\":5377:5380   */\n      dup3\n        /* \"#utility.yul\":5373:5385   */\n      add\n        /* \"#utility.yul\":5366:5385   */\n      swap1\n      pop\n        /* \"#utility.yul\":5025:5391   */\n      swap2\n      swap1\n      pop\n      jump\t// out\n        /* \"#utility.yul\":5397:5816   */\n    tag_66:\n        /* \"#utility.yul\":5563:5567   */\n      0x00\n        /* \"#utility.yul\":5601:5603   */\n      0x20\n        /* \"#utility.yul\":5590:5599   */\n      dup3\n        /* \"#utility.yul\":5586:5604   */\n      add\n        /* \"#utility.yul\":5578:5604   */\n      swap1\n      pop\n        /* \"#utility.yul\":5650:5659   */\n      dup2\n        /* \"#utility.yul\":5644:5648   */\n      dup2\n        /* \"#utility.yul\":5640:5660   */\n      sub\n        /* \"#utility.yul\":5636:5637   */\n      0x00\n        /* \"#utility.yul\":5625:5634   */\n      dup4\n        /* \"#utility.yul\":5621:5638   */\n      add\n        /* \"#utility.yul\":5614:5661   */\n      mstore\n        /* \"#utility.yul\":5678:5809   */\n      tag_244\n        /* \"#utility.yul\":5804:5808   */\n      dup2\n        /* \"#utility.yul\":5678:5809   */\n      tag_168\n      jump\t// in\n    tag_244:\n        /* \"#utility.yul\":5670:5809   */\n      swap1\n      pop\n        /* \"#utility.yul\":5397:5816   */\n      swap2\n      swap1\n      pop\n      jump\t// out\n        /* \"#utility.yul\":5822:6000   */\n    tag_169:\n        /* \"#utility.yul\":5962:5992   */\n      0x5072696365206d7573742062652067726561746572207468616e203000000000\n        /* \"#utility.yul\":5958:5959   */\n      0x00\n        /* \"#utility.yul\":5950:5956   */\n      dup3\n        /* \"#utility.yul\":5946:5960   */\n      add\n        /* \"#utility.yul\":5939:5993   */\n      mstore\n        /* \"#utility.yul\":5822:6000   */\n      pop\n      jump\t// out\n        /* \"#utility.yul\":6006:6372   */\n    tag_170:\n        /* \"#utility.yul\":6148:6151   */\n      0x00\n        /* \"#utility.yul\":6169:6236   */\n      tag_247\n        /* \"#utility.yul\":6233:6235   */\n      0x1c\n        /* \"#utility.yul\":6228:6231   */\n      dup4\n        /* \"#utility.yul\":6169:6236   */\n      tag_164\n      jump\t// in\n    tag_247:\n        /* \"#utility.yul\":6162:6236   */\n      swap2\n      pop\n        /* \"#utility.yul\":6245:6338   */\n      tag_248\n        /* \"#utility.yul\":6334:6337   */\n      dup3\n        /* \"#utility.yul\":6245:6338   */\n      tag_169\n      jump\t// in\n    tag_248:\n        /* \"#utility.yul\":6363:6365   */\n      0x20\n        /* \"#utility.yul\":6358:6361   */\n      dup3\n        /* \"#utility.yul\":6354:6366   */\n      add\n        /* \"#utility.yul\":6347:6366   */\n      swap1\n      pop\n        /* \"#utility.yul\":6006:6372   */\n      swap2\n      swap1\n      pop\n      jump\t// out\n        /* \"#utility.yul\":6378:6797   */\n    tag_70:\n        /* \"#utility.yul\":6544:6548   */\n      0x00\n        /* \"#utility.yul\":6582:6584   */\n      0x20\n        /* \"#utility.yul\":6571:6580   */\n      dup3\n        /* \"#utility.yul\":6567:6585   */\n      add\n        /* \"#utility.yul\":6559:6585   */\n      swap1\n      pop\n        /* \"#utility.yul\":6631:6640   */\n      dup2\n        /* \"#utility.yul\":6625:6629   */\n      dup2\n        /* \"#utility.yul\":6621:6641   */\n      sub\n        /* \"#utility.yul\":6617:6618   */\n      0x00\n        /* \"#utility.yul\":6606:6615   */\n      dup4\n        /* \"#utility.yul\":6602:6619   */\n      add\n        /* \"#utility.yul\":6595:6642   */\n      mstore\n        /* \"#utility.yul\":6659:6790   */\n      tag_250\n        /* \"#utility.yul\":6785:6789   */\n      dup2\n        /* \"#utility.yul\":6659:6790   */\n      tag_170\n      jump\t// in\n    tag_250:\n        /* \"#utility.yul\":6651:6790   */\n      swap1\n      pop\n        /* \"#utility.yul\":6378:6797   */\n      swap2\n      swap1\n      pop\n      jump\t// out\n        /* \"#utility.yul\":6803:6946   */\n    tag_171:\n        /* \"#utility.yul\":6860:6865   */\n      0x00\n        /* \"#utility.yul\":6891:6897   */\n      dup2\n        /* \"#utility.yul\":6885:6898   */\n      mload\n        /* \"#utility.yul\":6876:6898   */\n      swap1\n      pop\n        /* \"#utility.yul\":6907:6940   */\n      tag_252\n        /* \"#utility.yul\":6934:6939   */\n      dup2\n        /* \"#utility.yul\":6907:6940   */\n      tag_162\n      jump\t// in\n    tag_252:\n        /* \"#utility.yul\":6803:6946   */\n      swap3\n      swap2\n      pop\n      pop\n      jump\t// out\n        /* \"#utility.yul\":6952:7303   */\n    tag_75:\n        /* \"#utility.yul\":7022:7028   */\n      0x00\n        /* \"#utility.yul\":7071:7073   */\n      0x20\n        /* \"#utility.yul\":7059:7068   */\n      dup3\n        /* \"#utility.yul\":7050:7057   */\n      dup5\n        /* \"#utility.yul\":7046:7069   */\n      sub\n        /* \"#utility.yul\":7042:7074   */\n      slt\n        /* \"#utility.yul\":7039:7158   */\n      iszero\n      tag_254\n      jumpi\n        /* \"#utility.yul\":7077:7156   */\n      tag_255\n      tag_151\n      jump\t// in\n    tag_255:\n        /* \"#utility.yul\":7039:7158   */\n    tag_254:\n        /* \"#utility.yul\":7197:7198   */\n      0x00\n        /* \"#utility.yul\":7222:7286   */\n      tag_256\n        /* \"#utility.yul\":7278:7285   */\n      dup5\n        /* \"#utility.yul\":7269:7275   */\n      dup3\n        /* \"#utility.yul\":7258:7267   */\n      dup6\n        /* \"#utility.yul\":7254:7276   */\n      add\n        /* \"#utility.yul\":7222:7286   */\n      tag_171\n      jump\t// in\n    tag_256:\n        /* \"#utility.yul\":7212:7286   */\n      swap2\n      pop\n        /* \"#utility.yul\":7168:7296   */\n      pop\n        /* \"#utility.yul\":6952:7303   */\n      swap3\n      swap2\n      pop\n      pop\n      jump\t// out\n        /* \"#utility.yul\":7309:7490   */\n    tag_172:\n        /* \"#utility.yul\":7449:7482   */\n      0x596f75206d757374206f776e20746865204e465420746f206c69737420697400\n        /* \"#utility.yul\":7445:7446   */\n      0x00\n        /* \"#utility.yul\":7437:7443   */\n      dup3\n        /* \"#utility.yul\":7433:7447   */\n      add\n        /* \"#utility.yul\":7426:7483   */\n      mstore\n        /* \"#utility.yul\":7309:7490   */\n      pop\n      jump\t// out\n        /* \"#utility.yul\":7496:7862   */\n    tag_173:\n        /* \"#utility.yul\":7638:7641   */\n      0x00\n        /* \"#utility.yul\":7659:7726   */\n      tag_259\n        /* \"#utility.yul\":7723:7725   */\n      0x1f\n        /* \"#utility.yul\":7718:7721   */\n      dup4\n        /* \"#utility.yul\":7659:7726   */\n      tag_164\n      jump\t// in\n    tag_259:\n        /* \"#utility.yul\":7652:7726   */\n      swap2\n      pop\n        /* \"#utility.yul\":7735:7828   */\n      tag_260\n        /* \"#utility.yul\":7824:7827   */\n      dup3\n        /* \"#utility.yul\":7735:7828   */\n      tag_172\n      jump\t// in\n    tag_260:\n        /* \"#utility.yul\":7853:7855   */\n      0x20\n        /* \"#utility.yul\":7848:7851   */\n      dup3\n        /* \"#utility.yul\":7844:7856   */\n      add\n        /* \"#utility.yul\":7837:7856   */\n      swap1\n      pop\n        /* \"#utility.yul\":7496:7862   */\n      swap2\n      swap1\n      pop\n      jump\t// out\n        /* \"#utility.yul\":7868:8287   */\n    tag_78:\n        /* \"#utility.yul\":8034:8038   */\n      0x00\n        /* \"#utility.yul\":8072:8074   */\n      0x20\n        /* \"#utility.yul\":8061:8070   */\n      dup3\n        /* \"#utility.yul\":8057:8075   */\n      add\n        /* \"#utility.yul\":8049:8075   */\n      swap1\n      pop\n        /* \"#utility.yul\":8121:8130   */\n      dup2\n        /* \"#utility.yul\":8115:8119   */\n      dup2\n        /* \"#utility.yul\":8111:8131   */\n      sub\n        /* \"#utility.yul\":8107:8108   */\n      0x00\n        /* \"#utility.yul\":8096:8105   */\n      dup4\n        /* \"#utility.yul\":8092:8109   */\n      add\n        /* \"#utility.yul\":8085:8132   */\n      mstore\n        /* \"#utility.yul\":8149:8280   */\n      tag_262\n        /* \"#utility.yul\":8275:8279   */\n      dup2\n        /* \"#utility.yul\":8149:8280   */\n      tag_173\n      jump\t// in\n    tag_262:\n        /* \"#utility.yul\":8141:8280   */\n      swap1\n      pop\n        /* \"#utility.yul\":7868:8287   */\n      swap2\n      swap1\n      pop\n      jump\t// out\n        /* \"#utility.yul\":8293:8625   */\n    tag_80:\n        /* \"#utility.yul\":8414:8418   */\n      0x00\n        /* \"#utility.yul\":8452:8454   */\n      0x40\n        /* \"#utility.yul\":8441:8450   */\n      dup3\n        /* \"#utility.yul\":8437:8455   */\n      add\n        /* \"#utility.yul\":8429:8455   */\n      swap1\n      pop\n        /* \"#utility.yul\":8465:8536   */\n      tag_264\n        /* \"#utility.yul\":8533:8534   */\n      0x00\n        /* \"#utility.yul\":8522:8531   */\n      dup4\n        /* \"#utility.yul\":8518:8535   */\n      add\n        /* \"#utility.yul\":8509:8515   */\n      dup6\n        /* \"#utility.yul\":8465:8536   */\n      tag_158\n      jump\t// in\n    tag_264:\n        /* \"#utility.yul\":8546:8618   */\n      tag_265\n        /* \"#utility.yul\":8614:8616   */\n      0x20\n        /* \"#utility.yul\":8603:8612   */\n      dup4\n        /* \"#utility.yul\":8599:8617   */\n      add\n        /* \"#utility.yul\":8590:8596   */\n      dup5\n        /* \"#utility.yul\":8546:8618   */\n      tag_158\n      jump\t// in\n    tag_265:\n        /* \"#utility.yul\":8293:8625   */\n      swap4\n      swap3\n      pop\n      pop\n      pop\n      jump\t// out\n        /* \"#utility.yul\":8631:8747   */\n    tag_174:\n        /* \"#utility.yul\":8701:8722   */\n      tag_267\n        /* \"#utility.yul\":8716:8721   */\n      dup2\n        /* \"#utility.yul\":8701:8722   */\n      tag_160\n      jump\t// in\n    tag_267:\n        /* \"#utility.yul\":8694:8699   */\n      dup2\n        /* \"#utility.yul\":8691:8723   */\n      eq\n        /* \"#utility.yul\":8681:8741   */\n      tag_268\n      jumpi\n        /* \"#utility.yul\":8737:8738   */\n      0x00\n        /* \"#utility.yul\":8734:8735   */\n      dup1\n        /* \"#utility.yul\":8727:8739   */\n      revert\n        /* \"#utility.yul\":8681:8741   */\n    tag_268:\n        /* \"#utility.yul\":8631:8747   */\n      pop\n      jump\t// out\n        /* \"#utility.yul\":8753:8890   */\n    tag_175:\n        /* \"#utility.yul\":8807:8812   */\n      0x00\n        /* \"#utility.yul\":8838:8844   */\n      dup2\n        /* \"#utility.yul\":8832:8845   */\n      mload\n        /* \"#utility.yul\":8823:8845   */\n      swap1\n      pop\n        /* \"#utility.yul\":8854:8884   */\n      tag_270\n        /* \"#utility.yul\":8878:8883   */\n      dup2\n        /* \"#utility.yul\":8854:8884   */\n      tag_174\n      jump\t// in\n    tag_270:\n        /* \"#utility.yul\":8753:8890   */\n      swap3\n      swap2\n      pop\n      pop\n      jump\t// out\n        /* \"#utility.yul\":8896:9241   */\n    tag_84:\n        /* \"#utility.yul\":8963:8969   */\n      0x00\n        /* \"#utility.yul\":9012:9014   */\n      0x20\n        /* \"#utility.yul\":9000:9009   */\n      dup3\n        /* \"#utility.yul\":8991:8998   */\n      dup5\n        /* \"#utility.yul\":8987:9010   */\n      sub\n        /* \"#utility.yul\":8983:9015   */\n      slt\n        /* \"#utility.yul\":8980:9099   */\n      iszero\n      tag_272\n      jumpi\n        /* \"#utility.yul\":9018:9097   */\n      tag_273\n      tag_151\n      jump\t// in\n    tag_273:\n        /* \"#utility.yul\":8980:9099   */\n    tag_272:\n        /* \"#utility.yul\":9138:9139   */\n      0x00\n        /* \"#utility.yul\":9163:9224   */\n      tag_274\n        /* \"#utility.yul\":9216:9223   */\n      dup5\n        /* \"#utility.yul\":9207:9213   */\n      dup3\n        /* \"#utility.yul\":9196:9205   */\n      dup6\n        /* \"#utility.yul\":9192:9214   */\n      add\n        /* \"#utility.yul\":9163:9224   */\n      tag_175\n      jump\t// in\n    tag_274:\n        /* \"#utility.yul\":9153:9224   */\n      swap2\n      pop\n        /* \"#utility.yul\":9109:9234   */\n      pop\n        /* \"#utility.yul\":8896:9241   */\n      swap3\n      swap2\n      pop\n      pop\n      jump\t// out\n        /* \"#utility.yul\":9247:9482   */\n    tag_176:\n        /* \"#utility.yul\":9387:9421   */\n      0x4d61726b6574706c616365206d75737420626520617070726f76656420746f20\n        /* \"#utility.yul\":9383:9384   */\n      0x00\n        /* \"#utility.yul\":9375:9381   */\n      dup3\n        /* \"#utility.yul\":9371:9385   */\n      add\n        /* \"#utility.yul\":9364:9422   */\n      mstore\n        /* \"#utility.yul\":9456:9474   */\n      0x7472616e7366657220746865204e465400000000000000000000000000000000\n        /* \"#utility.yul\":9451:9453   */\n      0x20\n        /* \"#utility.yul\":9443:9449   */\n      dup3\n        /* \"#utility.yul\":9439:9454   */\n      add\n        /* \"#utility.yul\":9432:9475   */\n      mstore\n        /* \"#utility.yul\":9247:9482   */\n      pop\n      jump\t// out\n        /* \"#utility.yul\":9488:9854   */\n    tag_177:\n        /* \"#utility.yul\":9630:9633   */\n      0x00\n        /* \"#utility.yul\":9651:9718   */\n      tag_277\n        /* \"#utility.yul\":9715:9717   */\n      0x30\n        /* \"#utility.yul\":9710:9713   */\n      dup4\n        /* \"#utility.yul\":9651:9718   */\n      tag_164\n      jump\t// in\n    tag_277:\n        /* \"#utility.yul\":9644:9718   */\n      swap2\n      pop\n        /* \"#utility.yul\":9727:9820   */\n      tag_278\n        /* \"#utility.yul\":9816:9819   */\n      dup3\n        /* \"#utility.yul\":9727:9820   */\n      tag_176\n      jump\t// in\n    tag_278:\n        /* \"#utility.yul\":9845:9847   */\n      0x40\n        /* \"#utility.yul\":9840:9843   */\n      dup3\n        /* \"#utility.yul\":9836:9848   */\n      add\n        /* \"#utility.yul\":9829:9848   */\n      swap1\n      pop\n        /* \"#utility.yul\":9488:9854   */\n      swap2\n      swap1\n      pop\n      jump\t// out\n        /* \"#utility.yul\":9860:10279   */\n    tag_87:\n        /* \"#utility.yul\":10026:10030   */\n      0x00\n        /* \"#utility.yul\":10064:10066   */\n      0x20\n        /* \"#utility.yul\":10053:10062   */\n      dup3\n        /* \"#utility.yul\":10049:10067   */\n      add\n        /* \"#utility.yul\":10041:10067   */\n      swap1\n      pop\n        /* \"#utility.yul\":10113:10122   */\n      dup2\n        /* \"#utility.yul\":10107:10111   */\n      dup2\n        /* \"#utility.yul\":10103:10123   */\n      sub\n        /* \"#utility.yul\":10099:10100   */\n      0x00\n        /* \"#utility.yul\":10088:10097   */\n      dup4\n        /* \"#utility.yul\":10084:10101   */\n      add\n        /* \"#utility.yul\":10077:10124   */\n      mstore\n        /* \"#utility.yul\":10141:10272   */\n      tag_280\n        /* \"#utility.yul\":10267:10271   */\n      dup2\n        /* \"#utility.yul\":10141:10272   */\n      tag_177\n      jump\t// in\n    tag_280:\n        /* \"#utility.yul\":10133:10272   */\n      swap1\n      pop\n        /* \"#utility.yul\":9860:10279   */\n      swap2\n      swap1\n      pop\n      jump\t// out\n        /* \"#utility.yul\":10285:10458   */\n    tag_178:\n        /* \"#utility.yul\":10425:10450   */\n      0x50726f64756374206973206e6f7420666f722073616c65000000000000000000\n        /* \"#utility.yul\":10421:10422   */\n      0x00\n        /* \"#utility.yul\":10413:10419   */\n      dup3\n        /* \"#utility.yul\":10409:10423   */\n      add\n        /* \"#utility.yul\":10402:10451   */\n      mstore\n        /* \"#utility.yul\":10285:10458   */\n      pop\n      jump\t// out\n        /* \"#utility.yul\":10464:10830   */\n    tag_179:\n        /* \"#utility.yul\":10606:10609   */\n      0x00\n        /* \"#utility.yul\":10627:10694   */\n      tag_283\n        /* \"#utility.yul\":10691:10693   */\n      0x17\n        /* \"#utility.yul\":10686:10689   */\n      dup4\n        /* \"#utility.yul\":10627:10694   */\n      tag_164\n      jump\t// in\n    tag_283:\n        /* \"#utility.yul\":10620:10694   */\n      swap2\n      pop\n        /* \"#utility.yul\":10703:10796   */\n      tag_284\n        /* \"#utility.yul\":10792:10795   */\n      dup3\n        /* \"#utility.yul\":10703:10796   */\n      tag_178\n      jump\t// in\n    tag_284:\n        /* \"#utility.yul\":10821:10823   */\n      0x20\n        /* \"#utility.yul\":10816:10819   */\n      dup3\n        /* \"#utility.yul\":10812:10824   */\n      add\n        /* \"#utility.yul\":10805:10824   */\n      swap1\n      pop\n        /* \"#utility.yul\":10464:10830   */\n      swap2\n      swap1\n      pop\n      jump\t// out\n        /* \"#utility.yul\":10836:11255   */\n    tag_98:\n        /* \"#utility.yul\":11002:11006   */\n      0x00\n        /* \"#utility.yul\":11040:11042   */\n      0x20\n        /* \"#utility.yul\":11029:11038   */\n      dup3\n        /* \"#utility.yul\":11025:11043   */\n      add\n        /* \"#utility.yul\":11017:11043   */\n      swap1\n      pop\n        /* \"#utility.yul\":11089:11098   */\n      dup2\n        /* \"#utility.yul\":11083:11087   */\n      dup2\n        /* \"#utility.yul\":11079:11099   */\n      sub\n        /* \"#utility.yul\":11075:11076   */\n      0x00\n        /* \"#utility.yul\":11064:11073   */\n      dup4\n        /* \"#utility.yul\":11060:11077   */\n      add\n        /* \"#utility.yul\":11053:11100   */\n      mstore\n        /* \"#utility.yul\":11117:11248   */\n      tag_286\n        /* \"#utility.yul\":11243:11247   */\n      dup2\n        /* \"#utility.yul\":11117:11248   */\n      tag_179\n      jump\t// in\n    tag_286:\n        /* \"#utility.yul\":11109:11248   */\n      swap1\n      pop\n        /* \"#utility.yul\":10836:11255   */\n      swap2\n      swap1\n      pop\n      jump\t// out\n        /* \"#utility.yul\":11261:11435   */\n    tag_180:\n        /* \"#utility.yul\":11401:11427   */\n      0x496e636f7272656374207061796d656e7420616d6f756e740000000000000000\n        /* \"#utility.yul\":11397:11398   */\n      0x00\n        /* \"#utility.yul\":11389:11395   */\n      dup3\n        /* \"#utility.yul\":11385:11399   */\n      add\n        /* \"#utility.yul\":11378:11428   */\n      mstore\n        /* \"#utility.yul\":11261:11435   */\n      pop\n      jump\t// out\n        /* \"#utility.yul\":11441:11807   */\n    tag_181:\n        /* \"#utility.yul\":11583:11586   */\n      0x00\n        /* \"#utility.yul\":11604:11671   */\n      tag_289\n        /* \"#utility.yul\":11668:11670   */\n      0x18\n        /* \"#utility.yul\":11663:11666   */\n      dup4\n        /* \"#utility.yul\":11604:11671   */\n      tag_164\n      jump\t// in\n    tag_289:\n        /* \"#utility.yul\":11597:11671   */\n      swap2\n      pop\n        /* \"#utility.yul\":11680:11773   */\n      tag_290\n        /* \"#utility.yul\":11769:11772   */\n      dup3\n        /* \"#utility.yul\":11680:11773   */\n      tag_180\n      jump\t// in\n    tag_290:\n        /* \"#utility.yul\":11798:11800   */\n      0x20\n        /* \"#utility.yul\":11793:11796   */\n      dup3\n        /* \"#utility.yul\":11789:11801   */\n      add\n        /* \"#utility.yul\":11782:11801   */\n      swap1\n      pop\n        /* \"#utility.yul\":11441:11807   */\n      swap2\n      swap1\n      pop\n      jump\t// out\n        /* \"#utility.yul\":11813:12232   */\n    tag_101:\n        /* \"#utility.yul\":11979:11983   */\n      0x00\n        /* \"#utility.yul\":12017:12019   */\n      0x20\n        /* \"#utility.yul\":12006:12015   */\n      dup3\n        /* \"#utility.yul\":12002:12020   */\n      add\n        /* \"#utility.yul\":11994:12020   */\n      swap1\n      pop\n        /* \"#utility.yul\":12066:12075   */\n      dup2\n        /* \"#utility.yul\":12060:12064   */\n      dup2\n        /* \"#utility.yul\":12056:12076   */\n      sub\n        /* \"#utility.yul\":12052:12053   */\n      0x00\n        /* \"#utility.yul\":12041:12050   */\n      dup4\n        /* \"#utility.yul\":12037:12054   */\n      add\n        /* \"#utility.yul\":12030:12077   */\n      mstore\n        /* \"#utility.yul\":12094:12225   */\n      tag_292\n        /* \"#utility.yul\":12220:12224   */\n      dup2\n        /* \"#utility.yul\":12094:12225   */\n      tag_181\n      jump\t// in\n    tag_292:\n        /* \"#utility.yul\":12086:12225   */\n      swap1\n      pop\n        /* \"#utility.yul\":11813:12232   */\n      swap2\n      swap1\n      pop\n      jump\t// out\n        /* \"#utility.yul\":12238:12680   */\n    tag_109:\n        /* \"#utility.yul\":12387:12391   */\n      0x00\n        /* \"#utility.yul\":12425:12427   */\n      0x60\n        /* \"#utility.yul\":12414:12423   */\n      dup3\n        /* \"#utility.yul\":12410:12428   */\n      add\n        /* \"#utility.yul\":12402:12428   */\n      swap1\n      pop\n        /* \"#utility.yul\":12438:12509   */\n      tag_294\n        /* \"#utility.yul\":12506:12507   */\n      0x00\n        /* \"#utility.yul\":12495:12504   */\n      dup4\n        /* \"#utility.yul\":12491:12508   */\n      add\n        /* \"#utility.yul\":12482:12488   */\n      dup7\n        /* \"#utility.yul\":12438:12509   */\n      tag_158\n      jump\t// in\n    tag_294:\n        /* \"#utility.yul\":12519:12591   */\n      tag_295\n        /* \"#utility.yul\":12587:12589   */\n      0x20\n        /* \"#utility.yul\":12576:12585   */\n      dup4\n        /* \"#utility.yul\":12572:12590   */\n      add\n        /* \"#utility.yul\":12563:12569   */\n      dup6\n        /* \"#utility.yul\":12519:12591   */\n      tag_158\n      jump\t// in\n    tag_295:\n        /* \"#utility.yul\":12601:12673   */\n      tag_296\n        /* \"#utility.yul\":12669:12671   */\n      0x40\n        /* \"#utility.yul\":12658:12667   */\n      dup4\n        /* \"#utility.yul\":12654:12672   */\n      add\n        /* \"#utility.yul\":12645:12651   */\n      dup5\n        /* \"#utility.yul\":12601:12673   */\n      tag_159\n      jump\t// in\n    tag_296:\n        /* \"#utility.yul\":12238:12680   */\n      swap5\n      swap4\n      pop\n      pop\n      pop\n      pop\n      jump\t// out\n        /* \"#utility.yul\":12686:12864   */\n    tag_182:\n        /* \"#utility.yul\":12826:12856   */\n      0x4665652063616e6e6f74206265206d6f7265207468616e203130302500000000\n        /* \"#utility.yul\":12822:12823   */\n      0x00\n        /* \"#utility.yul\":12814:12820   */\n      dup3\n        /* \"#utility.yul\":12810:12824   */\n      add\n        /* \"#utility.yul\":12803:12857   */\n      mstore\n        /* \"#utility.yul\":12686:12864   */\n      pop\n      jump\t// out\n        /* \"#utility.yul\":12870:13236   */\n    tag_183:\n        /* \"#utility.yul\":13012:13015   */\n      0x00\n        /* \"#utility.yul\":13033:13100   */\n      tag_299\n        /* \"#utility.yul\":13097:13099   */\n      0x1c\n        /* \"#utility.yul\":13092:13095   */\n      dup4\n        /* \"#utility.yul\":13033:13100   */\n      tag_164\n      jump\t// in\n    tag_299:\n        /* \"#utility.yul\":13026:13100   */\n      swap2\n      pop\n        /* \"#utility.yul\":13109:13202   */\n      tag_300\n        /* \"#utility.yul\":13198:13201   */\n      dup3\n        /* \"#utility.yul\":13109:13202   */\n      tag_182\n      jump\t// in\n    tag_300:\n        /* \"#utility.yul\":13227:13229   */\n      0x20\n        /* \"#utility.yul\":13222:13225   */\n      dup3\n        /* \"#utility.yul\":13218:13230   */\n      add\n        /* \"#utility.yul\":13211:13230   */\n      swap1\n      pop\n        /* \"#utility.yul\":12870:13236   */\n      swap2\n      swap1\n      pop\n      jump\t// out\n        /* \"#utility.yul\":13242:13661   */\n    tag_125:\n        /* \"#utility.yul\":13408:13412   */\n      0x00\n        /* \"#utility.yul\":13446:13448   */\n      0x20\n        /* \"#utility.yul\":13435:13444   */\n      dup3\n        /* \"#utility.yul\":13431:13449   */\n      add\n        /* \"#utility.yul\":13423:13449   */\n      swap1\n      pop\n        /* \"#utility.yul\":13495:13504   */\n      dup2\n        /* \"#utility.yul\":13489:13493   */\n      dup2\n        /* \"#utility.yul\":13485:13505   */\n      sub\n        /* \"#utility.yul\":13481:13482   */\n      0x00\n        /* \"#utility.yul\":13470:13479   */\n      dup4\n        /* \"#utility.yul\":13466:13483   */\n      add\n        /* \"#utility.yul\":13459:13506   */\n      mstore\n        /* \"#utility.yul\":13523:13654   */\n      tag_302\n        /* \"#utility.yul\":13649:13653   */\n      dup2\n        /* \"#utility.yul\":13523:13654   */\n      tag_183\n      jump\t// in\n    tag_302:\n        /* \"#utility.yul\":13515:13654   */\n      swap1\n      pop\n        /* \"#utility.yul\":13242:13661   */\n      swap2\n      swap1\n      pop\n      jump\t// out\n        /* \"#utility.yul\":13667:13847   */\n    tag_184:\n        /* \"#utility.yul\":13715:13792   */\n      0x4e487b7100000000000000000000000000000000000000000000000000000000\n        /* \"#utility.yul\":13712:13713   */\n      0x00\n        /* \"#utility.yul\":13705:13793   */\n      mstore\n        /* \"#utility.yul\":13812:13816   */\n      0x11\n        /* \"#utility.yul\":13809:13810   */\n      0x04\n        /* \"#utility.yul\":13802:13817   */\n      mstore\n        /* \"#utility.yul\":13836:13840   */\n      0x24\n        /* \"#utility.yul\":13833:13834   */\n      0x00\n        /* \"#utility.yul\":13826:13841   */\n      revert\n        /* \"#utility.yul\":13853:14263   */\n    tag_142:\n        /* \"#utility.yul\":13893:13900   */\n      0x00\n        /* \"#utility.yul\":13916:13936   */\n      tag_305\n        /* \"#utility.yul\":13934:13935   */\n      dup3\n        /* \"#utility.yul\":13916:13936   */\n      tag_153\n      jump\t// in\n    tag_305:\n        /* \"#utility.yul\":13911:13936   */\n      swap2\n      pop\n        /* \"#utility.yul\":13950:13970   */\n      tag_306\n        /* \"#utility.yul\":13968:13969   */\n      dup4\n        /* \"#utility.yul\":13950:13970   */\n      tag_153\n      jump\t// in\n    tag_306:\n        /* \"#utility.yul\":13945:13970   */\n      swap3\n      pop\n        /* \"#utility.yul\":14005:14006   */\n      dup3\n        /* \"#utility.yul\":14002:14003   */\n      dup3\n        /* \"#utility.yul\":13998:14007   */\n      mul\n        /* \"#utility.yul\":14027:14057   */\n      tag_307\n        /* \"#utility.yul\":14045:14056   */\n      dup2\n        /* \"#utility.yul\":14027:14057   */\n      tag_153\n      jump\t// in\n    tag_307:\n        /* \"#utility.yul\":14016:14057   */\n      swap2\n      pop\n        /* \"#utility.yul\":14206:14207   */\n      dup3\n        /* \"#utility.yul\":14197:14204   */\n      dup3\n        /* \"#utility.yul\":14193:14208   */\n      div\n        /* \"#utility.yul\":14190:14191   */\n      dup5\n        /* \"#utility.yul\":14187:14209   */\n      eq\n        /* \"#utility.yul\":14167:14168   */\n      dup4\n        /* \"#utility.yul\":14160:14169   */\n      iszero\n        /* \"#utility.yul\":14140:14223   */\n      or\n        /* \"#utility.yul\":14117:14256   */\n      tag_308\n      jumpi\n        /* \"#utility.yul\":14236:14254   */\n      tag_309\n      tag_184\n      jump\t// in\n    tag_309:\n        /* \"#utility.yul\":14117:14256   */\n    tag_308:\n        /* \"#utility.yul\":13901:14263   */\n      pop\n        /* \"#utility.yul\":13853:14263   */\n      swap3\n      swap2\n      pop\n      pop\n      jump\t// out\n        /* \"#utility.yul\":14269:14449   */\n    tag_185:\n        /* \"#utility.yul\":14317:14394   */\n      0x4e487b7100000000000000000000000000000000000000000000000000000000\n        /* \"#utility.yul\":14314:14315   */\n      0x00\n        /* \"#utility.yul\":14307:14395   */\n      mstore\n        /* \"#utility.yul\":14414:14418   */\n      0x12\n        /* \"#utility.yul\":14411:14412   */\n      0x04\n        /* \"#utility.yul\":14404:14419   */\n      mstore\n        /* \"#utility.yul\":14438:14442   */\n      0x24\n        /* \"#utility.yul\":14435:14436   */\n      0x00\n        /* \"#utility.yul\":14428:14443   */\n      revert\n        /* \"#utility.yul\":14455:14640   */\n    tag_145:\n        /* \"#utility.yul\":14495:14496   */\n      0x00\n        /* \"#utility.yul\":14512:14532   */\n      tag_312\n        /* \"#utility.yul\":14530:14531   */\n      dup3\n        /* \"#utility.yul\":14512:14532   */\n      tag_153\n      jump\t// in\n    tag_312:\n        /* \"#utility.yul\":14507:14532   */\n      swap2\n      pop\n        /* \"#utility.yul\":14546:14566   */\n      tag_313\n        /* \"#utility.yul\":14564:14565   */\n      dup4\n        /* \"#utility.yul\":14546:14566   */\n      tag_153\n      jump\t// in\n    tag_313:\n        /* \"#utility.yul\":14541:14566   */\n      swap3\n      pop\n        /* \"#utility.yul\":14585:14586   */\n      dup3\n        /* \"#utility.yul\":14575:14610   */\n      tag_314\n      jumpi\n        /* \"#utility.yul\":14590:14608   */\n      tag_315\n      tag_185\n      jump\t// in\n    tag_315:\n        /* \"#utility.yul\":14575:14610   */\n    tag_314:\n        /* \"#utility.yul\":14632:14633   */\n      dup3\n        /* \"#utility.yul\":14629:14630   */\n      dup3\n        /* \"#utility.yul\":14625:14634   */\n      div\n        /* \"#utility.yul\":14620:14634   */\n      swap1\n      pop\n        /* \"#utility.yul\":14455:14640   */\n      swap3\n      swap2\n      pop\n      pop\n      jump\t// out\n        /* \"#utility.yul\":14646:14840   */\n    tag_148:\n        /* \"#utility.yul\":14686:14690   */\n      0x00\n        /* \"#utility.yul\":14706:14726   */\n      tag_317\n        /* \"#utility.yul\":14724:14725   */\n      dup3\n        /* \"#utility.yul\":14706:14726   */\n      tag_153\n      jump\t// in\n    tag_317:\n        /* \"#utility.yul\":14701:14726   */\n      swap2\n      pop\n        /* \"#utility.yul\":14740:14760   */\n      tag_318\n        /* \"#utility.yul\":14758:14759   */\n      dup4\n        /* \"#utility.yul\":14740:14760   */\n      tag_153\n      jump\t// in\n    tag_318:\n        /* \"#utility.yul\":14735:14760   */\n      swap3\n      pop\n        /* \"#utility.yul\":14784:14785   */\n      dup3\n        /* \"#utility.yul\":14781:14782   */\n      dup3\n        /* \"#utility.yul\":14777:14786   */\n      sub\n        /* \"#utility.yul\":14769:14786   */\n      swap1\n      pop\n        /* \"#utility.yul\":14808:14809   */\n      dup2\n        /* \"#utility.yul\":14802:14806   */\n      dup2\n        /* \"#utility.yul\":14799:14810   */\n      gt\n        /* \"#utility.yul\":14796:14833   */\n      iszero\n      tag_319\n      jumpi\n        /* \"#utility.yul\":14813:14831   */\n      tag_320\n      tag_184\n      jump\t// in\n    tag_320:\n        /* \"#utility.yul\":14796:14833   */\n    tag_319:\n        /* \"#utility.yul\":14646:14840   */\n      swap3\n      swap2\n      pop\n      pop\n      jump\t// out\n\n    auxdata: 0xa264697066735822122036840af66ce74d4b70de56a549cfda115d50c60af2d271eaabd69f9ad34a8c0064736f6c63430008180033\n}\n",
				"bytecode": {
					"linkReferences": {},
					"object": "608060405234801562000010575f80fd5b506040516200177e3803806200177e833981810160405281019062000036919062000270565b805f73ffffffffffffffffffffffffffffffffffffffff168173ffffffffffffffffffffffffffffffffffffffff1603620000aa575f6040517f1e4fbdf7000000000000000000000000000000000000000000000000000000008152600401620000a19190620002c6565b60405180910390fd5b620000bb816200011260201b60201c565b50606482111562000103576040517f08c379a0000000000000000000000000000000000000000000000000000000008152600401620000fa906200033f565b60405180910390fd5b8160018190555050506200035f565b5f805f9054906101000a900473ffffffffffffffffffffffffffffffffffffffff169050815f806101000a81548173ffffffffffffffffffffffffffffffffffffffff021916908373ffffffffffffffffffffffffffffffffffffffff1602179055508173ffffffffffffffffffffffffffffffffffffffff168173ffffffffffffffffffffffffffffffffffffffff167f8be0079c531659141344cd1fd0a4f28419497f9722a3daafe3b4186f6b6457e060405160405180910390a35050565b5f80fd5b5f819050919050565b620001eb81620001d7565b8114620001f6575f80fd5b50565b5f815190506200020981620001e0565b92915050565b5f73ffffffffffffffffffffffffffffffffffffffff82169050919050565b5f6200023a826200020f565b9050919050565b6200024c816200022e565b811462000257575f80fd5b50565b5f815190506200026a8162000241565b92915050565b5f8060408385031215620002895762000288620001d3565b5b5f6200029885828601620001f9565b9250506020620002ab858286016200025a565b9150509250929050565b620002c0816200022e565b82525050565b5f602082019050620002db5f830184620002b5565b92915050565b5f82825260208201905092915050565b7f4665652063616e6e6f74206265206d6f7265207468616e2031303025000000005f82015250565b5f62000327601c83620002e1565b91506200033482620002f1565b602082019050919050565b5f6020820190508181035f830152620003588162000319565b9050919050565b611411806200036d5f395ff3fe608060405260043610610090575f3560e01c80638c639a85116100585780638c639a85146101545780638da5cb5b1461017e578063aa0b5988146101a8578063de74e57b146101d0578063f2fde38b1461020e57610090565b8063107a274a14610094578063305a67a8146100d257806344a2d466146100fa578063715018a6146101225780638642269e14610138575b5f80fd5b34801561009f575f80fd5b506100ba60048036038101906100b59190610cea565b610236565b6040516100c993929190610d7d565b60405180910390f35b3480156100dd575f80fd5b506100f860048036038101906100f39190610cea565b610294565b005b348015610105575f80fd5b50610120600480360381019061011b9190610db2565b6103eb565b005b34801561012d575f80fd5b506101366106dd565b005b610152600480360381019061014d9190610cea565b6106f0565b005b34801561015f575f80fd5b506101686109cd565b6040516101759190610df0565b60405180910390f35b348015610189575f80fd5b506101926109d3565b60405161019f9190610e09565b60405180910390f35b3480156101b3575f80fd5b506101ce60048036038101906101c99190610cea565b6109fa565b005b3480156101db575f80fd5b506101f660048036038101906101f19190610cea565b610a50565b60405161020593929190610d7d565b60405180910390f35b348015610219575f80fd5b50610234600480360381019061022f9190610e4c565b610aa1565b005b5f805f8060025f8681526020019081526020015f209050805f015f9054906101000a900473ffffffffffffffffffffffffffffffffffffffff168160010154826002015f9054906101000a900460ff16935093509350509193909250565b5f60025f8381526020019081526020015f209050806002015f9054906101000a900460ff166102f8576040517f08c379a00000000000000000000000000000000000000000000000000000000081526004016102ef90610ed1565b60405180910390fd5b805f015f9054906101000a900473ffffffffffffffffffffffffffffffffffffffff1673ffffffffffffffffffffffffffffffffffffffff163373ffffffffffffffffffffffffffffffffffffffff1614610388576040517f08c379a000000000000000000000000000000000000000000000000000000000815260040161037f90610f39565b60405180910390fd5b5f816002015f6101000a81548160ff0219169083151502179055503373ffffffffffffffffffffffffffffffffffffffff16827fbb7be15645f4eda9d65591c3a81b5e39256151f91bc25180315de259167c2e2360405160405180910390a35050565b5f811161042d576040517f08c379a000000000000000000000000000000000000000000000000000000000815260040161042490610fa1565b60405180910390fd5b5f3090505f8173ffffffffffffffffffffffffffffffffffffffff16636352211e856040518263ffffffff1660e01b815260040161046b9190610df0565b602060405180830381865afa158015610486573d5f803e3d5ffd5b505050506040513d601f19601f820116820180604052508101906104aa9190610fd3565b90508073ffffffffffffffffffffffffffffffffffffffff163373ffffffffffffffffffffffffffffffffffffffff161461051a576040517f08c379a000000000000000000000000000000000000000000000000000000000815260040161051190611048565b60405180910390fd5b8173ffffffffffffffffffffffffffffffffffffffff1663e985e9c582306040518363ffffffff1660e01b8152600401610555929190611066565b602060405180830381865afa158015610570573d5f803e3d5ffd5b505050506040513d601f19601f8201168201806040525081019061059491906110b7565b6105d3576040517f08c379a00000000000000000000000000000000000000000000000000000000081526004016105ca90611152565b60405180910390fd5b60405180606001604052808273ffffffffffffffffffffffffffffffffffffffff1681526020018481526020016001151581525060025f8681526020019081526020015f205f820151815f015f6101000a81548173ffffffffffffffffffffffffffffffffffffffff021916908373ffffffffffffffffffffffffffffffffffffffff160217905550602082015181600101556040820151816002015f6101000a81548160ff0219169083151502179055509050508073ffffffffffffffffffffffffffffffffffffffff16847faae25b31116c34c03f0dc58472ff47d3ea0e38a572ec53c9e66319b994717ddb856040516106cf9190610df0565b60405180910390a350505050565b6106e5610b25565b6106ee5f610bac565b565b5f60025f8381526020019081526020015f209050806002015f9054906101000a900460ff16610754576040517f08c379a000000000000000000000000000000000000000000000000000000000815260040161074b906111ba565b60405180910390fd5b8060010154341461079a576040517f08c379a000000000000000000000000000000000000000000000000000000000815260040161079190611222565b60405180910390fd5b5f6107c760646107b96001548560010154610c6d90919063ffffffff16565b610c8290919063ffffffff16565b90505f6107e1828460010154610c9790919063ffffffff16565b90503073ffffffffffffffffffffffffffffffffffffffff166342842e0e845f015f9054906101000a900473ffffffffffffffffffffffffffffffffffffffff1633876040518463ffffffff1660e01b815260040161084293929190611240565b5f604051808303815f87803b158015610859575f80fd5b505af115801561086b573d5f803e3d5ffd5b50505050825f015f9054906101000a900473ffffffffffffffffffffffffffffffffffffffff1673ffffffffffffffffffffffffffffffffffffffff166108fc8290811502906040515f60405180830381858888f193505050501580156108d4573d5f803e3d5ffd5b506108dd6109d3565b73ffffffffffffffffffffffffffffffffffffffff166108fc8390811502906040515f60405180830381858888f1935050505015801561091f573d5f803e3d5ffd5b505f836002015f6101000a81548160ff0219169083151502179055503373ffffffffffffffffffffffffffffffffffffffff16835f015f9054906101000a900473ffffffffffffffffffffffffffffffffffffffff1673ffffffffffffffffffffffffffffffffffffffff16857fa02e46fc9bbd3e1138787bc1dc117ae0b9a5a3745ea30b0ab673d79d9073902986600101546040516109bf9190610df0565b60405180910390a450505050565b60015481565b5f805f9054906101000a900473ffffffffffffffffffffffffffffffffffffffff16905090565b610a02610b25565b6064811115610a46576040517f08c379a0000000000000000000000000000000000000000000000000000000008152600401610a3d906112bf565b60405180910390fd5b8060018190555050565b6002602052805f5260405f205f91509050805f015f9054906101000a900473ffffffffffffffffffffffffffffffffffffffff1690806001015490806002015f9054906101000a900460ff16905083565b610aa9610b25565b5f73ffffffffffffffffffffffffffffffffffffffff168173ffffffffffffffffffffffffffffffffffffffff1603610b19575f6040517f1e4fbdf7000000000000000000000000000000000000000000000000000000008152600401610b109190610e09565b60405180910390fd5b610b2281610bac565b50565b610b2d610cac565b73ffffffffffffffffffffffffffffffffffffffff16610b4b6109d3565b73ffffffffffffffffffffffffffffffffffffffff1614610baa57610b6e610cac565b6040517f118cdaa7000000000000000000000000000000000000000000000000000000008152600401610ba19190610e09565b60405180910390fd5b565b5f805f9054906101000a900473ffffffffffffffffffffffffffffffffffffffff169050815f806101000a81548173ffffffffffffffffffffffffffffffffffffffff021916908373ffffffffffffffffffffffffffffffffffffffff1602179055508173ffffffffffffffffffffffffffffffffffffffff168173ffffffffffffffffffffffffffffffffffffffff167f8be0079c531659141344cd1fd0a4f28419497f9722a3daafe3b4186f6b6457e060405160405180910390a35050565b5f8183610c7a919061130a565b905092915050565b5f8183610c8f9190611378565b905092915050565b5f8183610ca491906113a8565b905092915050565b5f33905090565b5f80fd5b5f819050919050565b610cc981610cb7565b8114610cd3575f80fd5b50565b5f81359050610ce481610cc0565b92915050565b5f60208284031215610cff57610cfe610cb3565b5b5f610d0c84828501610cd6565b91505092915050565b5f73ffffffffffffffffffffffffffffffffffffffff82169050919050565b5f610d3e82610d15565b9050919050565b610d4e81610d34565b82525050565b610d5d81610cb7565b82525050565b5f8115159050919050565b610d7781610d63565b82525050565b5f606082019050610d905f830186610d45565b610d9d6020830185610d54565b610daa6040830184610d6e565b949350505050565b5f8060408385031215610dc857610dc7610cb3565b5b5f610dd585828601610cd6565b9250506020610de685828601610cd6565b9150509250929050565b5f602082019050610e035f830184610d54565b92915050565b5f602082019050610e1c5f830184610d45565b92915050565b610e2b81610d34565b8114610e35575f80fd5b50565b5f81359050610e4681610e22565b92915050565b5f60208284031215610e6157610e60610cb3565b5b5f610e6e84828501610e38565b91505092915050565b5f82825260208201905092915050565b7f50726f64756374206973206e6f74206c697374656400000000000000000000005f82015250565b5f610ebb601583610e77565b9150610ec682610e87565b602082019050919050565b5f6020820190508181035f830152610ee881610eaf565b9050919050565b7f596f7520617265206e6f74207468652073656c6c6572000000000000000000005f82015250565b5f610f23601683610e77565b9150610f2e82610eef565b602082019050919050565b5f6020820190508181035f830152610f5081610f17565b9050919050565b7f5072696365206d7573742062652067726561746572207468616e2030000000005f82015250565b5f610f8b601c83610e77565b9150610f9682610f57565b602082019050919050565b5f6020820190508181035f830152610fb881610f7f565b9050919050565b5f81519050610fcd81610e22565b92915050565b5f60208284031215610fe857610fe7610cb3565b5b5f610ff584828501610fbf565b91505092915050565b7f596f75206d757374206f776e20746865204e465420746f206c697374206974005f82015250565b5f611032601f83610e77565b915061103d82610ffe565b602082019050919050565b5f6020820190508181035f83015261105f81611026565b9050919050565b5f6040820190506110795f830185610d45565b6110866020830184610d45565b9392505050565b61109681610d63565b81146110a0575f80fd5b50565b5f815190506110b18161108d565b92915050565b5f602082840312156110cc576110cb610cb3565b5b5f6110d9848285016110a3565b91505092915050565b7f4d61726b6574706c616365206d75737420626520617070726f76656420746f205f8201527f7472616e7366657220746865204e465400000000000000000000000000000000602082015250565b5f61113c603083610e77565b9150611147826110e2565b604082019050919050565b5f6020820190508181035f83015261116981611130565b9050919050565b7f50726f64756374206973206e6f7420666f722073616c650000000000000000005f82015250565b5f6111a4601783610e77565b91506111af82611170565b602082019050919050565b5f6020820190508181035f8301526111d181611198565b9050919050565b7f496e636f7272656374207061796d656e7420616d6f756e7400000000000000005f82015250565b5f61120c601883610e77565b9150611217826111d8565b602082019050919050565b5f6020820190508181035f83015261123981611200565b9050919050565b5f6060820190506112535f830186610d45565b6112606020830185610d45565b61126d6040830184610d54565b949350505050565b7f4665652063616e6e6f74206265206d6f7265207468616e2031303025000000005f82015250565b5f6112a9601c83610e77565b91506112b482611275565b602082019050919050565b5f6020820190508181035f8301526112d68161129d565b9050919050565b7f4e487b71000000000000000000000000000000000000000000000000000000005f52601160045260245ffd5b5f61131482610cb7565b915061131f83610cb7565b925082820261132d81610cb7565b91508282048414831517611344576113436112dd565b5b5092915050565b7f4e487b71000000000000000000000000000000000000000000000000000000005f52601260045260245ffd5b5f61138282610cb7565b915061138d83610cb7565b92508261139d5761139c61134b565b5b828204905092915050565b5f6113b282610cb7565b91506113bd83610cb7565b92508282039050818111156113d5576113d46112dd565b5b9291505056fea264697066735822122036840af66ce74d4b70de56a549cfda115d50c60af2d271eaabd69f9ad34a8c0064736f6c63430008180033",
					"opcodes": "PUSH1 0x80 PUSH1 0x40 MSTORE CALLVALUE DUP1 ISZERO PUSH3 0x10 JUMPI PUSH0 DUP1 REVERT JUMPDEST POP PUSH1 0x40 MLOAD PUSH3 0x177E CODESIZE SUB DUP1 PUSH3 0x177E DUP4 CODECOPY DUP2 DUP2 ADD PUSH1 0x40 MSTORE DUP2 ADD SWAP1 PUSH3 0x36 SWAP2 SWAP1 PUSH3 0x270 JUMP JUMPDEST DUP1 PUSH0 PUSH20 0xFFFFFFFFFFFFFFFFFFFFFFFFFFFFFFFFFFFFFFFF AND DUP2 PUSH20 0xFFFFFFFFFFFFFFFFFFFFFFFFFFFFFFFFFFFFFFFF AND SUB PUSH3 0xAA JUMPI PUSH0 PUSH1 0x40 MLOAD PUSH32 0x1E4FBDF700000000000000000000000000000000000000000000000000000000 DUP2 MSTORE PUSH1 0x4 ADD PUSH3 0xA1 SWAP2 SWAP1 PUSH3 0x2C6 JUMP JUMPDEST PUSH1 0x40 MLOAD DUP1 SWAP2 SUB SWAP1 REVERT JUMPDEST PUSH3 0xBB DUP2 PUSH3 0x112 PUSH1 0x20 SHL PUSH1 0x20 SHR JUMP JUMPDEST POP PUSH1 0x64 DUP3 GT ISZERO PUSH3 0x103 JUMPI PUSH1 0x40 MLOAD PUSH32 0x8C379A000000000000000000000000000000000000000000000000000000000 DUP2 MSTORE PUSH1 0x4 ADD PUSH3 0xFA SWAP1 PUSH3 0x33F JUMP JUMPDEST PUSH1 0x40 MLOAD DUP1 SWAP2 SUB SWAP1 REVERT JUMPDEST DUP2 PUSH1 0x1 DUP2 SWAP1 SSTORE POP POP POP PUSH3 0x35F JUMP JUMPDEST PUSH0 DUP1 PUSH0 SWAP1 SLOAD SWAP1 PUSH2 0x100 EXP SWAP1 DIV PUSH20 0xFFFFFFFFFFFFFFFFFFFFFFFFFFFFFFFFFFFFFFFF AND SWAP1 POP DUP2 PUSH0 DUP1 PUSH2 0x100 EXP DUP2 SLOAD DUP2 PUSH20 0xFFFFFFFFFFFFFFFFFFFFFFFFFFFFFFFFFFFFFFFF MUL NOT AND SWAP1 DUP4 PUSH20 0xFFFFFFFFFFFFFFFFFFFFFFFFFFFFFFFFFFFFFFFF AND MUL OR SWAP1 SSTORE POP DUP2 PUSH20 0xFFFFFFFFFFFFFFFFFFFFFFFFFFFFFFFFFFFFFFFF AND DUP2 PUSH20 0xFFFFFFFFFFFFFFFFFFFFFFFFFFFFFFFFFFFFFFFF AND PUSH32 0x8BE0079C531659141344CD1FD0A4F28419497F9722A3DAAFE3B4186F6B6457E0 PUSH1 0x40 MLOAD PUSH1 0x40 MLOAD DUP1 SWAP2 SUB SWAP1 LOG3 POP POP JUMP JUMPDEST PUSH0 DUP1 REVERT JUMPDEST PUSH0 DUP2 SWAP1 POP SWAP2 SWAP1 POP JUMP JUMPDEST PUSH3 0x1EB DUP2 PUSH3 0x1D7 JUMP JUMPDEST DUP2 EQ PUSH3 0x1F6 JUMPI PUSH0 DUP1 REVERT JUMPDEST POP JUMP JUMPDEST PUSH0 DUP2 MLOAD SWAP1 POP PUSH3 0x209 DUP2 PUSH3 0x1E0 JUMP JUMPDEST SWAP3 SWAP2 POP POP JUMP JUMPDEST PUSH0 PUSH20 0xFFFFFFFFFFFFFFFFFFFFFFFFFFFFFFFFFFFFFFFF DUP3 AND SWAP1 POP SWAP2 SWAP1 POP JUMP JUMPDEST PUSH0 PUSH3 0x23A DUP3 PUSH3 0x20F JUMP JUMPDEST SWAP1 POP SWAP2 SWAP1 POP JUMP JUMPDEST PUSH3 0x24C DUP2 PUSH3 0x22E JUMP JUMPDEST DUP2 EQ PUSH3 0x257 JUMPI PUSH0 DUP1 REVERT JUMPDEST POP JUMP JUMPDEST PUSH0 DUP2 MLOAD SWAP1 POP PUSH3 0x26A DUP2 PUSH3 0x241 JUMP JUMPDEST SWAP3 SWAP2 POP POP JUMP JUMPDEST PUSH0 DUP1 PUSH1 0x40 DUP4 DUP6 SUB SLT ISZERO PUSH3 0x289 JUMPI PUSH3 0x288 PUSH3 0x1D3 JUMP JUMPDEST JUMPDEST PUSH0 PUSH3 0x298 DUP6 DUP3 DUP7 ADD PUSH3 0x1F9 JUMP JUMPDEST SWAP3 POP POP PUSH1 0x20 PUSH3 0x2AB DUP6 DUP3 DUP7 ADD PUSH3 0x25A JUMP JUMPDEST SWAP2 POP POP SWAP3 POP SWAP3 SWAP1 POP JUMP JUMPDEST PUSH3 0x2C0 DUP2 PUSH3 0x22E JUMP JUMPDEST DUP3 MSTORE POP POP JUMP JUMPDEST PUSH0 PUSH1 0x20 DUP3 ADD SWAP1 POP PUSH3 0x2DB PUSH0 DUP4 ADD DUP5 PUSH3 0x2B5 JUMP JUMPDEST SWAP3 SWAP2 POP POP JUMP JUMPDEST PUSH0 DUP3 DUP3 MSTORE PUSH1 0x20 DUP3 ADD SWAP1 POP SWAP3 SWAP2 POP POP JUMP JUMPDEST PUSH32 0x4665652063616E6E6F74206265206D6F7265207468616E203130302500000000 PUSH0 DUP3 ADD MSTORE POP JUMP JUMPDEST PUSH0 PUSH3 0x327 PUSH1 0x1C DUP4 PUSH3 0x2E1 JUMP JUMPDEST SWAP2 POP PUSH3 0x334 DUP3 PUSH3 0x2F1 JUMP JUMPDEST PUSH1 0x20 DUP3 ADD SWAP1 POP SWAP2 SWAP1 POP JUMP JUMPDEST PUSH0 PUSH1 0x20 DUP3 ADD SWAP1 POP DUP2 DUP2 SUB PUSH0 DUP4 ADD MSTORE PUSH3 0x358 DUP2 PUSH3 0x319 JUMP JUMPDEST SWAP1 POP SWAP2 SWAP1 POP JUMP JUMPDEST PUSH2 0x1411 DUP1 PUSH3 0x36D PUSH0 CODECOPY PUSH0 RETURN INVALID PUSH1 0x80 PUSH1 0x40 MSTORE PUSH1 0x4 CALLDATASIZE LT PUSH2 0x90 JUMPI PUSH0 CALLDATALOAD PUSH1 0xE0 SHR DUP1 PUSH4 0x8C639A85 GT PUSH2 0x58 JUMPI DUP1 PUSH4 0x8C639A85 EQ PUSH2 0x154 JUMPI DUP1 PUSH4 0x8DA5CB5B EQ PUSH2 0x17E JUMPI DUP1 PUSH4 0xAA0B5988 EQ PUSH2 0x1A8 JUMPI DUP1 PUSH4 0xDE74E57B EQ PUSH2 0x1D0 JUMPI DUP1 PUSH4 0xF2FDE38B EQ PUSH2 0x20E JUMPI PUSH2 0x90 JUMP JUMPDEST DUP1 PUSH4 0x107A274A EQ PUSH2 0x94 JUMPI DUP1 PUSH4 0x305A67A8 EQ PUSH2 0xD2 JUMPI DUP1 PUSH4 0x44A2D466 EQ PUSH2 0xFA JUMPI DUP1 PUSH4 0x715018A6 EQ PUSH2 0x122 JUMPI DUP1 PUSH4 0x8642269E EQ PUSH2 0x138 JUMPI JUMPDEST PUSH0 DUP1 REVERT JUMPDEST CALLVALUE DUP1 ISZERO PUSH2 0x9F JUMPI PUSH0 DUP1 REVERT JUMPDEST POP PUSH2 0xBA PUSH1 0x4 DUP1 CALLDATASIZE SUB DUP2 ADD SWAP1 PUSH2 0xB5 SWAP2 SWAP1 PUSH2 0xCEA JUMP JUMPDEST PUSH2 0x236 JUMP JUMPDEST PUSH1 0x40 MLOAD PUSH2 0xC9 SWAP4 SWAP3 SWAP2 SWAP1 PUSH2 0xD7D JUMP JUMPDEST PUSH1 0x40 MLOAD DUP1 SWAP2 SUB SWAP1 RETURN JUMPDEST CALLVALUE DUP1 ISZERO PUSH2 0xDD JUMPI PUSH0 DUP1 REVERT JUMPDEST POP PUSH2 0xF8 PUSH1 0x4 DUP1 CALLDATASIZE SUB DUP2 ADD SWAP1 PUSH2 0xF3 SWAP2 SWAP1 PUSH2 0xCEA JUMP JUMPDEST PUSH2 0x294 JUMP JUMPDEST STOP JUMPDEST CALLVALUE DUP1 ISZERO PUSH2 0x105 JUMPI PUSH0 DUP1 REVERT JUMPDEST POP PUSH2 0x120 PUSH1 0x4 DUP1 CALLDATASIZE SUB DUP2 ADD SWAP1 PUSH2 0x11B SWAP2 SWAP1 PUSH2 0xDB2 JUMP JUMPDEST PUSH2 0x3EB JUMP JUMPDEST STOP JUMPDEST CALLVALUE DUP1 ISZERO PUSH2 0x12D JUMPI PUSH0 DUP1 REVERT JUMPDEST POP PUSH2 0x136 PUSH2 0x6DD JUMP JUMPDEST STOP JUMPDEST PUSH2 0x152 PUSH1 0x4 DUP1 CALLDATASIZE SUB DUP2 ADD SWAP1 PUSH2 0x14D SWAP2 SWAP1 PUSH2 0xCEA JUMP JUMPDEST PUSH2 0x6F0 JUMP JUMPDEST STOP JUMPDEST CALLVALUE DUP1 ISZERO PUSH2 0x15F JUMPI PUSH0 DUP1 REVERT JUMPDEST POP PUSH2 0x168 PUSH2 0x9CD JUMP JUMPDEST PUSH1 0x40 MLOAD PUSH2 0x175 SWAP2 SWAP1 PUSH2 0xDF0 JUMP JUMPDEST PUSH1 0x40 MLOAD DUP1 SWAP2 SUB SWAP1 RETURN JUMPDEST CALLVALUE DUP1 ISZERO PUSH2 0x189 JUMPI PUSH0 DUP1 REVERT JUMPDEST POP PUSH2 0x192 PUSH2 0x9D3 JUMP JUMPDEST PUSH1 0x40 MLOAD PUSH2 0x19F SWAP2 SWAP1 PUSH2 0xE09 JUMP JUMPDEST PUSH1 0x40 MLOAD DUP1 SWAP2 SUB SWAP1 RETURN JUMPDEST CALLVALUE DUP1 ISZERO PUSH2 0x1B3 JUMPI PUSH0 DUP1 REVERT JUMPDEST POP PUSH2 0x1CE PUSH1 0x4 DUP1 CALLDATASIZE SUB DUP2 ADD SWAP1 PUSH2 0x1C9 SWAP2 SWAP1 PUSH2 0xCEA JUMP JUMPDEST PUSH2 0x9FA JUMP JUMPDEST STOP JUMPDEST CALLVALUE DUP1 ISZERO PUSH2 0x1DB JUMPI PUSH0 DUP1 REVERT JUMPDEST POP PUSH2 0x1F6 PUSH1 0x4 DUP1 CALLDATASIZE SUB DUP2 ADD SWAP1 PUSH2 0x1F1 SWAP2 SWAP1 PUSH2 0xCEA JUMP JUMPDEST PUSH2 0xA50 JUMP JUMPDEST PUSH1 0x40 MLOAD PUSH2 0x205 SWAP4 SWAP3 SWAP2 SWAP1 PUSH2 0xD7D JUMP JUMPDEST PUSH1 0x40 MLOAD DUP1 SWAP2 SUB SWAP1 RETURN JUMPDEST CALLVALUE DUP1 ISZERO PUSH2 0x219 JUMPI PUSH0 DUP1 REVERT JUMPDEST POP PUSH2 0x234 PUSH1 0x4 DUP1 CALLDATASIZE SUB DUP2 ADD SWAP1 PUSH2 0x22F SWAP2 SWAP1 PUSH2 0xE4C JUMP JUMPDEST PUSH2 0xAA1 JUMP JUMPDEST STOP JUMPDEST PUSH0 DUP1 PUSH0 DUP1 PUSH1 0x2 PUSH0 DUP7 DUP2 MSTORE PUSH1 0x20 ADD SWAP1 DUP2 MSTORE PUSH1 0x20 ADD PUSH0 KECCAK256 SWAP1 POP DUP1 PUSH0 ADD PUSH0 SWAP1 SLOAD SWAP1 PUSH2 0x100 EXP SWAP1 DIV PUSH20 0xFFFFFFFFFFFFFFFFFFFFFFFFFFFFFFFFFFFFFFFF AND DUP2 PUSH1 0x1 ADD SLOAD DUP3 PUSH1 0x2 ADD PUSH0 SWAP1 SLOAD SWAP1 PUSH2 0x100 EXP SWAP1 DIV PUSH1 0xFF AND SWAP4 POP SWAP4 POP SWAP4 POP POP SWAP2 SWAP4 SWAP1 SWAP3 POP JUMP JUMPDEST PUSH0 PUSH1 0x2 PUSH0 DUP4 DUP2 MSTORE PUSH1 0x20 ADD SWAP1 DUP2 MSTORE PUSH1 0x20 ADD PUSH0 KECCAK256 SWAP1 POP DUP1 PUSH1 0x2 ADD PUSH0 SWAP1 SLOAD SWAP1 PUSH2 0x100 EXP SWAP1 DIV PUSH1 0xFF AND PUSH2 0x2F8 JUMPI PUSH1 0x40 MLOAD PUSH32 0x8C379A000000000000000000000000000000000000000000000000000000000 DUP2 MSTORE PUSH1 0x4 ADD PUSH2 0x2EF SWAP1 PUSH2 0xED1 JUMP JUMPDEST PUSH1 0x40 MLOAD DUP1 SWAP2 SUB SWAP1 REVERT JUMPDEST DUP1 PUSH0 ADD PUSH0 SWAP1 SLOAD SWAP1 PUSH2 0x100 EXP SWAP1 DIV PUSH20 0xFFFFFFFFFFFFFFFFFFFFFFFFFFFFFFFFFFFFFFFF AND PUSH20 0xFFFFFFFFFFFFFFFFFFFFFFFFFFFFFFFFFFFFFFFF AND CALLER PUSH20 0xFFFFFFFFFFFFFFFFFFFFFFFFFFFFFFFFFFFFFFFF AND EQ PUSH2 0x388 JUMPI PUSH1 0x40 MLOAD PUSH32 0x8C379A000000000000000000000000000000000000000000000000000000000 DUP2 MSTORE PUSH1 0x4 ADD PUSH2 0x37F SWAP1 PUSH2 0xF39 JUMP JUMPDEST PUSH1 0x40 MLOAD DUP1 SWAP2 SUB SWAP1 REVERT JUMPDEST PUSH0 DUP2 PUSH1 0x2 ADD PUSH0 PUSH2 0x100 EXP DUP2 SLOAD DUP2 PUSH1 0xFF MUL NOT AND SWAP1 DUP4 ISZERO ISZERO MUL OR SWAP1 SSTORE POP CALLER PUSH20 0xFFFFFFFFFFFFFFFFFFFFFFFFFFFFFFFFFFFFFFFF AND DUP3 PUSH32 0xBB7BE15645F4EDA9D65591C3A81B5E39256151F91BC25180315DE259167C2E23 PUSH1 0x40 MLOAD PUSH1 0x40 MLOAD DUP1 SWAP2 SUB SWAP1 LOG3 POP POP JUMP JUMPDEST PUSH0 DUP2 GT PUSH2 0x42D JUMPI PUSH1 0x40 MLOAD PUSH32 0x8C379A000000000000000000000000000000000000000000000000000000000 DUP2 MSTORE PUSH1 0x4 ADD PUSH2 0x424 SWAP1 PUSH2 0xFA1 JUMP JUMPDEST PUSH1 0x40 MLOAD DUP1 SWAP2 SUB SWAP1 REVERT JUMPDEST PUSH0 ADDRESS SWAP1 POP PUSH0 DUP2 PUSH20 0xFFFFFFFFFFFFFFFFFFFFFFFFFFFFFFFFFFFFFFFF AND PUSH4 0x6352211E DUP6 PUSH1 0x40 MLOAD DUP3 PUSH4 0xFFFFFFFF AND PUSH1 0xE0 SHL DUP2 MSTORE PUSH1 0x4 ADD PUSH2 0x46B SWAP2 SWAP1 PUSH2 0xDF0 JUMP JUMPDEST PUSH1 0x20 PUSH1 0x40 MLOAD DUP1 DUP4 SUB DUP2 DUP7 GAS STATICCALL ISZERO DUP1 ISZERO PUSH2 0x486 JUMPI RETURNDATASIZE PUSH0 DUP1 RETURNDATACOPY RETURNDATASIZE PUSH0 REVERT JUMPDEST POP POP POP POP PUSH1 0x40 MLOAD RETURNDATASIZE PUSH1 0x1F NOT PUSH1 0x1F DUP3 ADD AND DUP3 ADD DUP1 PUSH1 0x40 MSTORE POP DUP2 ADD SWAP1 PUSH2 0x4AA SWAP2 SWAP1 PUSH2 0xFD3 JUMP JUMPDEST SWAP1 POP DUP1 PUSH20 0xFFFFFFFFFFFFFFFFFFFFFFFFFFFFFFFFFFFFFFFF AND CALLER PUSH20 0xFFFFFFFFFFFFFFFFFFFFFFFFFFFFFFFFFFFFFFFF AND EQ PUSH2 0x51A JUMPI PUSH1 0x40 MLOAD PUSH32 0x8C379A000000000000000000000000000000000000000000000000000000000 DUP2 MSTORE PUSH1 0x4 ADD PUSH2 0x511 SWAP1 PUSH2 0x1048 JUMP JUMPDEST PUSH1 0x40 MLOAD DUP1 SWAP2 SUB SWAP1 REVERT JUMPDEST DUP2 PUSH20 0xFFFFFFFFFFFFFFFFFFFFFFFFFFFFFFFFFFFFFFFF AND PUSH4 0xE985E9C5 DUP3 ADDRESS PUSH1 0x40 MLOAD DUP4 PUSH4 0xFFFFFFFF AND PUSH1 0xE0 SHL DUP2 MSTORE PUSH1 0x4 ADD PUSH2 0x555 SWAP3 SWAP2 SWAP1 PUSH2 0x1066 JUMP JUMPDEST PUSH1 0x20 PUSH1 0x40 MLOAD DUP1 DUP4 SUB DUP2 DUP7 GAS STATICCALL ISZERO DUP1 ISZERO PUSH2 0x570 JUMPI RETURNDATASIZE PUSH0 DUP1 RETURNDATACOPY RETURNDATASIZE PUSH0 REVERT JUMPDEST POP POP POP POP PUSH1 0x40 MLOAD RETURNDATASIZE PUSH1 0x1F NOT PUSH1 0x1F DUP3 ADD AND DUP3 ADD DUP1 PUSH1 0x40 MSTORE POP DUP2 ADD SWAP1 PUSH2 0x594 SWAP2 SWAP1 PUSH2 0x10B7 JUMP JUMPDEST PUSH2 0x5D3 JUMPI PUSH1 0x40 MLOAD PUSH32 0x8C379A000000000000000000000000000000000000000000000000000000000 DUP2 MSTORE PUSH1 0x4 ADD PUSH2 0x5CA SWAP1 PUSH2 0x1152 JUMP JUMPDEST PUSH1 0x40 MLOAD DUP1 SWAP2 SUB SWAP1 REVERT JUMPDEST PUSH1 0x40 MLOAD DUP1 PUSH1 0x60 ADD PUSH1 0x40 MSTORE DUP1 DUP3 PUSH20 0xFFFFFFFFFFFFFFFFFFFFFFFFFFFFFFFFFFFFFFFF AND DUP2 MSTORE PUSH1 0x20 ADD DUP5 DUP2 MSTORE PUSH1 0x20 ADD PUSH1 0x1 ISZERO ISZERO DUP2 MSTORE POP PUSH1 0x2 PUSH0 DUP7 DUP2 MSTORE PUSH1 0x20 ADD SWAP1 DUP2 MSTORE PUSH1 0x20 ADD PUSH0 KECCAK256 PUSH0 DUP3 ADD MLOAD DUP2 PUSH0 ADD PUSH0 PUSH2 0x100 EXP DUP2 SLOAD DUP2 PUSH20 0xFFFFFFFFFFFFFFFFFFFFFFFFFFFFFFFFFFFFFFFF MUL NOT AND SWAP1 DUP4 PUSH20 0xFFFFFFFFFFFFFFFFFFFFFFFFFFFFFFFFFFFFFFFF AND MUL OR SWAP1 SSTORE POP PUSH1 0x20 DUP3 ADD MLOAD DUP2 PUSH1 0x1 ADD SSTORE PUSH1 0x40 DUP3 ADD MLOAD DUP2 PUSH1 0x2 ADD PUSH0 PUSH2 0x100 EXP DUP2 SLOAD DUP2 PUSH1 0xFF MUL NOT AND SWAP1 DUP4 ISZERO ISZERO MUL OR SWAP1 SSTORE POP SWAP1 POP POP DUP1 PUSH20 0xFFFFFFFFFFFFFFFFFFFFFFFFFFFFFFFFFFFFFFFF AND DUP5 PUSH32 0xAAE25B31116C34C03F0DC58472FF47D3EA0E38A572EC53C9E66319B994717DDB DUP6 PUSH1 0x40 MLOAD PUSH2 0x6CF SWAP2 SWAP1 PUSH2 0xDF0 JUMP JUMPDEST PUSH1 0x40 MLOAD DUP1 SWAP2 SUB SWAP1 LOG3 POP POP POP POP JUMP JUMPDEST PUSH2 0x6E5 PUSH2 0xB25 JUMP JUMPDEST PUSH2 0x6EE PUSH0 PUSH2 0xBAC JUMP JUMPDEST JUMP JUMPDEST PUSH0 PUSH1 0x2 PUSH0 DUP4 DUP2 MSTORE PUSH1 0x20 ADD SWAP1 DUP2 MSTORE PUSH1 0x20 ADD PUSH0 KECCAK256 SWAP1 POP DUP1 PUSH1 0x2 ADD PUSH0 SWAP1 SLOAD SWAP1 PUSH2 0x100 EXP SWAP1 DIV PUSH1 0xFF AND PUSH2 0x754 JUMPI PUSH1 0x40 MLOAD PUSH32 0x8C379A000000000000000000000000000000000000000000000000000000000 DUP2 MSTORE PUSH1 0x4 ADD PUSH2 0x74B SWAP1 PUSH2 0x11BA JUMP JUMPDEST PUSH1 0x40 MLOAD DUP1 SWAP2 SUB SWAP1 REVERT JUMPDEST DUP1 PUSH1 0x1 ADD SLOAD CALLVALUE EQ PUSH2 0x79A JUMPI PUSH1 0x40 MLOAD PUSH32 0x8C379A000000000000000000000000000000000000000000000000000000000 DUP2 MSTORE PUSH1 0x4 ADD PUSH2 0x791 SWAP1 PUSH2 0x1222 JUMP JUMPDEST PUSH1 0x40 MLOAD DUP1 SWAP2 SUB SWAP1 REVERT JUMPDEST PUSH0 PUSH2 0x7C7 PUSH1 0x64 PUSH2 0x7B9 PUSH1 0x1 SLOAD DUP6 PUSH1 0x1 ADD SLOAD PUSH2 0xC6D SWAP1 SWAP2 SWAP1 PUSH4 0xFFFFFFFF AND JUMP JUMPDEST PUSH2 0xC82 SWAP1 SWAP2 SWAP1 PUSH4 0xFFFFFFFF AND JUMP JUMPDEST SWAP1 POP PUSH0 PUSH2 0x7E1 DUP3 DUP5 PUSH1 0x1 ADD SLOAD PUSH2 0xC97 SWAP1 SWAP2 SWAP1 PUSH4 0xFFFFFFFF AND JUMP JUMPDEST SWAP1 POP ADDRESS PUSH20 0xFFFFFFFFFFFFFFFFFFFFFFFFFFFFFFFFFFFFFFFF AND PUSH4 0x42842E0E DUP5 PUSH0 ADD PUSH0 SWAP1 SLOAD SWAP1 PUSH2 0x100 EXP SWAP1 DIV PUSH20 0xFFFFFFFFFFFFFFFFFFFFFFFFFFFFFFFFFFFFFFFF AND CALLER DUP8 PUSH1 0x40 MLOAD DUP5 PUSH4 0xFFFFFFFF AND PUSH1 0xE0 SHL DUP2 MSTORE PUSH1 0x4 ADD PUSH2 0x842 SWAP4 SWAP3 SWAP2 SWAP1 PUSH2 0x1240 JUMP JUMPDEST PUSH0 PUSH1 0x40 MLOAD DUP1 DUP4 SUB DUP2 PUSH0 DUP8 DUP1 EXTCODESIZE ISZERO DUP1 ISZERO PUSH2 0x859 JUMPI PUSH0 DUP1 REVERT JUMPDEST POP GAS CALL ISZERO DUP1 ISZERO PUSH2 0x86B JUMPI RETURNDATASIZE PUSH0 DUP1 RETURNDATACOPY RETURNDATASIZE PUSH0 REVERT JUMPDEST POP POP POP POP DUP3 PUSH0 ADD PUSH0 SWAP1 SLOAD SWAP1 PUSH2 0x100 EXP SWAP1 DIV PUSH20 0xFFFFFFFFFFFFFFFFFFFFFFFFFFFFFFFFFFFFFFFF AND PUSH20 0xFFFFFFFFFFFFFFFFFFFFFFFFFFFFFFFFFFFFFFFF AND PUSH2 0x8FC DUP3 SWAP1 DUP2 ISZERO MUL SWAP1 PUSH1 0x40 MLOAD PUSH0 PUSH1 0x40 MLOAD DUP1 DUP4 SUB DUP2 DUP6 DUP9 DUP9 CALL SWAP4 POP POP POP POP ISZERO DUP1 ISZERO PUSH2 0x8D4 JUMPI RETURNDATASIZE PUSH0 DUP1 RETURNDATACOPY RETURNDATASIZE PUSH0 REVERT JUMPDEST POP PUSH2 0x8DD PUSH2 0x9D3 JUMP JUMPDEST PUSH20 0xFFFFFFFFFFFFFFFFFFFFFFFFFFFFFFFFFFFFFFFF AND PUSH2 0x8FC DUP4 SWAP1 DUP2 ISZERO MUL SWAP1 PUSH1 0x40 MLOAD PUSH0 PUSH1 0x40 MLOAD DUP1 DUP4 SUB DUP2 DUP6 DUP9 DUP9 CALL SWAP4 POP POP POP POP ISZERO DUP1 ISZERO PUSH2 0x91F JUMPI RETURNDATASIZE PUSH0 DUP1 RETURNDATACOPY RETURNDATASIZE PUSH0 REVERT JUMPDEST POP PUSH0 DUP4 PUSH1 0x2 ADD PUSH0 PUSH2 0x100 EXP DUP2 SLOAD DUP2 PUSH1 0xFF MUL NOT AND SWAP1 DUP4 ISZERO ISZERO MUL OR SWAP1 SSTORE POP CALLER PUSH20 0xFFFFFFFFFFFFFFFFFFFFFFFFFFFFFFFFFFFFFFFF AND DUP4 PUSH0 ADD PUSH0 SWAP1 SLOAD SWAP1 PUSH2 0x100 EXP SWAP1 DIV PUSH20 0xFFFFFFFFFFFFFFFFFFFFFFFFFFFFFFFFFFFFFFFF AND PUSH20 0xFFFFFFFFFFFFFFFFFFFFFFFFFFFFFFFFFFFFFFFF AND DUP6 PUSH32 0xA02E46FC9BBD3E1138787BC1DC117AE0B9A5A3745EA30B0AB673D79D90739029 DUP7 PUSH1 0x1 ADD SLOAD PUSH1 0x40 MLOAD PUSH2 0x9BF SWAP2 SWAP1 PUSH2 0xDF0 JUMP JUMPDEST PUSH1 0x40 MLOAD DUP1 SWAP2 SUB SWAP1 LOG4 POP POP POP POP JUMP JUMPDEST PUSH1 0x1 SLOAD DUP2 JUMP JUMPDEST PUSH0 DUP1 PUSH0 SWAP1 SLOAD SWAP1 PUSH2 0x100 EXP SWAP1 DIV PUSH20 0xFFFFFFFFFFFFFFFFFFFFFFFFFFFFFFFFFFFFFFFF AND SWAP1 POP SWAP1 JUMP JUMPDEST PUSH2 0xA02 PUSH2 0xB25 JUMP JUMPDEST PUSH1 0x64 DUP2 GT ISZERO PUSH2 0xA46 JUMPI PUSH1 0x40 MLOAD PUSH32 0x8C379A000000000000000000000000000000000000000000000000000000000 DUP2 MSTORE PUSH1 0x4 ADD PUSH2 0xA3D SWAP1 PUSH2 0x12BF JUMP JUMPDEST PUSH1 0x40 MLOAD DUP1 SWAP2 SUB SWAP1 REVERT JUMPDEST DUP1 PUSH1 0x1 DUP2 SWAP1 SSTORE POP POP JUMP JUMPDEST PUSH1 0x2 PUSH1 0x20 MSTORE DUP1 PUSH0 MSTORE PUSH1 0x40 PUSH0 KECCAK256 PUSH0 SWAP2 POP SWAP1 POP DUP1 PUSH0 ADD PUSH0 SWAP1 SLOAD SWAP1 PUSH2 0x100 EXP SWAP1 DIV PUSH20 0xFFFFFFFFFFFFFFFFFFFFFFFFFFFFFFFFFFFFFFFF AND SWAP1 DUP1 PUSH1 0x1 ADD SLOAD SWAP1 DUP1 PUSH1 0x2 ADD PUSH0 SWAP1 SLOAD SWAP1 PUSH2 0x100 EXP SWAP1 DIV PUSH1 0xFF AND SWAP1 POP DUP4 JUMP JUMPDEST PUSH2 0xAA9 PUSH2 0xB25 JUMP JUMPDEST PUSH0 PUSH20 0xFFFFFFFFFFFFFFFFFFFFFFFFFFFFFFFFFFFFFFFF AND DUP2 PUSH20 0xFFFFFFFFFFFFFFFFFFFFFFFFFFFFFFFFFFFFFFFF AND SUB PUSH2 0xB19 JUMPI PUSH0 PUSH1 0x40 MLOAD PUSH32 0x1E4FBDF700000000000000000000000000000000000000000000000000000000 DUP2 MSTORE PUSH1 0x4 ADD PUSH2 0xB10 SWAP2 SWAP1 PUSH2 0xE09 JUMP JUMPDEST PUSH1 0x40 MLOAD DUP1 SWAP2 SUB SWAP1 REVERT JUMPDEST PUSH2 0xB22 DUP2 PUSH2 0xBAC JUMP JUMPDEST POP JUMP JUMPDEST PUSH2 0xB2D PUSH2 0xCAC JUMP JUMPDEST PUSH20 0xFFFFFFFFFFFFFFFFFFFFFFFFFFFFFFFFFFFFFFFF AND PUSH2 0xB4B PUSH2 0x9D3 JUMP JUMPDEST PUSH20 0xFFFFFFFFFFFFFFFFFFFFFFFFFFFFFFFFFFFFFFFF AND EQ PUSH2 0xBAA JUMPI PUSH2 0xB6E PUSH2 0xCAC JUMP JUMPDEST PUSH1 0x40 MLOAD PUSH32 0x118CDAA700000000000000000000000000000000000000000000000000000000 DUP2 MSTORE PUSH1 0x4 ADD PUSH2 0xBA1 SWAP2 SWAP1 PUSH2 0xE09 JUMP JUMPDEST PUSH1 0x40 MLOAD DUP1 SWAP2 SUB SWAP1 REVERT JUMPDEST JUMP JUMPDEST PUSH0 DUP1 PUSH0 SWAP1 SLOAD SWAP1 PUSH2 0x100 EXP SWAP1 DIV PUSH20 0xFFFFFFFFFFFFFFFFFFFFFFFFFFFFFFFFFFFFFFFF AND SWAP1 POP DUP2 PUSH0 DUP1 PUSH2 0x100 EXP DUP2 SLOAD DUP2 PUSH20 0xFFFFFFFFFFFFFFFFFFFFFFFFFFFFFFFFFFFFFFFF MUL NOT AND SWAP1 DUP4 PUSH20 0xFFFFFFFFFFFFFFFFFFFFFFFFFFFFFFFFFFFFFFFF AND MUL OR SWAP1 SSTORE POP DUP2 PUSH20 0xFFFFFFFFFFFFFFFFFFFFFFFFFFFFFFFFFFFFFFFF AND DUP2 PUSH20 0xFFFFFFFFFFFFFFFFFFFFFFFFFFFFFFFFFFFFFFFF AND PUSH32 0x8BE0079C531659141344CD1FD0A4F28419497F9722A3DAAFE3B4186F6B6457E0 PUSH1 0x40 MLOAD PUSH1 0x40 MLOAD DUP1 SWAP2 SUB SWAP1 LOG3 POP POP JUMP JUMPDEST PUSH0 DUP2 DUP4 PUSH2 0xC7A SWAP2 SWAP1 PUSH2 0x130A JUMP JUMPDEST SWAP1 POP SWAP3 SWAP2 POP POP JUMP JUMPDEST PUSH0 DUP2 DUP4 PUSH2 0xC8F SWAP2 SWAP1 PUSH2 0x1378 JUMP JUMPDEST SWAP1 POP SWAP3 SWAP2 POP POP JUMP JUMPDEST PUSH0 DUP2 DUP4 PUSH2 0xCA4 SWAP2 SWAP1 PUSH2 0x13A8 JUMP JUMPDEST SWAP1 POP SWAP3 SWAP2 POP POP JUMP JUMPDEST PUSH0 CALLER SWAP1 POP SWAP1 JUMP JUMPDEST PUSH0 DUP1 REVERT JUMPDEST PUSH0 DUP2 SWAP1 POP SWAP2 SWAP1 POP JUMP JUMPDEST PUSH2 0xCC9 DUP2 PUSH2 0xCB7 JUMP JUMPDEST DUP2 EQ PUSH2 0xCD3 JUMPI PUSH0 DUP1 REVERT JUMPDEST POP JUMP JUMPDEST PUSH0 DUP2 CALLDATALOAD SWAP1 POP PUSH2 0xCE4 DUP2 PUSH2 0xCC0 JUMP JUMPDEST SWAP3 SWAP2 POP POP JUMP JUMPDEST PUSH0 PUSH1 0x20 DUP3 DUP5 SUB SLT ISZERO PUSH2 0xCFF JUMPI PUSH2 0xCFE PUSH2 0xCB3 JUMP JUMPDEST JUMPDEST PUSH0 PUSH2 0xD0C DUP5 DUP3 DUP6 ADD PUSH2 0xCD6 JUMP JUMPDEST SWAP2 POP POP SWAP3 SWAP2 POP POP JUMP JUMPDEST PUSH0 PUSH20 0xFFFFFFFFFFFFFFFFFFFFFFFFFFFFFFFFFFFFFFFF DUP3 AND SWAP1 POP SWAP2 SWAP1 POP JUMP JUMPDEST PUSH0 PUSH2 0xD3E DUP3 PUSH2 0xD15 JUMP JUMPDEST SWAP1 POP SWAP2 SWAP1 POP JUMP JUMPDEST PUSH2 0xD4E DUP2 PUSH2 0xD34 JUMP JUMPDEST DUP3 MSTORE POP POP JUMP JUMPDEST PUSH2 0xD5D DUP2 PUSH2 0xCB7 JUMP JUMPDEST DUP3 MSTORE POP POP JUMP JUMPDEST PUSH0 DUP2 ISZERO ISZERO SWAP1 POP SWAP2 SWAP1 POP JUMP JUMPDEST PUSH2 0xD77 DUP2 PUSH2 0xD63 JUMP JUMPDEST DUP3 MSTORE POP POP JUMP JUMPDEST PUSH0 PUSH1 0x60 DUP3 ADD SWAP1 POP PUSH2 0xD90 PUSH0 DUP4 ADD DUP7 PUSH2 0xD45 JUMP JUMPDEST PUSH2 0xD9D PUSH1 0x20 DUP4 ADD DUP6 PUSH2 0xD54 JUMP JUMPDEST PUSH2 0xDAA PUSH1 0x40 DUP4 ADD DUP5 PUSH2 0xD6E JUMP JUMPDEST SWAP5 SWAP4 POP POP POP POP JUMP JUMPDEST PUSH0 DUP1 PUSH1 0x40 DUP4 DUP6 SUB SLT ISZERO PUSH2 0xDC8 JUMPI PUSH2 0xDC7 PUSH2 0xCB3 JUMP JUMPDEST JUMPDEST PUSH0 PUSH2 0xDD5 DUP6 DUP3 DUP7 ADD PUSH2 0xCD6 JUMP JUMPDEST SWAP3 POP POP PUSH1 0x20 PUSH2 0xDE6 DUP6 DUP3 DUP7 ADD PUSH2 0xCD6 JUMP JUMPDEST SWAP2 POP POP SWAP3 POP SWAP3 SWAP1 POP JUMP JUMPDEST PUSH0 PUSH1 0x20 DUP3 ADD SWAP1 POP PUSH2 0xE03 PUSH0 DUP4 ADD DUP5 PUSH2 0xD54 JUMP JUMPDEST SWAP3 SWAP2 POP POP JUMP JUMPDEST PUSH0 PUSH1 0x20 DUP3 ADD SWAP1 POP PUSH2 0xE1C PUSH0 DUP4 ADD DUP5 PUSH2 0xD45 JUMP JUMPDEST SWAP3 SWAP2 POP POP JUMP JUMPDEST PUSH2 0xE2B DUP2 PUSH2 0xD34 JUMP JUMPDEST DUP2 EQ PUSH2 0xE35 JUMPI PUSH0 DUP1 REVERT JUMPDEST POP JUMP JUMPDEST PUSH0 DUP2 CALLDATALOAD SWAP1 POP PUSH2 0xE46 DUP2 PUSH2 0xE22 JUMP JUMPDEST SWAP3 SWAP2 POP POP JUMP JUMPDEST PUSH0 PUSH1 0x20 DUP3 DUP5 SUB SLT ISZERO PUSH2 0xE61 JUMPI PUSH2 0xE60 PUSH2 0xCB3 JUMP JUMPDEST JUMPDEST PUSH0 PUSH2 0xE6E DUP5 DUP3 DUP6 ADD PUSH2 0xE38 JUMP JUMPDEST SWAP2 POP POP SWAP3 SWAP2 POP POP JUMP JUMPDEST PUSH0 DUP3 DUP3 MSTORE PUSH1 0x20 DUP3 ADD SWAP1 POP SWAP3 SWAP2 POP POP JUMP JUMPDEST PUSH32 0x50726F64756374206973206E6F74206C69737465640000000000000000000000 PUSH0 DUP3 ADD MSTORE POP JUMP JUMPDEST PUSH0 PUSH2 0xEBB PUSH1 0x15 DUP4 PUSH2 0xE77 JUMP JUMPDEST SWAP2 POP PUSH2 0xEC6 DUP3 PUSH2 0xE87 JUMP JUMPDEST PUSH1 0x20 DUP3 ADD SWAP1 POP SWAP2 SWAP1 POP JUMP JUMPDEST PUSH0 PUSH1 0x20 DUP3 ADD SWAP1 POP DUP2 DUP2 SUB PUSH0 DUP4 ADD MSTORE PUSH2 0xEE8 DUP2 PUSH2 0xEAF JUMP JUMPDEST SWAP1 POP SWAP2 SWAP1 POP JUMP JUMPDEST PUSH32 0x596F7520617265206E6F74207468652073656C6C657200000000000000000000 PUSH0 DUP3 ADD MSTORE POP JUMP JUMPDEST PUSH0 PUSH2 0xF23 PUSH1 0x16 DUP4 PUSH2 0xE77 JUMP JUMPDEST SWAP2 POP PUSH2 0xF2E DUP3 PUSH2 0xEEF JUMP JUMPDEST PUSH1 0x20 DUP3 ADD SWAP1 POP SWAP2 SWAP1 POP JUMP JUMPDEST PUSH0 PUSH1 0x20 DUP3 ADD SWAP1 POP DUP2 DUP2 SUB PUSH0 DUP4 ADD MSTORE PUSH2 0xF50 DUP2 PUSH2 0xF17 JUMP JUMPDEST SWAP1 POP SWAP2 SWAP1 POP JUMP JUMPDEST PUSH32 0x5072696365206D7573742062652067726561746572207468616E203000000000 PUSH0 DUP3 ADD MSTORE POP JUMP JUMPDEST PUSH0 PUSH2 0xF8B PUSH1 0x1C DUP4 PUSH2 0xE77 JUMP JUMPDEST SWAP2 POP PUSH2 0xF96 DUP3 PUSH2 0xF57 JUMP JUMPDEST PUSH1 0x20 DUP3 ADD SWAP1 POP SWAP2 SWAP1 POP JUMP JUMPDEST PUSH0 PUSH1 0x20 DUP3 ADD SWAP1 POP DUP2 DUP2 SUB PUSH0 DUP4 ADD MSTORE PUSH2 0xFB8 DUP2 PUSH2 0xF7F JUMP JUMPDEST SWAP1 POP SWAP2 SWAP1 POP JUMP JUMPDEST PUSH0 DUP2 MLOAD SWAP1 POP PUSH2 0xFCD DUP2 PUSH2 0xE22 JUMP JUMPDEST SWAP3 SWAP2 POP POP JUMP JUMPDEST PUSH0 PUSH1 0x20 DUP3 DUP5 SUB SLT ISZERO PUSH2 0xFE8 JUMPI PUSH2 0xFE7 PUSH2 0xCB3 JUMP JUMPDEST JUMPDEST PUSH0 PUSH2 0xFF5 DUP5 DUP3 DUP6 ADD PUSH2 0xFBF JUMP JUMPDEST SWAP2 POP POP SWAP3 SWAP2 POP POP JUMP JUMPDEST PUSH32 0x596F75206D757374206F776E20746865204E465420746F206C69737420697400 PUSH0 DUP3 ADD MSTORE POP JUMP JUMPDEST PUSH0 PUSH2 0x1032 PUSH1 0x1F DUP4 PUSH2 0xE77 JUMP JUMPDEST SWAP2 POP PUSH2 0x103D DUP3 PUSH2 0xFFE JUMP JUMPDEST PUSH1 0x20 DUP3 ADD SWAP1 POP SWAP2 SWAP1 POP JUMP JUMPDEST PUSH0 PUSH1 0x20 DUP3 ADD SWAP1 POP DUP2 DUP2 SUB PUSH0 DUP4 ADD MSTORE PUSH2 0x105F DUP2 PUSH2 0x1026 JUMP JUMPDEST SWAP1 POP SWAP2 SWAP1 POP JUMP JUMPDEST PUSH0 PUSH1 0x40 DUP3 ADD SWAP1 POP PUSH2 0x1079 PUSH0 DUP4 ADD DUP6 PUSH2 0xD45 JUMP JUMPDEST PUSH2 0x1086 PUSH1 0x20 DUP4 ADD DUP5 PUSH2 0xD45 JUMP JUMPDEST SWAP4 SWAP3 POP POP POP JUMP JUMPDEST PUSH2 0x1096 DUP2 PUSH2 0xD63 JUMP JUMPDEST DUP2 EQ PUSH2 0x10A0 JUMPI PUSH0 DUP1 REVERT JUMPDEST POP JUMP JUMPDEST PUSH0 DUP2 MLOAD SWAP1 POP PUSH2 0x10B1 DUP2 PUSH2 0x108D JUMP JUMPDEST SWAP3 SWAP2 POP POP JUMP JUMPDEST PUSH0 PUSH1 0x20 DUP3 DUP5 SUB SLT ISZERO PUSH2 0x10CC JUMPI PUSH2 0x10CB PUSH2 0xCB3 JUMP JUMPDEST JUMPDEST PUSH0 PUSH2 0x10D9 DUP5 DUP3 DUP6 ADD PUSH2 0x10A3 JUMP JUMPDEST SWAP2 POP POP SWAP3 SWAP2 POP POP JUMP JUMPDEST PUSH32 0x4D61726B6574706C616365206D75737420626520617070726F76656420746F20 PUSH0 DUP3 ADD MSTORE PUSH32 0x7472616E7366657220746865204E465400000000000000000000000000000000 PUSH1 0x20 DUP3 ADD MSTORE POP JUMP JUMPDEST PUSH0 PUSH2 0x113C PUSH1 0x30 DUP4 PUSH2 0xE77 JUMP JUMPDEST SWAP2 POP PUSH2 0x1147 DUP3 PUSH2 0x10E2 JUMP JUMPDEST PUSH1 0x40 DUP3 ADD SWAP1 POP SWAP2 SWAP1 POP JUMP JUMPDEST PUSH0 PUSH1 0x20 DUP3 ADD SWAP1 POP DUP2 DUP2 SUB PUSH0 DUP4 ADD MSTORE PUSH2 0x1169 DUP2 PUSH2 0x1130 JUMP JUMPDEST SWAP1 POP SWAP2 SWAP1 POP JUMP JUMPDEST PUSH32 0x50726F64756374206973206E6F7420666F722073616C65000000000000000000 PUSH0 DUP3 ADD MSTORE POP JUMP JUMPDEST PUSH0 PUSH2 0x11A4 PUSH1 0x17 DUP4 PUSH2 0xE77 JUMP JUMPDEST SWAP2 POP PUSH2 0x11AF DUP3 PUSH2 0x1170 JUMP JUMPDEST PUSH1 0x20 DUP3 ADD SWAP1 POP SWAP2 SWAP1 POP JUMP JUMPDEST PUSH0 PUSH1 0x20 DUP3 ADD SWAP1 POP DUP2 DUP2 SUB PUSH0 DUP4 ADD MSTORE PUSH2 0x11D1 DUP2 PUSH2 0x1198 JUMP JUMPDEST SWAP1 POP SWAP2 SWAP1 POP JUMP JUMPDEST PUSH32 0x496E636F7272656374207061796D656E7420616D6F756E740000000000000000 PUSH0 DUP3 ADD MSTORE POP JUMP JUMPDEST PUSH0 PUSH2 0x120C PUSH1 0x18 DUP4 PUSH2 0xE77 JUMP JUMPDEST SWAP2 POP PUSH2 0x1217 DUP3 PUSH2 0x11D8 JUMP JUMPDEST PUSH1 0x20 DUP3 ADD SWAP1 POP SWAP2 SWAP1 POP JUMP JUMPDEST PUSH0 PUSH1 0x20 DUP3 ADD SWAP1 POP DUP2 DUP2 SUB PUSH0 DUP4 ADD MSTORE PUSH2 0x1239 DUP2 PUSH2 0x1200 JUMP JUMPDEST SWAP1 POP SWAP2 SWAP1 POP JUMP JUMPDEST PUSH0 PUSH1 0x60 DUP3 ADD SWAP1 POP PUSH2 0x1253 PUSH0 DUP4 ADD DUP7 PUSH2 0xD45 JUMP JUMPDEST PUSH2 0x1260 PUSH1 0x20 DUP4 ADD DUP6 PUSH2 0xD45 JUMP JUMPDEST PUSH2 0x126D PUSH1 0x40 DUP4 ADD DUP5 PUSH2 0xD54 JUMP JUMPDEST SWAP5 SWAP4 POP POP POP POP JUMP JUMPDEST PUSH32 0x4665652063616E6E6F74206265206D6F7265207468616E203130302500000000 PUSH0 DUP3 ADD MSTORE POP JUMP JUMPDEST PUSH0 PUSH2 0x12A9 PUSH1 0x1C DUP4 PUSH2 0xE77 JUMP JUMPDEST SWAP2 POP PUSH2 0x12B4 DUP3 PUSH2 0x1275 JUMP JUMPDEST PUSH1 0x20 DUP3 ADD SWAP1 POP SWAP2 SWAP1 POP JUMP JUMPDEST PUSH0 PUSH1 0x20 DUP3 ADD SWAP1 POP DUP2 DUP2 SUB PUSH0 DUP4 ADD MSTORE PUSH2 0x12D6 DUP2 PUSH2 0x129D JUMP JUMPDEST SWAP1 POP SWAP2 SWAP1 POP JUMP JUMPDEST PUSH32 0x4E487B7100000000000000000000000000000000000000000000000000000000 PUSH0 MSTORE PUSH1 0x11 PUSH1 0x4 MSTORE PUSH1 0x24 PUSH0 REVERT JUMPDEST PUSH0 PUSH2 0x1314 DUP3 PUSH2 0xCB7 JUMP JUMPDEST SWAP2 POP PUSH2 0x131F DUP4 PUSH2 0xCB7 JUMP JUMPDEST SWAP3 POP DUP3 DUP3 MUL PUSH2 0x132D DUP2 PUSH2 0xCB7 JUMP JUMPDEST SWAP2 POP DUP3 DUP3 DIV DUP5 EQ DUP4 ISZERO OR PUSH2 0x1344 JUMPI PUSH2 0x1343 PUSH2 0x12DD JUMP JUMPDEST JUMPDEST POP SWAP3 SWAP2 POP POP JUMP JUMPDEST PUSH32 0x4E487B7100000000000000000000000000000000000000000000000000000000 PUSH0 MSTORE PUSH1 0x12 PUSH1 0x4 MSTORE PUSH1 0x24 PUSH0 REVERT JUMPDEST PUSH0 PUSH2 0x1382 DUP3 PUSH2 0xCB7 JUMP JUMPDEST SWAP2 POP PUSH2 0x138D DUP4 PUSH2 0xCB7 JUMP JUMPDEST SWAP3 POP DUP3 PUSH2 0x139D JUMPI PUSH2 0x139C PUSH2 0x134B JUMP JUMPDEST JUMPDEST DUP3 DUP3 DIV SWAP1 POP SWAP3 SWAP2 POP POP JUMP JUMPDEST PUSH0 PUSH2 0x13B2 DUP3 PUSH2 0xCB7 JUMP JUMPDEST SWAP2 POP PUSH2 0x13BD DUP4 PUSH2 0xCB7 JUMP JUMPDEST SWAP3 POP DUP3 DUP3 SUB SWAP1 POP DUP2 DUP2 GT ISZERO PUSH2 0x13D5 JUMPI PUSH2 0x13D4 PUSH2 0x12DD JUMP JUMPDEST JUMPDEST SWAP3 SWAP2 POP POP JUMP INVALID LOG2 PUSH5 0x6970667358 0x22 SLT KECCAK256 CALLDATASIZE DUP5 EXP 0xF6 PUSH13 0xE74D4B70DE56A549CFDA115D50 0xC6 EXP CALLCODE 0xD2 PUSH18 0xEAABD69F9AD34A8C0064736F6C6343000818 STOP CALLER "
				},
				"gasEstimates": {
					"creation": {
						"codeDepositCost": "1027400",
						"executionCost": "infinite",
						"totalCost": "infinite"
					},
					"external": {
						"buyProduct(uint256)": "infinite",
						"cancelListing(uint256)": "30653",
						"getListing(uint256)": "infinite",
						"listProduct(uint256,uint256)": "infinite",
						"listings(uint256)": "infinite",
						"owner()": "2537",
						"platformFeePercent()": "2425",
						"renounceOwnership()": "infinite",
						"transferOwnership(address)": "infinite",
						"updatePlatformFee(uint256)": "infinite"
					}
				},
				"methodIdentifiers": {
					"buyProduct(uint256)": "8642269e",
					"cancelListing(uint256)": "305a67a8",
					"getListing(uint256)": "107a274a",
					"listProduct(uint256,uint256)": "44a2d466",
					"listings(uint256)": "de74e57b",
					"owner()": "8da5cb5b",
					"platformFeePercent()": "8c639a85",
					"renounceOwnership()": "715018a6",
					"transferOwnership(address)": "f2fde38b",
					"updatePlatformFee(uint256)": "aa0b5988"
				}
			},
			"storageLayout": {
				"storage": [
					{
						"astId": 8,
						"contract": "Backend/MarketplaceContract.sol:MarketplaceContract",
						"label": "_owner",
						"offset": 0,
						"slot": "0",
						"type": "t_address"
					},
					{
						"astId": 631,
						"contract": "Backend/MarketplaceContract.sol:MarketplaceContract",
						"label": "platformFeePercent",
						"offset": 0,
						"slot": "1",
						"type": "t_uint256"
					},
					{
						"astId": 672,
						"contract": "Backend/MarketplaceContract.sol:MarketplaceContract",
						"label": "listings",
						"offset": 0,
						"slot": "2",
						"type": "t_mapping(t_uint256,t_struct(Listing)666_storage)"
					}
				],
				"types": {
					"t_address": {
						"encoding": "inplace",
						"label": "address",
						"numberOfBytes": "20"
					},
					"t_bool": {
						"encoding": "inplace",
						"label": "bool",
						"numberOfBytes": "1"
					},
					"t_mapping(t_uint256,t_struct(Listing)666_storage)": {
						"encoding": "mapping",
						"key": "t_uint256",
						"label": "mapping(uint256 => struct MarketplaceContract.Listing)",
						"numberOfBytes": "32",
						"value": "t_struct(Listing)666_storage"
					},
					"t_struct(Listing)666_storage": {
						"encoding": "inplace",
						"label": "struct MarketplaceContract.Listing",
						"members": [
							{
								"astId": 661,
								"contract": "Backend/MarketplaceContract.sol:MarketplaceContract",
								"label": "seller",
								"offset": 0,
								"slot": "0",
								"type": "t_address"
							},
							{
								"astId": 663,
								"contract": "Backend/MarketplaceContract.sol:MarketplaceContract",
								"label": "price",
								"offset": 0,
								"slot": "1",
								"type": "t_uint256"
							},
							{
								"astId": 665,
								"contract": "Backend/MarketplaceContract.sol:MarketplaceContract",
								"label": "isActive",
								"offset": 0,
								"slot": "2",
								"type": "t_bool"
							}
						],
						"numberOfBytes": "96"
					},
					"t_uint256": {
						"encoding": "inplace",
						"label": "uint256",
						"numberOfBytes": "32"
					}
				}
			},
			"userdoc": {
				"events": {
					"ListingCanceled(uint256,address)": {
						"notice": "Event emitted when a listing is canceled"
					},
					"ProductListed(uint256,address,uint256)": {
						"notice": "Event emitted when a new listing is created"
					},
					"ProductSold(uint256,address,address,uint256)": {
						"notice": "Event emitted when a product is sold"
					}
				},
				"kind": "user",
				"methods": {
					"buyProduct(uint256)": {
						"notice": "Buy a product listed for sale"
					},
					"cancelListing(uint256)": {
						"notice": "Cancel a product listing"
					},
					"constructor": {
						"notice": "Constructor to initialize the contract with the marketplace fee"
					},
					"getListing(uint256)": {
						"notice": "Retrieve the listing details of a product"
					},
					"listProduct(uint256,uint256)": {
						"notice": "List a product for sale in the marketplace"
					},
					"listings(uint256)": {
						"notice": "Mapping to store product listings by token ID"
					},
					"platformFeePercent()": {
						"notice": "Fee in percentage for marketplace (e.g., 3% fee)"
					},
					"updatePlatformFee(uint256)": {
						"notice": "Update the platform fee percentage"
					}
				},
				"version": 1
			}
		}
	}
}