{
	"data": {
		"bytecode": {
			"linkReferences": {},
			"object": "608060405234801562000010575f80fd5b5060405162003c2638038062003c26833981810160405281019062000036919062000333565b338282815f9081620000499190620005ed565b5080600190816200005b9190620005ed565b5050505f73ffffffffffffffffffffffffffffffffffffffff168173ffffffffffffffffffffffffffffffffffffffff1603620000d1575f6040517f1e4fbdf7000000000000000000000000000000000000000000000000000000008152600401620000c8919062000714565b60405180910390fd5b620000e281620000eb60201b60201c565b5050506200072f565b5f60075f9054906101000a900473ffffffffffffffffffffffffffffffffffffffff1690508160075f6101000a81548173ffffffffffffffffffffffffffffffffffffffff021916908373ffffffffffffffffffffffffffffffffffffffff1602179055508173ffffffffffffffffffffffffffffffffffffffff168173ffffffffffffffffffffffffffffffffffffffff167f8be0079c531659141344cd1fd0a4f28419497f9722a3daafe3b4186f6b6457e060405160405180910390a35050565b5f604051905090565b5f80fd5b5f80fd5b5f80fd5b5f80fd5b5f601f19601f8301169050919050565b7f4e487b71000000000000000000000000000000000000000000000000000000005f52604160045260245ffd5b6200020f82620001c7565b810181811067ffffffffffffffff82111715620002315762000230620001d7565b5b80604052505050565b5f62000245620001ae565b905062000253828262000204565b919050565b5f67ffffffffffffffff821115620002755762000274620001d7565b5b6200028082620001c7565b9050602081019050919050565b5f5b83811015620002ac5780820151818401526020810190506200028f565b5f8484015250505050565b5f620002cd620002c78462000258565b6200023a565b905082815260208101848484011115620002ec57620002eb620001c3565b5b620002f98482856200028d565b509392505050565b5f82601f830112620003185762000317620001bf565b5b81516200032a848260208601620002b7565b91505092915050565b5f80604083850312156200034c576200034b620001b7565b5b5f83015167ffffffffffffffff8111156200036c576200036b620001bb565b5b6200037a8582860162000301565b925050602083015167ffffffffffffffff8111156200039e576200039d620001bb565b5b620003ac8582860162000301565b9150509250929050565b5f81519050919050565b7f4e487b71000000000000000000000000000000000000000000000000000000005f52602260045260245ffd5b5f60028204905060018216806200040557607f821691505b6020821081036200041b576200041a620003c0565b5b50919050565b5f819050815f5260205f209050919050565b5f6020601f8301049050919050565b5f82821b905092915050565b5f600883026200047f7fffffffffffffffffffffffffffffffffffffffffffffffffffffffffffffffff8262000442565b6200048b868362000442565b95508019841693508086168417925050509392505050565b5f819050919050565b5f819050919050565b5f620004d5620004cf620004c984620004a3565b620004ac565b620004a3565b9050919050565b5f819050919050565b620004f083620004b5565b62000508620004ff82620004dc565b8484546200044e565b825550505050565b5f90565b6200051e62000510565b6200052b818484620004e5565b505050565b5b818110156200055257620005465f8262000514565b60018101905062000531565b5050565b601f821115620005a1576200056b8162000421565b620005768462000433565b8101602085101562000586578190505b6200059e620005958562000433565b83018262000530565b50505b505050565b5f82821c905092915050565b5f620005c35f1984600802620005a6565b1980831691505092915050565b5f620005dd8383620005b2565b9150826002028217905092915050565b620005f882620003b6565b67ffffffffffffffff811115620006145762000613620001d7565b5b620006208254620003ed565b6200062d82828562000556565b5f60209050601f83116001811462000663575f84156200064e578287015190505b6200065a8582620005d0565b865550620006c9565b601f198416620006738662000421565b5f5b828110156200069c5784890151825560018201915060208501945060208101905062000675565b86831015620006bc5784890151620006b8601f891682620005b2565b8355505b6001600288020188555050505b505050505050565b5f73ffffffffffffffffffffffffffffffffffffffff82169050919050565b5f620006fc82620006d1565b9050919050565b6200070e81620006f0565b82525050565b5f602082019050620007295f83018462000703565b92915050565b6134e9806200073d5f395ff3fe608060405234801561000f575f80fd5b506004361061012a575f3560e01c806370d597ec116100ab578063b88d4fde1161006f578063b88d4fde1461032a578063c87b56dd14610346578063e985e9c514610376578063eacabe14146103a6578063f2fde38b146103d65761012a565b806370d597ec146102ac578063715018a6146102c85780638da5cb5b146102d257806395d89b41146102f0578063a22cb4651461030e5761012a565b806324a675bb116100f257806324a675bb146101e457806342842e0e1461021457806353c8388e146102305780636352211e1461024c57806370a082311461027c5761012a565b806301ffc9a71461012e57806306fdde031461015e578063081812fc1461017c578063095ea7b3146101ac57806323b872dd146101c8575b5f80fd5b61014860048036038101906101439190612380565b6103f2565b60405161015591906123c5565b60405180910390f35b610166610452565b6040516101739190612468565b60405180910390f35b610196600480360381019061019191906124bb565b6104e1565b6040516101a39190612525565b60405180910390f35b6101c660048036038101906101c19190612568565b6104fc565b005b6101e260048036038101906101dd91906125a6565b610512565b005b6101fe60048036038101906101f991906124bb565b610611565b60405161020b91906126f9565b60405180910390f35b61022e600480360381019061022991906125a6565b6106f6565b005b61024a60048036038101906102459190612845565b610715565b005b610266600480360381019061026191906124bb565b6107f5565b6040516102739190612525565b60405180910390f35b6102966004803603810190610291919061289f565b610806565b6040516102a391906128d9565b60405180910390f35b6102c660048036038101906102c191906128f2565b6108bc565b005b6102d0610ab4565b005b6102da610ac7565b6040516102e79190612525565b60405180910390f35b6102f8610aef565b6040516103059190612468565b60405180910390f35b61032860048036038101906103239190612988565b610b7f565b005b610344600480360381019061033f9190612a64565b610b95565b005b610360600480360381019061035b91906124bb565b610bba565b60405161036d9190612468565b60405180910390f35b610390600480360381019061038b9190612ae4565b610cc5565b60405161039d91906123c5565b60405180910390f35b6103c060048036038101906103bb9190612b22565b610d53565b6040516103cd91906128d9565b60405180910390f35b6103f060048036038101906103eb919061289f565b610df7565b005b5f634906490660e01b7bffffffffffffffffffffffffffffffffffffffffffffffffffffffff1916827bffffffffffffffffffffffffffffffffffffffffffffffffffffffff1916148061044b575061044a82610e7b565b5b9050919050565b60605f805461046090612ba9565b80601f016020809104026020016040519081016040528092919081815260200182805461048c90612ba9565b80156104d75780601f106104ae576101008083540402835291602001916104d7565b820191905f5260205f20905b8154815290600101906020018083116104ba57829003601f168201915b5050505050905090565b5f6104eb82610f5c565b506104f582610fe2565b9050919050565b61050e828261050961101b565b611022565b5050565b5f73ffffffffffffffffffffffffffffffffffffffff168273ffffffffffffffffffffffffffffffffffffffff1603610582575f6040517f64a0ae920000000000000000000000000000000000000000000000000000000081526004016105799190612525565b60405180910390fd5b5f610595838361059061101b565b611034565b90508373ffffffffffffffffffffffffffffffffffffffff168173ffffffffffffffffffffffffffffffffffffffff161461060b578382826040517f64283d7b00000000000000000000000000000000000000000000000000000000815260040161060293929190612bd9565b60405180910390fd5b50505050565b606060095f8381526020019081526020015f20805480602002602001604051908101604052809291908181526020015f905b828210156106eb578382905f5260205f2001805461066090612ba9565b80601f016020809104026020016040519081016040528092919081815260200182805461068c90612ba9565b80156106d75780601f106106ae576101008083540402835291602001916106d7565b820191905f5260205f20905b8154815290600101906020018083116106ba57829003601f168201915b505050505081526020019060010190610643565b505050509050919050565b61071083838360405180602001604052805f815250610b95565b505050565b5f61071f836107f5565b905061072961101b565b73ffffffffffffffffffffffffffffffffffffffff168173ffffffffffffffffffffffffffffffffffffffff16148061076f575061076e8161076961101b565b610cc5565b5b6107ae576040517f08c379a00000000000000000000000000000000000000000000000000000000081526004016107a590612c58565b60405180910390fd5b6107b8838361123f565b827f459157ba24c7ab9878b165ef465fa6ae2ab42bcd8445f576be378768b0c47309836040516107e89190612468565b60405180910390a2505050565b5f6107ff82610f5c565b9050919050565b5f8073ffffffffffffffffffffffffffffffffffffffff168273ffffffffffffffffffffffffffffffffffffffff1603610877575f6040517f89c62b6400000000000000000000000000000000000000000000000000000000815260040161086e9190612525565b60405180910390fd5b60035f8373ffffffffffffffffffffffffffffffffffffffff1673ffffffffffffffffffffffffffffffffffffffff1681526020019081526020015f20549050919050565b5f6108c6846107f5565b90506108d061101b565b73ffffffffffffffffffffffffffffffffffffffff168173ffffffffffffffffffffffffffffffffffffffff16148061091657506109158161091061101b565b610cc5565b5b610955576040517f08c379a000000000000000000000000000000000000000000000000000000000815260040161094c90612c58565b60405180910390fd5b5f73ffffffffffffffffffffffffffffffffffffffff168373ffffffffffffffffffffffffffffffffffffffff16036109c3576040517f08c379a00000000000000000000000000000000000000000000000000000000081526004016109ba90612cc0565b60405180910390fd5b5f6109cd82611299565b6109d685611299565b846109e042611594565b6040516020016109f39493929190612e40565b604051602081830303815290604052905060095f8681526020019081526020015f2081908060018154018082558091505060019003905f5260205f20015f909190919091509081610a449190613046565b508373ffffffffffffffffffffffffffffffffffffffff168273ffffffffffffffffffffffffffffffffffffffff16867f9dfae3130bfd7663d030b65d825fcf210471515d4271713d1ec60a2327ddc76d8642604051610aa5929190613115565b60405180910390a45050505050565b610abc6116ed565b610ac55f611774565b565b5f60075f9054906101000a900473ffffffffffffffffffffffffffffffffffffffff16905090565b606060018054610afe90612ba9565b80601f0160208091040260200160405190810160405280929190818152602001828054610b2a90612ba9565b8015610b755780601f10610b4c57610100808354040283529160200191610b75565b820191905f5260205f20905b815481529060010190602001808311610b5857829003601f168201915b5050505050905090565b610b91610b8a61101b565b8383611837565b5050565b610ba0848484610512565b610bb4610bab61101b565b858585856119a0565b50505050565b6060610bc582610f5c565b505f60065f8481526020019081526020015f208054610be390612ba9565b80601f0160208091040260200160405190810160405280929190818152602001828054610c0f90612ba9565b8015610c5a5780601f10610c3157610100808354040283529160200191610c5a565b820191905f5260205f20905b815481529060010190602001808311610c3d57829003601f168201915b505050505090505f610c6a611b4c565b90505f815103610c7e578192505050610cc0565b5f82511115610cb2578082604051602001610c9a929190613143565b60405160208183030381529060405292505050610cc0565b610cbb84611b62565b925050505b919050565b5f60055f8473ffffffffffffffffffffffffffffffffffffffff1673ffffffffffffffffffffffffffffffffffffffff1681526020019081526020015f205f8373ffffffffffffffffffffffffffffffffffffffff1673ffffffffffffffffffffffffffffffffffffffff1681526020019081526020015f205f9054906101000a900460ff16905092915050565b5f610d5c6116ed565b610d666008611bc8565b5f610d716008611bdc565b9050610d7d8482611be8565b610d87818461123f565b8373ffffffffffffffffffffffffffffffffffffffff165f73ffffffffffffffffffffffffffffffffffffffff16827f9dfae3130bfd7663d030b65d825fcf210471515d4271713d1ec60a2327ddc76d42604051610de591906131b0565b60405180910390a48091505092915050565b610dff6116ed565b5f73ffffffffffffffffffffffffffffffffffffffff168173ffffffffffffffffffffffffffffffffffffffff1603610e6f575f6040517f1e4fbdf7000000000000000000000000000000000000000000000000000000008152600401610e669190612525565b60405180910390fd5b610e7881611774565b50565b5f7f80ac58cd000000000000000000000000000000000000000000000000000000007bffffffffffffffffffffffffffffffffffffffffffffffffffffffff1916827bffffffffffffffffffffffffffffffffffffffffffffffffffffffff19161480610f4557507f5b5e139f000000000000000000000000000000000000000000000000000000007bffffffffffffffffffffffffffffffffffffffffffffffffffffffff1916827bffffffffffffffffffffffffffffffffffffffffffffffffffffffff1916145b80610f555750610f5482611c05565b5b9050919050565b5f80610f6783611c6e565b90505f73ffffffffffffffffffffffffffffffffffffffff168173ffffffffffffffffffffffffffffffffffffffff1603610fd957826040517f7e273289000000000000000000000000000000000000000000000000000000008152600401610fd091906128d9565b60405180910390fd5b80915050919050565b5f60045f8381526020019081526020015f205f9054906101000a900473ffffffffffffffffffffffffffffffffffffffff169050919050565b5f33905090565b61102f8383836001611ca7565b505050565b5f8061103f84611c6e565b90505f73ffffffffffffffffffffffffffffffffffffffff168373ffffffffffffffffffffffffffffffffffffffff16146110805761107f818486611e66565b5b5f73ffffffffffffffffffffffffffffffffffffffff168173ffffffffffffffffffffffffffffffffffffffff161461110b576110bf5f855f80611ca7565b600160035f8373ffffffffffffffffffffffffffffffffffffffff1673ffffffffffffffffffffffffffffffffffffffff1681526020019081526020015f205f82825403925050819055505b5f73ffffffffffffffffffffffffffffffffffffffff168573ffffffffffffffffffffffffffffffffffffffff161461118a57600160035f8773ffffffffffffffffffffffffffffffffffffffff1673ffffffffffffffffffffffffffffffffffffffff1681526020019081526020015f205f82825401925050819055505b8460025f8681526020019081526020015f205f6101000a81548173ffffffffffffffffffffffffffffffffffffffff021916908373ffffffffffffffffffffffffffffffffffffffff160217905550838573ffffffffffffffffffffffffffffffffffffffff168273ffffffffffffffffffffffffffffffffffffffff167fddf252ad1be2c89b69c2b068fc378daa952ba7f163c4a11628f55a4df523b3ef60405160405180910390a4809150509392505050565b8060065f8481526020019081526020015f20908161125d9190613046565b507ff8e1a15aba9398e019f0b49df1a4fde98ee17ae345cb5f6b5e2c27f5033e8ce78260405161128d91906128d9565b60405180910390a15050565b60605f8273ffffffffffffffffffffffffffffffffffffffff165f1b90505f6040518060400160405280601081526020017f303132333435363738396162636465660000000000000000000000000000000081525090505f602a67ffffffffffffffff81111561130c5761130b612721565b5b6040519080825280601f01601f19166020018201604052801561133e5781602001600182028036833780820191505090505b5090507f3000000000000000000000000000000000000000000000000000000000000000815f81518110611375576113746131dc565b5b60200101907effffffffffffffffffffffffffffffffffffffffffffffffffffffffffffff191690815f1a9053507f7800000000000000000000000000000000000000000000000000000000000000816001815181106113d8576113d76131dc565b5b60200101907effffffffffffffffffffffffffffffffffffffffffffffffffffffffffffff191690815f1a9053505f5b60148110156115885782600485600c846114229190613236565b60208110611433576114326131dc565b5b1a60f81b7effffffffffffffffffffffffffffffffffffffffffffffffffffffffffffff1916901c60f81c60ff1681518110611472576114716131dc565b5b602001015160f81c60f81b8260028361148b9190613269565b60026114979190613236565b815181106114a8576114a76131dc565b5b60200101907effffffffffffffffffffffffffffffffffffffffffffffffffffffffffffff191690815f1a90535082600f60f81b85600c846114ea9190613236565b602081106114fb576114fa6131dc565b5b1a60f81b1660f81c60ff1681518110611517576115166131dc565b5b602001015160f81c60f81b826002836115309190613269565b600361153c9190613236565b8151811061154d5761154c6131dc565b5b60200101907effffffffffffffffffffffffffffffffffffffffffffffffffffffffffffff191690815f1a9053508080600101915050611408565b50809350505050919050565b60605f82036115da576040518060400160405280600181526020017f300000000000000000000000000000000000000000000000000000000000000081525090506116e8565b5f8290505f5b5f82146116095780806115f2906132aa565b915050600a82611602919061331e565b91506115e0565b5f8167ffffffffffffffff81111561162457611623612721565b5b6040519080825280601f01601f1916602001820160405280156116565781602001600182028036833780820191505090505b5090505b5f85146116e15760018261166e919061334e565b9150600a8561167d9190613381565b60306116899190613236565b60f81b81838151811061169f5761169e6131dc565b5b60200101907effffffffffffffffffffffffffffffffffffffffffffffffffffffffffffff191690815f1a905350600a856116da919061331e565b945061165a565b8093505050505b919050565b6116f561101b565b73ffffffffffffffffffffffffffffffffffffffff16611713610ac7565b73ffffffffffffffffffffffffffffffffffffffff16146117725761173661101b565b6040517f118cdaa70000000000000000000000000000000000000000000000000000000081526004016117699190612525565b60405180910390fd5b565b5f60075f9054906101000a900473ffffffffffffffffffffffffffffffffffffffff1690508160075f6101000a81548173ffffffffffffffffffffffffffffffffffffffff021916908373ffffffffffffffffffffffffffffffffffffffff1602179055508173ffffffffffffffffffffffffffffffffffffffff168173ffffffffffffffffffffffffffffffffffffffff167f8be0079c531659141344cd1fd0a4f28419497f9722a3daafe3b4186f6b6457e060405160405180910390a35050565b5f73ffffffffffffffffffffffffffffffffffffffff168273ffffffffffffffffffffffffffffffffffffffff16036118a757816040517f5b08ba1800000000000000000000000000000000000000000000000000000000815260040161189e9190612525565b60405180910390fd5b8060055f8573ffffffffffffffffffffffffffffffffffffffff1673ffffffffffffffffffffffffffffffffffffffff1681526020019081526020015f205f8473ffffffffffffffffffffffffffffffffffffffff1673ffffffffffffffffffffffffffffffffffffffff1681526020019081526020015f205f6101000a81548160ff0219169083151502179055508173ffffffffffffffffffffffffffffffffffffffff168373ffffffffffffffffffffffffffffffffffffffff167f17307eab39ab6107e8899845ad3d59bd9653f200f220920489ca2b5937696c318360405161199391906123c5565b60405180910390a3505050565b5f8373ffffffffffffffffffffffffffffffffffffffff163b1115611b45578273ffffffffffffffffffffffffffffffffffffffff1663150b7a02868685856040518563ffffffff1660e01b81526004016119fe9493929190613403565b6020604051808303815f875af1925050508015611a3957506040513d601f19601f82011682018060405250810190611a369190613461565b60015b611aba573d805f8114611a67576040519150601f19603f3d011682016040523d82523d5f602084013e611a6c565b606091505b505f815103611ab257836040517f64a0ae92000000000000000000000000000000000000000000000000000000008152600401611aa99190612525565b60405180910390fd5b805181602001fd5b63150b7a0260e01b7bffffffffffffffffffffffffffffffffffffffffffffffffffffffff1916817bffffffffffffffffffffffffffffffffffffffffffffffffffffffff191614611b4357836040517f64a0ae92000000000000000000000000000000000000000000000000000000008152600401611b3a9190612525565b60405180910390fd5b505b5050505050565b606060405180602001604052805f815250905090565b6060611b6d82610f5c565b505f611b77611b4c565b90505f815111611b955760405180602001604052805f815250611bc0565b80611b9f84611f29565b604051602001611bb0929190613143565b6040516020818303038152906040525b915050919050565b6001815f015f828254019250508190555050565b5f815f01549050919050565b611c01828260405180602001604052805f815250611ff3565b5050565b5f7f01ffc9a7000000000000000000000000000000000000000000000000000000007bffffffffffffffffffffffffffffffffffffffffffffffffffffffff1916827bffffffffffffffffffffffffffffffffffffffffffffffffffffffff1916149050919050565b5f60025f8381526020019081526020015f205f9054906101000a900473ffffffffffffffffffffffffffffffffffffffff169050919050565b8080611cdf57505f73ffffffffffffffffffffffffffffffffffffffff168273ffffffffffffffffffffffffffffffffffffffff1614155b15611e11575f611cee84610f5c565b90505f73ffffffffffffffffffffffffffffffffffffffff168373ffffffffffffffffffffffffffffffffffffffff1614158015611d5857508273ffffffffffffffffffffffffffffffffffffffff168173ffffffffffffffffffffffffffffffffffffffff1614155b8015611d6b5750611d698184610cc5565b155b15611dad57826040517fa9fbf51f000000000000000000000000000000000000000000000000000000008152600401611da49190612525565b60405180910390fd5b8115611e0f57838573ffffffffffffffffffffffffffffffffffffffff168273ffffffffffffffffffffffffffffffffffffffff167f8c5be1e5ebec7d5bd14f71427d1e84f3dd0314c0f7b2291e5b200ac8c7c3b92560405160405180910390a45b505b8360045f8581526020019081526020015f205f6101000a81548173ffffffffffffffffffffffffffffffffffffffff021916908373ffffffffffffffffffffffffffffffffffffffff16021790555050505050565b611e71838383612016565b611f24575f73ffffffffffffffffffffffffffffffffffffffff168373ffffffffffffffffffffffffffffffffffffffff1603611ee557806040517f7e273289000000000000000000000000000000000000000000000000000000008152600401611edc91906128d9565b60405180910390fd5b81816040517f177e802f000000000000000000000000000000000000000000000000000000008152600401611f1b92919061348c565b60405180910390fd5b505050565b60605f6001611f37846120d6565b0190505f8167ffffffffffffffff811115611f5557611f54612721565b5b6040519080825280601f01601f191660200182016040528015611f875781602001600182028036833780820191505090505b5090505f82602001820190505b600115611fe8578080600190039150507f3031323334353637383961626364656600000000000000000000000000000000600a86061a8153600a8581611fdd57611fdc6132f1565b5b0494505f8503611f94575b819350505050919050565b611ffd8383612227565b61201161200861101b565b5f8585856119a0565b505050565b5f8073ffffffffffffffffffffffffffffffffffffffff168373ffffffffffffffffffffffffffffffffffffffff16141580156120cd57508273ffffffffffffffffffffffffffffffffffffffff168473ffffffffffffffffffffffffffffffffffffffff16148061208e575061208d8484610cc5565b5b806120cc57508273ffffffffffffffffffffffffffffffffffffffff166120b483610fe2565b73ffffffffffffffffffffffffffffffffffffffff16145b5b90509392505050565b5f805f90507a184f03e93ff9f4daa797ed6e38ed64bf6a1f0100000000000000008310612132577a184f03e93ff9f4daa797ed6e38ed64bf6a1f0100000000000000008381612128576121276132f1565b5b0492506040810190505b6d04ee2d6d415b85acef8100000000831061216f576d04ee2d6d415b85acef81000000008381612165576121646132f1565b5b0492506020810190505b662386f26fc10000831061219e57662386f26fc100008381612194576121936132f1565b5b0492506010810190505b6305f5e10083106121c7576305f5e10083816121bd576121bc6132f1565b5b0492506008810190505b61271083106121ec5761271083816121e2576121e16132f1565b5b0492506004810190505b6064831061220f5760648381612205576122046132f1565b5b0492506002810190505b600a831061221e576001810190505b80915050919050565b5f73ffffffffffffffffffffffffffffffffffffffff168273ffffffffffffffffffffffffffffffffffffffff1603612297575f6040517f64a0ae9200000000000000000000000000000000000000000000000000000000815260040161228e9190612525565b60405180910390fd5b5f6122a383835f611034565b90505f73ffffffffffffffffffffffffffffffffffffffff168173ffffffffffffffffffffffffffffffffffffffff1614612315575f6040517f73c6ac6e00000000000000000000000000000000000000000000000000000000815260040161230c9190612525565b60405180910390fd5b505050565b5f604051905090565b5f80fd5b5f80fd5b5f7fffffffff0000000000000000000000000000000000000000000000000000000082169050919050565b61235f8161232b565b8114612369575f80fd5b50565b5f8135905061237a81612356565b92915050565b5f6020828403121561239557612394612323565b5b5f6123a28482850161236c565b91505092915050565b5f8115159050919050565b6123bf816123ab565b82525050565b5f6020820190506123d85f8301846123b6565b92915050565b5f81519050919050565b5f82825260208201905092915050565b5f5b838110156124155780820151818401526020810190506123fa565b5f8484015250505050565b5f601f19601f8301169050919050565b5f61243a826123de565b61244481856123e8565b93506124548185602086016123f8565b61245d81612420565b840191505092915050565b5f6020820190508181035f8301526124808184612430565b905092915050565b5f819050919050565b61249a81612488565b81146124a4575f80fd5b50565b5f813590506124b581612491565b92915050565b5f602082840312156124d0576124cf612323565b5b5f6124dd848285016124a7565b91505092915050565b5f73ffffffffffffffffffffffffffffffffffffffff82169050919050565b5f61250f826124e6565b9050919050565b61251f81612505565b82525050565b5f6020820190506125385f830184612516565b92915050565b61254781612505565b8114612551575f80fd5b50565b5f813590506125628161253e565b92915050565b5f806040838503121561257e5761257d612323565b5b5f61258b85828601612554565b925050602061259c858286016124a7565b9150509250929050565b5f805f606084860312156125bd576125bc612323565b5b5f6125ca86828701612554565b93505060206125db86828701612554565b92505060406125ec868287016124a7565b9150509250925092565b5f81519050919050565b5f82825260208201905092915050565b5f819050602082019050919050565b5f82825260208201905092915050565b5f612639826123de565b612643818561261f565b93506126538185602086016123f8565b61265c81612420565b840191505092915050565b5f612672838361262f565b905092915050565b5f602082019050919050565b5f612690826125f6565b61269a8185612600565b9350836020820285016126ac85612610565b805f5b858110156126e757848403895281516126c88582612667565b94506126d38361267a565b925060208a019950506001810190506126af565b50829750879550505050505092915050565b5f6020820190508181035f8301526127118184612686565b905092915050565b5f80fd5b5f80fd5b7f4e487b71000000000000000000000000000000000000000000000000000000005f52604160045260245ffd5b61275782612420565b810181811067ffffffffffffffff8211171561277657612775612721565b5b80604052505050565b5f61278861231a565b9050612794828261274e565b919050565b5f67ffffffffffffffff8211156127b3576127b2612721565b5b6127bc82612420565b9050602081019050919050565b828183375f83830152505050565b5f6127e96127e484612799565b61277f565b9050828152602081018484840111156128055761280461271d565b5b6128108482856127c9565b509392505050565b5f82601f83011261282c5761282b612719565b5b813561283c8482602086016127d7565b91505092915050565b5f806040838503121561285b5761285a612323565b5b5f612868858286016124a7565b925050602083013567ffffffffffffffff81111561288957612888612327565b5b61289585828601612818565b9150509250929050565b5f602082840312156128b4576128b3612323565b5b5f6128c184828501612554565b91505092915050565b6128d381612488565b82525050565b5f6020820190506128ec5f8301846128ca565b92915050565b5f805f6060848603121561290957612908612323565b5b5f612916868287016124a7565b935050602061292786828701612554565b925050604084013567ffffffffffffffff81111561294857612947612327565b5b61295486828701612818565b9150509250925092565b612967816123ab565b8114612971575f80fd5b50565b5f813590506129828161295e565b92915050565b5f806040838503121561299e5761299d612323565b5b5f6129ab85828601612554565b92505060206129bc85828601612974565b9150509250929050565b5f67ffffffffffffffff8211156129e0576129df612721565b5b6129e982612420565b9050602081019050919050565b5f612a08612a03846129c6565b61277f565b905082815260208101848484011115612a2457612a2361271d565b5b612a2f8482856127c9565b509392505050565b5f82601f830112612a4b57612a4a612719565b5b8135612a5b8482602086016129f6565b91505092915050565b5f805f8060808587031215612a7c57612a7b612323565b5b5f612a8987828801612554565b9450506020612a9a87828801612554565b9350506040612aab878288016124a7565b925050606085013567ffffffffffffffff811115612acc57612acb612327565b5b612ad887828801612a37565b91505092959194509250565b5f8060408385031215612afa57612af9612323565b5b5f612b0785828601612554565b9250506020612b1885828601612554565b9150509250929050565b5f8060408385031215612b3857612b37612323565b5b5f612b4585828601612554565b925050602083013567ffffffffffffffff811115612b6657612b65612327565b5b612b7285828601612818565b9150509250929050565b7f4e487b71000000000000000000000000000000000000000000000000000000005f52602260045260245ffd5b5f6002820490506001821680612bc057607f821691505b602082108103612bd357612bd2612b7c565b5b50919050565b5f606082019050612bec5f830186612516565b612bf960208301856128ca565b612c066040830184612516565b949350505050565b7f43616c6c6572206973206e6f74206f776e6572206e6f7220617070726f7665645f82015250565b5f612c426020836123e8565b9150612c4d82612c0e565b602082019050919050565b5f6020820190508181035f830152612c6f81612c36565b9050919050565b7f496e76616c6964206164647265737300000000000000000000000000000000005f82015250565b5f612caa600f836123e8565b9150612cb582612c76565b602082019050919050565b5f6020820190508181035f830152612cd781612c9e565b9050919050565b5f81905092915050565b7f46726f6d3a2000000000000000000000000000000000000000000000000000005f82015250565b5f612d1c600683612cde565b9150612d2782612ce8565b600682019050919050565b5f612d3c826123de565b612d468185612cde565b9350612d568185602086016123f8565b80840191505092915050565b7f2c20546f3a2000000000000000000000000000000000000000000000000000005f82015250565b5f612d96600683612cde565b9150612da182612d62565b600682019050919050565b7f2c204576656e743a2000000000000000000000000000000000000000000000005f82015250565b5f612de0600983612cde565b9150612deb82612dac565b600982019050919050565b7f2c2054696d657374616d703a20000000000000000000000000000000000000005f82015250565b5f612e2a600d83612cde565b9150612e3582612df6565b600d82019050919050565b5f612e4a82612d10565b9150612e568287612d32565b9150612e6182612d8a565b9150612e6d8286612d32565b9150612e7882612dd4565b9150612e848285612d32565b9150612e8f82612e1e565b9150612e9b8284612d32565b915081905095945050505050565b5f819050815f5260205f209050919050565b5f6020601f8301049050919050565b5f82821b905092915050565b5f60088302612f057fffffffffffffffffffffffffffffffffffffffffffffffffffffffffffffffff82612eca565b612f0f8683612eca565b95508019841693508086168417925050509392505050565b5f819050919050565b5f612f4a612f45612f4084612488565b612f27565b612488565b9050919050565b5f819050919050565b612f6383612f30565b612f77612f6f82612f51565b848454612ed6565b825550505050565b5f90565b612f8b612f7f565b612f96818484612f5a565b505050565b5b81811015612fb957612fae5f82612f83565b600181019050612f9c565b5050565b601f821115612ffe57612fcf81612ea9565b612fd884612ebb565b81016020851015612fe7578190505b612ffb612ff385612ebb565b830182612f9b565b50505b505050565b5f82821c905092915050565b5f61301e5f1984600802613003565b1980831691505092915050565b5f613036838361300f565b9150826002028217905092915050565b61304f826123de565b67ffffffffffffffff81111561306857613067612721565b5b6130728254612ba9565b61307d828285612fbd565b5f60209050601f8311600181146130ae575f841561309c578287015190505b6130a6858261302b565b86555061310d565b601f1984166130bc86612ea9565b5f5b828110156130e3578489015182556001820191506020850194506020810190506130be565b8683101561310057848901516130fc601f89168261300f565b8355505b6001600288020188555050505b505050505050565b5f6040820190508181035f83015261312d8185612430565b905061313c60208301846128ca565b9392505050565b5f61314e8285612d32565b915061315a8284612d32565b91508190509392505050565b7f4d696e74656400000000000000000000000000000000000000000000000000005f82015250565b5f61319a6006836123e8565b91506131a582613166565b602082019050919050565b5f6040820190508181035f8301526131c78161318e565b90506131d660208301846128ca565b92915050565b7f4e487b71000000000000000000000000000000000000000000000000000000005f52603260045260245ffd5b7f4e487b71000000000000000000000000000000000000000000000000000000005f52601160045260245ffd5b5f61324082612488565b915061324b83612488565b925082820190508082111561326357613262613209565b5b92915050565b5f61327382612488565b915061327e83612488565b925082820261328c81612488565b915082820484148315176132a3576132a2613209565b5b5092915050565b5f6132b482612488565b91507fffffffffffffffffffffffffffffffffffffffffffffffffffffffffffffffff82036132e6576132e5613209565b5b600182019050919050565b7f4e487b71000000000000000000000000000000000000000000000000000000005f52601260045260245ffd5b5f61332882612488565b915061333383612488565b925082613343576133426132f1565b5b828204905092915050565b5f61335882612488565b915061336383612488565b925082820390508181111561337b5761337a613209565b5b92915050565b5f61338b82612488565b915061339683612488565b9250826133a6576133a56132f1565b5b828206905092915050565b5f81519050919050565b5f82825260208201905092915050565b5f6133d5826133b1565b6133df81856133bb565b93506133ef8185602086016123f8565b6133f881612420565b840191505092915050565b5f6080820190506134165f830187612516565b6134236020830186612516565b61343060408301856128ca565b818103606083015261344281846133cb565b905095945050505050565b5f8151905061345b81612356565b92915050565b5f6020828403121561347657613475612323565b5b5f6134838482850161344d565b91505092915050565b5f60408201905061349f5f830185612516565b6134ac60208301846128ca565b939250505056fea2646970667358221220704069e472d50da58226b2cb6c6c0b8c4d51c87a650538fe401d6f338ce9a63364736f6c63430008180033",
			"opcodes": "PUSH1 0x80 PUSH1 0x40 MSTORE CALLVALUE DUP1 ISZERO PUSH3 0x10 JUMPI PUSH0 DUP1 REVERT JUMPDEST POP PUSH1 0x40 MLOAD PUSH3 0x3C26 CODESIZE SUB DUP1 PUSH3 0x3C26 DUP4 CODECOPY DUP2 DUP2 ADD PUSH1 0x40 MSTORE DUP2 ADD SWAP1 PUSH3 0x36 SWAP2 SWAP1 PUSH3 0x333 JUMP JUMPDEST CALLER DUP3 DUP3 DUP2 PUSH0 SWAP1 DUP2 PUSH3 0x49 SWAP2 SWAP1 PUSH3 0x5ED JUMP JUMPDEST POP DUP1 PUSH1 0x1 SWAP1 DUP2 PUSH3 0x5B SWAP2 SWAP1 PUSH3 0x5ED JUMP JUMPDEST POP POP POP PUSH0 PUSH20 0xFFFFFFFFFFFFFFFFFFFFFFFFFFFFFFFFFFFFFFFF AND DUP2 PUSH20 0xFFFFFFFFFFFFFFFFFFFFFFFFFFFFFFFFFFFFFFFF AND SUB PUSH3 0xD1 JUMPI PUSH0 PUSH1 0x40 MLOAD PUSH32 0x1E4FBDF700000000000000000000000000000000000000000000000000000000 DUP2 MSTORE PUSH1 0x4 ADD PUSH3 0xC8 SWAP2 SWAP1 PUSH3 0x714 JUMP JUMPDEST PUSH1 0x40 MLOAD DUP1 SWAP2 SUB SWAP1 REVERT JUMPDEST PUSH3 0xE2 DUP2 PUSH3 0xEB PUSH1 0x20 SHL PUSH1 0x20 SHR JUMP JUMPDEST POP POP POP PUSH3 0x72F JUMP JUMPDEST PUSH0 PUSH1 0x7 PUSH0 SWAP1 SLOAD SWAP1 PUSH2 0x100 EXP SWAP1 DIV PUSH20 0xFFFFFFFFFFFFFFFFFFFFFFFFFFFFFFFFFFFFFFFF AND SWAP1 POP DUP2 PUSH1 0x7 PUSH0 PUSH2 0x100 EXP DUP2 SLOAD DUP2 PUSH20 0xFFFFFFFFFFFFFFFFFFFFFFFFFFFFFFFFFFFFFFFF MUL NOT AND SWAP1 DUP4 PUSH20 0xFFFFFFFFFFFFFFFFFFFFFFFFFFFFFFFFFFFFFFFF AND MUL OR SWAP1 SSTORE POP DUP2 PUSH20 0xFFFFFFFFFFFFFFFFFFFFFFFFFFFFFFFFFFFFFFFF AND DUP2 PUSH20 0xFFFFFFFFFFFFFFFFFFFFFFFFFFFFFFFFFFFFFFFF AND PUSH32 0x8BE0079C531659141344CD1FD0A4F28419497F9722A3DAAFE3B4186F6B6457E0 PUSH1 0x40 MLOAD PUSH1 0x40 MLOAD DUP1 SWAP2 SUB SWAP1 LOG3 POP POP JUMP JUMPDEST PUSH0 PUSH1 0x40 MLOAD SWAP1 POP SWAP1 JUMP JUMPDEST PUSH0 DUP1 REVERT JUMPDEST PUSH0 DUP1 REVERT JUMPDEST PUSH0 DUP1 REVERT JUMPDEST PUSH0 DUP1 REVERT JUMPDEST PUSH0 PUSH1 0x1F NOT PUSH1 0x1F DUP4 ADD AND SWAP1 POP SWAP2 SWAP1 POP JUMP JUMPDEST PUSH32 0x4E487B7100000000000000000000000000000000000000000000000000000000 PUSH0 MSTORE PUSH1 0x41 PUSH1 0x4 MSTORE PUSH1 0x24 PUSH0 REVERT JUMPDEST PUSH3 0x20F DUP3 PUSH3 0x1C7 JUMP JUMPDEST DUP2 ADD DUP2 DUP2 LT PUSH8 0xFFFFFFFFFFFFFFFF DUP3 GT OR ISZERO PUSH3 0x231 JUMPI PUSH3 0x230 PUSH3 0x1D7 JUMP JUMPDEST JUMPDEST DUP1 PUSH1 0x40 MSTORE POP POP POP JUMP JUMPDEST PUSH0 PUSH3 0x245 PUSH3 0x1AE JUMP JUMPDEST SWAP1 POP PUSH3 0x253 DUP3 DUP3 PUSH3 0x204 JUMP JUMPDEST SWAP2 SWAP1 POP JUMP JUMPDEST PUSH0 PUSH8 0xFFFFFFFFFFFFFFFF DUP3 GT ISZERO PUSH3 0x275 JUMPI PUSH3 0x274 PUSH3 0x1D7 JUMP JUMPDEST JUMPDEST PUSH3 0x280 DUP3 PUSH3 0x1C7 JUMP JUMPDEST SWAP1 POP PUSH1 0x20 DUP2 ADD SWAP1 POP SWAP2 SWAP1 POP JUMP JUMPDEST PUSH0 JUMPDEST DUP4 DUP2 LT ISZERO PUSH3 0x2AC JUMPI DUP1 DUP3 ADD MLOAD DUP2 DUP5 ADD MSTORE PUSH1 0x20 DUP2 ADD SWAP1 POP PUSH3 0x28F JUMP JUMPDEST PUSH0 DUP5 DUP5 ADD MSTORE POP POP POP POP JUMP JUMPDEST PUSH0 PUSH3 0x2CD PUSH3 0x2C7 DUP5 PUSH3 0x258 JUMP JUMPDEST PUSH3 0x23A JUMP JUMPDEST SWAP1 POP DUP3 DUP2 MSTORE PUSH1 0x20 DUP2 ADD DUP5 DUP5 DUP5 ADD GT ISZERO PUSH3 0x2EC JUMPI PUSH3 0x2EB PUSH3 0x1C3 JUMP JUMPDEST JUMPDEST PUSH3 0x2F9 DUP5 DUP3 DUP6 PUSH3 0x28D JUMP JUMPDEST POP SWAP4 SWAP3 POP POP POP JUMP JUMPDEST PUSH0 DUP3 PUSH1 0x1F DUP4 ADD SLT PUSH3 0x318 JUMPI PUSH3 0x317 PUSH3 0x1BF JUMP JUMPDEST JUMPDEST DUP2 MLOAD PUSH3 0x32A DUP5 DUP3 PUSH1 0x20 DUP7 ADD PUSH3 0x2B7 JUMP JUMPDEST SWAP2 POP POP SWAP3 SWAP2 POP POP JUMP JUMPDEST PUSH0 DUP1 PUSH1 0x40 DUP4 DUP6 SUB SLT ISZERO PUSH3 0x34C JUMPI PUSH3 0x34B PUSH3 0x1B7 JUMP JUMPDEST JUMPDEST PUSH0 DUP4 ADD MLOAD PUSH8 0xFFFFFFFFFFFFFFFF DUP2 GT ISZERO PUSH3 0x36C JUMPI PUSH3 0x36B PUSH3 0x1BB JUMP JUMPDEST JUMPDEST PUSH3 0x37A DUP6 DUP3 DUP7 ADD PUSH3 0x301 JUMP JUMPDEST SWAP3 POP POP PUSH1 0x20 DUP4 ADD MLOAD PUSH8 0xFFFFFFFFFFFFFFFF DUP2 GT ISZERO PUSH3 0x39E JUMPI PUSH3 0x39D PUSH3 0x1BB JUMP JUMPDEST JUMPDEST PUSH3 0x3AC DUP6 DUP3 DUP7 ADD PUSH3 0x301 JUMP JUMPDEST SWAP2 POP POP SWAP3 POP SWAP3 SWAP1 POP JUMP JUMPDEST PUSH0 DUP2 MLOAD SWAP1 POP SWAP2 SWAP1 POP JUMP JUMPDEST PUSH32 0x4E487B7100000000000000000000000000000000000000000000000000000000 PUSH0 MSTORE PUSH1 0x22 PUSH1 0x4 MSTORE PUSH1 0x24 PUSH0 REVERT JUMPDEST PUSH0 PUSH1 0x2 DUP3 DIV SWAP1 POP PUSH1 0x1 DUP3 AND DUP1 PUSH3 0x405 JUMPI PUSH1 0x7F DUP3 AND SWAP2 POP JUMPDEST PUSH1 0x20 DUP3 LT DUP2 SUB PUSH3 0x41B JUMPI PUSH3 0x41A PUSH3 0x3C0 JUMP JUMPDEST JUMPDEST POP SWAP2 SWAP1 POP JUMP JUMPDEST PUSH0 DUP2 SWAP1 POP DUP2 PUSH0 MSTORE PUSH1 0x20 PUSH0 KECCAK256 SWAP1 POP SWAP2 SWAP1 POP JUMP JUMPDEST PUSH0 PUSH1 0x20 PUSH1 0x1F DUP4 ADD DIV SWAP1 POP SWAP2 SWAP1 POP JUMP JUMPDEST PUSH0 DUP3 DUP3 SHL SWAP1 POP SWAP3 SWAP2 POP POP JUMP JUMPDEST PUSH0 PUSH1 0x8 DUP4 MUL PUSH3 0x47F PUSH32 0xFFFFFFFFFFFFFFFFFFFFFFFFFFFFFFFFFFFFFFFFFFFFFFFFFFFFFFFFFFFFFFFF DUP3 PUSH3 0x442 JUMP JUMPDEST PUSH3 0x48B DUP7 DUP4 PUSH3 0x442 JUMP JUMPDEST SWAP6 POP DUP1 NOT DUP5 AND SWAP4 POP DUP1 DUP7 AND DUP5 OR SWAP3 POP POP POP SWAP4 SWAP3 POP POP POP JUMP JUMPDEST PUSH0 DUP2 SWAP1 POP SWAP2 SWAP1 POP JUMP JUMPDEST PUSH0 DUP2 SWAP1 POP SWAP2 SWAP1 POP JUMP JUMPDEST PUSH0 PUSH3 0x4D5 PUSH3 0x4CF PUSH3 0x4C9 DUP5 PUSH3 0x4A3 JUMP JUMPDEST PUSH3 0x4AC JUMP JUMPDEST PUSH3 0x4A3 JUMP JUMPDEST SWAP1 POP SWAP2 SWAP1 POP JUMP JUMPDEST PUSH0 DUP2 SWAP1 POP SWAP2 SWAP1 POP JUMP JUMPDEST PUSH3 0x4F0 DUP4 PUSH3 0x4B5 JUMP JUMPDEST PUSH3 0x508 PUSH3 0x4FF DUP3 PUSH3 0x4DC JUMP JUMPDEST DUP5 DUP5 SLOAD PUSH3 0x44E JUMP JUMPDEST DUP3 SSTORE POP POP POP POP JUMP JUMPDEST PUSH0 SWAP1 JUMP JUMPDEST PUSH3 0x51E PUSH3 0x510 JUMP JUMPDEST PUSH3 0x52B DUP2 DUP5 DUP5 PUSH3 0x4E5 JUMP JUMPDEST POP POP POP JUMP JUMPDEST JUMPDEST DUP2 DUP2 LT ISZERO PUSH3 0x552 JUMPI PUSH3 0x546 PUSH0 DUP3 PUSH3 0x514 JUMP JUMPDEST PUSH1 0x1 DUP2 ADD SWAP1 POP PUSH3 0x531 JUMP JUMPDEST POP POP JUMP JUMPDEST PUSH1 0x1F DUP3 GT ISZERO PUSH3 0x5A1 JUMPI PUSH3 0x56B DUP2 PUSH3 0x421 JUMP JUMPDEST PUSH3 0x576 DUP5 PUSH3 0x433 JUMP JUMPDEST DUP2 ADD PUSH1 0x20 DUP6 LT ISZERO PUSH3 0x586 JUMPI DUP2 SWAP1 POP JUMPDEST PUSH3 0x59E PUSH3 0x595 DUP6 PUSH3 0x433 JUMP JUMPDEST DUP4 ADD DUP3 PUSH3 0x530 JUMP JUMPDEST POP POP JUMPDEST POP POP POP JUMP JUMPDEST PUSH0 DUP3 DUP3 SHR SWAP1 POP SWAP3 SWAP2 POP POP JUMP JUMPDEST PUSH0 PUSH3 0x5C3 PUSH0 NOT DUP5 PUSH1 0x8 MUL PUSH3 0x5A6 JUMP JUMPDEST NOT DUP1 DUP4 AND SWAP2 POP POP SWAP3 SWAP2 POP POP JUMP JUMPDEST PUSH0 PUSH3 0x5DD DUP4 DUP4 PUSH3 0x5B2 JUMP JUMPDEST SWAP2 POP DUP3 PUSH1 0x2 MUL DUP3 OR SWAP1 POP SWAP3 SWAP2 POP POP JUMP JUMPDEST PUSH3 0x5F8 DUP3 PUSH3 0x3B6 JUMP JUMPDEST PUSH8 0xFFFFFFFFFFFFFFFF DUP2 GT ISZERO PUSH3 0x614 JUMPI PUSH3 0x613 PUSH3 0x1D7 JUMP JUMPDEST JUMPDEST PUSH3 0x620 DUP3 SLOAD PUSH3 0x3ED JUMP JUMPDEST PUSH3 0x62D DUP3 DUP3 DUP6 PUSH3 0x556 JUMP JUMPDEST PUSH0 PUSH1 0x20 SWAP1 POP PUSH1 0x1F DUP4 GT PUSH1 0x1 DUP2 EQ PUSH3 0x663 JUMPI PUSH0 DUP5 ISZERO PUSH3 0x64E JUMPI DUP3 DUP8 ADD MLOAD SWAP1 POP JUMPDEST PUSH3 0x65A DUP6 DUP3 PUSH3 0x5D0 JUMP JUMPDEST DUP7 SSTORE POP PUSH3 0x6C9 JUMP JUMPDEST PUSH1 0x1F NOT DUP5 AND PUSH3 0x673 DUP7 PUSH3 0x421 JUMP JUMPDEST PUSH0 JUMPDEST DUP3 DUP2 LT ISZERO PUSH3 0x69C JUMPI DUP5 DUP10 ADD MLOAD DUP3 SSTORE PUSH1 0x1 DUP3 ADD SWAP2 POP PUSH1 0x20 DUP6 ADD SWAP5 POP PUSH1 0x20 DUP2 ADD SWAP1 POP PUSH3 0x675 JUMP JUMPDEST DUP7 DUP4 LT ISZERO PUSH3 0x6BC JUMPI DUP5 DUP10 ADD MLOAD PUSH3 0x6B8 PUSH1 0x1F DUP10 AND DUP3 PUSH3 0x5B2 JUMP JUMPDEST DUP4 SSTORE POP JUMPDEST PUSH1 0x1 PUSH1 0x2 DUP9 MUL ADD DUP9 SSTORE POP POP POP JUMPDEST POP POP POP POP POP POP JUMP JUMPDEST PUSH0 PUSH20 0xFFFFFFFFFFFFFFFFFFFFFFFFFFFFFFFFFFFFFFFF DUP3 AND SWAP1 POP SWAP2 SWAP1 POP JUMP JUMPDEST PUSH0 PUSH3 0x6FC DUP3 PUSH3 0x6D1 JUMP JUMPDEST SWAP1 POP SWAP2 SWAP1 POP JUMP JUMPDEST PUSH3 0x70E DUP2 PUSH3 0x6F0 JUMP JUMPDEST DUP3 MSTORE POP POP JUMP JUMPDEST PUSH0 PUSH1 0x20 DUP3 ADD SWAP1 POP PUSH3 0x729 PUSH0 DUP4 ADD DUP5 PUSH3 0x703 JUMP JUMPDEST SWAP3 SWAP2 POP POP JUMP JUMPDEST PUSH2 0x34E9 DUP1 PUSH3 0x73D PUSH0 CODECOPY PUSH0 RETURN INVALID PUSH1 0x80 PUSH1 0x40 MSTORE CALLVALUE DUP1 ISZERO PUSH2 0xF JUMPI PUSH0 DUP1 REVERT JUMPDEST POP PUSH1 0x4 CALLDATASIZE LT PUSH2 0x12A JUMPI PUSH0 CALLDATALOAD PUSH1 0xE0 SHR DUP1 PUSH4 0x70D597EC GT PUSH2 0xAB JUMPI DUP1 PUSH4 0xB88D4FDE GT PUSH2 0x6F JUMPI DUP1 PUSH4 0xB88D4FDE EQ PUSH2 0x32A JUMPI DUP1 PUSH4 0xC87B56DD EQ PUSH2 0x346 JUMPI DUP1 PUSH4 0xE985E9C5 EQ PUSH2 0x376 JUMPI DUP1 PUSH4 0xEACABE14 EQ PUSH2 0x3A6 JUMPI DUP1 PUSH4 0xF2FDE38B EQ PUSH2 0x3D6 JUMPI PUSH2 0x12A JUMP JUMPDEST DUP1 PUSH4 0x70D597EC EQ PUSH2 0x2AC JUMPI DUP1 PUSH4 0x715018A6 EQ PUSH2 0x2C8 JUMPI DUP1 PUSH4 0x8DA5CB5B EQ PUSH2 0x2D2 JUMPI DUP1 PUSH4 0x95D89B41 EQ PUSH2 0x2F0 JUMPI DUP1 PUSH4 0xA22CB465 EQ PUSH2 0x30E JUMPI PUSH2 0x12A JUMP JUMPDEST DUP1 PUSH4 0x24A675BB GT PUSH2 0xF2 JUMPI DUP1 PUSH4 0x24A675BB EQ PUSH2 0x1E4 JUMPI DUP1 PUSH4 0x42842E0E EQ PUSH2 0x214 JUMPI DUP1 PUSH4 0x53C8388E EQ PUSH2 0x230 JUMPI DUP1 PUSH4 0x6352211E EQ PUSH2 0x24C JUMPI DUP1 PUSH4 0x70A08231 EQ PUSH2 0x27C JUMPI PUSH2 0x12A JUMP JUMPDEST DUP1 PUSH4 0x1FFC9A7 EQ PUSH2 0x12E JUMPI DUP1 PUSH4 0x6FDDE03 EQ PUSH2 0x15E JUMPI DUP1 PUSH4 0x81812FC EQ PUSH2 0x17C JUMPI DUP1 PUSH4 0x95EA7B3 EQ PUSH2 0x1AC JUMPI DUP1 PUSH4 0x23B872DD EQ PUSH2 0x1C8 JUMPI JUMPDEST PUSH0 DUP1 REVERT JUMPDEST PUSH2 0x148 PUSH1 0x4 DUP1 CALLDATASIZE SUB DUP2 ADD SWAP1 PUSH2 0x143 SWAP2 SWAP1 PUSH2 0x2380 JUMP JUMPDEST PUSH2 0x3F2 JUMP JUMPDEST PUSH1 0x40 MLOAD PUSH2 0x155 SWAP2 SWAP1 PUSH2 0x23C5 JUMP JUMPDEST PUSH1 0x40 MLOAD DUP1 SWAP2 SUB SWAP1 RETURN JUMPDEST PUSH2 0x166 PUSH2 0x452 JUMP JUMPDEST PUSH1 0x40 MLOAD PUSH2 0x173 SWAP2 SWAP1 PUSH2 0x2468 JUMP JUMPDEST PUSH1 0x40 MLOAD DUP1 SWAP2 SUB SWAP1 RETURN JUMPDEST PUSH2 0x196 PUSH1 0x4 DUP1 CALLDATASIZE SUB DUP2 ADD SWAP1 PUSH2 0x191 SWAP2 SWAP1 PUSH2 0x24BB JUMP JUMPDEST PUSH2 0x4E1 JUMP JUMPDEST PUSH1 0x40 MLOAD PUSH2 0x1A3 SWAP2 SWAP1 PUSH2 0x2525 JUMP JUMPDEST PUSH1 0x40 MLOAD DUP1 SWAP2 SUB SWAP1 RETURN JUMPDEST PUSH2 0x1C6 PUSH1 0x4 DUP1 CALLDATASIZE SUB DUP2 ADD SWAP1 PUSH2 0x1C1 SWAP2 SWAP1 PUSH2 0x2568 JUMP JUMPDEST PUSH2 0x4FC JUMP JUMPDEST STOP JUMPDEST PUSH2 0x1E2 PUSH1 0x4 DUP1 CALLDATASIZE SUB DUP2 ADD SWAP1 PUSH2 0x1DD SWAP2 SWAP1 PUSH2 0x25A6 JUMP JUMPDEST PUSH2 0x512 JUMP JUMPDEST STOP JUMPDEST PUSH2 0x1FE PUSH1 0x4 DUP1 CALLDATASIZE SUB DUP2 ADD SWAP1 PUSH2 0x1F9 SWAP2 SWAP1 PUSH2 0x24BB JUMP JUMPDEST PUSH2 0x611 JUMP JUMPDEST PUSH1 0x40 MLOAD PUSH2 0x20B SWAP2 SWAP1 PUSH2 0x26F9 JUMP JUMPDEST PUSH1 0x40 MLOAD DUP1 SWAP2 SUB SWAP1 RETURN JUMPDEST PUSH2 0x22E PUSH1 0x4 DUP1 CALLDATASIZE SUB DUP2 ADD SWAP1 PUSH2 0x229 SWAP2 SWAP1 PUSH2 0x25A6 JUMP JUMPDEST PUSH2 0x6F6 JUMP JUMPDEST STOP JUMPDEST PUSH2 0x24A PUSH1 0x4 DUP1 CALLDATASIZE SUB DUP2 ADD SWAP1 PUSH2 0x245 SWAP2 SWAP1 PUSH2 0x2845 JUMP JUMPDEST PUSH2 0x715 JUMP JUMPDEST STOP JUMPDEST PUSH2 0x266 PUSH1 0x4 DUP1 CALLDATASIZE SUB DUP2 ADD SWAP1 PUSH2 0x261 SWAP2 SWAP1 PUSH2 0x24BB JUMP JUMPDEST PUSH2 0x7F5 JUMP JUMPDEST PUSH1 0x40 MLOAD PUSH2 0x273 SWAP2 SWAP1 PUSH2 0x2525 JUMP JUMPDEST PUSH1 0x40 MLOAD DUP1 SWAP2 SUB SWAP1 RETURN JUMPDEST PUSH2 0x296 PUSH1 0x4 DUP1 CALLDATASIZE SUB DUP2 ADD SWAP1 PUSH2 0x291 SWAP2 SWAP1 PUSH2 0x289F JUMP JUMPDEST PUSH2 0x806 JUMP JUMPDEST PUSH1 0x40 MLOAD PUSH2 0x2A3 SWAP2 SWAP1 PUSH2 0x28D9 JUMP JUMPDEST PUSH1 0x40 MLOAD DUP1 SWAP2 SUB SWAP1 RETURN JUMPDEST PUSH2 0x2C6 PUSH1 0x4 DUP1 CALLDATASIZE SUB DUP2 ADD SWAP1 PUSH2 0x2C1 SWAP2 SWAP1 PUSH2 0x28F2 JUMP JUMPDEST PUSH2 0x8BC JUMP JUMPDEST STOP JUMPDEST PUSH2 0x2D0 PUSH2 0xAB4 JUMP JUMPDEST STOP JUMPDEST PUSH2 0x2DA PUSH2 0xAC7 JUMP JUMPDEST PUSH1 0x40 MLOAD PUSH2 0x2E7 SWAP2 SWAP1 PUSH2 0x2525 JUMP JUMPDEST PUSH1 0x40 MLOAD DUP1 SWAP2 SUB SWAP1 RETURN JUMPDEST PUSH2 0x2F8 PUSH2 0xAEF JUMP JUMPDEST PUSH1 0x40 MLOAD PUSH2 0x305 SWAP2 SWAP1 PUSH2 0x2468 JUMP JUMPDEST PUSH1 0x40 MLOAD DUP1 SWAP2 SUB SWAP1 RETURN JUMPDEST PUSH2 0x328 PUSH1 0x4 DUP1 CALLDATASIZE SUB DUP2 ADD SWAP1 PUSH2 0x323 SWAP2 SWAP1 PUSH2 0x2988 JUMP JUMPDEST PUSH2 0xB7F JUMP JUMPDEST STOP JUMPDEST PUSH2 0x344 PUSH1 0x4 DUP1 CALLDATASIZE SUB DUP2 ADD SWAP1 PUSH2 0x33F SWAP2 SWAP1 PUSH2 0x2A64 JUMP JUMPDEST PUSH2 0xB95 JUMP JUMPDEST STOP JUMPDEST PUSH2 0x360 PUSH1 0x4 DUP1 CALLDATASIZE SUB DUP2 ADD SWAP1 PUSH2 0x35B SWAP2 SWAP1 PUSH2 0x24BB JUMP JUMPDEST PUSH2 0xBBA JUMP JUMPDEST PUSH1 0x40 MLOAD PUSH2 0x36D SWAP2 SWAP1 PUSH2 0x2468 JUMP JUMPDEST PUSH1 0x40 MLOAD DUP1 SWAP2 SUB SWAP1 RETURN JUMPDEST PUSH2 0x390 PUSH1 0x4 DUP1 CALLDATASIZE SUB DUP2 ADD SWAP1 PUSH2 0x38B SWAP2 SWAP1 PUSH2 0x2AE4 JUMP JUMPDEST PUSH2 0xCC5 JUMP JUMPDEST PUSH1 0x40 MLOAD PUSH2 0x39D SWAP2 SWAP1 PUSH2 0x23C5 JUMP JUMPDEST PUSH1 0x40 MLOAD DUP1 SWAP2 SUB SWAP1 RETURN JUMPDEST PUSH2 0x3C0 PUSH1 0x4 DUP1 CALLDATASIZE SUB DUP2 ADD SWAP1 PUSH2 0x3BB SWAP2 SWAP1 PUSH2 0x2B22 JUMP JUMPDEST PUSH2 0xD53 JUMP JUMPDEST PUSH1 0x40 MLOAD PUSH2 0x3CD SWAP2 SWAP1 PUSH2 0x28D9 JUMP JUMPDEST PUSH1 0x40 MLOAD DUP1 SWAP2 SUB SWAP1 RETURN JUMPDEST PUSH2 0x3F0 PUSH1 0x4 DUP1 CALLDATASIZE SUB DUP2 ADD SWAP1 PUSH2 0x3EB SWAP2 SWAP1 PUSH2 0x289F JUMP JUMPDEST PUSH2 0xDF7 JUMP JUMPDEST STOP JUMPDEST PUSH0 PUSH4 0x49064906 PUSH1 0xE0 SHL PUSH28 0xFFFFFFFFFFFFFFFFFFFFFFFFFFFFFFFFFFFFFFFFFFFFFFFFFFFFFFFF NOT AND DUP3 PUSH28 0xFFFFFFFFFFFFFFFFFFFFFFFFFFFFFFFFFFFFFFFFFFFFFFFFFFFFFFFF NOT AND EQ DUP1 PUSH2 0x44B JUMPI POP PUSH2 0x44A DUP3 PUSH2 0xE7B JUMP JUMPDEST JUMPDEST SWAP1 POP SWAP2 SWAP1 POP JUMP JUMPDEST PUSH1 0x60 PUSH0 DUP1 SLOAD PUSH2 0x460 SWAP1 PUSH2 0x2BA9 JUMP JUMPDEST DUP1 PUSH1 0x1F ADD PUSH1 0x20 DUP1 SWAP2 DIV MUL PUSH1 0x20 ADD PUSH1 0x40 MLOAD SWAP1 DUP2 ADD PUSH1 0x40 MSTORE DUP1 SWAP3 SWAP2 SWAP1 DUP2 DUP2 MSTORE PUSH1 0x20 ADD DUP3 DUP1 SLOAD PUSH2 0x48C SWAP1 PUSH2 0x2BA9 JUMP JUMPDEST DUP1 ISZERO PUSH2 0x4D7 JUMPI DUP1 PUSH1 0x1F LT PUSH2 0x4AE JUMPI PUSH2 0x100 DUP1 DUP4 SLOAD DIV MUL DUP4 MSTORE SWAP2 PUSH1 0x20 ADD SWAP2 PUSH2 0x4D7 JUMP JUMPDEST DUP3 ADD SWAP2 SWAP1 PUSH0 MSTORE PUSH1 0x20 PUSH0 KECCAK256 SWAP1 JUMPDEST DUP2 SLOAD DUP2 MSTORE SWAP1 PUSH1 0x1 ADD SWAP1 PUSH1 0x20 ADD DUP1 DUP4 GT PUSH2 0x4BA JUMPI DUP3 SWAP1 SUB PUSH1 0x1F AND DUP3 ADD SWAP2 JUMPDEST POP POP POP POP POP SWAP1 POP SWAP1 JUMP JUMPDEST PUSH0 PUSH2 0x4EB DUP3 PUSH2 0xF5C JUMP JUMPDEST POP PUSH2 0x4F5 DUP3 PUSH2 0xFE2 JUMP JUMPDEST SWAP1 POP SWAP2 SWAP1 POP JUMP JUMPDEST PUSH2 0x50E DUP3 DUP3 PUSH2 0x509 PUSH2 0x101B JUMP JUMPDEST PUSH2 0x1022 JUMP JUMPDEST POP POP JUMP JUMPDEST PUSH0 PUSH20 0xFFFFFFFFFFFFFFFFFFFFFFFFFFFFFFFFFFFFFFFF AND DUP3 PUSH20 0xFFFFFFFFFFFFFFFFFFFFFFFFFFFFFFFFFFFFFFFF AND SUB PUSH2 0x582 JUMPI PUSH0 PUSH1 0x40 MLOAD PUSH32 0x64A0AE9200000000000000000000000000000000000000000000000000000000 DUP2 MSTORE PUSH1 0x4 ADD PUSH2 0x579 SWAP2 SWAP1 PUSH2 0x2525 JUMP JUMPDEST PUSH1 0x40 MLOAD DUP1 SWAP2 SUB SWAP1 REVERT JUMPDEST PUSH0 PUSH2 0x595 DUP4 DUP4 PUSH2 0x590 PUSH2 0x101B JUMP JUMPDEST PUSH2 0x1034 JUMP JUMPDEST SWAP1 POP DUP4 PUSH20 0xFFFFFFFFFFFFFFFFFFFFFFFFFFFFFFFFFFFFFFFF AND DUP2 PUSH20 0xFFFFFFFFFFFFFFFFFFFFFFFFFFFFFFFFFFFFFFFF AND EQ PUSH2 0x60B JUMPI DUP4 DUP3 DUP3 PUSH1 0x40 MLOAD PUSH32 0x64283D7B00000000000000000000000000000000000000000000000000000000 DUP2 MSTORE PUSH1 0x4 ADD PUSH2 0x602 SWAP4 SWAP3 SWAP2 SWAP1 PUSH2 0x2BD9 JUMP JUMPDEST PUSH1 0x40 MLOAD DUP1 SWAP2 SUB SWAP1 REVERT JUMPDEST POP POP POP POP JUMP JUMPDEST PUSH1 0x60 PUSH1 0x9 PUSH0 DUP4 DUP2 MSTORE PUSH1 0x20 ADD SWAP1 DUP2 MSTORE PUSH1 0x20 ADD PUSH0 KECCAK256 DUP1 SLOAD DUP1 PUSH1 0x20 MUL PUSH1 0x20 ADD PUSH1 0x40 MLOAD SWAP1 DUP2 ADD PUSH1 0x40 MSTORE DUP1 SWAP3 SWAP2 SWAP1 DUP2 DUP2 MSTORE PUSH1 0x20 ADD PUSH0 SWAP1 JUMPDEST DUP3 DUP3 LT ISZERO PUSH2 0x6EB JUMPI DUP4 DUP3 SWAP1 PUSH0 MSTORE PUSH1 0x20 PUSH0 KECCAK256 ADD DUP1 SLOAD PUSH2 0x660 SWAP1 PUSH2 0x2BA9 JUMP JUMPDEST DUP1 PUSH1 0x1F ADD PUSH1 0x20 DUP1 SWAP2 DIV MUL PUSH1 0x20 ADD PUSH1 0x40 MLOAD SWAP1 DUP2 ADD PUSH1 0x40 MSTORE DUP1 SWAP3 SWAP2 SWAP1 DUP2 DUP2 MSTORE PUSH1 0x20 ADD DUP3 DUP1 SLOAD PUSH2 0x68C SWAP1 PUSH2 0x2BA9 JUMP JUMPDEST DUP1 ISZERO PUSH2 0x6D7 JUMPI DUP1 PUSH1 0x1F LT PUSH2 0x6AE JUMPI PUSH2 0x100 DUP1 DUP4 SLOAD DIV MUL DUP4 MSTORE SWAP2 PUSH1 0x20 ADD SWAP2 PUSH2 0x6D7 JUMP JUMPDEST DUP3 ADD SWAP2 SWAP1 PUSH0 MSTORE PUSH1 0x20 PUSH0 KECCAK256 SWAP1 JUMPDEST DUP2 SLOAD DUP2 MSTORE SWAP1 PUSH1 0x1 ADD SWAP1 PUSH1 0x20 ADD DUP1 DUP4 GT PUSH2 0x6BA JUMPI DUP3 SWAP1 SUB PUSH1 0x1F AND DUP3 ADD SWAP2 JUMPDEST POP POP POP POP POP DUP2 MSTORE PUSH1 0x20 ADD SWAP1 PUSH1 0x1 ADD SWAP1 PUSH2 0x643 JUMP JUMPDEST POP POP POP POP SWAP1 POP SWAP2 SWAP1 POP JUMP JUMPDEST PUSH2 0x710 DUP4 DUP4 DUP4 PUSH1 0x40 MLOAD DUP1 PUSH1 0x20 ADD PUSH1 0x40 MSTORE DUP1 PUSH0 DUP2 MSTORE POP PUSH2 0xB95 JUMP JUMPDEST POP POP POP JUMP JUMPDEST PUSH0 PUSH2 0x71F DUP4 PUSH2 0x7F5 JUMP JUMPDEST SWAP1 POP PUSH2 0x729 PUSH2 0x101B JUMP JUMPDEST PUSH20 0xFFFFFFFFFFFFFFFFFFFFFFFFFFFFFFFFFFFFFFFF AND DUP2 PUSH20 0xFFFFFFFFFFFFFFFFFFFFFFFFFFFFFFFFFFFFFFFF AND EQ DUP1 PUSH2 0x76F JUMPI POP PUSH2 0x76E DUP2 PUSH2 0x769 PUSH2 0x101B JUMP JUMPDEST PUSH2 0xCC5 JUMP JUMPDEST JUMPDEST PUSH2 0x7AE JUMPI PUSH1 0x40 MLOAD PUSH32 0x8C379A000000000000000000000000000000000000000000000000000000000 DUP2 MSTORE PUSH1 0x4 ADD PUSH2 0x7A5 SWAP1 PUSH2 0x2C58 JUMP JUMPDEST PUSH1 0x40 MLOAD DUP1 SWAP2 SUB SWAP1 REVERT JUMPDEST PUSH2 0x7B8 DUP4 DUP4 PUSH2 0x123F JUMP JUMPDEST DUP3 PUSH32 0x459157BA24C7AB9878B165EF465FA6AE2AB42BCD8445F576BE378768B0C47309 DUP4 PUSH1 0x40 MLOAD PUSH2 0x7E8 SWAP2 SWAP1 PUSH2 0x2468 JUMP JUMPDEST PUSH1 0x40 MLOAD DUP1 SWAP2 SUB SWAP1 LOG2 POP POP POP JUMP JUMPDEST PUSH0 PUSH2 0x7FF DUP3 PUSH2 0xF5C JUMP JUMPDEST SWAP1 POP SWAP2 SWAP1 POP JUMP JUMPDEST PUSH0 DUP1 PUSH20 0xFFFFFFFFFFFFFFFFFFFFFFFFFFFFFFFFFFFFFFFF AND DUP3 PUSH20 0xFFFFFFFFFFFFFFFFFFFFFFFFFFFFFFFFFFFFFFFF AND SUB PUSH2 0x877 JUMPI PUSH0 PUSH1 0x40 MLOAD PUSH32 0x89C62B6400000000000000000000000000000000000000000000000000000000 DUP2 MSTORE PUSH1 0x4 ADD PUSH2 0x86E SWAP2 SWAP1 PUSH2 0x2525 JUMP JUMPDEST PUSH1 0x40 MLOAD DUP1 SWAP2 SUB SWAP1 REVERT JUMPDEST PUSH1 0x3 PUSH0 DUP4 PUSH20 0xFFFFFFFFFFFFFFFFFFFFFFFFFFFFFFFFFFFFFFFF AND PUSH20 0xFFFFFFFFFFFFFFFFFFFFFFFFFFFFFFFFFFFFFFFF AND DUP2 MSTORE PUSH1 0x20 ADD SWAP1 DUP2 MSTORE PUSH1 0x20 ADD PUSH0 KECCAK256 SLOAD SWAP1 POP SWAP2 SWAP1 POP JUMP JUMPDEST PUSH0 PUSH2 0x8C6 DUP5 PUSH2 0x7F5 JUMP JUMPDEST SWAP1 POP PUSH2 0x8D0 PUSH2 0x101B JUMP JUMPDEST PUSH20 0xFFFFFFFFFFFFFFFFFFFFFFFFFFFFFFFFFFFFFFFF AND DUP2 PUSH20 0xFFFFFFFFFFFFFFFFFFFFFFFFFFFFFFFFFFFFFFFF AND EQ DUP1 PUSH2 0x916 JUMPI POP PUSH2 0x915 DUP2 PUSH2 0x910 PUSH2 0x101B JUMP JUMPDEST PUSH2 0xCC5 JUMP JUMPDEST JUMPDEST PUSH2 0x955 JUMPI PUSH1 0x40 MLOAD PUSH32 0x8C379A000000000000000000000000000000000000000000000000000000000 DUP2 MSTORE PUSH1 0x4 ADD PUSH2 0x94C SWAP1 PUSH2 0x2C58 JUMP JUMPDEST PUSH1 0x40 MLOAD DUP1 SWAP2 SUB SWAP1 REVERT JUMPDEST PUSH0 PUSH20 0xFFFFFFFFFFFFFFFFFFFFFFFFFFFFFFFFFFFFFFFF AND DUP4 PUSH20 0xFFFFFFFFFFFFFFFFFFFFFFFFFFFFFFFFFFFFFFFF AND SUB PUSH2 0x9C3 JUMPI PUSH1 0x40 MLOAD PUSH32 0x8C379A000000000000000000000000000000000000000000000000000000000 DUP2 MSTORE PUSH1 0x4 ADD PUSH2 0x9BA SWAP1 PUSH2 0x2CC0 JUMP JUMPDEST PUSH1 0x40 MLOAD DUP1 SWAP2 SUB SWAP1 REVERT JUMPDEST PUSH0 PUSH2 0x9CD DUP3 PUSH2 0x1299 JUMP JUMPDEST PUSH2 0x9D6 DUP6 PUSH2 0x1299 JUMP JUMPDEST DUP5 PUSH2 0x9E0 TIMESTAMP PUSH2 0x1594 JUMP JUMPDEST PUSH1 0x40 MLOAD PUSH1 0x20 ADD PUSH2 0x9F3 SWAP5 SWAP4 SWAP3 SWAP2 SWAP1 PUSH2 0x2E40 JUMP JUMPDEST PUSH1 0x40 MLOAD PUSH1 0x20 DUP2 DUP4 SUB SUB DUP2 MSTORE SWAP1 PUSH1 0x40 MSTORE SWAP1 POP PUSH1 0x9 PUSH0 DUP7 DUP2 MSTORE PUSH1 0x20 ADD SWAP1 DUP2 MSTORE PUSH1 0x20 ADD PUSH0 KECCAK256 DUP2 SWAP1 DUP1 PUSH1 0x1 DUP2 SLOAD ADD DUP1 DUP3 SSTORE DUP1 SWAP2 POP POP PUSH1 0x1 SWAP1 SUB SWAP1 PUSH0 MSTORE PUSH1 0x20 PUSH0 KECCAK256 ADD PUSH0 SWAP1 SWAP2 SWAP1 SWAP2 SWAP1 SWAP2 POP SWAP1 DUP2 PUSH2 0xA44 SWAP2 SWAP1 PUSH2 0x3046 JUMP JUMPDEST POP DUP4 PUSH20 0xFFFFFFFFFFFFFFFFFFFFFFFFFFFFFFFFFFFFFFFF AND DUP3 PUSH20 0xFFFFFFFFFFFFFFFFFFFFFFFFFFFFFFFFFFFFFFFF AND DUP7 PUSH32 0x9DFAE3130BFD7663D030B65D825FCF210471515D4271713D1EC60A2327DDC76D DUP7 TIMESTAMP PUSH1 0x40 MLOAD PUSH2 0xAA5 SWAP3 SWAP2 SWAP1 PUSH2 0x3115 JUMP JUMPDEST PUSH1 0x40 MLOAD DUP1 SWAP2 SUB SWAP1 LOG4 POP POP POP POP POP JUMP JUMPDEST PUSH2 0xABC PUSH2 0x16ED JUMP JUMPDEST PUSH2 0xAC5 PUSH0 PUSH2 0x1774 JUMP JUMPDEST JUMP JUMPDEST PUSH0 PUSH1 0x7 PUSH0 SWAP1 SLOAD SWAP1 PUSH2 0x100 EXP SWAP1 DIV PUSH20 0xFFFFFFFFFFFFFFFFFFFFFFFFFFFFFFFFFFFFFFFF AND SWAP1 POP SWAP1 JUMP JUMPDEST PUSH1 0x60 PUSH1 0x1 DUP1 SLOAD PUSH2 0xAFE SWAP1 PUSH2 0x2BA9 JUMP JUMPDEST DUP1 PUSH1 0x1F ADD PUSH1 0x20 DUP1 SWAP2 DIV MUL PUSH1 0x20 ADD PUSH1 0x40 MLOAD SWAP1 DUP2 ADD PUSH1 0x40 MSTORE DUP1 SWAP3 SWAP2 SWAP1 DUP2 DUP2 MSTORE PUSH1 0x20 ADD DUP3 DUP1 SLOAD PUSH2 0xB2A SWAP1 PUSH2 0x2BA9 JUMP JUMPDEST DUP1 ISZERO PUSH2 0xB75 JUMPI DUP1 PUSH1 0x1F LT PUSH2 0xB4C JUMPI PUSH2 0x100 DUP1 DUP4 SLOAD DIV MUL DUP4 MSTORE SWAP2 PUSH1 0x20 ADD SWAP2 PUSH2 0xB75 JUMP JUMPDEST DUP3 ADD SWAP2 SWAP1 PUSH0 MSTORE PUSH1 0x20 PUSH0 KECCAK256 SWAP1 JUMPDEST DUP2 SLOAD DUP2 MSTORE SWAP1 PUSH1 0x1 ADD SWAP1 PUSH1 0x20 ADD DUP1 DUP4 GT PUSH2 0xB58 JUMPI DUP3 SWAP1 SUB PUSH1 0x1F AND DUP3 ADD SWAP2 JUMPDEST POP POP POP POP POP SWAP1 POP SWAP1 JUMP JUMPDEST PUSH2 0xB91 PUSH2 0xB8A PUSH2 0x101B JUMP JUMPDEST DUP4 DUP4 PUSH2 0x1837 JUMP JUMPDEST POP POP JUMP JUMPDEST PUSH2 0xBA0 DUP5 DUP5 DUP5 PUSH2 0x512 JUMP JUMPDEST PUSH2 0xBB4 PUSH2 0xBAB PUSH2 0x101B JUMP JUMPDEST DUP6 DUP6 DUP6 DUP6 PUSH2 0x19A0 JUMP JUMPDEST POP POP POP POP JUMP JUMPDEST PUSH1 0x60 PUSH2 0xBC5 DUP3 PUSH2 0xF5C JUMP JUMPDEST POP PUSH0 PUSH1 0x6 PUSH0 DUP5 DUP2 MSTORE PUSH1 0x20 ADD SWAP1 DUP2 MSTORE PUSH1 0x20 ADD PUSH0 KECCAK256 DUP1 SLOAD PUSH2 0xBE3 SWAP1 PUSH2 0x2BA9 JUMP JUMPDEST DUP1 PUSH1 0x1F ADD PUSH1 0x20 DUP1 SWAP2 DIV MUL PUSH1 0x20 ADD PUSH1 0x40 MLOAD SWAP1 DUP2 ADD PUSH1 0x40 MSTORE DUP1 SWAP3 SWAP2 SWAP1 DUP2 DUP2 MSTORE PUSH1 0x20 ADD DUP3 DUP1 SLOAD PUSH2 0xC0F SWAP1 PUSH2 0x2BA9 JUMP JUMPDEST DUP1 ISZERO PUSH2 0xC5A JUMPI DUP1 PUSH1 0x1F LT PUSH2 0xC31 JUMPI PUSH2 0x100 DUP1 DUP4 SLOAD DIV MUL DUP4 MSTORE SWAP2 PUSH1 0x20 ADD SWAP2 PUSH2 0xC5A JUMP JUMPDEST DUP3 ADD SWAP2 SWAP1 PUSH0 MSTORE PUSH1 0x20 PUSH0 KECCAK256 SWAP1 JUMPDEST DUP2 SLOAD DUP2 MSTORE SWAP1 PUSH1 0x1 ADD SWAP1 PUSH1 0x20 ADD DUP1 DUP4 GT PUSH2 0xC3D JUMPI DUP3 SWAP1 SUB PUSH1 0x1F AND DUP3 ADD SWAP2 JUMPDEST POP POP POP POP POP SWAP1 POP PUSH0 PUSH2 0xC6A PUSH2 0x1B4C JUMP JUMPDEST SWAP1 POP PUSH0 DUP2 MLOAD SUB PUSH2 0xC7E JUMPI DUP2 SWAP3 POP POP POP PUSH2 0xCC0 JUMP JUMPDEST PUSH0 DUP3 MLOAD GT ISZERO PUSH2 0xCB2 JUMPI DUP1 DUP3 PUSH1 0x40 MLOAD PUSH1 0x20 ADD PUSH2 0xC9A SWAP3 SWAP2 SWAP1 PUSH2 0x3143 JUMP JUMPDEST PUSH1 0x40 MLOAD PUSH1 0x20 DUP2 DUP4 SUB SUB DUP2 MSTORE SWAP1 PUSH1 0x40 MSTORE SWAP3 POP POP POP PUSH2 0xCC0 JUMP JUMPDEST PUSH2 0xCBB DUP5 PUSH2 0x1B62 JUMP JUMPDEST SWAP3 POP POP POP JUMPDEST SWAP2 SWAP1 POP JUMP JUMPDEST PUSH0 PUSH1 0x5 PUSH0 DUP5 PUSH20 0xFFFFFFFFFFFFFFFFFFFFFFFFFFFFFFFFFFFFFFFF AND PUSH20 0xFFFFFFFFFFFFFFFFFFFFFFFFFFFFFFFFFFFFFFFF AND DUP2 MSTORE PUSH1 0x20 ADD SWAP1 DUP2 MSTORE PUSH1 0x20 ADD PUSH0 KECCAK256 PUSH0 DUP4 PUSH20 0xFFFFFFFFFFFFFFFFFFFFFFFFFFFFFFFFFFFFFFFF AND PUSH20 0xFFFFFFFFFFFFFFFFFFFFFFFFFFFFFFFFFFFFFFFF AND DUP2 MSTORE PUSH1 0x20 ADD SWAP1 DUP2 MSTORE PUSH1 0x20 ADD PUSH0 KECCAK256 PUSH0 SWAP1 SLOAD SWAP1 PUSH2 0x100 EXP SWAP1 DIV PUSH1 0xFF AND SWAP1 POP SWAP3 SWAP2 POP POP JUMP JUMPDEST PUSH0 PUSH2 0xD5C PUSH2 0x16ED JUMP JUMPDEST PUSH2 0xD66 PUSH1 0x8 PUSH2 0x1BC8 JUMP JUMPDEST PUSH0 PUSH2 0xD71 PUSH1 0x8 PUSH2 0x1BDC JUMP JUMPDEST SWAP1 POP PUSH2 0xD7D DUP5 DUP3 PUSH2 0x1BE8 JUMP JUMPDEST PUSH2 0xD87 DUP2 DUP5 PUSH2 0x123F JUMP JUMPDEST DUP4 PUSH20 0xFFFFFFFFFFFFFFFFFFFFFFFFFFFFFFFFFFFFFFFF AND PUSH0 PUSH20 0xFFFFFFFFFFFFFFFFFFFFFFFFFFFFFFFFFFFFFFFF AND DUP3 PUSH32 0x9DFAE3130BFD7663D030B65D825FCF210471515D4271713D1EC60A2327DDC76D TIMESTAMP PUSH1 0x40 MLOAD PUSH2 0xDE5 SWAP2 SWAP1 PUSH2 0x31B0 JUMP JUMPDEST PUSH1 0x40 MLOAD DUP1 SWAP2 SUB SWAP1 LOG4 DUP1 SWAP2 POP POP SWAP3 SWAP2 POP POP JUMP JUMPDEST PUSH2 0xDFF PUSH2 0x16ED JUMP JUMPDEST PUSH0 PUSH20 0xFFFFFFFFFFFFFFFFFFFFFFFFFFFFFFFFFFFFFFFF AND DUP2 PUSH20 0xFFFFFFFFFFFFFFFFFFFFFFFFFFFFFFFFFFFFFFFF AND SUB PUSH2 0xE6F JUMPI PUSH0 PUSH1 0x40 MLOAD PUSH32 0x1E4FBDF700000000000000000000000000000000000000000000000000000000 DUP2 MSTORE PUSH1 0x4 ADD PUSH2 0xE66 SWAP2 SWAP1 PUSH2 0x2525 JUMP JUMPDEST PUSH1 0x40 MLOAD DUP1 SWAP2 SUB SWAP1 REVERT JUMPDEST PUSH2 0xE78 DUP2 PUSH2 0x1774 JUMP JUMPDEST POP JUMP JUMPDEST PUSH0 PUSH32 0x80AC58CD00000000000000000000000000000000000000000000000000000000 PUSH28 0xFFFFFFFFFFFFFFFFFFFFFFFFFFFFFFFFFFFFFFFFFFFFFFFFFFFFFFFF NOT AND DUP3 PUSH28 0xFFFFFFFFFFFFFFFFFFFFFFFFFFFFFFFFFFFFFFFFFFFFFFFFFFFFFFFF NOT AND EQ DUP1 PUSH2 0xF45 JUMPI POP PUSH32 0x5B5E139F00000000000000000000000000000000000000000000000000000000 PUSH28 0xFFFFFFFFFFFFFFFFFFFFFFFFFFFFFFFFFFFFFFFFFFFFFFFFFFFFFFFF NOT AND DUP3 PUSH28 0xFFFFFFFFFFFFFFFFFFFFFFFFFFFFFFFFFFFFFFFFFFFFFFFFFFFFFFFF NOT AND EQ JUMPDEST DUP1 PUSH2 0xF55 JUMPI POP PUSH2 0xF54 DUP3 PUSH2 0x1C05 JUMP JUMPDEST JUMPDEST SWAP1 POP SWAP2 SWAP1 POP JUMP JUMPDEST PUSH0 DUP1 PUSH2 0xF67 DUP4 PUSH2 0x1C6E JUMP JUMPDEST SWAP1 POP PUSH0 PUSH20 0xFFFFFFFFFFFFFFFFFFFFFFFFFFFFFFFFFFFFFFFF AND DUP2 PUSH20 0xFFFFFFFFFFFFFFFFFFFFFFFFFFFFFFFFFFFFFFFF AND SUB PUSH2 0xFD9 JUMPI DUP3 PUSH1 0x40 MLOAD PUSH32 0x7E27328900000000000000000000000000000000000000000000000000000000 DUP2 MSTORE PUSH1 0x4 ADD PUSH2 0xFD0 SWAP2 SWAP1 PUSH2 0x28D9 JUMP JUMPDEST PUSH1 0x40 MLOAD DUP1 SWAP2 SUB SWAP1 REVERT JUMPDEST DUP1 SWAP2 POP POP SWAP2 SWAP1 POP JUMP JUMPDEST PUSH0 PUSH1 0x4 PUSH0 DUP4 DUP2 MSTORE PUSH1 0x20 ADD SWAP1 DUP2 MSTORE PUSH1 0x20 ADD PUSH0 KECCAK256 PUSH0 SWAP1 SLOAD SWAP1 PUSH2 0x100 EXP SWAP1 DIV PUSH20 0xFFFFFFFFFFFFFFFFFFFFFFFFFFFFFFFFFFFFFFFF AND SWAP1 POP SWAP2 SWAP1 POP JUMP JUMPDEST PUSH0 CALLER SWAP1 POP SWAP1 JUMP JUMPDEST PUSH2 0x102F DUP4 DUP4 DUP4 PUSH1 0x1 PUSH2 0x1CA7 JUMP JUMPDEST POP POP POP JUMP JUMPDEST PUSH0 DUP1 PUSH2 0x103F DUP5 PUSH2 0x1C6E JUMP JUMPDEST SWAP1 POP PUSH0 PUSH20 0xFFFFFFFFFFFFFFFFFFFFFFFFFFFFFFFFFFFFFFFF AND DUP4 PUSH20 0xFFFFFFFFFFFFFFFFFFFFFFFFFFFFFFFFFFFFFFFF AND EQ PUSH2 0x1080 JUMPI PUSH2 0x107F DUP2 DUP5 DUP7 PUSH2 0x1E66 JUMP JUMPDEST JUMPDEST PUSH0 PUSH20 0xFFFFFFFFFFFFFFFFFFFFFFFFFFFFFFFFFFFFFFFF AND DUP2 PUSH20 0xFFFFFFFFFFFFFFFFFFFFFFFFFFFFFFFFFFFFFFFF AND EQ PUSH2 0x110B JUMPI PUSH2 0x10BF PUSH0 DUP6 PUSH0 DUP1 PUSH2 0x1CA7 JUMP JUMPDEST PUSH1 0x1 PUSH1 0x3 PUSH0 DUP4 PUSH20 0xFFFFFFFFFFFFFFFFFFFFFFFFFFFFFFFFFFFFFFFF AND PUSH20 0xFFFFFFFFFFFFFFFFFFFFFFFFFFFFFFFFFFFFFFFF AND DUP2 MSTORE PUSH1 0x20 ADD SWAP1 DUP2 MSTORE PUSH1 0x20 ADD PUSH0 KECCAK256 PUSH0 DUP3 DUP3 SLOAD SUB SWAP3 POP POP DUP2 SWAP1 SSTORE POP JUMPDEST PUSH0 PUSH20 0xFFFFFFFFFFFFFFFFFFFFFFFFFFFFFFFFFFFFFFFF AND DUP6 PUSH20 0xFFFFFFFFFFFFFFFFFFFFFFFFFFFFFFFFFFFFFFFF AND EQ PUSH2 0x118A JUMPI PUSH1 0x1 PUSH1 0x3 PUSH0 DUP8 PUSH20 0xFFFFFFFFFFFFFFFFFFFFFFFFFFFFFFFFFFFFFFFF AND PUSH20 0xFFFFFFFFFFFFFFFFFFFFFFFFFFFFFFFFFFFFFFFF AND DUP2 MSTORE PUSH1 0x20 ADD SWAP1 DUP2 MSTORE PUSH1 0x20 ADD PUSH0 KECCAK256 PUSH0 DUP3 DUP3 SLOAD ADD SWAP3 POP POP DUP2 SWAP1 SSTORE POP JUMPDEST DUP5 PUSH1 0x2 PUSH0 DUP7 DUP2 MSTORE PUSH1 0x20 ADD SWAP1 DUP2 MSTORE PUSH1 0x20 ADD PUSH0 KECCAK256 PUSH0 PUSH2 0x100 EXP DUP2 SLOAD DUP2 PUSH20 0xFFFFFFFFFFFFFFFFFFFFFFFFFFFFFFFFFFFFFFFF MUL NOT AND SWAP1 DUP4 PUSH20 0xFFFFFFFFFFFFFFFFFFFFFFFFFFFFFFFFFFFFFFFF AND MUL OR SWAP1 SSTORE POP DUP4 DUP6 PUSH20 0xFFFFFFFFFFFFFFFFFFFFFFFFFFFFFFFFFFFFFFFF AND DUP3 PUSH20 0xFFFFFFFFFFFFFFFFFFFFFFFFFFFFFFFFFFFFFFFF AND PUSH32 0xDDF252AD1BE2C89B69C2B068FC378DAA952BA7F163C4A11628F55A4DF523B3EF PUSH1 0x40 MLOAD PUSH1 0x40 MLOAD DUP1 SWAP2 SUB SWAP1 LOG4 DUP1 SWAP2 POP POP SWAP4 SWAP3 POP POP POP JUMP JUMPDEST DUP1 PUSH1 0x6 PUSH0 DUP5 DUP2 MSTORE PUSH1 0x20 ADD SWAP1 DUP2 MSTORE PUSH1 0x20 ADD PUSH0 KECCAK256 SWAP1 DUP2 PUSH2 0x125D SWAP2 SWAP1 PUSH2 0x3046 JUMP JUMPDEST POP PUSH32 0xF8E1A15ABA9398E019F0B49DF1A4FDE98EE17AE345CB5F6B5E2C27F5033E8CE7 DUP3 PUSH1 0x40 MLOAD PUSH2 0x128D SWAP2 SWAP1 PUSH2 0x28D9 JUMP JUMPDEST PUSH1 0x40 MLOAD DUP1 SWAP2 SUB SWAP1 LOG1 POP POP JUMP JUMPDEST PUSH1 0x60 PUSH0 DUP3 PUSH20 0xFFFFFFFFFFFFFFFFFFFFFFFFFFFFFFFFFFFFFFFF AND PUSH0 SHL SWAP1 POP PUSH0 PUSH1 0x40 MLOAD DUP1 PUSH1 0x40 ADD PUSH1 0x40 MSTORE DUP1 PUSH1 0x10 DUP2 MSTORE PUSH1 0x20 ADD PUSH32 0x3031323334353637383961626364656600000000000000000000000000000000 DUP2 MSTORE POP SWAP1 POP PUSH0 PUSH1 0x2A PUSH8 0xFFFFFFFFFFFFFFFF DUP2 GT ISZERO PUSH2 0x130C JUMPI PUSH2 0x130B PUSH2 0x2721 JUMP JUMPDEST JUMPDEST PUSH1 0x40 MLOAD SWAP1 DUP1 DUP3 MSTORE DUP1 PUSH1 0x1F ADD PUSH1 0x1F NOT AND PUSH1 0x20 ADD DUP3 ADD PUSH1 0x40 MSTORE DUP1 ISZERO PUSH2 0x133E JUMPI DUP2 PUSH1 0x20 ADD PUSH1 0x1 DUP3 MUL DUP1 CALLDATASIZE DUP4 CALLDATACOPY DUP1 DUP3 ADD SWAP2 POP POP SWAP1 POP JUMPDEST POP SWAP1 POP PUSH32 0x3000000000000000000000000000000000000000000000000000000000000000 DUP2 PUSH0 DUP2 MLOAD DUP2 LT PUSH2 0x1375 JUMPI PUSH2 0x1374 PUSH2 0x31DC JUMP JUMPDEST JUMPDEST PUSH1 0x20 ADD ADD SWAP1 PUSH31 0xFFFFFFFFFFFFFFFFFFFFFFFFFFFFFFFFFFFFFFFFFFFFFFFFFFFFFFFFFFFFFF NOT AND SWAP1 DUP2 PUSH0 BYTE SWAP1 MSTORE8 POP PUSH32 0x7800000000000000000000000000000000000000000000000000000000000000 DUP2 PUSH1 0x1 DUP2 MLOAD DUP2 LT PUSH2 0x13D8 JUMPI PUSH2 0x13D7 PUSH2 0x31DC JUMP JUMPDEST JUMPDEST PUSH1 0x20 ADD ADD SWAP1 PUSH31 0xFFFFFFFFFFFFFFFFFFFFFFFFFFFFFFFFFFFFFFFFFFFFFFFFFFFFFFFFFFFFFF NOT AND SWAP1 DUP2 PUSH0 BYTE SWAP1 MSTORE8 POP PUSH0 JUMPDEST PUSH1 0x14 DUP2 LT ISZERO PUSH2 0x1588 JUMPI DUP3 PUSH1 0x4 DUP6 PUSH1 0xC DUP5 PUSH2 0x1422 SWAP2 SWAP1 PUSH2 0x3236 JUMP JUMPDEST PUSH1 0x20 DUP2 LT PUSH2 0x1433 JUMPI PUSH2 0x1432 PUSH2 0x31DC JUMP JUMPDEST JUMPDEST BYTE PUSH1 0xF8 SHL PUSH31 0xFFFFFFFFFFFFFFFFFFFFFFFFFFFFFFFFFFFFFFFFFFFFFFFFFFFFFFFFFFFFFF NOT AND SWAP1 SHR PUSH1 0xF8 SHR PUSH1 0xFF AND DUP2 MLOAD DUP2 LT PUSH2 0x1472 JUMPI PUSH2 0x1471 PUSH2 0x31DC JUMP JUMPDEST JUMPDEST PUSH1 0x20 ADD ADD MLOAD PUSH1 0xF8 SHR PUSH1 0xF8 SHL DUP3 PUSH1 0x2 DUP4 PUSH2 0x148B SWAP2 SWAP1 PUSH2 0x3269 JUMP JUMPDEST PUSH1 0x2 PUSH2 0x1497 SWAP2 SWAP1 PUSH2 0x3236 JUMP JUMPDEST DUP2 MLOAD DUP2 LT PUSH2 0x14A8 JUMPI PUSH2 0x14A7 PUSH2 0x31DC JUMP JUMPDEST JUMPDEST PUSH1 0x20 ADD ADD SWAP1 PUSH31 0xFFFFFFFFFFFFFFFFFFFFFFFFFFFFFFFFFFFFFFFFFFFFFFFFFFFFFFFFFFFFFF NOT AND SWAP1 DUP2 PUSH0 BYTE SWAP1 MSTORE8 POP DUP3 PUSH1 0xF PUSH1 0xF8 SHL DUP6 PUSH1 0xC DUP5 PUSH2 0x14EA SWAP2 SWAP1 PUSH2 0x3236 JUMP JUMPDEST PUSH1 0x20 DUP2 LT PUSH2 0x14FB JUMPI PUSH2 0x14FA PUSH2 0x31DC JUMP JUMPDEST JUMPDEST BYTE PUSH1 0xF8 SHL AND PUSH1 0xF8 SHR PUSH1 0xFF AND DUP2 MLOAD DUP2 LT PUSH2 0x1517 JUMPI PUSH2 0x1516 PUSH2 0x31DC JUMP JUMPDEST JUMPDEST PUSH1 0x20 ADD ADD MLOAD PUSH1 0xF8 SHR PUSH1 0xF8 SHL DUP3 PUSH1 0x2 DUP4 PUSH2 0x1530 SWAP2 SWAP1 PUSH2 0x3269 JUMP JUMPDEST PUSH1 0x3 PUSH2 0x153C SWAP2 SWAP1 PUSH2 0x3236 JUMP JUMPDEST DUP2 MLOAD DUP2 LT PUSH2 0x154D JUMPI PUSH2 0x154C PUSH2 0x31DC JUMP JUMPDEST JUMPDEST PUSH1 0x20 ADD ADD SWAP1 PUSH31 0xFFFFFFFFFFFFFFFFFFFFFFFFFFFFFFFFFFFFFFFFFFFFFFFFFFFFFFFFFFFFFF NOT AND SWAP1 DUP2 PUSH0 BYTE SWAP1 MSTORE8 POP DUP1 DUP1 PUSH1 0x1 ADD SWAP2 POP POP PUSH2 0x1408 JUMP JUMPDEST POP DUP1 SWAP4 POP POP POP POP SWAP2 SWAP1 POP JUMP JUMPDEST PUSH1 0x60 PUSH0 DUP3 SUB PUSH2 0x15DA JUMPI PUSH1 0x40 MLOAD DUP1 PUSH1 0x40 ADD PUSH1 0x40 MSTORE DUP1 PUSH1 0x1 DUP2 MSTORE PUSH1 0x20 ADD PUSH32 0x3000000000000000000000000000000000000000000000000000000000000000 DUP2 MSTORE POP SWAP1 POP PUSH2 0x16E8 JUMP JUMPDEST PUSH0 DUP3 SWAP1 POP PUSH0 JUMPDEST PUSH0 DUP3 EQ PUSH2 0x1609 JUMPI DUP1 DUP1 PUSH2 0x15F2 SWAP1 PUSH2 0x32AA JUMP JUMPDEST SWAP2 POP POP PUSH1 0xA DUP3 PUSH2 0x1602 SWAP2 SWAP1 PUSH2 0x331E JUMP JUMPDEST SWAP2 POP PUSH2 0x15E0 JUMP JUMPDEST PUSH0 DUP2 PUSH8 0xFFFFFFFFFFFFFFFF DUP2 GT ISZERO PUSH2 0x1624 JUMPI PUSH2 0x1623 PUSH2 0x2721 JUMP JUMPDEST JUMPDEST PUSH1 0x40 MLOAD SWAP1 DUP1 DUP3 MSTORE DUP1 PUSH1 0x1F ADD PUSH1 0x1F NOT AND PUSH1 0x20 ADD DUP3 ADD PUSH1 0x40 MSTORE DUP1 ISZERO PUSH2 0x1656 JUMPI DUP2 PUSH1 0x20 ADD PUSH1 0x1 DUP3 MUL DUP1 CALLDATASIZE DUP4 CALLDATACOPY DUP1 DUP3 ADD SWAP2 POP POP SWAP1 POP JUMPDEST POP SWAP1 POP JUMPDEST PUSH0 DUP6 EQ PUSH2 0x16E1 JUMPI PUSH1 0x1 DUP3 PUSH2 0x166E SWAP2 SWAP1 PUSH2 0x334E JUMP JUMPDEST SWAP2 POP PUSH1 0xA DUP6 PUSH2 0x167D SWAP2 SWAP1 PUSH2 0x3381 JUMP JUMPDEST PUSH1 0x30 PUSH2 0x1689 SWAP2 SWAP1 PUSH2 0x3236 JUMP JUMPDEST PUSH1 0xF8 SHL DUP2 DUP4 DUP2 MLOAD DUP2 LT PUSH2 0x169F JUMPI PUSH2 0x169E PUSH2 0x31DC JUMP JUMPDEST JUMPDEST PUSH1 0x20 ADD ADD SWAP1 PUSH31 0xFFFFFFFFFFFFFFFFFFFFFFFFFFFFFFFFFFFFFFFFFFFFFFFFFFFFFFFFFFFFFF NOT AND SWAP1 DUP2 PUSH0 BYTE SWAP1 MSTORE8 POP PUSH1 0xA DUP6 PUSH2 0x16DA SWAP2 SWAP1 PUSH2 0x331E JUMP JUMPDEST SWAP5 POP PUSH2 0x165A JUMP JUMPDEST DUP1 SWAP4 POP POP POP POP JUMPDEST SWAP2 SWAP1 POP JUMP JUMPDEST PUSH2 0x16F5 PUSH2 0x101B JUMP JUMPDEST PUSH20 0xFFFFFFFFFFFFFFFFFFFFFFFFFFFFFFFFFFFFFFFF AND PUSH2 0x1713 PUSH2 0xAC7 JUMP JUMPDEST PUSH20 0xFFFFFFFFFFFFFFFFFFFFFFFFFFFFFFFFFFFFFFFF AND EQ PUSH2 0x1772 JUMPI PUSH2 0x1736 PUSH2 0x101B JUMP JUMPDEST PUSH1 0x40 MLOAD PUSH32 0x118CDAA700000000000000000000000000000000000000000000000000000000 DUP2 MSTORE PUSH1 0x4 ADD PUSH2 0x1769 SWAP2 SWAP1 PUSH2 0x2525 JUMP JUMPDEST PUSH1 0x40 MLOAD DUP1 SWAP2 SUB SWAP1 REVERT JUMPDEST JUMP JUMPDEST PUSH0 PUSH1 0x7 PUSH0 SWAP1 SLOAD SWAP1 PUSH2 0x100 EXP SWAP1 DIV PUSH20 0xFFFFFFFFFFFFFFFFFFFFFFFFFFFFFFFFFFFFFFFF AND SWAP1 POP DUP2 PUSH1 0x7 PUSH0 PUSH2 0x100 EXP DUP2 SLOAD DUP2 PUSH20 0xFFFFFFFFFFFFFFFFFFFFFFFFFFFFFFFFFFFFFFFF MUL NOT AND SWAP1 DUP4 PUSH20 0xFFFFFFFFFFFFFFFFFFFFFFFFFFFFFFFFFFFFFFFF AND MUL OR SWAP1 SSTORE POP DUP2 PUSH20 0xFFFFFFFFFFFFFFFFFFFFFFFFFFFFFFFFFFFFFFFF AND DUP2 PUSH20 0xFFFFFFFFFFFFFFFFFFFFFFFFFFFFFFFFFFFFFFFF AND PUSH32 0x8BE0079C531659141344CD1FD0A4F28419497F9722A3DAAFE3B4186F6B6457E0 PUSH1 0x40 MLOAD PUSH1 0x40 MLOAD DUP1 SWAP2 SUB SWAP1 LOG3 POP POP JUMP JUMPDEST PUSH0 PUSH20 0xFFFFFFFFFFFFFFFFFFFFFFFFFFFFFFFFFFFFFFFF AND DUP3 PUSH20 0xFFFFFFFFFFFFFFFFFFFFFFFFFFFFFFFFFFFFFFFF AND SUB PUSH2 0x18A7 JUMPI DUP2 PUSH1 0x40 MLOAD PUSH32 0x5B08BA1800000000000000000000000000000000000000000000000000000000 DUP2 MSTORE PUSH1 0x4 ADD PUSH2 0x189E SWAP2 SWAP1 PUSH2 0x2525 JUMP JUMPDEST PUSH1 0x40 MLOAD DUP1 SWAP2 SUB SWAP1 REVERT JUMPDEST DUP1 PUSH1 0x5 PUSH0 DUP6 PUSH20 0xFFFFFFFFFFFFFFFFFFFFFFFFFFFFFFFFFFFFFFFF AND PUSH20 0xFFFFFFFFFFFFFFFFFFFFFFFFFFFFFFFFFFFFFFFF AND DUP2 MSTORE PUSH1 0x20 ADD SWAP1 DUP2 MSTORE PUSH1 0x20 ADD PUSH0 KECCAK256 PUSH0 DUP5 PUSH20 0xFFFFFFFFFFFFFFFFFFFFFFFFFFFFFFFFFFFFFFFF AND PUSH20 0xFFFFFFFFFFFFFFFFFFFFFFFFFFFFFFFFFFFFFFFF AND DUP2 MSTORE PUSH1 0x20 ADD SWAP1 DUP2 MSTORE PUSH1 0x20 ADD PUSH0 KECCAK256 PUSH0 PUSH2 0x100 EXP DUP2 SLOAD DUP2 PUSH1 0xFF MUL NOT AND SWAP1 DUP4 ISZERO ISZERO MUL OR SWAP1 SSTORE POP DUP2 PUSH20 0xFFFFFFFFFFFFFFFFFFFFFFFFFFFFFFFFFFFFFFFF AND DUP4 PUSH20 0xFFFFFFFFFFFFFFFFFFFFFFFFFFFFFFFFFFFFFFFF AND PUSH32 0x17307EAB39AB6107E8899845AD3D59BD9653F200F220920489CA2B5937696C31 DUP4 PUSH1 0x40 MLOAD PUSH2 0x1993 SWAP2 SWAP1 PUSH2 0x23C5 JUMP JUMPDEST PUSH1 0x40 MLOAD DUP1 SWAP2 SUB SWAP1 LOG3 POP POP POP JUMP JUMPDEST PUSH0 DUP4 PUSH20 0xFFFFFFFFFFFFFFFFFFFFFFFFFFFFFFFFFFFFFFFF AND EXTCODESIZE GT ISZERO PUSH2 0x1B45 JUMPI DUP3 PUSH20 0xFFFFFFFFFFFFFFFFFFFFFFFFFFFFFFFFFFFFFFFF AND PUSH4 0x150B7A02 DUP7 DUP7 DUP6 DUP6 PUSH1 0x40 MLOAD DUP6 PUSH4 0xFFFFFFFF AND PUSH1 0xE0 SHL DUP2 MSTORE PUSH1 0x4 ADD PUSH2 0x19FE SWAP5 SWAP4 SWAP3 SWAP2 SWAP1 PUSH2 0x3403 JUMP JUMPDEST PUSH1 0x20 PUSH1 0x40 MLOAD DUP1 DUP4 SUB DUP2 PUSH0 DUP8 GAS CALL SWAP3 POP POP POP DUP1 ISZERO PUSH2 0x1A39 JUMPI POP PUSH1 0x40 MLOAD RETURNDATASIZE PUSH1 0x1F NOT PUSH1 0x1F DUP3 ADD AND DUP3 ADD DUP1 PUSH1 0x40 MSTORE POP DUP2 ADD SWAP1 PUSH2 0x1A36 SWAP2 SWAP1 PUSH2 0x3461 JUMP JUMPDEST PUSH1 0x1 JUMPDEST PUSH2 0x1ABA JUMPI RETURNDATASIZE DUP1 PUSH0 DUP2 EQ PUSH2 0x1A67 JUMPI PUSH1 0x40 MLOAD SWAP2 POP PUSH1 0x1F NOT PUSH1 0x3F RETURNDATASIZE ADD AND DUP3 ADD PUSH1 0x40 MSTORE RETURNDATASIZE DUP3 MSTORE RETURNDATASIZE PUSH0 PUSH1 0x20 DUP5 ADD RETURNDATACOPY PUSH2 0x1A6C JUMP JUMPDEST PUSH1 0x60 SWAP2 POP JUMPDEST POP PUSH0 DUP2 MLOAD SUB PUSH2 0x1AB2 JUMPI DUP4 PUSH1 0x40 MLOAD PUSH32 0x64A0AE9200000000000000000000000000000000000000000000000000000000 DUP2 MSTORE PUSH1 0x4 ADD PUSH2 0x1AA9 SWAP2 SWAP1 PUSH2 0x2525 JUMP JUMPDEST PUSH1 0x40 MLOAD DUP1 SWAP2 SUB SWAP1 REVERT JUMPDEST DUP1 MLOAD DUP2 PUSH1 0x20 ADD REVERT JUMPDEST PUSH4 0x150B7A02 PUSH1 0xE0 SHL PUSH28 0xFFFFFFFFFFFFFFFFFFFFFFFFFFFFFFFFFFFFFFFFFFFFFFFFFFFFFFFF NOT AND DUP2 PUSH28 0xFFFFFFFFFFFFFFFFFFFFFFFFFFFFFFFFFFFFFFFFFFFFFFFFFFFFFFFF NOT AND EQ PUSH2 0x1B43 JUMPI DUP4 PUSH1 0x40 MLOAD PUSH32 0x64A0AE9200000000000000000000000000000000000000000000000000000000 DUP2 MSTORE PUSH1 0x4 ADD PUSH2 0x1B3A SWAP2 SWAP1 PUSH2 0x2525 JUMP JUMPDEST PUSH1 0x40 MLOAD DUP1 SWAP2 SUB SWAP1 REVERT JUMPDEST POP JUMPDEST POP POP POP POP POP JUMP JUMPDEST PUSH1 0x60 PUSH1 0x40 MLOAD DUP1 PUSH1 0x20 ADD PUSH1 0x40 MSTORE DUP1 PUSH0 DUP2 MSTORE POP SWAP1 POP SWAP1 JUMP JUMPDEST PUSH1 0x60 PUSH2 0x1B6D DUP3 PUSH2 0xF5C JUMP JUMPDEST POP PUSH0 PUSH2 0x1B77 PUSH2 0x1B4C JUMP JUMPDEST SWAP1 POP PUSH0 DUP2 MLOAD GT PUSH2 0x1B95 JUMPI PUSH1 0x40 MLOAD DUP1 PUSH1 0x20 ADD PUSH1 0x40 MSTORE DUP1 PUSH0 DUP2 MSTORE POP PUSH2 0x1BC0 JUMP JUMPDEST DUP1 PUSH2 0x1B9F DUP5 PUSH2 0x1F29 JUMP JUMPDEST PUSH1 0x40 MLOAD PUSH1 0x20 ADD PUSH2 0x1BB0 SWAP3 SWAP2 SWAP1 PUSH2 0x3143 JUMP JUMPDEST PUSH1 0x40 MLOAD PUSH1 0x20 DUP2 DUP4 SUB SUB DUP2 MSTORE SWAP1 PUSH1 0x40 MSTORE JUMPDEST SWAP2 POP POP SWAP2 SWAP1 POP JUMP JUMPDEST PUSH1 0x1 DUP2 PUSH0 ADD PUSH0 DUP3 DUP3 SLOAD ADD SWAP3 POP POP DUP2 SWAP1 SSTORE POP POP JUMP JUMPDEST PUSH0 DUP2 PUSH0 ADD SLOAD SWAP1 POP SWAP2 SWAP1 POP JUMP JUMPDEST PUSH2 0x1C01 DUP3 DUP3 PUSH1 0x40 MLOAD DUP1 PUSH1 0x20 ADD PUSH1 0x40 MSTORE DUP1 PUSH0 DUP2 MSTORE POP PUSH2 0x1FF3 JUMP JUMPDEST POP POP JUMP JUMPDEST PUSH0 PUSH32 0x1FFC9A700000000000000000000000000000000000000000000000000000000 PUSH28 0xFFFFFFFFFFFFFFFFFFFFFFFFFFFFFFFFFFFFFFFFFFFFFFFFFFFFFFFF NOT AND DUP3 PUSH28 0xFFFFFFFFFFFFFFFFFFFFFFFFFFFFFFFFFFFFFFFFFFFFFFFFFFFFFFFF NOT AND EQ SWAP1 POP SWAP2 SWAP1 POP JUMP JUMPDEST PUSH0 PUSH1 0x2 PUSH0 DUP4 DUP2 MSTORE PUSH1 0x20 ADD SWAP1 DUP2 MSTORE PUSH1 0x20 ADD PUSH0 KECCAK256 PUSH0 SWAP1 SLOAD SWAP1 PUSH2 0x100 EXP SWAP1 DIV PUSH20 0xFFFFFFFFFFFFFFFFFFFFFFFFFFFFFFFFFFFFFFFF AND SWAP1 POP SWAP2 SWAP1 POP JUMP JUMPDEST DUP1 DUP1 PUSH2 0x1CDF JUMPI POP PUSH0 PUSH20 0xFFFFFFFFFFFFFFFFFFFFFFFFFFFFFFFFFFFFFFFF AND DUP3 PUSH20 0xFFFFFFFFFFFFFFFFFFFFFFFFFFFFFFFFFFFFFFFF AND EQ ISZERO JUMPDEST ISZERO PUSH2 0x1E11 JUMPI PUSH0 PUSH2 0x1CEE DUP5 PUSH2 0xF5C JUMP JUMPDEST SWAP1 POP PUSH0 PUSH20 0xFFFFFFFFFFFFFFFFFFFFFFFFFFFFFFFFFFFFFFFF AND DUP4 PUSH20 0xFFFFFFFFFFFFFFFFFFFFFFFFFFFFFFFFFFFFFFFF AND EQ ISZERO DUP1 ISZERO PUSH2 0x1D58 JUMPI POP DUP3 PUSH20 0xFFFFFFFFFFFFFFFFFFFFFFFFFFFFFFFFFFFFFFFF AND DUP2 PUSH20 0xFFFFFFFFFFFFFFFFFFFFFFFFFFFFFFFFFFFFFFFF AND EQ ISZERO JUMPDEST DUP1 ISZERO PUSH2 0x1D6B JUMPI POP PUSH2 0x1D69 DUP2 DUP5 PUSH2 0xCC5 JUMP JUMPDEST ISZERO JUMPDEST ISZERO PUSH2 0x1DAD JUMPI DUP3 PUSH1 0x40 MLOAD PUSH32 0xA9FBF51F00000000000000000000000000000000000000000000000000000000 DUP2 MSTORE PUSH1 0x4 ADD PUSH2 0x1DA4 SWAP2 SWAP1 PUSH2 0x2525 JUMP JUMPDEST PUSH1 0x40 MLOAD DUP1 SWAP2 SUB SWAP1 REVERT JUMPDEST DUP2 ISZERO PUSH2 0x1E0F JUMPI DUP4 DUP6 PUSH20 0xFFFFFFFFFFFFFFFFFFFFFFFFFFFFFFFFFFFFFFFF AND DUP3 PUSH20 0xFFFFFFFFFFFFFFFFFFFFFFFFFFFFFFFFFFFFFFFF AND PUSH32 0x8C5BE1E5EBEC7D5BD14F71427D1E84F3DD0314C0F7B2291E5B200AC8C7C3B925 PUSH1 0x40 MLOAD PUSH1 0x40 MLOAD DUP1 SWAP2 SUB SWAP1 LOG4 JUMPDEST POP JUMPDEST DUP4 PUSH1 0x4 PUSH0 DUP6 DUP2 MSTORE PUSH1 0x20 ADD SWAP1 DUP2 MSTORE PUSH1 0x20 ADD PUSH0 KECCAK256 PUSH0 PUSH2 0x100 EXP DUP2 SLOAD DUP2 PUSH20 0xFFFFFFFFFFFFFFFFFFFFFFFFFFFFFFFFFFFFFFFF MUL NOT AND SWAP1 DUP4 PUSH20 0xFFFFFFFFFFFFFFFFFFFFFFFFFFFFFFFFFFFFFFFF AND MUL OR SWAP1 SSTORE POP POP POP POP POP JUMP JUMPDEST PUSH2 0x1E71 DUP4 DUP4 DUP4 PUSH2 0x2016 JUMP JUMPDEST PUSH2 0x1F24 JUMPI PUSH0 PUSH20 0xFFFFFFFFFFFFFFFFFFFFFFFFFFFFFFFFFFFFFFFF AND DUP4 PUSH20 0xFFFFFFFFFFFFFFFFFFFFFFFFFFFFFFFFFFFFFFFF AND SUB PUSH2 0x1EE5 JUMPI DUP1 PUSH1 0x40 MLOAD PUSH32 0x7E27328900000000000000000000000000000000000000000000000000000000 DUP2 MSTORE PUSH1 0x4 ADD PUSH2 0x1EDC SWAP2 SWAP1 PUSH2 0x28D9 JUMP JUMPDEST PUSH1 0x40 MLOAD DUP1 SWAP2 SUB SWAP1 REVERT JUMPDEST DUP2 DUP2 PUSH1 0x40 MLOAD PUSH32 0x177E802F00000000000000000000000000000000000000000000000000000000 DUP2 MSTORE PUSH1 0x4 ADD PUSH2 0x1F1B SWAP3 SWAP2 SWAP1 PUSH2 0x348C JUMP JUMPDEST PUSH1 0x40 MLOAD DUP1 SWAP2 SUB SWAP1 REVERT JUMPDEST POP POP POP JUMP JUMPDEST PUSH1 0x60 PUSH0 PUSH1 0x1 PUSH2 0x1F37 DUP5 PUSH2 0x20D6 JUMP JUMPDEST ADD SWAP1 POP PUSH0 DUP2 PUSH8 0xFFFFFFFFFFFFFFFF DUP2 GT ISZERO PUSH2 0x1F55 JUMPI PUSH2 0x1F54 PUSH2 0x2721 JUMP JUMPDEST JUMPDEST PUSH1 0x40 MLOAD SWAP1 DUP1 DUP3 MSTORE DUP1 PUSH1 0x1F ADD PUSH1 0x1F NOT AND PUSH1 0x20 ADD DUP3 ADD PUSH1 0x40 MSTORE DUP1 ISZERO PUSH2 0x1F87 JUMPI DUP2 PUSH1 0x20 ADD PUSH1 0x1 DUP3 MUL DUP1 CALLDATASIZE DUP4 CALLDATACOPY DUP1 DUP3 ADD SWAP2 POP POP SWAP1 POP JUMPDEST POP SWAP1 POP PUSH0 DUP3 PUSH1 0x20 ADD DUP3 ADD SWAP1 POP JUMPDEST PUSH1 0x1 ISZERO PUSH2 0x1FE8 JUMPI DUP1 DUP1 PUSH1 0x1 SWAP1 SUB SWAP2 POP POP PUSH32 0x3031323334353637383961626364656600000000000000000000000000000000 PUSH1 0xA DUP7 MOD BYTE DUP2 MSTORE8 PUSH1 0xA DUP6 DUP2 PUSH2 0x1FDD JUMPI PUSH2 0x1FDC PUSH2 0x32F1 JUMP JUMPDEST JUMPDEST DIV SWAP5 POP PUSH0 DUP6 SUB PUSH2 0x1F94 JUMPI JUMPDEST DUP2 SWAP4 POP POP POP POP SWAP2 SWAP1 POP JUMP JUMPDEST PUSH2 0x1FFD DUP4 DUP4 PUSH2 0x2227 JUMP JUMPDEST PUSH2 0x2011 PUSH2 0x2008 PUSH2 0x101B JUMP JUMPDEST PUSH0 DUP6 DUP6 DUP6 PUSH2 0x19A0 JUMP JUMPDEST POP POP POP JUMP JUMPDEST PUSH0 DUP1 PUSH20 0xFFFFFFFFFFFFFFFFFFFFFFFFFFFFFFFFFFFFFFFF AND DUP4 PUSH20 0xFFFFFFFFFFFFFFFFFFFFFFFFFFFFFFFFFFFFFFFF AND EQ ISZERO DUP1 ISZERO PUSH2 0x20CD JUMPI POP DUP3 PUSH20 0xFFFFFFFFFFFFFFFFFFFFFFFFFFFFFFFFFFFFFFFF AND DUP5 PUSH20 0xFFFFFFFFFFFFFFFFFFFFFFFFFFFFFFFFFFFFFFFF AND EQ DUP1 PUSH2 0x208E JUMPI POP PUSH2 0x208D DUP5 DUP5 PUSH2 0xCC5 JUMP JUMPDEST JUMPDEST DUP1 PUSH2 0x20CC JUMPI POP DUP3 PUSH20 0xFFFFFFFFFFFFFFFFFFFFFFFFFFFFFFFFFFFFFFFF AND PUSH2 0x20B4 DUP4 PUSH2 0xFE2 JUMP JUMPDEST PUSH20 0xFFFFFFFFFFFFFFFFFFFFFFFFFFFFFFFFFFFFFFFF AND EQ JUMPDEST JUMPDEST SWAP1 POP SWAP4 SWAP3 POP POP POP JUMP JUMPDEST PUSH0 DUP1 PUSH0 SWAP1 POP PUSH27 0x184F03E93FF9F4DAA797ED6E38ED64BF6A1F010000000000000000 DUP4 LT PUSH2 0x2132 JUMPI PUSH27 0x184F03E93FF9F4DAA797ED6E38ED64BF6A1F010000000000000000 DUP4 DUP2 PUSH2 0x2128 JUMPI PUSH2 0x2127 PUSH2 0x32F1 JUMP JUMPDEST JUMPDEST DIV SWAP3 POP PUSH1 0x40 DUP2 ADD SWAP1 POP JUMPDEST PUSH14 0x4EE2D6D415B85ACEF8100000000 DUP4 LT PUSH2 0x216F JUMPI PUSH14 0x4EE2D6D415B85ACEF8100000000 DUP4 DUP2 PUSH2 0x2165 JUMPI PUSH2 0x2164 PUSH2 0x32F1 JUMP JUMPDEST JUMPDEST DIV SWAP3 POP PUSH1 0x20 DUP2 ADD SWAP1 POP JUMPDEST PUSH7 0x2386F26FC10000 DUP4 LT PUSH2 0x219E JUMPI PUSH7 0x2386F26FC10000 DUP4 DUP2 PUSH2 0x2194 JUMPI PUSH2 0x2193 PUSH2 0x32F1 JUMP JUMPDEST JUMPDEST DIV SWAP3 POP PUSH1 0x10 DUP2 ADD SWAP1 POP JUMPDEST PUSH4 0x5F5E100 DUP4 LT PUSH2 0x21C7 JUMPI PUSH4 0x5F5E100 DUP4 DUP2 PUSH2 0x21BD JUMPI PUSH2 0x21BC PUSH2 0x32F1 JUMP JUMPDEST JUMPDEST DIV SWAP3 POP PUSH1 0x8 DUP2 ADD SWAP1 POP JUMPDEST PUSH2 0x2710 DUP4 LT PUSH2 0x21EC JUMPI PUSH2 0x2710 DUP4 DUP2 PUSH2 0x21E2 JUMPI PUSH2 0x21E1 PUSH2 0x32F1 JUMP JUMPDEST JUMPDEST DIV SWAP3 POP PUSH1 0x4 DUP2 ADD SWAP1 POP JUMPDEST PUSH1 0x64 DUP4 LT PUSH2 0x220F JUMPI PUSH1 0x64 DUP4 DUP2 PUSH2 0x2205 JUMPI PUSH2 0x2204 PUSH2 0x32F1 JUMP JUMPDEST JUMPDEST DIV SWAP3 POP PUSH1 0x2 DUP2 ADD SWAP1 POP JUMPDEST PUSH1 0xA DUP4 LT PUSH2 0x221E JUMPI PUSH1 0x1 DUP2 ADD SWAP1 POP JUMPDEST DUP1 SWAP2 POP POP SWAP2 SWAP1 POP JUMP JUMPDEST PUSH0 PUSH20 0xFFFFFFFFFFFFFFFFFFFFFFFFFFFFFFFFFFFFFFFF AND DUP3 PUSH20 0xFFFFFFFFFFFFFFFFFFFFFFFFFFFFFFFFFFFFFFFF AND SUB PUSH2 0x2297 JUMPI PUSH0 PUSH1 0x40 MLOAD PUSH32 0x64A0AE9200000000000000000000000000000000000000000000000000000000 DUP2 MSTORE PUSH1 0x4 ADD PUSH2 0x228E SWAP2 SWAP1 PUSH2 0x2525 JUMP JUMPDEST PUSH1 0x40 MLOAD DUP1 SWAP2 SUB SWAP1 REVERT JUMPDEST PUSH0 PUSH2 0x22A3 DUP4 DUP4 PUSH0 PUSH2 0x1034 JUMP JUMPDEST SWAP1 POP PUSH0 PUSH20 0xFFFFFFFFFFFFFFFFFFFFFFFFFFFFFFFFFFFFFFFF AND DUP2 PUSH20 0xFFFFFFFFFFFFFFFFFFFFFFFFFFFFFFFFFFFFFFFF AND EQ PUSH2 0x2315 JUMPI PUSH0 PUSH1 0x40 MLOAD PUSH32 0x73C6AC6E00000000000000000000000000000000000000000000000000000000 DUP2 MSTORE PUSH1 0x4 ADD PUSH2 0x230C SWAP2 SWAP1 PUSH2 0x2525 JUMP JUMPDEST PUSH1 0x40 MLOAD DUP1 SWAP2 SUB SWAP1 REVERT JUMPDEST POP POP POP JUMP JUMPDEST PUSH0 PUSH1 0x40 MLOAD SWAP1 POP SWAP1 JUMP JUMPDEST PUSH0 DUP1 REVERT JUMPDEST PUSH0 DUP1 REVERT JUMPDEST PUSH0 PUSH32 0xFFFFFFFF00000000000000000000000000000000000000000000000000000000 DUP3 AND SWAP1 POP SWAP2 SWAP1 POP JUMP JUMPDEST PUSH2 0x235F DUP2 PUSH2 0x232B JUMP JUMPDEST DUP2 EQ PUSH2 0x2369 JUMPI PUSH0 DUP1 REVERT JUMPDEST POP JUMP JUMPDEST PUSH0 DUP2 CALLDATALOAD SWAP1 POP PUSH2 0x237A DUP2 PUSH2 0x2356 JUMP JUMPDEST SWAP3 SWAP2 POP POP JUMP JUMPDEST PUSH0 PUSH1 0x20 DUP3 DUP5 SUB SLT ISZERO PUSH2 0x2395 JUMPI PUSH2 0x2394 PUSH2 0x2323 JUMP JUMPDEST JUMPDEST PUSH0 PUSH2 0x23A2 DUP5 DUP3 DUP6 ADD PUSH2 0x236C JUMP JUMPDEST SWAP2 POP POP SWAP3 SWAP2 POP POP JUMP JUMPDEST PUSH0 DUP2 ISZERO ISZERO SWAP1 POP SWAP2 SWAP1 POP JUMP JUMPDEST PUSH2 0x23BF DUP2 PUSH2 0x23AB JUMP JUMPDEST DUP3 MSTORE POP POP JUMP JUMPDEST PUSH0 PUSH1 0x20 DUP3 ADD SWAP1 POP PUSH2 0x23D8 PUSH0 DUP4 ADD DUP5 PUSH2 0x23B6 JUMP JUMPDEST SWAP3 SWAP2 POP POP JUMP JUMPDEST PUSH0 DUP2 MLOAD SWAP1 POP SWAP2 SWAP1 POP JUMP JUMPDEST PUSH0 DUP3 DUP3 MSTORE PUSH1 0x20 DUP3 ADD SWAP1 POP SWAP3 SWAP2 POP POP JUMP JUMPDEST PUSH0 JUMPDEST DUP4 DUP2 LT ISZERO PUSH2 0x2415 JUMPI DUP1 DUP3 ADD MLOAD DUP2 DUP5 ADD MSTORE PUSH1 0x20 DUP2 ADD SWAP1 POP PUSH2 0x23FA JUMP JUMPDEST PUSH0 DUP5 DUP5 ADD MSTORE POP POP POP POP JUMP JUMPDEST PUSH0 PUSH1 0x1F NOT PUSH1 0x1F DUP4 ADD AND SWAP1 POP SWAP2 SWAP1 POP JUMP JUMPDEST PUSH0 PUSH2 0x243A DUP3 PUSH2 0x23DE JUMP JUMPDEST PUSH2 0x2444 DUP2 DUP6 PUSH2 0x23E8 JUMP JUMPDEST SWAP4 POP PUSH2 0x2454 DUP2 DUP6 PUSH1 0x20 DUP7 ADD PUSH2 0x23F8 JUMP JUMPDEST PUSH2 0x245D DUP2 PUSH2 0x2420 JUMP JUMPDEST DUP5 ADD SWAP2 POP POP SWAP3 SWAP2 POP POP JUMP JUMPDEST PUSH0 PUSH1 0x20 DUP3 ADD SWAP1 POP DUP2 DUP2 SUB PUSH0 DUP4 ADD MSTORE PUSH2 0x2480 DUP2 DUP5 PUSH2 0x2430 JUMP JUMPDEST SWAP1 POP SWAP3 SWAP2 POP POP JUMP JUMPDEST PUSH0 DUP2 SWAP1 POP SWAP2 SWAP1 POP JUMP JUMPDEST PUSH2 0x249A DUP2 PUSH2 0x2488 JUMP JUMPDEST DUP2 EQ PUSH2 0x24A4 JUMPI PUSH0 DUP1 REVERT JUMPDEST POP JUMP JUMPDEST PUSH0 DUP2 CALLDATALOAD SWAP1 POP PUSH2 0x24B5 DUP2 PUSH2 0x2491 JUMP JUMPDEST SWAP3 SWAP2 POP POP JUMP JUMPDEST PUSH0 PUSH1 0x20 DUP3 DUP5 SUB SLT ISZERO PUSH2 0x24D0 JUMPI PUSH2 0x24CF PUSH2 0x2323 JUMP JUMPDEST JUMPDEST PUSH0 PUSH2 0x24DD DUP5 DUP3 DUP6 ADD PUSH2 0x24A7 JUMP JUMPDEST SWAP2 POP POP SWAP3 SWAP2 POP POP JUMP JUMPDEST PUSH0 PUSH20 0xFFFFFFFFFFFFFFFFFFFFFFFFFFFFFFFFFFFFFFFF DUP3 AND SWAP1 POP SWAP2 SWAP1 POP JUMP JUMPDEST PUSH0 PUSH2 0x250F DUP3 PUSH2 0x24E6 JUMP JUMPDEST SWAP1 POP SWAP2 SWAP1 POP JUMP JUMPDEST PUSH2 0x251F DUP2 PUSH2 0x2505 JUMP JUMPDEST DUP3 MSTORE POP POP JUMP JUMPDEST PUSH0 PUSH1 0x20 DUP3 ADD SWAP1 POP PUSH2 0x2538 PUSH0 DUP4 ADD DUP5 PUSH2 0x2516 JUMP JUMPDEST SWAP3 SWAP2 POP POP JUMP JUMPDEST PUSH2 0x2547 DUP2 PUSH2 0x2505 JUMP JUMPDEST DUP2 EQ PUSH2 0x2551 JUMPI PUSH0 DUP1 REVERT JUMPDEST POP JUMP JUMPDEST PUSH0 DUP2 CALLDATALOAD SWAP1 POP PUSH2 0x2562 DUP2 PUSH2 0x253E JUMP JUMPDEST SWAP3 SWAP2 POP POP JUMP JUMPDEST PUSH0 DUP1 PUSH1 0x40 DUP4 DUP6 SUB SLT ISZERO PUSH2 0x257E JUMPI PUSH2 0x257D PUSH2 0x2323 JUMP JUMPDEST JUMPDEST PUSH0 PUSH2 0x258B DUP6 DUP3 DUP7 ADD PUSH2 0x2554 JUMP JUMPDEST SWAP3 POP POP PUSH1 0x20 PUSH2 0x259C DUP6 DUP3 DUP7 ADD PUSH2 0x24A7 JUMP JUMPDEST SWAP2 POP POP SWAP3 POP SWAP3 SWAP1 POP JUMP JUMPDEST PUSH0 DUP1 PUSH0 PUSH1 0x60 DUP5 DUP7 SUB SLT ISZERO PUSH2 0x25BD JUMPI PUSH2 0x25BC PUSH2 0x2323 JUMP JUMPDEST JUMPDEST PUSH0 PUSH2 0x25CA DUP7 DUP3 DUP8 ADD PUSH2 0x2554 JUMP JUMPDEST SWAP4 POP POP PUSH1 0x20 PUSH2 0x25DB DUP7 DUP3 DUP8 ADD PUSH2 0x2554 JUMP JUMPDEST SWAP3 POP POP PUSH1 0x40 PUSH2 0x25EC DUP7 DUP3 DUP8 ADD PUSH2 0x24A7 JUMP JUMPDEST SWAP2 POP POP SWAP3 POP SWAP3 POP SWAP3 JUMP JUMPDEST PUSH0 DUP2 MLOAD SWAP1 POP SWAP2 SWAP1 POP JUMP JUMPDEST PUSH0 DUP3 DUP3 MSTORE PUSH1 0x20 DUP3 ADD SWAP1 POP SWAP3 SWAP2 POP POP JUMP JUMPDEST PUSH0 DUP2 SWAP1 POP PUSH1 0x20 DUP3 ADD SWAP1 POP SWAP2 SWAP1 POP JUMP JUMPDEST PUSH0 DUP3 DUP3 MSTORE PUSH1 0x20 DUP3 ADD SWAP1 POP SWAP3 SWAP2 POP POP JUMP JUMPDEST PUSH0 PUSH2 0x2639 DUP3 PUSH2 0x23DE JUMP JUMPDEST PUSH2 0x2643 DUP2 DUP6 PUSH2 0x261F JUMP JUMPDEST SWAP4 POP PUSH2 0x2653 DUP2 DUP6 PUSH1 0x20 DUP7 ADD PUSH2 0x23F8 JUMP JUMPDEST PUSH2 0x265C DUP2 PUSH2 0x2420 JUMP JUMPDEST DUP5 ADD SWAP2 POP POP SWAP3 SWAP2 POP POP JUMP JUMPDEST PUSH0 PUSH2 0x2672 DUP4 DUP4 PUSH2 0x262F JUMP JUMPDEST SWAP1 POP SWAP3 SWAP2 POP POP JUMP JUMPDEST PUSH0 PUSH1 0x20 DUP3 ADD SWAP1 POP SWAP2 SWAP1 POP JUMP JUMPDEST PUSH0 PUSH2 0x2690 DUP3 PUSH2 0x25F6 JUMP JUMPDEST PUSH2 0x269A DUP2 DUP6 PUSH2 0x2600 JUMP JUMPDEST SWAP4 POP DUP4 PUSH1 0x20 DUP3 MUL DUP6 ADD PUSH2 0x26AC DUP6 PUSH2 0x2610 JUMP JUMPDEST DUP1 PUSH0 JUMPDEST DUP6 DUP2 LT ISZERO PUSH2 0x26E7 JUMPI DUP5 DUP5 SUB DUP10 MSTORE DUP2 MLOAD PUSH2 0x26C8 DUP6 DUP3 PUSH2 0x2667 JUMP JUMPDEST SWAP5 POP PUSH2 0x26D3 DUP4 PUSH2 0x267A JUMP JUMPDEST SWAP3 POP PUSH1 0x20 DUP11 ADD SWAP10 POP POP PUSH1 0x1 DUP2 ADD SWAP1 POP PUSH2 0x26AF JUMP JUMPDEST POP DUP3 SWAP8 POP DUP8 SWAP6 POP POP POP POP POP POP SWAP3 SWAP2 POP POP JUMP JUMPDEST PUSH0 PUSH1 0x20 DUP3 ADD SWAP1 POP DUP2 DUP2 SUB PUSH0 DUP4 ADD MSTORE PUSH2 0x2711 DUP2 DUP5 PUSH2 0x2686 JUMP JUMPDEST SWAP1 POP SWAP3 SWAP2 POP POP JUMP JUMPDEST PUSH0 DUP1 REVERT JUMPDEST PUSH0 DUP1 REVERT JUMPDEST PUSH32 0x4E487B7100000000000000000000000000000000000000000000000000000000 PUSH0 MSTORE PUSH1 0x41 PUSH1 0x4 MSTORE PUSH1 0x24 PUSH0 REVERT JUMPDEST PUSH2 0x2757 DUP3 PUSH2 0x2420 JUMP JUMPDEST DUP2 ADD DUP2 DUP2 LT PUSH8 0xFFFFFFFFFFFFFFFF DUP3 GT OR ISZERO PUSH2 0x2776 JUMPI PUSH2 0x2775 PUSH2 0x2721 JUMP JUMPDEST JUMPDEST DUP1 PUSH1 0x40 MSTORE POP POP POP JUMP JUMPDEST PUSH0 PUSH2 0x2788 PUSH2 0x231A JUMP JUMPDEST SWAP1 POP PUSH2 0x2794 DUP3 DUP3 PUSH2 0x274E JUMP JUMPDEST SWAP2 SWAP1 POP JUMP JUMPDEST PUSH0 PUSH8 0xFFFFFFFFFFFFFFFF DUP3 GT ISZERO PUSH2 0x27B3 JUMPI PUSH2 0x27B2 PUSH2 0x2721 JUMP JUMPDEST JUMPDEST PUSH2 0x27BC DUP3 PUSH2 0x2420 JUMP JUMPDEST SWAP1 POP PUSH1 0x20 DUP2 ADD SWAP1 POP SWAP2 SWAP1 POP JUMP JUMPDEST DUP3 DUP2 DUP4 CALLDATACOPY PUSH0 DUP4 DUP4 ADD MSTORE POP POP POP JUMP JUMPDEST PUSH0 PUSH2 0x27E9 PUSH2 0x27E4 DUP5 PUSH2 0x2799 JUMP JUMPDEST PUSH2 0x277F JUMP JUMPDEST SWAP1 POP DUP3 DUP2 MSTORE PUSH1 0x20 DUP2 ADD DUP5 DUP5 DUP5 ADD GT ISZERO PUSH2 0x2805 JUMPI PUSH2 0x2804 PUSH2 0x271D JUMP JUMPDEST JUMPDEST PUSH2 0x2810 DUP5 DUP3 DUP6 PUSH2 0x27C9 JUMP JUMPDEST POP SWAP4 SWAP3 POP POP POP JUMP JUMPDEST PUSH0 DUP3 PUSH1 0x1F DUP4 ADD SLT PUSH2 0x282C JUMPI PUSH2 0x282B PUSH2 0x2719 JUMP JUMPDEST JUMPDEST DUP2 CALLDATALOAD PUSH2 0x283C DUP5 DUP3 PUSH1 0x20 DUP7 ADD PUSH2 0x27D7 JUMP JUMPDEST SWAP2 POP POP SWAP3 SWAP2 POP POP JUMP JUMPDEST PUSH0 DUP1 PUSH1 0x40 DUP4 DUP6 SUB SLT ISZERO PUSH2 0x285B JUMPI PUSH2 0x285A PUSH2 0x2323 JUMP JUMPDEST JUMPDEST PUSH0 PUSH2 0x2868 DUP6 DUP3 DUP7 ADD PUSH2 0x24A7 JUMP JUMPDEST SWAP3 POP POP PUSH1 0x20 DUP4 ADD CALLDATALOAD PUSH8 0xFFFFFFFFFFFFFFFF DUP2 GT ISZERO PUSH2 0x2889 JUMPI PUSH2 0x2888 PUSH2 0x2327 JUMP JUMPDEST JUMPDEST PUSH2 0x2895 DUP6 DUP3 DUP7 ADD PUSH2 0x2818 JUMP JUMPDEST SWAP2 POP POP SWAP3 POP SWAP3 SWAP1 POP JUMP JUMPDEST PUSH0 PUSH1 0x20 DUP3 DUP5 SUB SLT ISZERO PUSH2 0x28B4 JUMPI PUSH2 0x28B3 PUSH2 0x2323 JUMP JUMPDEST JUMPDEST PUSH0 PUSH2 0x28C1 DUP5 DUP3 DUP6 ADD PUSH2 0x2554 JUMP JUMPDEST SWAP2 POP POP SWAP3 SWAP2 POP POP JUMP JUMPDEST PUSH2 0x28D3 DUP2 PUSH2 0x2488 JUMP JUMPDEST DUP3 MSTORE POP POP JUMP JUMPDEST PUSH0 PUSH1 0x20 DUP3 ADD SWAP1 POP PUSH2 0x28EC PUSH0 DUP4 ADD DUP5 PUSH2 0x28CA JUMP JUMPDEST SWAP3 SWAP2 POP POP JUMP JUMPDEST PUSH0 DUP1 PUSH0 PUSH1 0x60 DUP5 DUP7 SUB SLT ISZERO PUSH2 0x2909 JUMPI PUSH2 0x2908 PUSH2 0x2323 JUMP JUMPDEST JUMPDEST PUSH0 PUSH2 0x2916 DUP7 DUP3 DUP8 ADD PUSH2 0x24A7 JUMP JUMPDEST SWAP4 POP POP PUSH1 0x20 PUSH2 0x2927 DUP7 DUP3 DUP8 ADD PUSH2 0x2554 JUMP JUMPDEST SWAP3 POP POP PUSH1 0x40 DUP5 ADD CALLDATALOAD PUSH8 0xFFFFFFFFFFFFFFFF DUP2 GT ISZERO PUSH2 0x2948 JUMPI PUSH2 0x2947 PUSH2 0x2327 JUMP JUMPDEST JUMPDEST PUSH2 0x2954 DUP7 DUP3 DUP8 ADD PUSH2 0x2818 JUMP JUMPDEST SWAP2 POP POP SWAP3 POP SWAP3 POP SWAP3 JUMP JUMPDEST PUSH2 0x2967 DUP2 PUSH2 0x23AB JUMP JUMPDEST DUP2 EQ PUSH2 0x2971 JUMPI PUSH0 DUP1 REVERT JUMPDEST POP JUMP JUMPDEST PUSH0 DUP2 CALLDATALOAD SWAP1 POP PUSH2 0x2982 DUP2 PUSH2 0x295E JUMP JUMPDEST SWAP3 SWAP2 POP POP JUMP JUMPDEST PUSH0 DUP1 PUSH1 0x40 DUP4 DUP6 SUB SLT ISZERO PUSH2 0x299E JUMPI PUSH2 0x299D PUSH2 0x2323 JUMP JUMPDEST JUMPDEST PUSH0 PUSH2 0x29AB DUP6 DUP3 DUP7 ADD PUSH2 0x2554 JUMP JUMPDEST SWAP3 POP POP PUSH1 0x20 PUSH2 0x29BC DUP6 DUP3 DUP7 ADD PUSH2 0x2974 JUMP JUMPDEST SWAP2 POP POP SWAP3 POP SWAP3 SWAP1 POP JUMP JUMPDEST PUSH0 PUSH8 0xFFFFFFFFFFFFFFFF DUP3 GT ISZERO PUSH2 0x29E0 JUMPI PUSH2 0x29DF PUSH2 0x2721 JUMP JUMPDEST JUMPDEST PUSH2 0x29E9 DUP3 PUSH2 0x2420 JUMP JUMPDEST SWAP1 POP PUSH1 0x20 DUP2 ADD SWAP1 POP SWAP2 SWAP1 POP JUMP JUMPDEST PUSH0 PUSH2 0x2A08 PUSH2 0x2A03 DUP5 PUSH2 0x29C6 JUMP JUMPDEST PUSH2 0x277F JUMP JUMPDEST SWAP1 POP DUP3 DUP2 MSTORE PUSH1 0x20 DUP2 ADD DUP5 DUP5 DUP5 ADD GT ISZERO PUSH2 0x2A24 JUMPI PUSH2 0x2A23 PUSH2 0x271D JUMP JUMPDEST JUMPDEST PUSH2 0x2A2F DUP5 DUP3 DUP6 PUSH2 0x27C9 JUMP JUMPDEST POP SWAP4 SWAP3 POP POP POP JUMP JUMPDEST PUSH0 DUP3 PUSH1 0x1F DUP4 ADD SLT PUSH2 0x2A4B JUMPI PUSH2 0x2A4A PUSH2 0x2719 JUMP JUMPDEST JUMPDEST DUP2 CALLDATALOAD PUSH2 0x2A5B DUP5 DUP3 PUSH1 0x20 DUP7 ADD PUSH2 0x29F6 JUMP JUMPDEST SWAP2 POP POP SWAP3 SWAP2 POP POP JUMP JUMPDEST PUSH0 DUP1 PUSH0 DUP1 PUSH1 0x80 DUP6 DUP8 SUB SLT ISZERO PUSH2 0x2A7C JUMPI PUSH2 0x2A7B PUSH2 0x2323 JUMP JUMPDEST JUMPDEST PUSH0 PUSH2 0x2A89 DUP8 DUP3 DUP9 ADD PUSH2 0x2554 JUMP JUMPDEST SWAP5 POP POP PUSH1 0x20 PUSH2 0x2A9A DUP8 DUP3 DUP9 ADD PUSH2 0x2554 JUMP JUMPDEST SWAP4 POP POP PUSH1 0x40 PUSH2 0x2AAB DUP8 DUP3 DUP9 ADD PUSH2 0x24A7 JUMP JUMPDEST SWAP3 POP POP PUSH1 0x60 DUP6 ADD CALLDATALOAD PUSH8 0xFFFFFFFFFFFFFFFF DUP2 GT ISZERO PUSH2 0x2ACC JUMPI PUSH2 0x2ACB PUSH2 0x2327 JUMP JUMPDEST JUMPDEST PUSH2 0x2AD8 DUP8 DUP3 DUP9 ADD PUSH2 0x2A37 JUMP JUMPDEST SWAP2 POP POP SWAP3 SWAP6 SWAP2 SWAP5 POP SWAP3 POP JUMP JUMPDEST PUSH0 DUP1 PUSH1 0x40 DUP4 DUP6 SUB SLT ISZERO PUSH2 0x2AFA JUMPI PUSH2 0x2AF9 PUSH2 0x2323 JUMP JUMPDEST JUMPDEST PUSH0 PUSH2 0x2B07 DUP6 DUP3 DUP7 ADD PUSH2 0x2554 JUMP JUMPDEST SWAP3 POP POP PUSH1 0x20 PUSH2 0x2B18 DUP6 DUP3 DUP7 ADD PUSH2 0x2554 JUMP JUMPDEST SWAP2 POP POP SWAP3 POP SWAP3 SWAP1 POP JUMP JUMPDEST PUSH0 DUP1 PUSH1 0x40 DUP4 DUP6 SUB SLT ISZERO PUSH2 0x2B38 JUMPI PUSH2 0x2B37 PUSH2 0x2323 JUMP JUMPDEST JUMPDEST PUSH0 PUSH2 0x2B45 DUP6 DUP3 DUP7 ADD PUSH2 0x2554 JUMP JUMPDEST SWAP3 POP POP PUSH1 0x20 DUP4 ADD CALLDATALOAD PUSH8 0xFFFFFFFFFFFFFFFF DUP2 GT ISZERO PUSH2 0x2B66 JUMPI PUSH2 0x2B65 PUSH2 0x2327 JUMP JUMPDEST JUMPDEST PUSH2 0x2B72 DUP6 DUP3 DUP7 ADD PUSH2 0x2818 JUMP JUMPDEST SWAP2 POP POP SWAP3 POP SWAP3 SWAP1 POP JUMP JUMPDEST PUSH32 0x4E487B7100000000000000000000000000000000000000000000000000000000 PUSH0 MSTORE PUSH1 0x22 PUSH1 0x4 MSTORE PUSH1 0x24 PUSH0 REVERT JUMPDEST PUSH0 PUSH1 0x2 DUP3 DIV SWAP1 POP PUSH1 0x1 DUP3 AND DUP1 PUSH2 0x2BC0 JUMPI PUSH1 0x7F DUP3 AND SWAP2 POP JUMPDEST PUSH1 0x20 DUP3 LT DUP2 SUB PUSH2 0x2BD3 JUMPI PUSH2 0x2BD2 PUSH2 0x2B7C JUMP JUMPDEST JUMPDEST POP SWAP2 SWAP1 POP JUMP JUMPDEST PUSH0 PUSH1 0x60 DUP3 ADD SWAP1 POP PUSH2 0x2BEC PUSH0 DUP4 ADD DUP7 PUSH2 0x2516 JUMP JUMPDEST PUSH2 0x2BF9 PUSH1 0x20 DUP4 ADD DUP6 PUSH2 0x28CA JUMP JUMPDEST PUSH2 0x2C06 PUSH1 0x40 DUP4 ADD DUP5 PUSH2 0x2516 JUMP JUMPDEST SWAP5 SWAP4 POP POP POP POP JUMP JUMPDEST PUSH32 0x43616C6C6572206973206E6F74206F776E6572206E6F7220617070726F766564 PUSH0 DUP3 ADD MSTORE POP JUMP JUMPDEST PUSH0 PUSH2 0x2C42 PUSH1 0x20 DUP4 PUSH2 0x23E8 JUMP JUMPDEST SWAP2 POP PUSH2 0x2C4D DUP3 PUSH2 0x2C0E JUMP JUMPDEST PUSH1 0x20 DUP3 ADD SWAP1 POP SWAP2 SWAP1 POP JUMP JUMPDEST PUSH0 PUSH1 0x20 DUP3 ADD SWAP1 POP DUP2 DUP2 SUB PUSH0 DUP4 ADD MSTORE PUSH2 0x2C6F DUP2 PUSH2 0x2C36 JUMP JUMPDEST SWAP1 POP SWAP2 SWAP1 POP JUMP JUMPDEST PUSH32 0x496E76616C696420616464726573730000000000000000000000000000000000 PUSH0 DUP3 ADD MSTORE POP JUMP JUMPDEST PUSH0 PUSH2 0x2CAA PUSH1 0xF DUP4 PUSH2 0x23E8 JUMP JUMPDEST SWAP2 POP PUSH2 0x2CB5 DUP3 PUSH2 0x2C76 JUMP JUMPDEST PUSH1 0x20 DUP3 ADD SWAP1 POP SWAP2 SWAP1 POP JUMP JUMPDEST PUSH0 PUSH1 0x20 DUP3 ADD SWAP1 POP DUP2 DUP2 SUB PUSH0 DUP4 ADD MSTORE PUSH2 0x2CD7 DUP2 PUSH2 0x2C9E JUMP JUMPDEST SWAP1 POP SWAP2 SWAP1 POP JUMP JUMPDEST PUSH0 DUP2 SWAP1 POP SWAP3 SWAP2 POP POP JUMP JUMPDEST PUSH32 0x46726F6D3A200000000000000000000000000000000000000000000000000000 PUSH0 DUP3 ADD MSTORE POP JUMP JUMPDEST PUSH0 PUSH2 0x2D1C PUSH1 0x6 DUP4 PUSH2 0x2CDE JUMP JUMPDEST SWAP2 POP PUSH2 0x2D27 DUP3 PUSH2 0x2CE8 JUMP JUMPDEST PUSH1 0x6 DUP3 ADD SWAP1 POP SWAP2 SWAP1 POP JUMP JUMPDEST PUSH0 PUSH2 0x2D3C DUP3 PUSH2 0x23DE JUMP JUMPDEST PUSH2 0x2D46 DUP2 DUP6 PUSH2 0x2CDE JUMP JUMPDEST SWAP4 POP PUSH2 0x2D56 DUP2 DUP6 PUSH1 0x20 DUP7 ADD PUSH2 0x23F8 JUMP JUMPDEST DUP1 DUP5 ADD SWAP2 POP POP SWAP3 SWAP2 POP POP JUMP JUMPDEST PUSH32 0x2C20546F3A200000000000000000000000000000000000000000000000000000 PUSH0 DUP3 ADD MSTORE POP JUMP JUMPDEST PUSH0 PUSH2 0x2D96 PUSH1 0x6 DUP4 PUSH2 0x2CDE JUMP JUMPDEST SWAP2 POP PUSH2 0x2DA1 DUP3 PUSH2 0x2D62 JUMP JUMPDEST PUSH1 0x6 DUP3 ADD SWAP1 POP SWAP2 SWAP1 POP JUMP JUMPDEST PUSH32 0x2C204576656E743A200000000000000000000000000000000000000000000000 PUSH0 DUP3 ADD MSTORE POP JUMP JUMPDEST PUSH0 PUSH2 0x2DE0 PUSH1 0x9 DUP4 PUSH2 0x2CDE JUMP JUMPDEST SWAP2 POP PUSH2 0x2DEB DUP3 PUSH2 0x2DAC JUMP JUMPDEST PUSH1 0x9 DUP3 ADD SWAP1 POP SWAP2 SWAP1 POP JUMP JUMPDEST PUSH32 0x2C2054696D657374616D703A2000000000000000000000000000000000000000 PUSH0 DUP3 ADD MSTORE POP JUMP JUMPDEST PUSH0 PUSH2 0x2E2A PUSH1 0xD DUP4 PUSH2 0x2CDE JUMP JUMPDEST SWAP2 POP PUSH2 0x2E35 DUP3 PUSH2 0x2DF6 JUMP JUMPDEST PUSH1 0xD DUP3 ADD SWAP1 POP SWAP2 SWAP1 POP JUMP JUMPDEST PUSH0 PUSH2 0x2E4A DUP3 PUSH2 0x2D10 JUMP JUMPDEST SWAP2 POP PUSH2 0x2E56 DUP3 DUP8 PUSH2 0x2D32 JUMP JUMPDEST SWAP2 POP PUSH2 0x2E61 DUP3 PUSH2 0x2D8A JUMP JUMPDEST SWAP2 POP PUSH2 0x2E6D DUP3 DUP7 PUSH2 0x2D32 JUMP JUMPDEST SWAP2 POP PUSH2 0x2E78 DUP3 PUSH2 0x2DD4 JUMP JUMPDEST SWAP2 POP PUSH2 0x2E84 DUP3 DUP6 PUSH2 0x2D32 JUMP JUMPDEST SWAP2 POP PUSH2 0x2E8F DUP3 PUSH2 0x2E1E JUMP JUMPDEST SWAP2 POP PUSH2 0x2E9B DUP3 DUP5 PUSH2 0x2D32 JUMP JUMPDEST SWAP2 POP DUP2 SWAP1 POP SWAP6 SWAP5 POP POP POP POP POP JUMP JUMPDEST PUSH0 DUP2 SWAP1 POP DUP2 PUSH0 MSTORE PUSH1 0x20 PUSH0 KECCAK256 SWAP1 POP SWAP2 SWAP1 POP JUMP JUMPDEST PUSH0 PUSH1 0x20 PUSH1 0x1F DUP4 ADD DIV SWAP1 POP SWAP2 SWAP1 POP JUMP JUMPDEST PUSH0 DUP3 DUP3 SHL SWAP1 POP SWAP3 SWAP2 POP POP JUMP JUMPDEST PUSH0 PUSH1 0x8 DUP4 MUL PUSH2 0x2F05 PUSH32 0xFFFFFFFFFFFFFFFFFFFFFFFFFFFFFFFFFFFFFFFFFFFFFFFFFFFFFFFFFFFFFFFF DUP3 PUSH2 0x2ECA JUMP JUMPDEST PUSH2 0x2F0F DUP7 DUP4 PUSH2 0x2ECA JUMP JUMPDEST SWAP6 POP DUP1 NOT DUP5 AND SWAP4 POP DUP1 DUP7 AND DUP5 OR SWAP3 POP POP POP SWAP4 SWAP3 POP POP POP JUMP JUMPDEST PUSH0 DUP2 SWAP1 POP SWAP2 SWAP1 POP JUMP JUMPDEST PUSH0 PUSH2 0x2F4A PUSH2 0x2F45 PUSH2 0x2F40 DUP5 PUSH2 0x2488 JUMP JUMPDEST PUSH2 0x2F27 JUMP JUMPDEST PUSH2 0x2488 JUMP JUMPDEST SWAP1 POP SWAP2 SWAP1 POP JUMP JUMPDEST PUSH0 DUP2 SWAP1 POP SWAP2 SWAP1 POP JUMP JUMPDEST PUSH2 0x2F63 DUP4 PUSH2 0x2F30 JUMP JUMPDEST PUSH2 0x2F77 PUSH2 0x2F6F DUP3 PUSH2 0x2F51 JUMP JUMPDEST DUP5 DUP5 SLOAD PUSH2 0x2ED6 JUMP JUMPDEST DUP3 SSTORE POP POP POP POP JUMP JUMPDEST PUSH0 SWAP1 JUMP JUMPDEST PUSH2 0x2F8B PUSH2 0x2F7F JUMP JUMPDEST PUSH2 0x2F96 DUP2 DUP5 DUP5 PUSH2 0x2F5A JUMP JUMPDEST POP POP POP JUMP JUMPDEST JUMPDEST DUP2 DUP2 LT ISZERO PUSH2 0x2FB9 JUMPI PUSH2 0x2FAE PUSH0 DUP3 PUSH2 0x2F83 JUMP JUMPDEST PUSH1 0x1 DUP2 ADD SWAP1 POP PUSH2 0x2F9C JUMP JUMPDEST POP POP JUMP JUMPDEST PUSH1 0x1F DUP3 GT ISZERO PUSH2 0x2FFE JUMPI PUSH2 0x2FCF DUP2 PUSH2 0x2EA9 JUMP JUMPDEST PUSH2 0x2FD8 DUP5 PUSH2 0x2EBB JUMP JUMPDEST DUP2 ADD PUSH1 0x20 DUP6 LT ISZERO PUSH2 0x2FE7 JUMPI DUP2 SWAP1 POP JUMPDEST PUSH2 0x2FFB PUSH2 0x2FF3 DUP6 PUSH2 0x2EBB JUMP JUMPDEST DUP4 ADD DUP3 PUSH2 0x2F9B JUMP JUMPDEST POP POP JUMPDEST POP POP POP JUMP JUMPDEST PUSH0 DUP3 DUP3 SHR SWAP1 POP SWAP3 SWAP2 POP POP JUMP JUMPDEST PUSH0 PUSH2 0x301E PUSH0 NOT DUP5 PUSH1 0x8 MUL PUSH2 0x3003 JUMP JUMPDEST NOT DUP1 DUP4 AND SWAP2 POP POP SWAP3 SWAP2 POP POP JUMP JUMPDEST PUSH0 PUSH2 0x3036 DUP4 DUP4 PUSH2 0x300F JUMP JUMPDEST SWAP2 POP DUP3 PUSH1 0x2 MUL DUP3 OR SWAP1 POP SWAP3 SWAP2 POP POP JUMP JUMPDEST PUSH2 0x304F DUP3 PUSH2 0x23DE JUMP JUMPDEST PUSH8 0xFFFFFFFFFFFFFFFF DUP2 GT ISZERO PUSH2 0x3068 JUMPI PUSH2 0x3067 PUSH2 0x2721 JUMP JUMPDEST JUMPDEST PUSH2 0x3072 DUP3 SLOAD PUSH2 0x2BA9 JUMP JUMPDEST PUSH2 0x307D DUP3 DUP3 DUP6 PUSH2 0x2FBD JUMP JUMPDEST PUSH0 PUSH1 0x20 SWAP1 POP PUSH1 0x1F DUP4 GT PUSH1 0x1 DUP2 EQ PUSH2 0x30AE JUMPI PUSH0 DUP5 ISZERO PUSH2 0x309C JUMPI DUP3 DUP8 ADD MLOAD SWAP1 POP JUMPDEST PUSH2 0x30A6 DUP6 DUP3 PUSH2 0x302B JUMP JUMPDEST DUP7 SSTORE POP PUSH2 0x310D JUMP JUMPDEST PUSH1 0x1F NOT DUP5 AND PUSH2 0x30BC DUP7 PUSH2 0x2EA9 JUMP JUMPDEST PUSH0 JUMPDEST DUP3 DUP2 LT ISZERO PUSH2 0x30E3 JUMPI DUP5 DUP10 ADD MLOAD DUP3 SSTORE PUSH1 0x1 DUP3 ADD SWAP2 POP PUSH1 0x20 DUP6 ADD SWAP5 POP PUSH1 0x20 DUP2 ADD SWAP1 POP PUSH2 0x30BE JUMP JUMPDEST DUP7 DUP4 LT ISZERO PUSH2 0x3100 JUMPI DUP5 DUP10 ADD MLOAD PUSH2 0x30FC PUSH1 0x1F DUP10 AND DUP3 PUSH2 0x300F JUMP JUMPDEST DUP4 SSTORE POP JUMPDEST PUSH1 0x1 PUSH1 0x2 DUP9 MUL ADD DUP9 SSTORE POP POP POP JUMPDEST POP POP POP POP POP POP JUMP JUMPDEST PUSH0 PUSH1 0x40 DUP3 ADD SWAP1 POP DUP2 DUP2 SUB PUSH0 DUP4 ADD MSTORE PUSH2 0x312D DUP2 DUP6 PUSH2 0x2430 JUMP JUMPDEST SWAP1 POP PUSH2 0x313C PUSH1 0x20 DUP4 ADD DUP5 PUSH2 0x28CA JUMP JUMPDEST SWAP4 SWAP3 POP POP POP JUMP JUMPDEST PUSH0 PUSH2 0x314E DUP3 DUP6 PUSH2 0x2D32 JUMP JUMPDEST SWAP2 POP PUSH2 0x315A DUP3 DUP5 PUSH2 0x2D32 JUMP JUMPDEST SWAP2 POP DUP2 SWAP1 POP SWAP4 SWAP3 POP POP POP JUMP JUMPDEST PUSH32 0x4D696E7465640000000000000000000000000000000000000000000000000000 PUSH0 DUP3 ADD MSTORE POP JUMP JUMPDEST PUSH0 PUSH2 0x319A PUSH1 0x6 DUP4 PUSH2 0x23E8 JUMP JUMPDEST SWAP2 POP PUSH2 0x31A5 DUP3 PUSH2 0x3166 JUMP JUMPDEST PUSH1 0x20 DUP3 ADD SWAP1 POP SWAP2 SWAP1 POP JUMP JUMPDEST PUSH0 PUSH1 0x40 DUP3 ADD SWAP1 POP DUP2 DUP2 SUB PUSH0 DUP4 ADD MSTORE PUSH2 0x31C7 DUP2 PUSH2 0x318E JUMP JUMPDEST SWAP1 POP PUSH2 0x31D6 PUSH1 0x20 DUP4 ADD DUP5 PUSH2 0x28CA JUMP JUMPDEST SWAP3 SWAP2 POP POP JUMP JUMPDEST PUSH32 0x4E487B7100000000000000000000000000000000000000000000000000000000 PUSH0 MSTORE PUSH1 0x32 PUSH1 0x4 MSTORE PUSH1 0x24 PUSH0 REVERT JUMPDEST PUSH32 0x4E487B7100000000000000000000000000000000000000000000000000000000 PUSH0 MSTORE PUSH1 0x11 PUSH1 0x4 MSTORE PUSH1 0x24 PUSH0 REVERT JUMPDEST PUSH0 PUSH2 0x3240 DUP3 PUSH2 0x2488 JUMP JUMPDEST SWAP2 POP PUSH2 0x324B DUP4 PUSH2 0x2488 JUMP JUMPDEST SWAP3 POP DUP3 DUP3 ADD SWAP1 POP DUP1 DUP3 GT ISZERO PUSH2 0x3263 JUMPI PUSH2 0x3262 PUSH2 0x3209 JUMP JUMPDEST JUMPDEST SWAP3 SWAP2 POP POP JUMP JUMPDEST PUSH0 PUSH2 0x3273 DUP3 PUSH2 0x2488 JUMP JUMPDEST SWAP2 POP PUSH2 0x327E DUP4 PUSH2 0x2488 JUMP JUMPDEST SWAP3 POP DUP3 DUP3 MUL PUSH2 0x328C DUP2 PUSH2 0x2488 JUMP JUMPDEST SWAP2 POP DUP3 DUP3 DIV DUP5 EQ DUP4 ISZERO OR PUSH2 0x32A3 JUMPI PUSH2 0x32A2 PUSH2 0x3209 JUMP JUMPDEST JUMPDEST POP SWAP3 SWAP2 POP POP JUMP JUMPDEST PUSH0 PUSH2 0x32B4 DUP3 PUSH2 0x2488 JUMP JUMPDEST SWAP2 POP PUSH32 0xFFFFFFFFFFFFFFFFFFFFFFFFFFFFFFFFFFFFFFFFFFFFFFFFFFFFFFFFFFFFFFFF DUP3 SUB PUSH2 0x32E6 JUMPI PUSH2 0x32E5 PUSH2 0x3209 JUMP JUMPDEST JUMPDEST PUSH1 0x1 DUP3 ADD SWAP1 POP SWAP2 SWAP1 POP JUMP JUMPDEST PUSH32 0x4E487B7100000000000000000000000000000000000000000000000000000000 PUSH0 MSTORE PUSH1 0x12 PUSH1 0x4 MSTORE PUSH1 0x24 PUSH0 REVERT JUMPDEST PUSH0 PUSH2 0x3328 DUP3 PUSH2 0x2488 JUMP JUMPDEST SWAP2 POP PUSH2 0x3333 DUP4 PUSH2 0x2488 JUMP JUMPDEST SWAP3 POP DUP3 PUSH2 0x3343 JUMPI PUSH2 0x3342 PUSH2 0x32F1 JUMP JUMPDEST JUMPDEST DUP3 DUP3 DIV SWAP1 POP SWAP3 SWAP2 POP POP JUMP JUMPDEST PUSH0 PUSH2 0x3358 DUP3 PUSH2 0x2488 JUMP JUMPDEST SWAP2 POP PUSH2 0x3363 DUP4 PUSH2 0x2488 JUMP JUMPDEST SWAP3 POP DUP3 DUP3 SUB SWAP1 POP DUP2 DUP2 GT ISZERO PUSH2 0x337B JUMPI PUSH2 0x337A PUSH2 0x3209 JUMP JUMPDEST JUMPDEST SWAP3 SWAP2 POP POP JUMP JUMPDEST PUSH0 PUSH2 0x338B DUP3 PUSH2 0x2488 JUMP JUMPDEST SWAP2 POP PUSH2 0x3396 DUP4 PUSH2 0x2488 JUMP JUMPDEST SWAP3 POP DUP3 PUSH2 0x33A6 JUMPI PUSH2 0x33A5 PUSH2 0x32F1 JUMP JUMPDEST JUMPDEST DUP3 DUP3 MOD SWAP1 POP SWAP3 SWAP2 POP POP JUMP JUMPDEST PUSH0 DUP2 MLOAD SWAP1 POP SWAP2 SWAP1 POP JUMP JUMPDEST PUSH0 DUP3 DUP3 MSTORE PUSH1 0x20 DUP3 ADD SWAP1 POP SWAP3 SWAP2 POP POP JUMP JUMPDEST PUSH0 PUSH2 0x33D5 DUP3 PUSH2 0x33B1 JUMP JUMPDEST PUSH2 0x33DF DUP2 DUP6 PUSH2 0x33BB JUMP JUMPDEST SWAP4 POP PUSH2 0x33EF DUP2 DUP6 PUSH1 0x20 DUP7 ADD PUSH2 0x23F8 JUMP JUMPDEST PUSH2 0x33F8 DUP2 PUSH2 0x2420 JUMP JUMPDEST DUP5 ADD SWAP2 POP POP SWAP3 SWAP2 POP POP JUMP JUMPDEST PUSH0 PUSH1 0x80 DUP3 ADD SWAP1 POP PUSH2 0x3416 PUSH0 DUP4 ADD DUP8 PUSH2 0x2516 JUMP JUMPDEST PUSH2 0x3423 PUSH1 0x20 DUP4 ADD DUP7 PUSH2 0x2516 JUMP JUMPDEST PUSH2 0x3430 PUSH1 0x40 DUP4 ADD DUP6 PUSH2 0x28CA JUMP JUMPDEST DUP2 DUP2 SUB PUSH1 0x60 DUP4 ADD MSTORE PUSH2 0x3442 DUP2 DUP5 PUSH2 0x33CB JUMP JUMPDEST SWAP1 POP SWAP6 SWAP5 POP POP POP POP POP JUMP JUMPDEST PUSH0 DUP2 MLOAD SWAP1 POP PUSH2 0x345B DUP2 PUSH2 0x2356 JUMP JUMPDEST SWAP3 SWAP2 POP POP JUMP JUMPDEST PUSH0 PUSH1 0x20 DUP3 DUP5 SUB SLT ISZERO PUSH2 0x3476 JUMPI PUSH2 0x3475 PUSH2 0x2323 JUMP JUMPDEST JUMPDEST PUSH0 PUSH2 0x3483 DUP5 DUP3 DUP6 ADD PUSH2 0x344D JUMP JUMPDEST SWAP2 POP POP SWAP3 SWAP2 POP POP JUMP JUMPDEST PUSH0 PUSH1 0x40 DUP3 ADD SWAP1 POP PUSH2 0x349F PUSH0 DUP4 ADD DUP6 PUSH2 0x2516 JUMP JUMPDEST PUSH2 0x34AC PUSH1 0x20 DUP4 ADD DUP5 PUSH2 0x28CA JUMP JUMPDEST SWAP4 SWAP3 POP POP POP JUMP INVALID LOG2 PUSH5 0x6970667358 0x22 SLT KECCAK256 PUSH17 0x4069E472D50DA58226B2CB6C6C0B8C4D51 0xC8 PUSH27 0x650538FE401D6F338CE9A63364736F6C6343000818003300000000 "
		},
		"gasEstimates": {
			"creation": {
				"codeDepositCost": "2709000",
				"executionCost": "infinite",
				"totalCost": "infinite"
			},
			"external": {
				"approve(address,uint256)": "infinite",
				"balanceOf(address)": "infinite",
				"getApproved(uint256)": "infinite",
				"getLifecycleEvents(uint256)": "infinite",
				"isApprovedForAll(address,address)": "infinite",
				"logLifecycleEvent(uint256,address,string)": "infinite",
				"mintNFT(address,string)": "infinite",
				"name()": "infinite",
				"owner()": "2582",
				"ownerOf(uint256)": "infinite",
				"renounceOwnership()": "infinite",
				"safeTransferFrom(address,address,uint256)": "infinite",
				"safeTransferFrom(address,address,uint256,bytes)": "infinite",
				"setApprovalForAll(address,bool)": "infinite",
				"supportsInterface(bytes4)": "881",
				"symbol()": "infinite",
				"tokenURI(uint256)": "infinite",
				"transferFrom(address,address,uint256)": "infinite",
				"transferOwnership(address)": "infinite",
				"updateMetadata(uint256,string)": "infinite"
			},
			"internal": {
				"_addressToString(address)": "infinite",
				"_uintToString(uint256)": "infinite"
			}
		},
		"methodIdentifiers": {
			"approve(address,uint256)": "095ea7b3",
			"balanceOf(address)": "70a08231",
			"getApproved(uint256)": "081812fc",
			"getLifecycleEvents(uint256)": "24a675bb",
			"isApprovedForAll(address,address)": "e985e9c5",
			"logLifecycleEvent(uint256,address,string)": "70d597ec",
			"mintNFT(address,string)": "eacabe14",
			"name()": "06fdde03",
			"owner()": "8da5cb5b",
			"ownerOf(uint256)": "6352211e",
			"renounceOwnership()": "715018a6",
			"safeTransferFrom(address,address,uint256)": "42842e0e",
			"safeTransferFrom(address,address,uint256,bytes)": "b88d4fde",
			"setApprovalForAll(address,bool)": "a22cb465",
			"supportsInterface(bytes4)": "01ffc9a7",
			"symbol()": "95d89b41",
			"tokenURI(uint256)": "c87b56dd",
			"transferFrom(address,address,uint256)": "23b872dd",
			"transferOwnership(address)": "f2fde38b",
			"updateMetadata(uint256,string)": "53c8388e"
		}
	},
	"abi": [
		{
			"inputs": [
				{
					"internalType": "string",
					"name": "name",
					"type": "string"
				},
				{
					"internalType": "string",
					"name": "symbol",
					"type": "string"
				}
			],
			"stateMutability": "nonpayable",
			"type": "constructor"
		},
		{
			"inputs": [
				{
					"internalType": "address",
					"name": "sender",
					"type": "address"
				},
				{
					"internalType": "uint256",
					"name": "tokenId",
					"type": "uint256"
				},
				{
					"internalType": "address",
					"name": "owner",
					"type": "address"
				}
			],
			"name": "ERC721IncorrectOwner",
			"type": "error"
		},
		{
			"inputs": [
				{
					"internalType": "address",
					"name": "operator",
					"type": "address"
				},
				{
					"internalType": "uint256",
					"name": "tokenId",
					"type": "uint256"
				}
			],
			"name": "ERC721InsufficientApproval",
			"type": "error"
		},
		{
			"inputs": [
				{
					"internalType": "address",
					"name": "approver",
					"type": "address"
				}
			],
			"name": "ERC721InvalidApprover",
			"type": "error"
		},
		{
			"inputs": [
				{
					"internalType": "address",
					"name": "operator",
					"type": "address"
				}
			],
			"name": "ERC721InvalidOperator",
			"type": "error"
		},
		{
			"inputs": [
				{
					"internalType": "address",
					"name": "owner",
					"type": "address"
				}
			],
			"name": "ERC721InvalidOwner",
			"type": "error"
		},
		{
			"inputs": [
				{
					"internalType": "address",
					"name": "receiver",
					"type": "address"
				}
			],
			"name": "ERC721InvalidReceiver",
			"type": "error"
		},
		{
			"inputs": [
				{
					"internalType": "address",
					"name": "sender",
					"type": "address"
				}
			],
			"name": "ERC721InvalidSender",
			"type": "error"
		},
		{
			"inputs": [
				{
					"internalType": "uint256",
					"name": "tokenId",
					"type": "uint256"
				}
			],
			"name": "ERC721NonexistentToken",
			"type": "error"
		},
		{
			"inputs": [
				{
					"internalType": "address",
					"name": "owner",
					"type": "address"
				}
			],
			"name": "OwnableInvalidOwner",
			"type": "error"
		},
		{
			"inputs": [
				{
					"internalType": "address",
					"name": "account",
					"type": "address"
				}
			],
			"name": "OwnableUnauthorizedAccount",
			"type": "error"
		},
		{
			"anonymous": false,
			"inputs": [
				{
					"indexed": true,
					"internalType": "address",
					"name": "owner",
					"type": "address"
				},
				{
					"indexed": true,
					"internalType": "address",
					"name": "approved",
					"type": "address"
				},
				{
					"indexed": true,
					"internalType": "uint256",
					"name": "tokenId",
					"type": "uint256"
				}
			],
			"name": "Approval",
			"type": "event"
		},
		{
			"anonymous": false,
			"inputs": [
				{
					"indexed": true,
					"internalType": "address",
					"name": "owner",
					"type": "address"
				},
				{
					"indexed": true,
					"internalType": "address",
					"name": "operator",
					"type": "address"
				},
				{
					"indexed": false,
					"internalType": "bool",
					"name": "approved",
					"type": "bool"
				}
			],
			"name": "ApprovalForAll",
			"type": "event"
		},
		{
			"anonymous": false,
			"inputs": [
				{
					"indexed": false,
					"internalType": "uint256",
					"name": "_fromTokenId",
					"type": "uint256"
				},
				{
					"indexed": false,
					"internalType": "uint256",
					"name": "_toTokenId",
					"type": "uint256"
				}
			],
			"name": "BatchMetadataUpdate",
			"type": "event"
		},
		{
			"anonymous": false,
			"inputs": [
				{
					"indexed": true,
					"internalType": "uint256",
					"name": "tokenId",
					"type": "uint256"
				},
				{
					"indexed": true,
					"internalType": "address",
					"name": "from",
					"type": "address"
				},
				{
					"indexed": true,
					"internalType": "address",
					"name": "to",
					"type": "address"
				},
				{
					"indexed": false,
					"internalType": "string",
					"name": "eventType",
					"type": "string"
				},
				{
					"indexed": false,
					"internalType": "uint256",
					"name": "timestamp",
					"type": "uint256"
				}
			],
			"name": "LifecycleEvent",
			"type": "event"
		},
		{
			"anonymous": false,
			"inputs": [
				{
					"indexed": false,
					"internalType": "uint256",
					"name": "_tokenId",
					"type": "uint256"
				}
			],
			"name": "MetadataUpdate",
			"type": "event"
		},
		{
			"anonymous": false,
			"inputs": [
				{
					"indexed": true,
					"internalType": "uint256",
					"name": "tokenId",
					"type": "uint256"
				},
				{
					"indexed": false,
					"internalType": "string",
					"name": "newMetadataURI",
					"type": "string"
				}
			],
			"name": "MetadataUpdated",
			"type": "event"
		},
		{
			"anonymous": false,
			"inputs": [
				{
					"indexed": true,
					"internalType": "address",
					"name": "previousOwner",
					"type": "address"
				},
				{
					"indexed": true,
					"internalType": "address",
					"name": "newOwner",
					"type": "address"
				}
			],
			"name": "OwnershipTransferred",
			"type": "event"
		},
		{
			"anonymous": false,
			"inputs": [
				{
					"indexed": true,
					"internalType": "address",
					"name": "from",
					"type": "address"
				},
				{
					"indexed": true,
					"internalType": "address",
					"name": "to",
					"type": "address"
				},
				{
					"indexed": true,
					"internalType": "uint256",
					"name": "tokenId",
					"type": "uint256"
				}
			],
			"name": "Transfer",
			"type": "event"
		},
		{
			"inputs": [
				{
					"internalType": "address",
					"name": "to",
					"type": "address"
				},
				{
					"internalType": "uint256",
					"name": "tokenId",
					"type": "uint256"
				}
			],
			"name": "approve",
			"outputs": [],
			"stateMutability": "nonpayable",
			"type": "function"
		},
		{
			"inputs": [
				{
					"internalType": "address",
					"name": "owner",
					"type": "address"
				}
			],
			"name": "balanceOf",
			"outputs": [
				{
					"internalType": "uint256",
					"name": "",
					"type": "uint256"
				}
			],
			"stateMutability": "view",
			"type": "function"
		},
		{
			"inputs": [
				{
					"internalType": "uint256",
					"name": "tokenId",
					"type": "uint256"
				}
			],
			"name": "getApproved",
			"outputs": [
				{
					"internalType": "address",
					"name": "",
					"type": "address"
				}
			],
			"stateMutability": "view",
			"type": "function"
		},
		{
			"inputs": [
				{
					"internalType": "uint256",
					"name": "tokenId",
					"type": "uint256"
				}
			],
			"name": "getLifecycleEvents",
			"outputs": [
				{
					"internalType": "string[]",
					"name": "",
					"type": "string[]"
				}
			],
			"stateMutability": "view",
			"type": "function"
		},
		{
			"inputs": [
				{
					"internalType": "address",
					"name": "owner",
					"type": "address"
				},
				{
					"internalType": "address",
					"name": "operator",
					"type": "address"
				}
			],
			"name": "isApprovedForAll",
			"outputs": [
				{
					"internalType": "bool",
					"name": "",
					"type": "bool"
				}
			],
			"stateMutability": "view",
			"type": "function"
		},
		{
			"inputs": [
				{
					"internalType": "uint256",
					"name": "tokenId",
					"type": "uint256"
				},
				{
					"internalType": "address",
					"name": "to",
					"type": "address"
				},
				{
					"internalType": "string",
					"name": "eventType",
					"type": "string"
				}
			],
			"name": "logLifecycleEvent",
			"outputs": [],
			"stateMutability": "nonpayable",
			"type": "function"
		},
		{
			"inputs": [
				{
					"internalType": "address",
					"name": "to",
					"type": "address"
				},
				{
					"internalType": "string",
					"name": "metadataURI",
					"type": "string"
				}
			],
			"name": "mintNFT",
			"outputs": [
				{
					"internalType": "uint256",
					"name": "",
					"type": "uint256"
				}
			],
			"stateMutability": "nonpayable",
			"type": "function"
		},
		{
			"inputs": [],
			"name": "name",
			"outputs": [
				{
					"internalType": "string",
					"name": "",
					"type": "string"
				}
			],
			"stateMutability": "view",
			"type": "function"
		},
		{
			"inputs": [],
			"name": "owner",
			"outputs": [
				{
					"internalType": "address",
					"name": "",
					"type": "address"
				}
			],
			"stateMutability": "view",
			"type": "function"
		},
		{
			"inputs": [
				{
					"internalType": "uint256",
					"name": "tokenId",
					"type": "uint256"
				}
			],
			"name": "ownerOf",
			"outputs": [
				{
					"internalType": "address",
					"name": "",
					"type": "address"
				}
			],
			"stateMutability": "view",
			"type": "function"
		},
		{
			"inputs": [],
			"name": "renounceOwnership",
			"outputs": [],
			"stateMutability": "nonpayable",
			"type": "function"
		},
		{
			"inputs": [
				{
					"internalType": "address",
					"name": "from",
					"type": "address"
				},
				{
					"internalType": "address",
					"name": "to",
					"type": "address"
				},
				{
					"internalType": "uint256",
					"name": "tokenId",
					"type": "uint256"
				}
			],
			"name": "safeTransferFrom",
			"outputs": [],
			"stateMutability": "nonpayable",
			"type": "function"
		},
		{
			"inputs": [
				{
					"internalType": "address",
					"name": "from",
					"type": "address"
				},
				{
					"internalType": "address",
					"name": "to",
					"type": "address"
				},
				{
					"internalType": "uint256",
					"name": "tokenId",
					"type": "uint256"
				},
				{
					"internalType": "bytes",
					"name": "data",
					"type": "bytes"
				}
			],
			"name": "safeTransferFrom",
			"outputs": [],
			"stateMutability": "nonpayable",
			"type": "function"
		},
		{
			"inputs": [
				{
					"internalType": "address",
					"name": "operator",
					"type": "address"
				},
				{
					"internalType": "bool",
					"name": "approved",
					"type": "bool"
				}
			],
			"name": "setApprovalForAll",
			"outputs": [],
			"stateMutability": "nonpayable",
			"type": "function"
		},
		{
			"inputs": [
				{
					"internalType": "bytes4",
					"name": "interfaceId",
					"type": "bytes4"
				}
			],
			"name": "supportsInterface",
			"outputs": [
				{
					"internalType": "bool",
					"name": "",
					"type": "bool"
				}
			],
			"stateMutability": "view",
			"type": "function"
		},
		{
			"inputs": [],
			"name": "symbol",
			"outputs": [
				{
					"internalType": "string",
					"name": "",
					"type": "string"
				}
			],
			"stateMutability": "view",
			"type": "function"
		},
		{
			"inputs": [
				{
					"internalType": "uint256",
					"name": "tokenId",
					"type": "uint256"
				}
			],
			"name": "tokenURI",
			"outputs": [
				{
					"internalType": "string",
					"name": "",
					"type": "string"
				}
			],
			"stateMutability": "view",
			"type": "function"
		},
		{
			"inputs": [
				{
					"internalType": "address",
					"name": "from",
					"type": "address"
				},
				{
					"internalType": "address",
					"name": "to",
					"type": "address"
				},
				{
					"internalType": "uint256",
					"name": "tokenId",
					"type": "uint256"
				}
			],
			"name": "transferFrom",
			"outputs": [],
			"stateMutability": "nonpayable",
			"type": "function"
		},
		{
			"inputs": [
				{
					"internalType": "address",
					"name": "newOwner",
					"type": "address"
				}
			],
			"name": "transferOwnership",
			"outputs": [],
			"stateMutability": "nonpayable",
			"type": "function"
		},
		{
			"inputs": [
				{
					"internalType": "uint256",
					"name": "tokenId",
					"type": "uint256"
				},
				{
					"internalType": "string",
					"name": "newMetadataURI",
					"type": "string"
				}
			],
			"name": "updateMetadata",
			"outputs": [],
			"stateMutability": "nonpayable",
			"type": "function"
		}
	]
}