{
	"data": {
		"bytecode": {
			"linkReferences": {},
			"object": "608060405262000014620001ae60201b60201c565b60ff16600a62000025919062000815565b620f424062000035919062000865565b60065534801562000044575f80fd5b506040516200213f3803806200213f83398181016040528101906200006a919062000914565b806040518060400160405280601381526020017f5375737461696e6162696c697479546f6b656e000000000000000000000000008152506040518060400160405280600381526020017f53555300000000000000000000000000000000000000000000000000000000008152508160039081620000e8919062000b9f565b508060049081620000fa919062000b9f565b5050505f73ffffffffffffffffffffffffffffffffffffffff168173ffffffffffffffffffffffffffffffffffffffff160362000170575f6040517f1e4fbdf700000000000000000000000000000000000000000000000000000000815260040162000167919062000c94565b60405180910390fd5b6200018181620001b660201b60201c565b5062000196816006546200027960201b60201c565b620001a7816200030360201b60201c565b5062000d50565b5f6012905090565b5f60055f9054906101000a900473ffffffffffffffffffffffffffffffffffffffff1690508160055f6101000a81548173ffffffffffffffffffffffffffffffffffffffff021916908373ffffffffffffffffffffffffffffffffffffffff1602179055508173ffffffffffffffffffffffffffffffffffffffff168173ffffffffffffffffffffffffffffffffffffffff167f8be0079c531659141344cd1fd0a4f28419497f9722a3daafe3b4186f6b6457e060405160405180910390a35050565b5f73ffffffffffffffffffffffffffffffffffffffff168273ffffffffffffffffffffffffffffffffffffffff1603620002ec575f6040517fec442f05000000000000000000000000000000000000000000000000000000008152600401620002e3919062000c94565b60405180910390fd5b620002ff5f83836200039a60201b60201c565b5050565b62000313620005be60201b60201c565b5f73ffffffffffffffffffffffffffffffffffffffff168173ffffffffffffffffffffffffffffffffffffffff160362000386575f6040517f1e4fbdf70000000000000000000000000000000000000000000000000000000081526004016200037d919062000c94565b60405180910390fd5b6200039781620001b660201b60201c565b50565b5f73ffffffffffffffffffffffffffffffffffffffff168373ffffffffffffffffffffffffffffffffffffffff1603620003ee578060025f828254620003e1919062000caf565b92505081905550620004bf565b5f805f8573ffffffffffffffffffffffffffffffffffffffff1673ffffffffffffffffffffffffffffffffffffffff1681526020019081526020015f20549050818110156200047a578381836040517fe450d38c000000000000000000000000000000000000000000000000000000008152600401620004719392919062000cfa565b60405180910390fd5b8181035f808673ffffffffffffffffffffffffffffffffffffffff1673ffffffffffffffffffffffffffffffffffffffff1681526020019081526020015f2081905550505b5f73ffffffffffffffffffffffffffffffffffffffff168273ffffffffffffffffffffffffffffffffffffffff160362000508578060025f828254039250508190555062000552565b805f808473ffffffffffffffffffffffffffffffffffffffff1673ffffffffffffffffffffffffffffffffffffffff1681526020019081526020015f205f82825401925050819055505b8173ffffffffffffffffffffffffffffffffffffffff168373ffffffffffffffffffffffffffffffffffffffff167fddf252ad1be2c89b69c2b068fc378daa952ba7f163c4a11628f55a4df523b3ef83604051620005b1919062000d35565b60405180910390a3505050565b620005ce6200066060201b60201c565b73ffffffffffffffffffffffffffffffffffffffff16620005f46200066760201b60201c565b73ffffffffffffffffffffffffffffffffffffffff16146200065e57620006206200066060201b60201c565b6040517f118cdaa700000000000000000000000000000000000000000000000000000000815260040162000655919062000c94565b60405180910390fd5b565b5f33905090565b5f60055f9054906101000a900473ffffffffffffffffffffffffffffffffffffffff16905090565b7f4e487b71000000000000000000000000000000000000000000000000000000005f52601160045260245ffd5b5f8160011c9050919050565b5f808291508390505b60018511156200071957808604811115620006f157620006f06200068f565b5b6001851615620007015780820291505b80810290506200071185620006bc565b9450620006d1565b94509492505050565b5f8262000733576001905062000805565b8162000742575f905062000805565b81600181146200075b576002811462000766576200079c565b600191505062000805565b60ff8411156200077b576200077a6200068f565b5b8360020a9150848211156200079557620007946200068f565b5b5062000805565b5060208310610133831016604e8410600b8410161715620007d65782820a905083811115620007d057620007cf6200068f565b5b62000805565b620007e58484846001620006c8565b92509050818404811115620007ff57620007fe6200068f565b5b81810290505b9392505050565b5f819050919050565b5f62000821826200080c565b91506200082e836200080c565b92506200085d7fffffffffffffffffffffffffffffffffffffffffffffffffffffffffffffffff848462000722565b905092915050565b5f62000871826200080c565b91506200087e836200080c565b92508282026200088e816200080c565b91508282048414831517620008a857620008a76200068f565b5b5092915050565b5f80fd5b5f73ffffffffffffffffffffffffffffffffffffffff82169050919050565b5f620008de82620008b3565b9050919050565b620008f081620008d2565b8114620008fb575f80fd5b50565b5f815190506200090e81620008e5565b92915050565b5f602082840312156200092c576200092b620008af565b5b5f6200093b84828501620008fe565b91505092915050565b5f81519050919050565b7f4e487b71000000000000000000000000000000000000000000000000000000005f52604160045260245ffd5b7f4e487b71000000000000000000000000000000000000000000000000000000005f52602260045260245ffd5b5f6002820490506001821680620009c057607f821691505b602082108103620009d657620009d56200097b565b5b50919050565b5f819050815f5260205f209050919050565b5f6020601f8301049050919050565b5f82821b905092915050565b5f6008830262000a3a7fffffffffffffffffffffffffffffffffffffffffffffffffffffffffffffffff82620009fd565b62000a468683620009fd565b95508019841693508086168417925050509392505050565b5f819050919050565b5f62000a8762000a8162000a7b846200080c565b62000a5e565b6200080c565b9050919050565b5f819050919050565b62000aa28362000a67565b62000aba62000ab18262000a8e565b84845462000a09565b825550505050565b5f90565b62000ad062000ac2565b62000add81848462000a97565b505050565b5b8181101562000b045762000af85f8262000ac6565b60018101905062000ae3565b5050565b601f82111562000b535762000b1d81620009dc565b62000b2884620009ee565b8101602085101562000b38578190505b62000b5062000b4785620009ee565b83018262000ae2565b50505b505050565b5f82821c905092915050565b5f62000b755f198460080262000b58565b1980831691505092915050565b5f62000b8f838362000b64565b9150826002028217905092915050565b62000baa8262000944565b67ffffffffffffffff81111562000bc65762000bc56200094e565b5b62000bd28254620009a8565b62000bdf82828562000b08565b5f60209050601f83116001811462000c15575f841562000c00578287015190505b62000c0c858262000b82565b86555062000c7b565b601f19841662000c2586620009dc565b5f5b8281101562000c4e5784890151825560018201915060208501945060208101905062000c27565b8683101562000c6e578489015162000c6a601f89168262000b64565b8355505b6001600288020188555050505b505050505050565b62000c8e81620008d2565b82525050565b5f60208201905062000ca95f83018462000c83565b92915050565b5f62000cbb826200080c565b915062000cc8836200080c565b925082820190508082111562000ce35762000ce26200068f565b5b92915050565b62000cf4816200080c565b82525050565b5f60608201905062000d0f5f83018662000c83565b62000d1e602083018562000ce9565b62000d2d604083018462000ce9565b949350505050565b5f60208201905062000d4a5f83018462000ce9565b92915050565b6113e18062000d5e5f395ff3fe608060405234801561000f575f80fd5b5060043610610109575f3560e01c806370a08231116100a05780639dc29fac1161006f5780639dc29fac146102a7578063a9059cbb146102c3578063dd62ed3e146102f3578063e4e103dc14610323578063f2fde38b1461033f57610109565b806370a0823114610231578063715018a6146102615780638da5cb5b1461026b57806395d89b411461028957610109565b806323b872dd116100dc57806323b872dd146101a9578063313ce567146101d9578063378dc3dc146101f757806340c10f191461021557610109565b806306fdde031461010d5780630700037d1461012b578063095ea7b31461015b57806318160ddd1461018b575b5f80fd5b61011561035b565b604051610122919061105a565b60405180910390f35b610145600480360381019061014091906110d8565b6103eb565b604051610152919061111b565b60405180910390f35b6101756004803603810190610170919061115e565b610400565b60405161018291906111b6565b60405180910390f35b610193610413565b6040516101a0919061111b565b60405180910390f35b6101c360048036038101906101be91906111cf565b61041c565b6040516101d091906111b6565b60405180910390f35b6101e1610431565b6040516101ee919061123a565b60405180910390f35b6101ff610439565b60405161020c919061111b565b60405180910390f35b61022f600480360381019061022a919061115e565b61043f565b005b61024b600480360381019061024691906110d8565b6104a3565b604051610258919061111b565b60405180910390f35b6102696104b4565b005b6102736104c7565b6040516102809190611262565b60405180910390f35b6102916104ef565b60405161029e919061105a565b60405180910390f35b6102c160048036038101906102bc919061115e565b61057f565b005b6102dd60048036038101906102d8919061115e565b610595565b6040516102ea91906111b6565b60405180910390f35b61030d6004803603810190610308919061127b565b6105a8565b60405161031a919061111b565b60405180910390f35b61033d6004803603810190610338919061115e565b61062a565b005b610359600480360381019061035491906110d8565b6106ca565b005b60606003805461036a906112e6565b80601f0160208091040260200160405190810160405280929190818152602001828054610396906112e6565b80156103e15780601f106103b8576101008083540402835291602001916103e1565b820191905f5260205f20905b8154815290600101906020018083116103c457829003601f168201915b5050505050905090565b6007602052805f5260405f205f915090505481565b5f61040b838361074e565b905092915050565b5f600254905090565b5f610428848484610770565b90509392505050565b5f6012905090565b60065481565b61044761079e565b6104518282610825565b8173ffffffffffffffffffffffffffffffffffffffff167f3f2c9d57c068687834f0de942a9babb9e5acab57d516d3480a3c16ee165a427382604051610497919061111b565b60405180910390a25050565b5f6104ad826108a4565b9050919050565b6104bc61079e565b6104c55f6108e9565b565b5f60055f9054906101000a900473ffffffffffffffffffffffffffffffffffffffff16905090565b6060600480546104fe906112e6565b80601f016020809104026020016040519081016040528092919081815260200182805461052a906112e6565b80156105755780601f1061054c57610100808354040283529160200191610575565b820191905f5260205f20905b81548152906001019060200180831161055857829003601f168201915b5050505050905090565b61058761079e565b61059182826109ac565b5050565b5f6105a08383610a2b565b905092915050565b5f60015f8473ffffffffffffffffffffffffffffffffffffffff1673ffffffffffffffffffffffffffffffffffffffff1681526020019081526020015f205f8373ffffffffffffffffffffffffffffffffffffffff1673ffffffffffffffffffffffffffffffffffffffff1681526020019081526020015f2054905092915050565b61063261079e565b61063c8282610825565b8060075f8473ffffffffffffffffffffffffffffffffffffffff1673ffffffffffffffffffffffffffffffffffffffff1681526020019081526020015f20546106859190611343565b60075f8473ffffffffffffffffffffffffffffffffffffffff1673ffffffffffffffffffffffffffffffffffffffff1681526020019081526020015f20819055505050565b6106d261079e565b5f73ffffffffffffffffffffffffffffffffffffffff168173ffffffffffffffffffffffffffffffffffffffff1603610742575f6040517f1e4fbdf70000000000000000000000000000000000000000000000000000000081526004016107399190611262565b60405180910390fd5b61074b816108e9565b50565b5f80610758610a4d565b9050610765818585610a54565b600191505092915050565b5f8061077a610a4d565b9050610787858285610a66565b610792858585610af8565b60019150509392505050565b6107a6610a4d565b73ffffffffffffffffffffffffffffffffffffffff166107c46104c7565b73ffffffffffffffffffffffffffffffffffffffff1614610823576107e7610a4d565b6040517f118cdaa700000000000000000000000000000000000000000000000000000000815260040161081a9190611262565b60405180910390fd5b565b5f73ffffffffffffffffffffffffffffffffffffffff168273ffffffffffffffffffffffffffffffffffffffff1603610895575f6040517fec442f0500000000000000000000000000000000000000000000000000000000815260040161088c9190611262565b60405180910390fd5b6108a05f8383610be8565b5050565b5f805f8373ffffffffffffffffffffffffffffffffffffffff1673ffffffffffffffffffffffffffffffffffffffff1681526020019081526020015f20549050919050565b5f60055f9054906101000a900473ffffffffffffffffffffffffffffffffffffffff1690508160055f6101000a81548173ffffffffffffffffffffffffffffffffffffffff021916908373ffffffffffffffffffffffffffffffffffffffff1602179055508173ffffffffffffffffffffffffffffffffffffffff168173ffffffffffffffffffffffffffffffffffffffff167f8be0079c531659141344cd1fd0a4f28419497f9722a3daafe3b4186f6b6457e060405160405180910390a35050565b5f73ffffffffffffffffffffffffffffffffffffffff168273ffffffffffffffffffffffffffffffffffffffff1603610a1c575f6040517f96c6fd1e000000000000000000000000000000000000000000000000000000008152600401610a139190611262565b60405180910390fd5b610a27825f83610be8565b5050565b5f80610a35610a4d565b9050610a42818585610af8565b600191505092915050565b5f33905090565b610a618383836001610e01565b505050565b5f610a7184846105a8565b90507fffffffffffffffffffffffffffffffffffffffffffffffffffffffffffffffff8114610af25781811015610ae3578281836040517ffb8f41b2000000000000000000000000000000000000000000000000000000008152600401610ada93929190611376565b60405180910390fd5b610af184848484035f610e01565b5b50505050565b5f73ffffffffffffffffffffffffffffffffffffffff168373ffffffffffffffffffffffffffffffffffffffff1603610b68575f6040517f96c6fd1e000000000000000000000000000000000000000000000000000000008152600401610b5f9190611262565b60405180910390fd5b5f73ffffffffffffffffffffffffffffffffffffffff168273ffffffffffffffffffffffffffffffffffffffff1603610bd8575f6040517fec442f05000000000000000000000000000000000000000000000000000000008152600401610bcf9190611262565b60405180910390fd5b610be3838383610be8565b505050565b5f73ffffffffffffffffffffffffffffffffffffffff168373ffffffffffffffffffffffffffffffffffffffff1603610c38578060025f828254610c2c9190611343565b92505081905550610d06565b5f805f8573ffffffffffffffffffffffffffffffffffffffff1673ffffffffffffffffffffffffffffffffffffffff1681526020019081526020015f2054905081811015610cc1578381836040517fe450d38c000000000000000000000000000000000000000000000000000000008152600401610cb893929190611376565b60405180910390fd5b8181035f808673ffffffffffffffffffffffffffffffffffffffff1673ffffffffffffffffffffffffffffffffffffffff1681526020019081526020015f2081905550505b5f73ffffffffffffffffffffffffffffffffffffffff168273ffffffffffffffffffffffffffffffffffffffff1603610d4d578060025f8282540392505081905550610d97565b805f808473ffffffffffffffffffffffffffffffffffffffff1673ffffffffffffffffffffffffffffffffffffffff1681526020019081526020015f205f82825401925050819055505b8173ffffffffffffffffffffffffffffffffffffffff168373ffffffffffffffffffffffffffffffffffffffff167fddf252ad1be2c89b69c2b068fc378daa952ba7f163c4a11628f55a4df523b3ef83604051610df4919061111b565b60405180910390a3505050565b5f73ffffffffffffffffffffffffffffffffffffffff168473ffffffffffffffffffffffffffffffffffffffff1603610e71575f6040517fe602df05000000000000000000000000000000000000000000000000000000008152600401610e689190611262565b60405180910390fd5b5f73ffffffffffffffffffffffffffffffffffffffff168373ffffffffffffffffffffffffffffffffffffffff1603610ee1575f6040517f94280d62000000000000000000000000000000000000000000000000000000008152600401610ed89190611262565b60405180910390fd5b8160015f8673ffffffffffffffffffffffffffffffffffffffff1673ffffffffffffffffffffffffffffffffffffffff1681526020019081526020015f205f8573ffffffffffffffffffffffffffffffffffffffff1673ffffffffffffffffffffffffffffffffffffffff1681526020019081526020015f20819055508015610fca578273ffffffffffffffffffffffffffffffffffffffff168473ffffffffffffffffffffffffffffffffffffffff167f8c5be1e5ebec7d5bd14f71427d1e84f3dd0314c0f7b2291e5b200ac8c7c3b92584604051610fc1919061111b565b60405180910390a35b50505050565b5f81519050919050565b5f82825260208201905092915050565b5f5b83811015611007578082015181840152602081019050610fec565b5f8484015250505050565b5f601f19601f8301169050919050565b5f61102c82610fd0565b6110368185610fda565b9350611046818560208601610fea565b61104f81611012565b840191505092915050565b5f6020820190508181035f8301526110728184611022565b905092915050565b5f80fd5b5f73ffffffffffffffffffffffffffffffffffffffff82169050919050565b5f6110a78261107e565b9050919050565b6110b78161109d565b81146110c1575f80fd5b50565b5f813590506110d2816110ae565b92915050565b5f602082840312156110ed576110ec61107a565b5b5f6110fa848285016110c4565b91505092915050565b5f819050919050565b61111581611103565b82525050565b5f60208201905061112e5f83018461110c565b92915050565b61113d81611103565b8114611147575f80fd5b50565b5f8135905061115881611134565b92915050565b5f80604083850312156111745761117361107a565b5b5f611181858286016110c4565b92505060206111928582860161114a565b9150509250929050565b5f8115159050919050565b6111b08161119c565b82525050565b5f6020820190506111c95f8301846111a7565b92915050565b5f805f606084860312156111e6576111e561107a565b5b5f6111f3868287016110c4565b9350506020611204868287016110c4565b92505060406112158682870161114a565b9150509250925092565b5f60ff82169050919050565b6112348161121f565b82525050565b5f60208201905061124d5f83018461122b565b92915050565b61125c8161109d565b82525050565b5f6020820190506112755f830184611253565b92915050565b5f80604083850312156112915761129061107a565b5b5f61129e858286016110c4565b92505060206112af858286016110c4565b9150509250929050565b7f4e487b71000000000000000000000000000000000000000000000000000000005f52602260045260245ffd5b5f60028204905060018216806112fd57607f821691505b6020821081036113105761130f6112b9565b5b50919050565b7f4e487b71000000000000000000000000000000000000000000000000000000005f52601160045260245ffd5b5f61134d82611103565b915061135883611103565b92508282019050808211156113705761136f611316565b5b92915050565b5f6060820190506113895f830186611253565b611396602083018561110c565b6113a3604083018461110c565b94935050505056fea2646970667358221220e607775e84c94630f95198c2b351f27baba26c68422d2b3367cf3d08349b98ae64736f6c63430008180033",
			"opcodes": "PUSH1 0x80 PUSH1 0x40 MSTORE PUSH3 0x14 PUSH3 0x1AE PUSH1 0x20 SHL PUSH1 0x20 SHR JUMP JUMPDEST PUSH1 0xFF AND PUSH1 0xA PUSH3 0x25 SWAP2 SWAP1 PUSH3 0x815 JUMP JUMPDEST PUSH3 0xF4240 PUSH3 0x35 SWAP2 SWAP1 PUSH3 0x865 JUMP JUMPDEST PUSH1 0x6 SSTORE CALLVALUE DUP1 ISZERO PUSH3 0x44 JUMPI PUSH0 DUP1 REVERT JUMPDEST POP PUSH1 0x40 MLOAD PUSH3 0x213F CODESIZE SUB DUP1 PUSH3 0x213F DUP4 CODECOPY DUP2 DUP2 ADD PUSH1 0x40 MSTORE DUP2 ADD SWAP1 PUSH3 0x6A SWAP2 SWAP1 PUSH3 0x914 JUMP JUMPDEST DUP1 PUSH1 0x40 MLOAD DUP1 PUSH1 0x40 ADD PUSH1 0x40 MSTORE DUP1 PUSH1 0x13 DUP2 MSTORE PUSH1 0x20 ADD PUSH32 0x5375737461696E6162696C697479546F6B656E00000000000000000000000000 DUP2 MSTORE POP PUSH1 0x40 MLOAD DUP1 PUSH1 0x40 ADD PUSH1 0x40 MSTORE DUP1 PUSH1 0x3 DUP2 MSTORE PUSH1 0x20 ADD PUSH32 0x5355530000000000000000000000000000000000000000000000000000000000 DUP2 MSTORE POP DUP2 PUSH1 0x3 SWAP1 DUP2 PUSH3 0xE8 SWAP2 SWAP1 PUSH3 0xB9F JUMP JUMPDEST POP DUP1 PUSH1 0x4 SWAP1 DUP2 PUSH3 0xFA SWAP2 SWAP1 PUSH3 0xB9F JUMP JUMPDEST POP POP POP PUSH0 PUSH20 0xFFFFFFFFFFFFFFFFFFFFFFFFFFFFFFFFFFFFFFFF AND DUP2 PUSH20 0xFFFFFFFFFFFFFFFFFFFFFFFFFFFFFFFFFFFFFFFF AND SUB PUSH3 0x170 JUMPI PUSH0 PUSH1 0x40 MLOAD PUSH32 0x1E4FBDF700000000000000000000000000000000000000000000000000000000 DUP2 MSTORE PUSH1 0x4 ADD PUSH3 0x167 SWAP2 SWAP1 PUSH3 0xC94 JUMP JUMPDEST PUSH1 0x40 MLOAD DUP1 SWAP2 SUB SWAP1 REVERT JUMPDEST PUSH3 0x181 DUP2 PUSH3 0x1B6 PUSH1 0x20 SHL PUSH1 0x20 SHR JUMP JUMPDEST POP PUSH3 0x196 DUP2 PUSH1 0x6 SLOAD PUSH3 0x279 PUSH1 0x20 SHL PUSH1 0x20 SHR JUMP JUMPDEST PUSH3 0x1A7 DUP2 PUSH3 0x303 PUSH1 0x20 SHL PUSH1 0x20 SHR JUMP JUMPDEST POP PUSH3 0xD50 JUMP JUMPDEST PUSH0 PUSH1 0x12 SWAP1 POP SWAP1 JUMP JUMPDEST PUSH0 PUSH1 0x5 PUSH0 SWAP1 SLOAD SWAP1 PUSH2 0x100 EXP SWAP1 DIV PUSH20 0xFFFFFFFFFFFFFFFFFFFFFFFFFFFFFFFFFFFFFFFF AND SWAP1 POP DUP2 PUSH1 0x5 PUSH0 PUSH2 0x100 EXP DUP2 SLOAD DUP2 PUSH20 0xFFFFFFFFFFFFFFFFFFFFFFFFFFFFFFFFFFFFFFFF MUL NOT AND SWAP1 DUP4 PUSH20 0xFFFFFFFFFFFFFFFFFFFFFFFFFFFFFFFFFFFFFFFF AND MUL OR SWAP1 SSTORE POP DUP2 PUSH20 0xFFFFFFFFFFFFFFFFFFFFFFFFFFFFFFFFFFFFFFFF AND DUP2 PUSH20 0xFFFFFFFFFFFFFFFFFFFFFFFFFFFFFFFFFFFFFFFF AND PUSH32 0x8BE0079C531659141344CD1FD0A4F28419497F9722A3DAAFE3B4186F6B6457E0 PUSH1 0x40 MLOAD PUSH1 0x40 MLOAD DUP1 SWAP2 SUB SWAP1 LOG3 POP POP JUMP JUMPDEST PUSH0 PUSH20 0xFFFFFFFFFFFFFFFFFFFFFFFFFFFFFFFFFFFFFFFF AND DUP3 PUSH20 0xFFFFFFFFFFFFFFFFFFFFFFFFFFFFFFFFFFFFFFFF AND SUB PUSH3 0x2EC JUMPI PUSH0 PUSH1 0x40 MLOAD PUSH32 0xEC442F0500000000000000000000000000000000000000000000000000000000 DUP2 MSTORE PUSH1 0x4 ADD PUSH3 0x2E3 SWAP2 SWAP1 PUSH3 0xC94 JUMP JUMPDEST PUSH1 0x40 MLOAD DUP1 SWAP2 SUB SWAP1 REVERT JUMPDEST PUSH3 0x2FF PUSH0 DUP4 DUP4 PUSH3 0x39A PUSH1 0x20 SHL PUSH1 0x20 SHR JUMP JUMPDEST POP POP JUMP JUMPDEST PUSH3 0x313 PUSH3 0x5BE PUSH1 0x20 SHL PUSH1 0x20 SHR JUMP JUMPDEST PUSH0 PUSH20 0xFFFFFFFFFFFFFFFFFFFFFFFFFFFFFFFFFFFFFFFF AND DUP2 PUSH20 0xFFFFFFFFFFFFFFFFFFFFFFFFFFFFFFFFFFFFFFFF AND SUB PUSH3 0x386 JUMPI PUSH0 PUSH1 0x40 MLOAD PUSH32 0x1E4FBDF700000000000000000000000000000000000000000000000000000000 DUP2 MSTORE PUSH1 0x4 ADD PUSH3 0x37D SWAP2 SWAP1 PUSH3 0xC94 JUMP JUMPDEST PUSH1 0x40 MLOAD DUP1 SWAP2 SUB SWAP1 REVERT JUMPDEST PUSH3 0x397 DUP2 PUSH3 0x1B6 PUSH1 0x20 SHL PUSH1 0x20 SHR JUMP JUMPDEST POP JUMP JUMPDEST PUSH0 PUSH20 0xFFFFFFFFFFFFFFFFFFFFFFFFFFFFFFFFFFFFFFFF AND DUP4 PUSH20 0xFFFFFFFFFFFFFFFFFFFFFFFFFFFFFFFFFFFFFFFF AND SUB PUSH3 0x3EE JUMPI DUP1 PUSH1 0x2 PUSH0 DUP3 DUP3 SLOAD PUSH3 0x3E1 SWAP2 SWAP1 PUSH3 0xCAF JUMP JUMPDEST SWAP3 POP POP DUP2 SWAP1 SSTORE POP PUSH3 0x4BF JUMP JUMPDEST PUSH0 DUP1 PUSH0 DUP6 PUSH20 0xFFFFFFFFFFFFFFFFFFFFFFFFFFFFFFFFFFFFFFFF AND PUSH20 0xFFFFFFFFFFFFFFFFFFFFFFFFFFFFFFFFFFFFFFFF AND DUP2 MSTORE PUSH1 0x20 ADD SWAP1 DUP2 MSTORE PUSH1 0x20 ADD PUSH0 KECCAK256 SLOAD SWAP1 POP DUP2 DUP2 LT ISZERO PUSH3 0x47A JUMPI DUP4 DUP2 DUP4 PUSH1 0x40 MLOAD PUSH32 0xE450D38C00000000000000000000000000000000000000000000000000000000 DUP2 MSTORE PUSH1 0x4 ADD PUSH3 0x471 SWAP4 SWAP3 SWAP2 SWAP1 PUSH3 0xCFA JUMP JUMPDEST PUSH1 0x40 MLOAD DUP1 SWAP2 SUB SWAP1 REVERT JUMPDEST DUP2 DUP2 SUB PUSH0 DUP1 DUP7 PUSH20 0xFFFFFFFFFFFFFFFFFFFFFFFFFFFFFFFFFFFFFFFF AND PUSH20 0xFFFFFFFFFFFFFFFFFFFFFFFFFFFFFFFFFFFFFFFF AND DUP2 MSTORE PUSH1 0x20 ADD SWAP1 DUP2 MSTORE PUSH1 0x20 ADD PUSH0 KECCAK256 DUP2 SWAP1 SSTORE POP POP JUMPDEST PUSH0 PUSH20 0xFFFFFFFFFFFFFFFFFFFFFFFFFFFFFFFFFFFFFFFF AND DUP3 PUSH20 0xFFFFFFFFFFFFFFFFFFFFFFFFFFFFFFFFFFFFFFFF AND SUB PUSH3 0x508 JUMPI DUP1 PUSH1 0x2 PUSH0 DUP3 DUP3 SLOAD SUB SWAP3 POP POP DUP2 SWAP1 SSTORE POP PUSH3 0x552 JUMP JUMPDEST DUP1 PUSH0 DUP1 DUP5 PUSH20 0xFFFFFFFFFFFFFFFFFFFFFFFFFFFFFFFFFFFFFFFF AND PUSH20 0xFFFFFFFFFFFFFFFFFFFFFFFFFFFFFFFFFFFFFFFF AND DUP2 MSTORE PUSH1 0x20 ADD SWAP1 DUP2 MSTORE PUSH1 0x20 ADD PUSH0 KECCAK256 PUSH0 DUP3 DUP3 SLOAD ADD SWAP3 POP POP DUP2 SWAP1 SSTORE POP JUMPDEST DUP2 PUSH20 0xFFFFFFFFFFFFFFFFFFFFFFFFFFFFFFFFFFFFFFFF AND DUP4 PUSH20 0xFFFFFFFFFFFFFFFFFFFFFFFFFFFFFFFFFFFFFFFF AND PUSH32 0xDDF252AD1BE2C89B69C2B068FC378DAA952BA7F163C4A11628F55A4DF523B3EF DUP4 PUSH1 0x40 MLOAD PUSH3 0x5B1 SWAP2 SWAP1 PUSH3 0xD35 JUMP JUMPDEST PUSH1 0x40 MLOAD DUP1 SWAP2 SUB SWAP1 LOG3 POP POP POP JUMP JUMPDEST PUSH3 0x5CE PUSH3 0x660 PUSH1 0x20 SHL PUSH1 0x20 SHR JUMP JUMPDEST PUSH20 0xFFFFFFFFFFFFFFFFFFFFFFFFFFFFFFFFFFFFFFFF AND PUSH3 0x5F4 PUSH3 0x667 PUSH1 0x20 SHL PUSH1 0x20 SHR JUMP JUMPDEST PUSH20 0xFFFFFFFFFFFFFFFFFFFFFFFFFFFFFFFFFFFFFFFF AND EQ PUSH3 0x65E JUMPI PUSH3 0x620 PUSH3 0x660 PUSH1 0x20 SHL PUSH1 0x20 SHR JUMP JUMPDEST PUSH1 0x40 MLOAD PUSH32 0x118CDAA700000000000000000000000000000000000000000000000000000000 DUP2 MSTORE PUSH1 0x4 ADD PUSH3 0x655 SWAP2 SWAP1 PUSH3 0xC94 JUMP JUMPDEST PUSH1 0x40 MLOAD DUP1 SWAP2 SUB SWAP1 REVERT JUMPDEST JUMP JUMPDEST PUSH0 CALLER SWAP1 POP SWAP1 JUMP JUMPDEST PUSH0 PUSH1 0x5 PUSH0 SWAP1 SLOAD SWAP1 PUSH2 0x100 EXP SWAP1 DIV PUSH20 0xFFFFFFFFFFFFFFFFFFFFFFFFFFFFFFFFFFFFFFFF AND SWAP1 POP SWAP1 JUMP JUMPDEST PUSH32 0x4E487B7100000000000000000000000000000000000000000000000000000000 PUSH0 MSTORE PUSH1 0x11 PUSH1 0x4 MSTORE PUSH1 0x24 PUSH0 REVERT JUMPDEST PUSH0 DUP2 PUSH1 0x1 SHR SWAP1 POP SWAP2 SWAP1 POP JUMP JUMPDEST PUSH0 DUP1 DUP3 SWAP2 POP DUP4 SWAP1 POP JUMPDEST PUSH1 0x1 DUP6 GT ISZERO PUSH3 0x719 JUMPI DUP1 DUP7 DIV DUP2 GT ISZERO PUSH3 0x6F1 JUMPI PUSH3 0x6F0 PUSH3 0x68F JUMP JUMPDEST JUMPDEST PUSH1 0x1 DUP6 AND ISZERO PUSH3 0x701 JUMPI DUP1 DUP3 MUL SWAP2 POP JUMPDEST DUP1 DUP2 MUL SWAP1 POP PUSH3 0x711 DUP6 PUSH3 0x6BC JUMP JUMPDEST SWAP5 POP PUSH3 0x6D1 JUMP JUMPDEST SWAP5 POP SWAP5 SWAP3 POP POP POP JUMP JUMPDEST PUSH0 DUP3 PUSH3 0x733 JUMPI PUSH1 0x1 SWAP1 POP PUSH3 0x805 JUMP JUMPDEST DUP2 PUSH3 0x742 JUMPI PUSH0 SWAP1 POP PUSH3 0x805 JUMP JUMPDEST DUP2 PUSH1 0x1 DUP2 EQ PUSH3 0x75B JUMPI PUSH1 0x2 DUP2 EQ PUSH3 0x766 JUMPI PUSH3 0x79C JUMP JUMPDEST PUSH1 0x1 SWAP2 POP POP PUSH3 0x805 JUMP JUMPDEST PUSH1 0xFF DUP5 GT ISZERO PUSH3 0x77B JUMPI PUSH3 0x77A PUSH3 0x68F JUMP JUMPDEST JUMPDEST DUP4 PUSH1 0x2 EXP SWAP2 POP DUP5 DUP3 GT ISZERO PUSH3 0x795 JUMPI PUSH3 0x794 PUSH3 0x68F JUMP JUMPDEST JUMPDEST POP PUSH3 0x805 JUMP JUMPDEST POP PUSH1 0x20 DUP4 LT PUSH2 0x133 DUP4 LT AND PUSH1 0x4E DUP5 LT PUSH1 0xB DUP5 LT AND OR ISZERO PUSH3 0x7D6 JUMPI DUP3 DUP3 EXP SWAP1 POP DUP4 DUP2 GT ISZERO PUSH3 0x7D0 JUMPI PUSH3 0x7CF PUSH3 0x68F JUMP JUMPDEST JUMPDEST PUSH3 0x805 JUMP JUMPDEST PUSH3 0x7E5 DUP5 DUP5 DUP5 PUSH1 0x1 PUSH3 0x6C8 JUMP JUMPDEST SWAP3 POP SWAP1 POP DUP2 DUP5 DIV DUP2 GT ISZERO PUSH3 0x7FF JUMPI PUSH3 0x7FE PUSH3 0x68F JUMP JUMPDEST JUMPDEST DUP2 DUP2 MUL SWAP1 POP JUMPDEST SWAP4 SWAP3 POP POP POP JUMP JUMPDEST PUSH0 DUP2 SWAP1 POP SWAP2 SWAP1 POP JUMP JUMPDEST PUSH0 PUSH3 0x821 DUP3 PUSH3 0x80C JUMP JUMPDEST SWAP2 POP PUSH3 0x82E DUP4 PUSH3 0x80C JUMP JUMPDEST SWAP3 POP PUSH3 0x85D PUSH32 0xFFFFFFFFFFFFFFFFFFFFFFFFFFFFFFFFFFFFFFFFFFFFFFFFFFFFFFFFFFFFFFFF DUP5 DUP5 PUSH3 0x722 JUMP JUMPDEST SWAP1 POP SWAP3 SWAP2 POP POP JUMP JUMPDEST PUSH0 PUSH3 0x871 DUP3 PUSH3 0x80C JUMP JUMPDEST SWAP2 POP PUSH3 0x87E DUP4 PUSH3 0x80C JUMP JUMPDEST SWAP3 POP DUP3 DUP3 MUL PUSH3 0x88E DUP2 PUSH3 0x80C JUMP JUMPDEST SWAP2 POP DUP3 DUP3 DIV DUP5 EQ DUP4 ISZERO OR PUSH3 0x8A8 JUMPI PUSH3 0x8A7 PUSH3 0x68F JUMP JUMPDEST JUMPDEST POP SWAP3 SWAP2 POP POP JUMP JUMPDEST PUSH0 DUP1 REVERT JUMPDEST PUSH0 PUSH20 0xFFFFFFFFFFFFFFFFFFFFFFFFFFFFFFFFFFFFFFFF DUP3 AND SWAP1 POP SWAP2 SWAP1 POP JUMP JUMPDEST PUSH0 PUSH3 0x8DE DUP3 PUSH3 0x8B3 JUMP JUMPDEST SWAP1 POP SWAP2 SWAP1 POP JUMP JUMPDEST PUSH3 0x8F0 DUP2 PUSH3 0x8D2 JUMP JUMPDEST DUP2 EQ PUSH3 0x8FB JUMPI PUSH0 DUP1 REVERT JUMPDEST POP JUMP JUMPDEST PUSH0 DUP2 MLOAD SWAP1 POP PUSH3 0x90E DUP2 PUSH3 0x8E5 JUMP JUMPDEST SWAP3 SWAP2 POP POP JUMP JUMPDEST PUSH0 PUSH1 0x20 DUP3 DUP5 SUB SLT ISZERO PUSH3 0x92C JUMPI PUSH3 0x92B PUSH3 0x8AF JUMP JUMPDEST JUMPDEST PUSH0 PUSH3 0x93B DUP5 DUP3 DUP6 ADD PUSH3 0x8FE JUMP JUMPDEST SWAP2 POP POP SWAP3 SWAP2 POP POP JUMP JUMPDEST PUSH0 DUP2 MLOAD SWAP1 POP SWAP2 SWAP1 POP JUMP JUMPDEST PUSH32 0x4E487B7100000000000000000000000000000000000000000000000000000000 PUSH0 MSTORE PUSH1 0x41 PUSH1 0x4 MSTORE PUSH1 0x24 PUSH0 REVERT JUMPDEST PUSH32 0x4E487B7100000000000000000000000000000000000000000000000000000000 PUSH0 MSTORE PUSH1 0x22 PUSH1 0x4 MSTORE PUSH1 0x24 PUSH0 REVERT JUMPDEST PUSH0 PUSH1 0x2 DUP3 DIV SWAP1 POP PUSH1 0x1 DUP3 AND DUP1 PUSH3 0x9C0 JUMPI PUSH1 0x7F DUP3 AND SWAP2 POP JUMPDEST PUSH1 0x20 DUP3 LT DUP2 SUB PUSH3 0x9D6 JUMPI PUSH3 0x9D5 PUSH3 0x97B JUMP JUMPDEST JUMPDEST POP SWAP2 SWAP1 POP JUMP JUMPDEST PUSH0 DUP2 SWAP1 POP DUP2 PUSH0 MSTORE PUSH1 0x20 PUSH0 KECCAK256 SWAP1 POP SWAP2 SWAP1 POP JUMP JUMPDEST PUSH0 PUSH1 0x20 PUSH1 0x1F DUP4 ADD DIV SWAP1 POP SWAP2 SWAP1 POP JUMP JUMPDEST PUSH0 DUP3 DUP3 SHL SWAP1 POP SWAP3 SWAP2 POP POP JUMP JUMPDEST PUSH0 PUSH1 0x8 DUP4 MUL PUSH3 0xA3A PUSH32 0xFFFFFFFFFFFFFFFFFFFFFFFFFFFFFFFFFFFFFFFFFFFFFFFFFFFFFFFFFFFFFFFF DUP3 PUSH3 0x9FD JUMP JUMPDEST PUSH3 0xA46 DUP7 DUP4 PUSH3 0x9FD JUMP JUMPDEST SWAP6 POP DUP1 NOT DUP5 AND SWAP4 POP DUP1 DUP7 AND DUP5 OR SWAP3 POP POP POP SWAP4 SWAP3 POP POP POP JUMP JUMPDEST PUSH0 DUP2 SWAP1 POP SWAP2 SWAP1 POP JUMP JUMPDEST PUSH0 PUSH3 0xA87 PUSH3 0xA81 PUSH3 0xA7B DUP5 PUSH3 0x80C JUMP JUMPDEST PUSH3 0xA5E JUMP JUMPDEST PUSH3 0x80C JUMP JUMPDEST SWAP1 POP SWAP2 SWAP1 POP JUMP JUMPDEST PUSH0 DUP2 SWAP1 POP SWAP2 SWAP1 POP JUMP JUMPDEST PUSH3 0xAA2 DUP4 PUSH3 0xA67 JUMP JUMPDEST PUSH3 0xABA PUSH3 0xAB1 DUP3 PUSH3 0xA8E JUMP JUMPDEST DUP5 DUP5 SLOAD PUSH3 0xA09 JUMP JUMPDEST DUP3 SSTORE POP POP POP POP JUMP JUMPDEST PUSH0 SWAP1 JUMP JUMPDEST PUSH3 0xAD0 PUSH3 0xAC2 JUMP JUMPDEST PUSH3 0xADD DUP2 DUP5 DUP5 PUSH3 0xA97 JUMP JUMPDEST POP POP POP JUMP JUMPDEST JUMPDEST DUP2 DUP2 LT ISZERO PUSH3 0xB04 JUMPI PUSH3 0xAF8 PUSH0 DUP3 PUSH3 0xAC6 JUMP JUMPDEST PUSH1 0x1 DUP2 ADD SWAP1 POP PUSH3 0xAE3 JUMP JUMPDEST POP POP JUMP JUMPDEST PUSH1 0x1F DUP3 GT ISZERO PUSH3 0xB53 JUMPI PUSH3 0xB1D DUP2 PUSH3 0x9DC JUMP JUMPDEST PUSH3 0xB28 DUP5 PUSH3 0x9EE JUMP JUMPDEST DUP2 ADD PUSH1 0x20 DUP6 LT ISZERO PUSH3 0xB38 JUMPI DUP2 SWAP1 POP JUMPDEST PUSH3 0xB50 PUSH3 0xB47 DUP6 PUSH3 0x9EE JUMP JUMPDEST DUP4 ADD DUP3 PUSH3 0xAE2 JUMP JUMPDEST POP POP JUMPDEST POP POP POP JUMP JUMPDEST PUSH0 DUP3 DUP3 SHR SWAP1 POP SWAP3 SWAP2 POP POP JUMP JUMPDEST PUSH0 PUSH3 0xB75 PUSH0 NOT DUP5 PUSH1 0x8 MUL PUSH3 0xB58 JUMP JUMPDEST NOT DUP1 DUP4 AND SWAP2 POP POP SWAP3 SWAP2 POP POP JUMP JUMPDEST PUSH0 PUSH3 0xB8F DUP4 DUP4 PUSH3 0xB64 JUMP JUMPDEST SWAP2 POP DUP3 PUSH1 0x2 MUL DUP3 OR SWAP1 POP SWAP3 SWAP2 POP POP JUMP JUMPDEST PUSH3 0xBAA DUP3 PUSH3 0x944 JUMP JUMPDEST PUSH8 0xFFFFFFFFFFFFFFFF DUP2 GT ISZERO PUSH3 0xBC6 JUMPI PUSH3 0xBC5 PUSH3 0x94E JUMP JUMPDEST JUMPDEST PUSH3 0xBD2 DUP3 SLOAD PUSH3 0x9A8 JUMP JUMPDEST PUSH3 0xBDF DUP3 DUP3 DUP6 PUSH3 0xB08 JUMP JUMPDEST PUSH0 PUSH1 0x20 SWAP1 POP PUSH1 0x1F DUP4 GT PUSH1 0x1 DUP2 EQ PUSH3 0xC15 JUMPI PUSH0 DUP5 ISZERO PUSH3 0xC00 JUMPI DUP3 DUP8 ADD MLOAD SWAP1 POP JUMPDEST PUSH3 0xC0C DUP6 DUP3 PUSH3 0xB82 JUMP JUMPDEST DUP7 SSTORE POP PUSH3 0xC7B JUMP JUMPDEST PUSH1 0x1F NOT DUP5 AND PUSH3 0xC25 DUP7 PUSH3 0x9DC JUMP JUMPDEST PUSH0 JUMPDEST DUP3 DUP2 LT ISZERO PUSH3 0xC4E JUMPI DUP5 DUP10 ADD MLOAD DUP3 SSTORE PUSH1 0x1 DUP3 ADD SWAP2 POP PUSH1 0x20 DUP6 ADD SWAP5 POP PUSH1 0x20 DUP2 ADD SWAP1 POP PUSH3 0xC27 JUMP JUMPDEST DUP7 DUP4 LT ISZERO PUSH3 0xC6E JUMPI DUP5 DUP10 ADD MLOAD PUSH3 0xC6A PUSH1 0x1F DUP10 AND DUP3 PUSH3 0xB64 JUMP JUMPDEST DUP4 SSTORE POP JUMPDEST PUSH1 0x1 PUSH1 0x2 DUP9 MUL ADD DUP9 SSTORE POP POP POP JUMPDEST POP POP POP POP POP POP JUMP JUMPDEST PUSH3 0xC8E DUP2 PUSH3 0x8D2 JUMP JUMPDEST DUP3 MSTORE POP POP JUMP JUMPDEST PUSH0 PUSH1 0x20 DUP3 ADD SWAP1 POP PUSH3 0xCA9 PUSH0 DUP4 ADD DUP5 PUSH3 0xC83 JUMP JUMPDEST SWAP3 SWAP2 POP POP JUMP JUMPDEST PUSH0 PUSH3 0xCBB DUP3 PUSH3 0x80C JUMP JUMPDEST SWAP2 POP PUSH3 0xCC8 DUP4 PUSH3 0x80C JUMP JUMPDEST SWAP3 POP DUP3 DUP3 ADD SWAP1 POP DUP1 DUP3 GT ISZERO PUSH3 0xCE3 JUMPI PUSH3 0xCE2 PUSH3 0x68F JUMP JUMPDEST JUMPDEST SWAP3 SWAP2 POP POP JUMP JUMPDEST PUSH3 0xCF4 DUP2 PUSH3 0x80C JUMP JUMPDEST DUP3 MSTORE POP POP JUMP JUMPDEST PUSH0 PUSH1 0x60 DUP3 ADD SWAP1 POP PUSH3 0xD0F PUSH0 DUP4 ADD DUP7 PUSH3 0xC83 JUMP JUMPDEST PUSH3 0xD1E PUSH1 0x20 DUP4 ADD DUP6 PUSH3 0xCE9 JUMP JUMPDEST PUSH3 0xD2D PUSH1 0x40 DUP4 ADD DUP5 PUSH3 0xCE9 JUMP JUMPDEST SWAP5 SWAP4 POP POP POP POP JUMP JUMPDEST PUSH0 PUSH1 0x20 DUP3 ADD SWAP1 POP PUSH3 0xD4A PUSH0 DUP4 ADD DUP5 PUSH3 0xCE9 JUMP JUMPDEST SWAP3 SWAP2 POP POP JUMP JUMPDEST PUSH2 0x13E1 DUP1 PUSH3 0xD5E PUSH0 CODECOPY PUSH0 RETURN INVALID PUSH1 0x80 PUSH1 0x40 MSTORE CALLVALUE DUP1 ISZERO PUSH2 0xF JUMPI PUSH0 DUP1 REVERT JUMPDEST POP PUSH1 0x4 CALLDATASIZE LT PUSH2 0x109 JUMPI PUSH0 CALLDATALOAD PUSH1 0xE0 SHR DUP1 PUSH4 0x70A08231 GT PUSH2 0xA0 JUMPI DUP1 PUSH4 0x9DC29FAC GT PUSH2 0x6F JUMPI DUP1 PUSH4 0x9DC29FAC EQ PUSH2 0x2A7 JUMPI DUP1 PUSH4 0xA9059CBB EQ PUSH2 0x2C3 JUMPI DUP1 PUSH4 0xDD62ED3E EQ PUSH2 0x2F3 JUMPI DUP1 PUSH4 0xE4E103DC EQ PUSH2 0x323 JUMPI DUP1 PUSH4 0xF2FDE38B EQ PUSH2 0x33F JUMPI PUSH2 0x109 JUMP JUMPDEST DUP1 PUSH4 0x70A08231 EQ PUSH2 0x231 JUMPI DUP1 PUSH4 0x715018A6 EQ PUSH2 0x261 JUMPI DUP1 PUSH4 0x8DA5CB5B EQ PUSH2 0x26B JUMPI DUP1 PUSH4 0x95D89B41 EQ PUSH2 0x289 JUMPI PUSH2 0x109 JUMP JUMPDEST DUP1 PUSH4 0x23B872DD GT PUSH2 0xDC JUMPI DUP1 PUSH4 0x23B872DD EQ PUSH2 0x1A9 JUMPI DUP1 PUSH4 0x313CE567 EQ PUSH2 0x1D9 JUMPI DUP1 PUSH4 0x378DC3DC EQ PUSH2 0x1F7 JUMPI DUP1 PUSH4 0x40C10F19 EQ PUSH2 0x215 JUMPI PUSH2 0x109 JUMP JUMPDEST DUP1 PUSH4 0x6FDDE03 EQ PUSH2 0x10D JUMPI DUP1 PUSH4 0x700037D EQ PUSH2 0x12B JUMPI DUP1 PUSH4 0x95EA7B3 EQ PUSH2 0x15B JUMPI DUP1 PUSH4 0x18160DDD EQ PUSH2 0x18B JUMPI JUMPDEST PUSH0 DUP1 REVERT JUMPDEST PUSH2 0x115 PUSH2 0x35B JUMP JUMPDEST PUSH1 0x40 MLOAD PUSH2 0x122 SWAP2 SWAP1 PUSH2 0x105A JUMP JUMPDEST PUSH1 0x40 MLOAD DUP1 SWAP2 SUB SWAP1 RETURN JUMPDEST PUSH2 0x145 PUSH1 0x4 DUP1 CALLDATASIZE SUB DUP2 ADD SWAP1 PUSH2 0x140 SWAP2 SWAP1 PUSH2 0x10D8 JUMP JUMPDEST PUSH2 0x3EB JUMP JUMPDEST PUSH1 0x40 MLOAD PUSH2 0x152 SWAP2 SWAP1 PUSH2 0x111B JUMP JUMPDEST PUSH1 0x40 MLOAD DUP1 SWAP2 SUB SWAP1 RETURN JUMPDEST PUSH2 0x175 PUSH1 0x4 DUP1 CALLDATASIZE SUB DUP2 ADD SWAP1 PUSH2 0x170 SWAP2 SWAP1 PUSH2 0x115E JUMP JUMPDEST PUSH2 0x400 JUMP JUMPDEST PUSH1 0x40 MLOAD PUSH2 0x182 SWAP2 SWAP1 PUSH2 0x11B6 JUMP JUMPDEST PUSH1 0x40 MLOAD DUP1 SWAP2 SUB SWAP1 RETURN JUMPDEST PUSH2 0x193 PUSH2 0x413 JUMP JUMPDEST PUSH1 0x40 MLOAD PUSH2 0x1A0 SWAP2 SWAP1 PUSH2 0x111B JUMP JUMPDEST PUSH1 0x40 MLOAD DUP1 SWAP2 SUB SWAP1 RETURN JUMPDEST PUSH2 0x1C3 PUSH1 0x4 DUP1 CALLDATASIZE SUB DUP2 ADD SWAP1 PUSH2 0x1BE SWAP2 SWAP1 PUSH2 0x11CF JUMP JUMPDEST PUSH2 0x41C JUMP JUMPDEST PUSH1 0x40 MLOAD PUSH2 0x1D0 SWAP2 SWAP1 PUSH2 0x11B6 JUMP JUMPDEST PUSH1 0x40 MLOAD DUP1 SWAP2 SUB SWAP1 RETURN JUMPDEST PUSH2 0x1E1 PUSH2 0x431 JUMP JUMPDEST PUSH1 0x40 MLOAD PUSH2 0x1EE SWAP2 SWAP1 PUSH2 0x123A JUMP JUMPDEST PUSH1 0x40 MLOAD DUP1 SWAP2 SUB SWAP1 RETURN JUMPDEST PUSH2 0x1FF PUSH2 0x439 JUMP JUMPDEST PUSH1 0x40 MLOAD PUSH2 0x20C SWAP2 SWAP1 PUSH2 0x111B JUMP JUMPDEST PUSH1 0x40 MLOAD DUP1 SWAP2 SUB SWAP1 RETURN JUMPDEST PUSH2 0x22F PUSH1 0x4 DUP1 CALLDATASIZE SUB DUP2 ADD SWAP1 PUSH2 0x22A SWAP2 SWAP1 PUSH2 0x115E JUMP JUMPDEST PUSH2 0x43F JUMP JUMPDEST STOP JUMPDEST PUSH2 0x24B PUSH1 0x4 DUP1 CALLDATASIZE SUB DUP2 ADD SWAP1 PUSH2 0x246 SWAP2 SWAP1 PUSH2 0x10D8 JUMP JUMPDEST PUSH2 0x4A3 JUMP JUMPDEST PUSH1 0x40 MLOAD PUSH2 0x258 SWAP2 SWAP1 PUSH2 0x111B JUMP JUMPDEST PUSH1 0x40 MLOAD DUP1 SWAP2 SUB SWAP1 RETURN JUMPDEST PUSH2 0x269 PUSH2 0x4B4 JUMP JUMPDEST STOP JUMPDEST PUSH2 0x273 PUSH2 0x4C7 JUMP JUMPDEST PUSH1 0x40 MLOAD PUSH2 0x280 SWAP2 SWAP1 PUSH2 0x1262 JUMP JUMPDEST PUSH1 0x40 MLOAD DUP1 SWAP2 SUB SWAP1 RETURN JUMPDEST PUSH2 0x291 PUSH2 0x4EF JUMP JUMPDEST PUSH1 0x40 MLOAD PUSH2 0x29E SWAP2 SWAP1 PUSH2 0x105A JUMP JUMPDEST PUSH1 0x40 MLOAD DUP1 SWAP2 SUB SWAP1 RETURN JUMPDEST PUSH2 0x2C1 PUSH1 0x4 DUP1 CALLDATASIZE SUB DUP2 ADD SWAP1 PUSH2 0x2BC SWAP2 SWAP1 PUSH2 0x115E JUMP JUMPDEST PUSH2 0x57F JUMP JUMPDEST STOP JUMPDEST PUSH2 0x2DD PUSH1 0x4 DUP1 CALLDATASIZE SUB DUP2 ADD SWAP1 PUSH2 0x2D8 SWAP2 SWAP1 PUSH2 0x115E JUMP JUMPDEST PUSH2 0x595 JUMP JUMPDEST PUSH1 0x40 MLOAD PUSH2 0x2EA SWAP2 SWAP1 PUSH2 0x11B6 JUMP JUMPDEST PUSH1 0x40 MLOAD DUP1 SWAP2 SUB SWAP1 RETURN JUMPDEST PUSH2 0x30D PUSH1 0x4 DUP1 CALLDATASIZE SUB DUP2 ADD SWAP1 PUSH2 0x308 SWAP2 SWAP1 PUSH2 0x127B JUMP JUMPDEST PUSH2 0x5A8 JUMP JUMPDEST PUSH1 0x40 MLOAD PUSH2 0x31A SWAP2 SWAP1 PUSH2 0x111B JUMP JUMPDEST PUSH1 0x40 MLOAD DUP1 SWAP2 SUB SWAP1 RETURN JUMPDEST PUSH2 0x33D PUSH1 0x4 DUP1 CALLDATASIZE SUB DUP2 ADD SWAP1 PUSH2 0x338 SWAP2 SWAP1 PUSH2 0x115E JUMP JUMPDEST PUSH2 0x62A JUMP JUMPDEST STOP JUMPDEST PUSH2 0x359 PUSH1 0x4 DUP1 CALLDATASIZE SUB DUP2 ADD SWAP1 PUSH2 0x354 SWAP2 SWAP1 PUSH2 0x10D8 JUMP JUMPDEST PUSH2 0x6CA JUMP JUMPDEST STOP JUMPDEST PUSH1 0x60 PUSH1 0x3 DUP1 SLOAD PUSH2 0x36A SWAP1 PUSH2 0x12E6 JUMP JUMPDEST DUP1 PUSH1 0x1F ADD PUSH1 0x20 DUP1 SWAP2 DIV MUL PUSH1 0x20 ADD PUSH1 0x40 MLOAD SWAP1 DUP2 ADD PUSH1 0x40 MSTORE DUP1 SWAP3 SWAP2 SWAP1 DUP2 DUP2 MSTORE PUSH1 0x20 ADD DUP3 DUP1 SLOAD PUSH2 0x396 SWAP1 PUSH2 0x12E6 JUMP JUMPDEST DUP1 ISZERO PUSH2 0x3E1 JUMPI DUP1 PUSH1 0x1F LT PUSH2 0x3B8 JUMPI PUSH2 0x100 DUP1 DUP4 SLOAD DIV MUL DUP4 MSTORE SWAP2 PUSH1 0x20 ADD SWAP2 PUSH2 0x3E1 JUMP JUMPDEST DUP3 ADD SWAP2 SWAP1 PUSH0 MSTORE PUSH1 0x20 PUSH0 KECCAK256 SWAP1 JUMPDEST DUP2 SLOAD DUP2 MSTORE SWAP1 PUSH1 0x1 ADD SWAP1 PUSH1 0x20 ADD DUP1 DUP4 GT PUSH2 0x3C4 JUMPI DUP3 SWAP1 SUB PUSH1 0x1F AND DUP3 ADD SWAP2 JUMPDEST POP POP POP POP POP SWAP1 POP SWAP1 JUMP JUMPDEST PUSH1 0x7 PUSH1 0x20 MSTORE DUP1 PUSH0 MSTORE PUSH1 0x40 PUSH0 KECCAK256 PUSH0 SWAP2 POP SWAP1 POP SLOAD DUP2 JUMP JUMPDEST PUSH0 PUSH2 0x40B DUP4 DUP4 PUSH2 0x74E JUMP JUMPDEST SWAP1 POP SWAP3 SWAP2 POP POP JUMP JUMPDEST PUSH0 PUSH1 0x2 SLOAD SWAP1 POP SWAP1 JUMP JUMPDEST PUSH0 PUSH2 0x428 DUP5 DUP5 DUP5 PUSH2 0x770 JUMP JUMPDEST SWAP1 POP SWAP4 SWAP3 POP POP POP JUMP JUMPDEST PUSH0 PUSH1 0x12 SWAP1 POP SWAP1 JUMP JUMPDEST PUSH1 0x6 SLOAD DUP2 JUMP JUMPDEST PUSH2 0x447 PUSH2 0x79E JUMP JUMPDEST PUSH2 0x451 DUP3 DUP3 PUSH2 0x825 JUMP JUMPDEST DUP2 PUSH20 0xFFFFFFFFFFFFFFFFFFFFFFFFFFFFFFFFFFFFFFFF AND PUSH32 0x3F2C9D57C068687834F0DE942A9BABB9E5ACAB57D516D3480A3C16EE165A4273 DUP3 PUSH1 0x40 MLOAD PUSH2 0x497 SWAP2 SWAP1 PUSH2 0x111B JUMP JUMPDEST PUSH1 0x40 MLOAD DUP1 SWAP2 SUB SWAP1 LOG2 POP POP JUMP JUMPDEST PUSH0 PUSH2 0x4AD DUP3 PUSH2 0x8A4 JUMP JUMPDEST SWAP1 POP SWAP2 SWAP1 POP JUMP JUMPDEST PUSH2 0x4BC PUSH2 0x79E JUMP JUMPDEST PUSH2 0x4C5 PUSH0 PUSH2 0x8E9 JUMP JUMPDEST JUMP JUMPDEST PUSH0 PUSH1 0x5 PUSH0 SWAP1 SLOAD SWAP1 PUSH2 0x100 EXP SWAP1 DIV PUSH20 0xFFFFFFFFFFFFFFFFFFFFFFFFFFFFFFFFFFFFFFFF AND SWAP1 POP SWAP1 JUMP JUMPDEST PUSH1 0x60 PUSH1 0x4 DUP1 SLOAD PUSH2 0x4FE SWAP1 PUSH2 0x12E6 JUMP JUMPDEST DUP1 PUSH1 0x1F ADD PUSH1 0x20 DUP1 SWAP2 DIV MUL PUSH1 0x20 ADD PUSH1 0x40 MLOAD SWAP1 DUP2 ADD PUSH1 0x40 MSTORE DUP1 SWAP3 SWAP2 SWAP1 DUP2 DUP2 MSTORE PUSH1 0x20 ADD DUP3 DUP1 SLOAD PUSH2 0x52A SWAP1 PUSH2 0x12E6 JUMP JUMPDEST DUP1 ISZERO PUSH2 0x575 JUMPI DUP1 PUSH1 0x1F LT PUSH2 0x54C JUMPI PUSH2 0x100 DUP1 DUP4 SLOAD DIV MUL DUP4 MSTORE SWAP2 PUSH1 0x20 ADD SWAP2 PUSH2 0x575 JUMP JUMPDEST DUP3 ADD SWAP2 SWAP1 PUSH0 MSTORE PUSH1 0x20 PUSH0 KECCAK256 SWAP1 JUMPDEST DUP2 SLOAD DUP2 MSTORE SWAP1 PUSH1 0x1 ADD SWAP1 PUSH1 0x20 ADD DUP1 DUP4 GT PUSH2 0x558 JUMPI DUP3 SWAP1 SUB PUSH1 0x1F AND DUP3 ADD SWAP2 JUMPDEST POP POP POP POP POP SWAP1 POP SWAP1 JUMP JUMPDEST PUSH2 0x587 PUSH2 0x79E JUMP JUMPDEST PUSH2 0x591 DUP3 DUP3 PUSH2 0x9AC JUMP JUMPDEST POP POP JUMP JUMPDEST PUSH0 PUSH2 0x5A0 DUP4 DUP4 PUSH2 0xA2B JUMP JUMPDEST SWAP1 POP SWAP3 SWAP2 POP POP JUMP JUMPDEST PUSH0 PUSH1 0x1 PUSH0 DUP5 PUSH20 0xFFFFFFFFFFFFFFFFFFFFFFFFFFFFFFFFFFFFFFFF AND PUSH20 0xFFFFFFFFFFFFFFFFFFFFFFFFFFFFFFFFFFFFFFFF AND DUP2 MSTORE PUSH1 0x20 ADD SWAP1 DUP2 MSTORE PUSH1 0x20 ADD PUSH0 KECCAK256 PUSH0 DUP4 PUSH20 0xFFFFFFFFFFFFFFFFFFFFFFFFFFFFFFFFFFFFFFFF AND PUSH20 0xFFFFFFFFFFFFFFFFFFFFFFFFFFFFFFFFFFFFFFFF AND DUP2 MSTORE PUSH1 0x20 ADD SWAP1 DUP2 MSTORE PUSH1 0x20 ADD PUSH0 KECCAK256 SLOAD SWAP1 POP SWAP3 SWAP2 POP POP JUMP JUMPDEST PUSH2 0x632 PUSH2 0x79E JUMP JUMPDEST PUSH2 0x63C DUP3 DUP3 PUSH2 0x825 JUMP JUMPDEST DUP1 PUSH1 0x7 PUSH0 DUP5 PUSH20 0xFFFFFFFFFFFFFFFFFFFFFFFFFFFFFFFFFFFFFFFF AND PUSH20 0xFFFFFFFFFFFFFFFFFFFFFFFFFFFFFFFFFFFFFFFF AND DUP2 MSTORE PUSH1 0x20 ADD SWAP1 DUP2 MSTORE PUSH1 0x20 ADD PUSH0 KECCAK256 SLOAD PUSH2 0x685 SWAP2 SWAP1 PUSH2 0x1343 JUMP JUMPDEST PUSH1 0x7 PUSH0 DUP5 PUSH20 0xFFFFFFFFFFFFFFFFFFFFFFFFFFFFFFFFFFFFFFFF AND PUSH20 0xFFFFFFFFFFFFFFFFFFFFFFFFFFFFFFFFFFFFFFFF AND DUP2 MSTORE PUSH1 0x20 ADD SWAP1 DUP2 MSTORE PUSH1 0x20 ADD PUSH0 KECCAK256 DUP2 SWAP1 SSTORE POP POP POP JUMP JUMPDEST PUSH2 0x6D2 PUSH2 0x79E JUMP JUMPDEST PUSH0 PUSH20 0xFFFFFFFFFFFFFFFFFFFFFFFFFFFFFFFFFFFFFFFF AND DUP2 PUSH20 0xFFFFFFFFFFFFFFFFFFFFFFFFFFFFFFFFFFFFFFFF AND SUB PUSH2 0x742 JUMPI PUSH0 PUSH1 0x40 MLOAD PUSH32 0x1E4FBDF700000000000000000000000000000000000000000000000000000000 DUP2 MSTORE PUSH1 0x4 ADD PUSH2 0x739 SWAP2 SWAP1 PUSH2 0x1262 JUMP JUMPDEST PUSH1 0x40 MLOAD DUP1 SWAP2 SUB SWAP1 REVERT JUMPDEST PUSH2 0x74B DUP2 PUSH2 0x8E9 JUMP JUMPDEST POP JUMP JUMPDEST PUSH0 DUP1 PUSH2 0x758 PUSH2 0xA4D JUMP JUMPDEST SWAP1 POP PUSH2 0x765 DUP2 DUP6 DUP6 PUSH2 0xA54 JUMP JUMPDEST PUSH1 0x1 SWAP2 POP POP SWAP3 SWAP2 POP POP JUMP JUMPDEST PUSH0 DUP1 PUSH2 0x77A PUSH2 0xA4D JUMP JUMPDEST SWAP1 POP PUSH2 0x787 DUP6 DUP3 DUP6 PUSH2 0xA66 JUMP JUMPDEST PUSH2 0x792 DUP6 DUP6 DUP6 PUSH2 0xAF8 JUMP JUMPDEST PUSH1 0x1 SWAP2 POP POP SWAP4 SWAP3 POP POP POP JUMP JUMPDEST PUSH2 0x7A6 PUSH2 0xA4D JUMP JUMPDEST PUSH20 0xFFFFFFFFFFFFFFFFFFFFFFFFFFFFFFFFFFFFFFFF AND PUSH2 0x7C4 PUSH2 0x4C7 JUMP JUMPDEST PUSH20 0xFFFFFFFFFFFFFFFFFFFFFFFFFFFFFFFFFFFFFFFF AND EQ PUSH2 0x823 JUMPI PUSH2 0x7E7 PUSH2 0xA4D JUMP JUMPDEST PUSH1 0x40 MLOAD PUSH32 0x118CDAA700000000000000000000000000000000000000000000000000000000 DUP2 MSTORE PUSH1 0x4 ADD PUSH2 0x81A SWAP2 SWAP1 PUSH2 0x1262 JUMP JUMPDEST PUSH1 0x40 MLOAD DUP1 SWAP2 SUB SWAP1 REVERT JUMPDEST JUMP JUMPDEST PUSH0 PUSH20 0xFFFFFFFFFFFFFFFFFFFFFFFFFFFFFFFFFFFFFFFF AND DUP3 PUSH20 0xFFFFFFFFFFFFFFFFFFFFFFFFFFFFFFFFFFFFFFFF AND SUB PUSH2 0x895 JUMPI PUSH0 PUSH1 0x40 MLOAD PUSH32 0xEC442F0500000000000000000000000000000000000000000000000000000000 DUP2 MSTORE PUSH1 0x4 ADD PUSH2 0x88C SWAP2 SWAP1 PUSH2 0x1262 JUMP JUMPDEST PUSH1 0x40 MLOAD DUP1 SWAP2 SUB SWAP1 REVERT JUMPDEST PUSH2 0x8A0 PUSH0 DUP4 DUP4 PUSH2 0xBE8 JUMP JUMPDEST POP POP JUMP JUMPDEST PUSH0 DUP1 PUSH0 DUP4 PUSH20 0xFFFFFFFFFFFFFFFFFFFFFFFFFFFFFFFFFFFFFFFF AND PUSH20 0xFFFFFFFFFFFFFFFFFFFFFFFFFFFFFFFFFFFFFFFF AND DUP2 MSTORE PUSH1 0x20 ADD SWAP1 DUP2 MSTORE PUSH1 0x20 ADD PUSH0 KECCAK256 SLOAD SWAP1 POP SWAP2 SWAP1 POP JUMP JUMPDEST PUSH0 PUSH1 0x5 PUSH0 SWAP1 SLOAD SWAP1 PUSH2 0x100 EXP SWAP1 DIV PUSH20 0xFFFFFFFFFFFFFFFFFFFFFFFFFFFFFFFFFFFFFFFF AND SWAP1 POP DUP2 PUSH1 0x5 PUSH0 PUSH2 0x100 EXP DUP2 SLOAD DUP2 PUSH20 0xFFFFFFFFFFFFFFFFFFFFFFFFFFFFFFFFFFFFFFFF MUL NOT AND SWAP1 DUP4 PUSH20 0xFFFFFFFFFFFFFFFFFFFFFFFFFFFFFFFFFFFFFFFF AND MUL OR SWAP1 SSTORE POP DUP2 PUSH20 0xFFFFFFFFFFFFFFFFFFFFFFFFFFFFFFFFFFFFFFFF AND DUP2 PUSH20 0xFFFFFFFFFFFFFFFFFFFFFFFFFFFFFFFFFFFFFFFF AND PUSH32 0x8BE0079C531659141344CD1FD0A4F28419497F9722A3DAAFE3B4186F6B6457E0 PUSH1 0x40 MLOAD PUSH1 0x40 MLOAD DUP1 SWAP2 SUB SWAP1 LOG3 POP POP JUMP JUMPDEST PUSH0 PUSH20 0xFFFFFFFFFFFFFFFFFFFFFFFFFFFFFFFFFFFFFFFF AND DUP3 PUSH20 0xFFFFFFFFFFFFFFFFFFFFFFFFFFFFFFFFFFFFFFFF AND SUB PUSH2 0xA1C JUMPI PUSH0 PUSH1 0x40 MLOAD PUSH32 0x96C6FD1E00000000000000000000000000000000000000000000000000000000 DUP2 MSTORE PUSH1 0x4 ADD PUSH2 0xA13 SWAP2 SWAP1 PUSH2 0x1262 JUMP JUMPDEST PUSH1 0x40 MLOAD DUP1 SWAP2 SUB SWAP1 REVERT JUMPDEST PUSH2 0xA27 DUP3 PUSH0 DUP4 PUSH2 0xBE8 JUMP JUMPDEST POP POP JUMP JUMPDEST PUSH0 DUP1 PUSH2 0xA35 PUSH2 0xA4D JUMP JUMPDEST SWAP1 POP PUSH2 0xA42 DUP2 DUP6 DUP6 PUSH2 0xAF8 JUMP JUMPDEST PUSH1 0x1 SWAP2 POP POP SWAP3 SWAP2 POP POP JUMP JUMPDEST PUSH0 CALLER SWAP1 POP SWAP1 JUMP JUMPDEST PUSH2 0xA61 DUP4 DUP4 DUP4 PUSH1 0x1 PUSH2 0xE01 JUMP JUMPDEST POP POP POP JUMP JUMPDEST PUSH0 PUSH2 0xA71 DUP5 DUP5 PUSH2 0x5A8 JUMP JUMPDEST SWAP1 POP PUSH32 0xFFFFFFFFFFFFFFFFFFFFFFFFFFFFFFFFFFFFFFFFFFFFFFFFFFFFFFFFFFFFFFFF DUP2 EQ PUSH2 0xAF2 JUMPI DUP2 DUP2 LT ISZERO PUSH2 0xAE3 JUMPI DUP3 DUP2 DUP4 PUSH1 0x40 MLOAD PUSH32 0xFB8F41B200000000000000000000000000000000000000000000000000000000 DUP2 MSTORE PUSH1 0x4 ADD PUSH2 0xADA SWAP4 SWAP3 SWAP2 SWAP1 PUSH2 0x1376 JUMP JUMPDEST PUSH1 0x40 MLOAD DUP1 SWAP2 SUB SWAP1 REVERT JUMPDEST PUSH2 0xAF1 DUP5 DUP5 DUP5 DUP5 SUB PUSH0 PUSH2 0xE01 JUMP JUMPDEST JUMPDEST POP POP POP POP JUMP JUMPDEST PUSH0 PUSH20 0xFFFFFFFFFFFFFFFFFFFFFFFFFFFFFFFFFFFFFFFF AND DUP4 PUSH20 0xFFFFFFFFFFFFFFFFFFFFFFFFFFFFFFFFFFFFFFFF AND SUB PUSH2 0xB68 JUMPI PUSH0 PUSH1 0x40 MLOAD PUSH32 0x96C6FD1E00000000000000000000000000000000000000000000000000000000 DUP2 MSTORE PUSH1 0x4 ADD PUSH2 0xB5F SWAP2 SWAP1 PUSH2 0x1262 JUMP JUMPDEST PUSH1 0x40 MLOAD DUP1 SWAP2 SUB SWAP1 REVERT JUMPDEST PUSH0 PUSH20 0xFFFFFFFFFFFFFFFFFFFFFFFFFFFFFFFFFFFFFFFF AND DUP3 PUSH20 0xFFFFFFFFFFFFFFFFFFFFFFFFFFFFFFFFFFFFFFFF AND SUB PUSH2 0xBD8 JUMPI PUSH0 PUSH1 0x40 MLOAD PUSH32 0xEC442F0500000000000000000000000000000000000000000000000000000000 DUP2 MSTORE PUSH1 0x4 ADD PUSH2 0xBCF SWAP2 SWAP1 PUSH2 0x1262 JUMP JUMPDEST PUSH1 0x40 MLOAD DUP1 SWAP2 SUB SWAP1 REVERT JUMPDEST PUSH2 0xBE3 DUP4 DUP4 DUP4 PUSH2 0xBE8 JUMP JUMPDEST POP POP POP JUMP JUMPDEST PUSH0 PUSH20 0xFFFFFFFFFFFFFFFFFFFFFFFFFFFFFFFFFFFFFFFF AND DUP4 PUSH20 0xFFFFFFFFFFFFFFFFFFFFFFFFFFFFFFFFFFFFFFFF AND SUB PUSH2 0xC38 JUMPI DUP1 PUSH1 0x2 PUSH0 DUP3 DUP3 SLOAD PUSH2 0xC2C SWAP2 SWAP1 PUSH2 0x1343 JUMP JUMPDEST SWAP3 POP POP DUP2 SWAP1 SSTORE POP PUSH2 0xD06 JUMP JUMPDEST PUSH0 DUP1 PUSH0 DUP6 PUSH20 0xFFFFFFFFFFFFFFFFFFFFFFFFFFFFFFFFFFFFFFFF AND PUSH20 0xFFFFFFFFFFFFFFFFFFFFFFFFFFFFFFFFFFFFFFFF AND DUP2 MSTORE PUSH1 0x20 ADD SWAP1 DUP2 MSTORE PUSH1 0x20 ADD PUSH0 KECCAK256 SLOAD SWAP1 POP DUP2 DUP2 LT ISZERO PUSH2 0xCC1 JUMPI DUP4 DUP2 DUP4 PUSH1 0x40 MLOAD PUSH32 0xE450D38C00000000000000000000000000000000000000000000000000000000 DUP2 MSTORE PUSH1 0x4 ADD PUSH2 0xCB8 SWAP4 SWAP3 SWAP2 SWAP1 PUSH2 0x1376 JUMP JUMPDEST PUSH1 0x40 MLOAD DUP1 SWAP2 SUB SWAP1 REVERT JUMPDEST DUP2 DUP2 SUB PUSH0 DUP1 DUP7 PUSH20 0xFFFFFFFFFFFFFFFFFFFFFFFFFFFFFFFFFFFFFFFF AND PUSH20 0xFFFFFFFFFFFFFFFFFFFFFFFFFFFFFFFFFFFFFFFF AND DUP2 MSTORE PUSH1 0x20 ADD SWAP1 DUP2 MSTORE PUSH1 0x20 ADD PUSH0 KECCAK256 DUP2 SWAP1 SSTORE POP POP JUMPDEST PUSH0 PUSH20 0xFFFFFFFFFFFFFFFFFFFFFFFFFFFFFFFFFFFFFFFF AND DUP3 PUSH20 0xFFFFFFFFFFFFFFFFFFFFFFFFFFFFFFFFFFFFFFFF AND SUB PUSH2 0xD4D JUMPI DUP1 PUSH1 0x2 PUSH0 DUP3 DUP3 SLOAD SUB SWAP3 POP POP DUP2 SWAP1 SSTORE POP PUSH2 0xD97 JUMP JUMPDEST DUP1 PUSH0 DUP1 DUP5 PUSH20 0xFFFFFFFFFFFFFFFFFFFFFFFFFFFFFFFFFFFFFFFF AND PUSH20 0xFFFFFFFFFFFFFFFFFFFFFFFFFFFFFFFFFFFFFFFF AND DUP2 MSTORE PUSH1 0x20 ADD SWAP1 DUP2 MSTORE PUSH1 0x20 ADD PUSH0 KECCAK256 PUSH0 DUP3 DUP3 SLOAD ADD SWAP3 POP POP DUP2 SWAP1 SSTORE POP JUMPDEST DUP2 PUSH20 0xFFFFFFFFFFFFFFFFFFFFFFFFFFFFFFFFFFFFFFFF AND DUP4 PUSH20 0xFFFFFFFFFFFFFFFFFFFFFFFFFFFFFFFFFFFFFFFF AND PUSH32 0xDDF252AD1BE2C89B69C2B068FC378DAA952BA7F163C4A11628F55A4DF523B3EF DUP4 PUSH1 0x40 MLOAD PUSH2 0xDF4 SWAP2 SWAP1 PUSH2 0x111B JUMP JUMPDEST PUSH1 0x40 MLOAD DUP1 SWAP2 SUB SWAP1 LOG3 POP POP POP JUMP JUMPDEST PUSH0 PUSH20 0xFFFFFFFFFFFFFFFFFFFFFFFFFFFFFFFFFFFFFFFF AND DUP5 PUSH20 0xFFFFFFFFFFFFFFFFFFFFFFFFFFFFFFFFFFFFFFFF AND SUB PUSH2 0xE71 JUMPI PUSH0 PUSH1 0x40 MLOAD PUSH32 0xE602DF0500000000000000000000000000000000000000000000000000000000 DUP2 MSTORE PUSH1 0x4 ADD PUSH2 0xE68 SWAP2 SWAP1 PUSH2 0x1262 JUMP JUMPDEST PUSH1 0x40 MLOAD DUP1 SWAP2 SUB SWAP1 REVERT JUMPDEST PUSH0 PUSH20 0xFFFFFFFFFFFFFFFFFFFFFFFFFFFFFFFFFFFFFFFF AND DUP4 PUSH20 0xFFFFFFFFFFFFFFFFFFFFFFFFFFFFFFFFFFFFFFFF AND SUB PUSH2 0xEE1 JUMPI PUSH0 PUSH1 0x40 MLOAD PUSH32 0x94280D6200000000000000000000000000000000000000000000000000000000 DUP2 MSTORE PUSH1 0x4 ADD PUSH2 0xED8 SWAP2 SWAP1 PUSH2 0x1262 JUMP JUMPDEST PUSH1 0x40 MLOAD DUP1 SWAP2 SUB SWAP1 REVERT JUMPDEST DUP2 PUSH1 0x1 PUSH0 DUP7 PUSH20 0xFFFFFFFFFFFFFFFFFFFFFFFFFFFFFFFFFFFFFFFF AND PUSH20 0xFFFFFFFFFFFFFFFFFFFFFFFFFFFFFFFFFFFFFFFF AND DUP2 MSTORE PUSH1 0x20 ADD SWAP1 DUP2 MSTORE PUSH1 0x20 ADD PUSH0 KECCAK256 PUSH0 DUP6 PUSH20 0xFFFFFFFFFFFFFFFFFFFFFFFFFFFFFFFFFFFFFFFF AND PUSH20 0xFFFFFFFFFFFFFFFFFFFFFFFFFFFFFFFFFFFFFFFF AND DUP2 MSTORE PUSH1 0x20 ADD SWAP1 DUP2 MSTORE PUSH1 0x20 ADD PUSH0 KECCAK256 DUP2 SWAP1 SSTORE POP DUP1 ISZERO PUSH2 0xFCA JUMPI DUP3 PUSH20 0xFFFFFFFFFFFFFFFFFFFFFFFFFFFFFFFFFFFFFFFF AND DUP5 PUSH20 0xFFFFFFFFFFFFFFFFFFFFFFFFFFFFFFFFFFFFFFFF AND PUSH32 0x8C5BE1E5EBEC7D5BD14F71427D1E84F3DD0314C0F7B2291E5B200AC8C7C3B925 DUP5 PUSH1 0x40 MLOAD PUSH2 0xFC1 SWAP2 SWAP1 PUSH2 0x111B JUMP JUMPDEST PUSH1 0x40 MLOAD DUP1 SWAP2 SUB SWAP1 LOG3 JUMPDEST POP POP POP POP JUMP JUMPDEST PUSH0 DUP2 MLOAD SWAP1 POP SWAP2 SWAP1 POP JUMP JUMPDEST PUSH0 DUP3 DUP3 MSTORE PUSH1 0x20 DUP3 ADD SWAP1 POP SWAP3 SWAP2 POP POP JUMP JUMPDEST PUSH0 JUMPDEST DUP4 DUP2 LT ISZERO PUSH2 0x1007 JUMPI DUP1 DUP3 ADD MLOAD DUP2 DUP5 ADD MSTORE PUSH1 0x20 DUP2 ADD SWAP1 POP PUSH2 0xFEC JUMP JUMPDEST PUSH0 DUP5 DUP5 ADD MSTORE POP POP POP POP JUMP JUMPDEST PUSH0 PUSH1 0x1F NOT PUSH1 0x1F DUP4 ADD AND SWAP1 POP SWAP2 SWAP1 POP JUMP JUMPDEST PUSH0 PUSH2 0x102C DUP3 PUSH2 0xFD0 JUMP JUMPDEST PUSH2 0x1036 DUP2 DUP6 PUSH2 0xFDA JUMP JUMPDEST SWAP4 POP PUSH2 0x1046 DUP2 DUP6 PUSH1 0x20 DUP7 ADD PUSH2 0xFEA JUMP JUMPDEST PUSH2 0x104F DUP2 PUSH2 0x1012 JUMP JUMPDEST DUP5 ADD SWAP2 POP POP SWAP3 SWAP2 POP POP JUMP JUMPDEST PUSH0 PUSH1 0x20 DUP3 ADD SWAP1 POP DUP2 DUP2 SUB PUSH0 DUP4 ADD MSTORE PUSH2 0x1072 DUP2 DUP5 PUSH2 0x1022 JUMP JUMPDEST SWAP1 POP SWAP3 SWAP2 POP POP JUMP JUMPDEST PUSH0 DUP1 REVERT JUMPDEST PUSH0 PUSH20 0xFFFFFFFFFFFFFFFFFFFFFFFFFFFFFFFFFFFFFFFF DUP3 AND SWAP1 POP SWAP2 SWAP1 POP JUMP JUMPDEST PUSH0 PUSH2 0x10A7 DUP3 PUSH2 0x107E JUMP JUMPDEST SWAP1 POP SWAP2 SWAP1 POP JUMP JUMPDEST PUSH2 0x10B7 DUP2 PUSH2 0x109D JUMP JUMPDEST DUP2 EQ PUSH2 0x10C1 JUMPI PUSH0 DUP1 REVERT JUMPDEST POP JUMP JUMPDEST PUSH0 DUP2 CALLDATALOAD SWAP1 POP PUSH2 0x10D2 DUP2 PUSH2 0x10AE JUMP JUMPDEST SWAP3 SWAP2 POP POP JUMP JUMPDEST PUSH0 PUSH1 0x20 DUP3 DUP5 SUB SLT ISZERO PUSH2 0x10ED JUMPI PUSH2 0x10EC PUSH2 0x107A JUMP JUMPDEST JUMPDEST PUSH0 PUSH2 0x10FA DUP5 DUP3 DUP6 ADD PUSH2 0x10C4 JUMP JUMPDEST SWAP2 POP POP SWAP3 SWAP2 POP POP JUMP JUMPDEST PUSH0 DUP2 SWAP1 POP SWAP2 SWAP1 POP JUMP JUMPDEST PUSH2 0x1115 DUP2 PUSH2 0x1103 JUMP JUMPDEST DUP3 MSTORE POP POP JUMP JUMPDEST PUSH0 PUSH1 0x20 DUP3 ADD SWAP1 POP PUSH2 0x112E PUSH0 DUP4 ADD DUP5 PUSH2 0x110C JUMP JUMPDEST SWAP3 SWAP2 POP POP JUMP JUMPDEST PUSH2 0x113D DUP2 PUSH2 0x1103 JUMP JUMPDEST DUP2 EQ PUSH2 0x1147 JUMPI PUSH0 DUP1 REVERT JUMPDEST POP JUMP JUMPDEST PUSH0 DUP2 CALLDATALOAD SWAP1 POP PUSH2 0x1158 DUP2 PUSH2 0x1134 JUMP JUMPDEST SWAP3 SWAP2 POP POP JUMP JUMPDEST PUSH0 DUP1 PUSH1 0x40 DUP4 DUP6 SUB SLT ISZERO PUSH2 0x1174 JUMPI PUSH2 0x1173 PUSH2 0x107A JUMP JUMPDEST JUMPDEST PUSH0 PUSH2 0x1181 DUP6 DUP3 DUP7 ADD PUSH2 0x10C4 JUMP JUMPDEST SWAP3 POP POP PUSH1 0x20 PUSH2 0x1192 DUP6 DUP3 DUP7 ADD PUSH2 0x114A JUMP JUMPDEST SWAP2 POP POP SWAP3 POP SWAP3 SWAP1 POP JUMP JUMPDEST PUSH0 DUP2 ISZERO ISZERO SWAP1 POP SWAP2 SWAP1 POP JUMP JUMPDEST PUSH2 0x11B0 DUP2 PUSH2 0x119C JUMP JUMPDEST DUP3 MSTORE POP POP JUMP JUMPDEST PUSH0 PUSH1 0x20 DUP3 ADD SWAP1 POP PUSH2 0x11C9 PUSH0 DUP4 ADD DUP5 PUSH2 0x11A7 JUMP JUMPDEST SWAP3 SWAP2 POP POP JUMP JUMPDEST PUSH0 DUP1 PUSH0 PUSH1 0x60 DUP5 DUP7 SUB SLT ISZERO PUSH2 0x11E6 JUMPI PUSH2 0x11E5 PUSH2 0x107A JUMP JUMPDEST JUMPDEST PUSH0 PUSH2 0x11F3 DUP7 DUP3 DUP8 ADD PUSH2 0x10C4 JUMP JUMPDEST SWAP4 POP POP PUSH1 0x20 PUSH2 0x1204 DUP7 DUP3 DUP8 ADD PUSH2 0x10C4 JUMP JUMPDEST SWAP3 POP POP PUSH1 0x40 PUSH2 0x1215 DUP7 DUP3 DUP8 ADD PUSH2 0x114A JUMP JUMPDEST SWAP2 POP POP SWAP3 POP SWAP3 POP SWAP3 JUMP JUMPDEST PUSH0 PUSH1 0xFF DUP3 AND SWAP1 POP SWAP2 SWAP1 POP JUMP JUMPDEST PUSH2 0x1234 DUP2 PUSH2 0x121F JUMP JUMPDEST DUP3 MSTORE POP POP JUMP JUMPDEST PUSH0 PUSH1 0x20 DUP3 ADD SWAP1 POP PUSH2 0x124D PUSH0 DUP4 ADD DUP5 PUSH2 0x122B JUMP JUMPDEST SWAP3 SWAP2 POP POP JUMP JUMPDEST PUSH2 0x125C DUP2 PUSH2 0x109D JUMP JUMPDEST DUP3 MSTORE POP POP JUMP JUMPDEST PUSH0 PUSH1 0x20 DUP3 ADD SWAP1 POP PUSH2 0x1275 PUSH0 DUP4 ADD DUP5 PUSH2 0x1253 JUMP JUMPDEST SWAP3 SWAP2 POP POP JUMP JUMPDEST PUSH0 DUP1 PUSH1 0x40 DUP4 DUP6 SUB SLT ISZERO PUSH2 0x1291 JUMPI PUSH2 0x1290 PUSH2 0x107A JUMP JUMPDEST JUMPDEST PUSH0 PUSH2 0x129E DUP6 DUP3 DUP7 ADD PUSH2 0x10C4 JUMP JUMPDEST SWAP3 POP POP PUSH1 0x20 PUSH2 0x12AF DUP6 DUP3 DUP7 ADD PUSH2 0x10C4 JUMP JUMPDEST SWAP2 POP POP SWAP3 POP SWAP3 SWAP1 POP JUMP JUMPDEST PUSH32 0x4E487B7100000000000000000000000000000000000000000000000000000000 PUSH0 MSTORE PUSH1 0x22 PUSH1 0x4 MSTORE PUSH1 0x24 PUSH0 REVERT JUMPDEST PUSH0 PUSH1 0x2 DUP3 DIV SWAP1 POP PUSH1 0x1 DUP3 AND DUP1 PUSH2 0x12FD JUMPI PUSH1 0x7F DUP3 AND SWAP2 POP JUMPDEST PUSH1 0x20 DUP3 LT DUP2 SUB PUSH2 0x1310 JUMPI PUSH2 0x130F PUSH2 0x12B9 JUMP JUMPDEST JUMPDEST POP SWAP2 SWAP1 POP JUMP JUMPDEST PUSH32 0x4E487B7100000000000000000000000000000000000000000000000000000000 PUSH0 MSTORE PUSH1 0x11 PUSH1 0x4 MSTORE PUSH1 0x24 PUSH0 REVERT JUMPDEST PUSH0 PUSH2 0x134D DUP3 PUSH2 0x1103 JUMP JUMPDEST SWAP2 POP PUSH2 0x1358 DUP4 PUSH2 0x1103 JUMP JUMPDEST SWAP3 POP DUP3 DUP3 ADD SWAP1 POP DUP1 DUP3 GT ISZERO PUSH2 0x1370 JUMPI PUSH2 0x136F PUSH2 0x1316 JUMP JUMPDEST JUMPDEST SWAP3 SWAP2 POP POP JUMP JUMPDEST PUSH0 PUSH1 0x60 DUP3 ADD SWAP1 POP PUSH2 0x1389 PUSH0 DUP4 ADD DUP7 PUSH2 0x1253 JUMP JUMPDEST PUSH2 0x1396 PUSH1 0x20 DUP4 ADD DUP6 PUSH2 0x110C JUMP JUMPDEST PUSH2 0x13A3 PUSH1 0x40 DUP4 ADD DUP5 PUSH2 0x110C JUMP JUMPDEST SWAP5 SWAP4 POP POP POP POP JUMP INVALID LOG2 PUSH5 0x6970667358 0x22 SLT KECCAK256 0xE6 SMOD PUSH24 0x5E84C94630F95198C2B351F27BABA26C68422D2B3367CF3D ADDMOD CALLVALUE SWAP12 SWAP9 0xAE PUSH5 0x736F6C6343 STOP ADDMOD XOR STOP CALLER "
		},
		"gasEstimates": {
			"creation": {
				"codeDepositCost": "1017800",
				"executionCost": "infinite",
				"totalCost": "infinite"
			},
			"external": {
				"allowance(address,address)": "infinite",
				"approve(address,uint256)": "infinite",
				"balanceOf(address)": "2894",
				"burn(address,uint256)": "infinite",
				"decimals()": "383",
				"initialSupply()": "2492",
				"mint(address,uint256)": "infinite",
				"name()": "infinite",
				"owner()": "2582",
				"renounceOwnership()": "infinite",
				"rewardUser(address,uint256)": "infinite",
				"rewards(address)": "2848",
				"symbol()": "infinite",
				"totalSupply()": "2522",
				"transfer(address,uint256)": "infinite",
				"transferFrom(address,address,uint256)": "infinite",
				"transferOwnership(address)": "infinite"
			}
		},
		"methodIdentifiers": {
			"allowance(address,address)": "dd62ed3e",
			"approve(address,uint256)": "095ea7b3",
			"balanceOf(address)": "70a08231",
			"burn(address,uint256)": "9dc29fac",
			"decimals()": "313ce567",
			"initialSupply()": "378dc3dc",
			"mint(address,uint256)": "40c10f19",
			"name()": "06fdde03",
			"owner()": "8da5cb5b",
			"renounceOwnership()": "715018a6",
			"rewardUser(address,uint256)": "e4e103dc",
			"rewards(address)": "0700037d",
			"symbol()": "95d89b41",
			"totalSupply()": "18160ddd",
			"transfer(address,uint256)": "a9059cbb",
			"transferFrom(address,address,uint256)": "23b872dd",
			"transferOwnership(address)": "f2fde38b"
		}
	},
	"abi": [
		{
			"inputs": [
				{
					"internalType": "address",
					"name": "initialOwner",
					"type": "address"
				}
			],
			"stateMutability": "nonpayable",
			"type": "constructor"
		},
		{
			"inputs": [
				{
					"internalType": "address",
					"name": "spender",
					"type": "address"
				},
				{
					"internalType": "uint256",
					"name": "allowance",
					"type": "uint256"
				},
				{
					"internalType": "uint256",
					"name": "needed",
					"type": "uint256"
				}
			],
			"name": "ERC20InsufficientAllowance",
			"type": "error"
		},
		{
			"inputs": [
				{
					"internalType": "address",
					"name": "sender",
					"type": "address"
				},
				{
					"internalType": "uint256",
					"name": "balance",
					"type": "uint256"
				},
				{
					"internalType": "uint256",
					"name": "needed",
					"type": "uint256"
				}
			],
			"name": "ERC20InsufficientBalance",
			"type": "error"
		},
		{
			"inputs": [
				{
					"internalType": "address",
					"name": "approver",
					"type": "address"
				}
			],
			"name": "ERC20InvalidApprover",
			"type": "error"
		},
		{
			"inputs": [
				{
					"internalType": "address",
					"name": "receiver",
					"type": "address"
				}
			],
			"name": "ERC20InvalidReceiver",
			"type": "error"
		},
		{
			"inputs": [
				{
					"internalType": "address",
					"name": "sender",
					"type": "address"
				}
			],
			"name": "ERC20InvalidSender",
			"type": "error"
		},
		{
			"inputs": [
				{
					"internalType": "address",
					"name": "spender",
					"type": "address"
				}
			],
			"name": "ERC20InvalidSpender",
			"type": "error"
		},
		{
			"inputs": [
				{
					"internalType": "address",
					"name": "owner",
					"type": "address"
				}
			],
			"name": "OwnableInvalidOwner",
			"type": "error"
		},
		{
			"inputs": [
				{
					"internalType": "address",
					"name": "account",
					"type": "address"
				}
			],
			"name": "OwnableUnauthorizedAccount",
			"type": "error"
		},
		{
			"anonymous": false,
			"inputs": [
				{
					"indexed": true,
					"internalType": "address",
					"name": "owner",
					"type": "address"
				},
				{
					"indexed": true,
					"internalType": "address",
					"name": "spender",
					"type": "address"
				},
				{
					"indexed": false,
					"internalType": "uint256",
					"name": "value",
					"type": "uint256"
				}
			],
			"name": "Approval",
			"type": "event"
		},
		{
			"anonymous": false,
			"inputs": [
				{
					"indexed": true,
					"internalType": "address",
					"name": "previousOwner",
					"type": "address"
				},
				{
					"indexed": true,
					"internalType": "address",
					"name": "newOwner",
					"type": "address"
				}
			],
			"name": "OwnershipTransferred",
			"type": "event"
		},
		{
			"anonymous": false,
			"inputs": [
				{
					"indexed": true,
					"internalType": "address",
					"name": "to",
					"type": "address"
				},
				{
					"indexed": false,
					"internalType": "uint256",
					"name": "amount",
					"type": "uint256"
				}
			],
			"name": "TokensMinted",
			"type": "event"
		},
		{
			"anonymous": false,
			"inputs": [
				{
					"indexed": true,
					"internalType": "address",
					"name": "from",
					"type": "address"
				},
				{
					"indexed": true,
					"internalType": "address",
					"name": "to",
					"type": "address"
				},
				{
					"indexed": false,
					"internalType": "uint256",
					"name": "value",
					"type": "uint256"
				}
			],
			"name": "Transfer",
			"type": "event"
		},
		{
			"inputs": [
				{
					"internalType": "address",
					"name": "owner",
					"type": "address"
				},
				{
					"internalType": "address",
					"name": "spender",
					"type": "address"
				}
			],
			"name": "allowance",
			"outputs": [
				{
					"internalType": "uint256",
					"name": "",
					"type": "uint256"
				}
			],
			"stateMutability": "view",
			"type": "function"
		},
		{
			"inputs": [
				{
					"internalType": "address",
					"name": "spender",
					"type": "address"
				},
				{
					"internalType": "uint256",
					"name": "amount",
					"type": "uint256"
				}
			],
			"name": "approve",
			"outputs": [
				{
					"internalType": "bool",
					"name": "",
					"type": "bool"
				}
			],
			"stateMutability": "nonpayable",
			"type": "function"
		},
		{
			"inputs": [
				{
					"internalType": "address",
					"name": "account",
					"type": "address"
				}
			],
			"name": "balanceOf",
			"outputs": [
				{
					"internalType": "uint256",
					"name": "",
					"type": "uint256"
				}
			],
			"stateMutability": "view",
			"type": "function"
		},
		{
			"inputs": [
				{
					"internalType": "address",
					"name": "from",
					"type": "address"
				},
				{
					"internalType": "uint256",
					"name": "amount",
					"type": "uint256"
				}
			],
			"name": "burn",
			"outputs": [],
			"stateMutability": "nonpayable",
			"type": "function"
		},
		{
			"inputs": [],
			"name": "decimals",
			"outputs": [
				{
					"internalType": "uint8",
					"name": "",
					"type": "uint8"
				}
			],
			"stateMutability": "view",
			"type": "function"
		},
		{
			"inputs": [],
			"name": "initialSupply",
			"outputs": [
				{
					"internalType": "uint256",
					"name": "",
					"type": "uint256"
				}
			],
			"stateMutability": "view",
			"type": "function"
		},
		{
			"inputs": [
				{
					"internalType": "address",
					"name": "to",
					"type": "address"
				},
				{
					"internalType": "uint256",
					"name": "amount",
					"type": "uint256"
				}
			],
			"name": "mint",
			"outputs": [],
			"stateMutability": "nonpayable",
			"type": "function"
		},
		{
			"inputs": [],
			"name": "name",
			"outputs": [
				{
					"internalType": "string",
					"name": "",
					"type": "string"
				}
			],
			"stateMutability": "view",
			"type": "function"
		},
		{
			"inputs": [],
			"name": "owner",
			"outputs": [
				{
					"internalType": "address",
					"name": "",
					"type": "address"
				}
			],
			"stateMutability": "view",
			"type": "function"
		},
		{
			"inputs": [],
			"name": "renounceOwnership",
			"outputs": [],
			"stateMutability": "nonpayable",
			"type": "function"
		},
		{
			"inputs": [
				{
					"internalType": "address",
					"name": "user",
					"type": "address"
				},
				{
					"internalType": "uint256",
					"name": "amount",
					"type": "uint256"
				}
			],
			"name": "rewardUser",
			"outputs": [],
			"stateMutability": "nonpayable",
			"type": "function"
		},
		{
			"inputs": [
				{
					"internalType": "address",
					"name": "",
					"type": "address"
				}
			],
			"name": "rewards",
			"outputs": [
				{
					"internalType": "uint256",
					"name": "",
					"type": "uint256"
				}
			],
			"stateMutability": "view",
			"type": "function"
		},
		{
			"inputs": [],
			"name": "symbol",
			"outputs": [
				{
					"internalType": "string",
					"name": "",
					"type": "string"
				}
			],
			"stateMutability": "view",
			"type": "function"
		},
		{
			"inputs": [],
			"name": "totalSupply",
			"outputs": [
				{
					"internalType": "uint256",
					"name": "",
					"type": "uint256"
				}
			],
			"stateMutability": "view",
			"type": "function"
		},
		{
			"inputs": [
				{
					"internalType": "address",
					"name": "to",
					"type": "address"
				},
				{
					"internalType": "uint256",
					"name": "amount",
					"type": "uint256"
				}
			],
			"name": "transfer",
			"outputs": [
				{
					"internalType": "bool",
					"name": "",
					"type": "bool"
				}
			],
			"stateMutability": "nonpayable",
			"type": "function"
		},
		{
			"inputs": [
				{
					"internalType": "address",
					"name": "from",
					"type": "address"
				},
				{
					"internalType": "address",
					"name": "to",
					"type": "address"
				},
				{
					"internalType": "uint256",
					"name": "amount",
					"type": "uint256"
				}
			],
			"name": "transferFrom",
			"outputs": [
				{
					"internalType": "bool",
					"name": "",
					"type": "bool"
				}
			],
			"stateMutability": "nonpayable",
			"type": "function"
		},
		{
			"inputs": [
				{
					"internalType": "address",
					"name": "newOwner",
					"type": "address"
				}
			],
			"name": "transferOwnership",
			"outputs": [],
			"stateMutability": "nonpayable",
			"type": "function"
		}
	]
}